{
	"contracts/SomniaConsensusDAO.sol": {
		"SomniaConsensusDAO": {
			"abi": [
				{
					"inputs": [
						{
							"internalType": "address[]",
							"name": "_owners",
							"type": "address[]"
						},
						{
							"internalType": "uint256",
							"name": "grace_period_to_hours",
							"type": "uint256"
						},
						{
							"internalType": "uint8",
							"name": "_confirmationsRequired",
							"type": "uint8"
						}
					],
					"stateMutability": "nonpayable",
					"type": "constructor"
				},
				{
					"anonymous": false,
					"inputs": [
						{
							"indexed": false,
							"internalType": "uint256",
							"name": "blockNumber",
							"type": "uint256"
						},
						{
							"indexed": false,
							"internalType": "uint8",
							"name": "minConfirm",
							"type": "uint8"
						}
					],
					"name": "assignRequired",
					"type": "event"
				},
				{
					"anonymous": false,
					"inputs": [
						{
							"indexed": false,
							"internalType": "bytes32",
							"name": "txId",
							"type": "bytes32"
						}
					],
					"name": "discard",
					"type": "event"
				},
				{
					"anonymous": false,
					"inputs": [
						{
							"indexed": false,
							"internalType": "address",
							"name": "sender",
							"type": "address"
						},
						{
							"indexed": false,
							"internalType": "bytes32",
							"name": "txId",
							"type": "bytes32"
						},
						{
							"indexed": false,
							"internalType": "uint256",
							"name": "timestamp",
							"type": "uint256"
						},
						{
							"indexed": false,
							"internalType": "address",
							"name": "to",
							"type": "address"
						},
						{
							"indexed": false,
							"internalType": "string",
							"name": "func",
							"type": "string"
						}
					],
					"name": "executTx",
					"type": "event"
				},
				{
					"anonymous": false,
					"inputs": [
						{
							"indexed": false,
							"internalType": "address",
							"name": "sender",
							"type": "address"
						},
						{
							"indexed": false,
							"internalType": "address",
							"name": "to",
							"type": "address"
						},
						{
							"indexed": false,
							"internalType": "string",
							"name": "func",
							"type": "string"
						},
						{
							"indexed": false,
							"internalType": "bytes",
							"name": "data",
							"type": "bytes"
						},
						{
							"indexed": false,
							"internalType": "uint256",
							"name": "timestamp",
							"type": "uint256"
						},
						{
							"indexed": false,
							"internalType": "bytes32",
							"name": "txId",
							"type": "bytes32"
						}
					],
					"name": "queueTx",
					"type": "event"
				},
				{
					"inputs": [
						{
							"internalType": "string",
							"name": "_func",
							"type": "string"
						},
						{
							"internalType": "address",
							"name": "_to",
							"type": "address"
						},
						{
							"internalType": "bytes",
							"name": "_data",
							"type": "bytes"
						}
					],
					"name": "addExecProposal",
					"outputs": [
						{
							"internalType": "bytes32",
							"name": "_txId",
							"type": "bytes32"
						}
					],
					"stateMutability": "nonpayable",
					"type": "function"
				},
				{
					"inputs": [
						{
							"internalType": "address",
							"name": "newOwner",
							"type": "address"
						}
					],
					"name": "addOwner",
					"outputs": [],
					"stateMutability": "nonpayable",
					"type": "function"
				},
				{
					"inputs": [
						{
							"internalType": "uint8",
							"name": "_confReq",
							"type": "uint8"
						}
					],
					"name": "assignRequiredConf",
					"outputs": [],
					"stateMutability": "nonpayable",
					"type": "function"
				},
				{
					"inputs": [
						{
							"internalType": "bytes32",
							"name": "_txId",
							"type": "bytes32"
						}
					],
					"name": "cancelConfirmation",
					"outputs": [],
					"stateMutability": "nonpayable",
					"type": "function"
				},
				{
					"inputs": [
						{
							"internalType": "bytes32",
							"name": "_txId",
							"type": "bytes32"
						}
					],
					"name": "confirm",
					"outputs": [],
					"stateMutability": "nonpayable",
					"type": "function"
				},
				{
					"inputs": [
						{
							"internalType": "bytes32",
							"name": "",
							"type": "bytes32"
						},
						{
							"internalType": "address",
							"name": "",
							"type": "address"
						}
					],
					"name": "confirmations",
					"outputs": [
						{
							"internalType": "bool",
							"name": "",
							"type": "bool"
						}
					],
					"stateMutability": "view",
					"type": "function"
				},
				{
					"inputs": [
						{
							"internalType": "uint256",
							"name": "indexOwner",
							"type": "uint256"
						}
					],
					"name": "delOwner",
					"outputs": [],
					"stateMutability": "nonpayable",
					"type": "function"
				},
				{
					"inputs": [
						{
							"internalType": "bytes32",
							"name": "",
							"type": "bytes32"
						}
					],
					"name": "eps",
					"outputs": [
						{
							"internalType": "bytes32",
							"name": "uid",
							"type": "bytes32"
						},
						{
							"internalType": "address",
							"name": "to",
							"type": "address"
						},
						{
							"internalType": "string",
							"name": "func",
							"type": "string"
						},
						{
							"internalType": "bytes",
							"name": "data",
							"type": "bytes"
						},
						{
							"internalType": "uint256",
							"name": "timestamp",
							"type": "uint256"
						},
						{
							"internalType": "uint256",
							"name": "confirmations",
							"type": "uint256"
						}
					],
					"stateMutability": "view",
					"type": "function"
				},
				{
					"inputs": [
						{
							"internalType": "uint256",
							"name": "",
							"type": "uint256"
						}
					],
					"name": "owners",
					"outputs": [
						{
							"internalType": "address",
							"name": "",
							"type": "address"
						}
					],
					"stateMutability": "view",
					"type": "function"
				},
				{
					"inputs": [],
					"name": "seeMinCofReq",
					"outputs": [
						{
							"internalType": "uint256",
							"name": "",
							"type": "uint256"
						}
					],
					"stateMutability": "view",
					"type": "function"
				},
				{
					"inputs": [],
					"name": "seeOwners",
					"outputs": [
						{
							"internalType": "address[]",
							"name": "",
							"type": "address[]"
						}
					],
					"stateMutability": "view",
					"type": "function"
				}
			],
			"devdoc": {
				"kind": "dev",
				"methods": {},
				"version": 1
			},
			"evm": {
				"assembly": "    /* \"contracts/SomniaConsensusDAO.sol\":57:6629  contract SomniaConsensusDAO {... */\n  mstore(0x40, 0xa0)\n    /* \"contracts/SomniaConsensusDAO.sol\":788:1311  constructor(address[] memory _owners, uint grace_period_to_hours, uint8 _confirmationsRequired){... */\n  callvalue\n  dup1\n  iszero\n  tag_1\n  jumpi\n  revert(0x00, 0x00)\ntag_1:\n  pop\n  mload(0x40)\n  sub(codesize, bytecodeSize)\n  dup1\n  bytecodeSize\n  dup4\n  codecopy\n  dup2\n  dup2\n  add\n  0x40\n  mstore\n  dup2\n  add\n  swap1\n  tag_2\n  swap2\n  swap1\n  tag_3\n  jump\t// in\ntag_2:\n    /* \"contracts/SomniaConsensusDAO.sol\":919:941  _confirmationsRequired */\n  dup1\n    /* \"contracts/SomniaConsensusDAO.sol\":901:941  _owners.length >= _confirmationsRequired */\n  0xff\n  and\n    /* \"contracts/SomniaConsensusDAO.sol\":901:908  _owners */\n  dup4\n    /* \"contracts/SomniaConsensusDAO.sol\":901:915  _owners.length */\n  mload\n    /* \"contracts/SomniaConsensusDAO.sol\":901:941  _owners.length >= _confirmationsRequired */\n  lt\n  iszero\n    /* \"contracts/SomniaConsensusDAO.sol\":893:961  require(_owners.length >= _confirmationsRequired,\"Minimum 3 owners\") */\n  tag_6\n  jumpi\n  mload(0x40)\n  0x08c379a000000000000000000000000000000000000000000000000000000000\n  dup2\n  mstore\n  0x04\n  add\n  tag_7\n  swap1\n  tag_8\n  jump\t// in\ntag_7:\n  mload(0x40)\n  dup1\n  swap2\n  sub\n  swap1\n  revert\ntag_6:\n    /* \"contracts/SomniaConsensusDAO.sol\":976:982  uint i */\n  0x00\n    /* \"contracts/SomniaConsensusDAO.sol\":971:1202  for (uint i; i < _owners.length; i++){... */\ntag_9:\n    /* \"contracts/SomniaConsensusDAO.sol\":988:995  _owners */\n  dup4\n    /* \"contracts/SomniaConsensusDAO.sol\":988:1002  _owners.length */\n  mload\n    /* \"contracts/SomniaConsensusDAO.sol\":984:985  i */\n  dup2\n    /* \"contracts/SomniaConsensusDAO.sol\":984:1002  i < _owners.length */\n  lt\n    /* \"contracts/SomniaConsensusDAO.sol\":971:1202  for (uint i; i < _owners.length; i++){... */\n  iszero\n  tag_10\n  jumpi\n    /* \"contracts/SomniaConsensusDAO.sol\":1022:1039  address nextOwner */\n  0x00\n    /* \"contracts/SomniaConsensusDAO.sol\":1042:1049  _owners */\n  dup5\n    /* \"contracts/SomniaConsensusDAO.sol\":1050:1051  i */\n  dup3\n    /* \"contracts/SomniaConsensusDAO.sol\":1042:1052  _owners[i] */\n  dup2\n  mload\n  dup2\n  lt\n  tag_12\n  jumpi\n  tag_13\n  tag_14\n  jump\t// in\ntag_13:\ntag_12:\n  0x20\n  mul\n  0x20\n  add\n  add\n  mload\n    /* \"contracts/SomniaConsensusDAO.sol\":1022:1052  address nextOwner = _owners[i] */\n  swap1\n  pop\n    /* \"contracts/SomniaConsensusDAO.sol\":1076:1083  isOwner */\n  0x05\n    /* \"contracts/SomniaConsensusDAO.sol\":1076:1094  isOwner[nextOwner] */\n  0x00\n    /* \"contracts/SomniaConsensusDAO.sol\":1084:1093  nextOwner */\n  dup3\n    /* \"contracts/SomniaConsensusDAO.sol\":1076:1094  isOwner[nextOwner] */\n  0xffffffffffffffffffffffffffffffffffffffff\n  and\n  0xffffffffffffffffffffffffffffffffffffffff\n  and\n  dup2\n  mstore\n  0x20\n  add\n  swap1\n  dup2\n  mstore\n  0x20\n  add\n  0x00\n  keccak256\n  0x00\n  swap1\n  sload\n  swap1\n  0x0100\n  exp\n  swap1\n  div\n  0xff\n  and\n    /* \"contracts/SomniaConsensusDAO.sol\":1075:1094  !isOwner[nextOwner] */\n  iszero\n    /* \"contracts/SomniaConsensusDAO.sol\":1067:1114  require(!isOwner[nextOwner],\"duplicated owner\") */\n  tag_15\n  jumpi\n  mload(0x40)\n  0x08c379a000000000000000000000000000000000000000000000000000000000\n  dup2\n  mstore\n  0x04\n  add\n  tag_16\n  swap1\n  tag_17\n  jump\t// in\ntag_16:\n  mload(0x40)\n  dup1\n  swap2\n  sub\n  swap1\n  revert\ntag_15:\n    /* \"contracts/SomniaConsensusDAO.sol\":1150:1154  true */\n  0x01\n    /* \"contracts/SomniaConsensusDAO.sol\":1129:1136  isOwner */\n  0x05\n    /* \"contracts/SomniaConsensusDAO.sol\":1129:1147  isOwner[nextOwner] */\n  0x00\n    /* \"contracts/SomniaConsensusDAO.sol\":1137:1146  nextOwner */\n  dup4\n    /* \"contracts/SomniaConsensusDAO.sol\":1129:1147  isOwner[nextOwner] */\n  0xffffffffffffffffffffffffffffffffffffffff\n  and\n  0xffffffffffffffffffffffffffffffffffffffff\n  and\n  dup2\n  mstore\n  0x20\n  add\n  swap1\n  dup2\n  mstore\n  0x20\n  add\n  0x00\n  keccak256\n  0x00\n    /* \"contracts/SomniaConsensusDAO.sol\":1129:1154  isOwner[nextOwner] = true */\n  0x0100\n  exp\n  dup2\n  sload\n  dup2\n  0xff\n  mul\n  not\n  and\n  swap1\n  dup4\n  iszero\n  iszero\n  mul\n  or\n  swap1\n  sstore\n  pop\n    /* \"contracts/SomniaConsensusDAO.sol\":1168:1174  owners */\n  0x01\n    /* \"contracts/SomniaConsensusDAO.sol\":1180:1189  nextOwner */\n  dup2\n    /* \"contracts/SomniaConsensusDAO.sol\":1168:1190  owners.push(nextOwner) */\n  swap1\n  dup1\n  0x01\n  dup2\n  sload\n  add\n  dup1\n  dup3\n  sstore\n  dup1\n  swap2\n  pop\n  pop\n  0x01\n  swap1\n  sub\n  swap1\n  0x00\n  mstore\n  keccak256(0x00, 0x20)\n  add\n  0x00\n  swap1\n  swap2\n  swap1\n  swap2\n  swap1\n  swap2\n  0x0100\n  exp\n  dup2\n  sload\n  dup2\n  0xffffffffffffffffffffffffffffffffffffffff\n  mul\n  not\n  and\n  swap1\n  dup4\n  0xffffffffffffffffffffffffffffffffffffffff\n  and\n  mul\n  or\n  swap1\n  sstore\n  pop\n    /* \"contracts/SomniaConsensusDAO.sol\":1008:1202  {... */\n  pop\n    /* \"contracts/SomniaConsensusDAO.sol\":1004:1007  i++ */\n  dup1\n  dup1\n  0x01\n  add\n  swap2\n  pop\n  pop\n    /* \"contracts/SomniaConsensusDAO.sol\":971:1202  for (uint i; i < _owners.length; i++){... */\n  jump(tag_9)\ntag_10:\n  pop\n    /* \"contracts/SomniaConsensusDAO.sol\":1227:1248  grace_period_to_hours */\n  dup2\n    /* \"contracts/SomniaConsensusDAO.sol\":1212:1248  GRACE_PERIOD = grace_period_to_hours */\n  0x80\n  dup2\n  dup2\n  mstore\n  pop\n  pop\n    /* \"contracts/SomniaConsensusDAO.sol\":1282:1304  _confirmationsRequired */\n  dup1\n    /* \"contracts/SomniaConsensusDAO.sol\":1258:1279  confirmationsRequired */\n  0x00\n  0x00\n    /* \"contracts/SomniaConsensusDAO.sol\":1258:1304  confirmationsRequired = _confirmationsRequired */\n  0x0100\n  exp\n  dup2\n  sload\n  dup2\n  0xff\n  mul\n  not\n  and\n  swap1\n  dup4\n  0xff\n  and\n  mul\n  or\n  swap1\n  sstore\n  pop\n    /* \"contracts/SomniaConsensusDAO.sol\":788:1311  constructor(address[] memory _owners, uint grace_period_to_hours, uint8 _confirmationsRequired){... */\n  pop\n  pop\n  pop\n    /* \"contracts/SomniaConsensusDAO.sol\":57:6629  contract SomniaConsensusDAO {... */\n  jump(tag_19)\n    /* \"#utility.yul\":7:82   */\ntag_20:\n    /* \"#utility.yul\":40:46   */\n  0x00\n    /* \"#utility.yul\":73:75   */\n  0x40\n    /* \"#utility.yul\":67:76   */\n  mload\n    /* \"#utility.yul\":57:76   */\n  swap1\n  pop\n    /* \"#utility.yul\":7:82   */\n  swap1\n  jump\t// out\n    /* \"#utility.yul\":88:205   */\ntag_21:\n    /* \"#utility.yul\":197:198   */\n  0x00\n    /* \"#utility.yul\":194:195   */\n  0x00\n    /* \"#utility.yul\":187:199   */\n  revert\n    /* \"#utility.yul\":211:328   */\ntag_22:\n    /* \"#utility.yul\":320:321   */\n  0x00\n    /* \"#utility.yul\":317:318   */\n  0x00\n    /* \"#utility.yul\":310:322   */\n  revert\n    /* \"#utility.yul\":334:451   */\ntag_23:\n    /* \"#utility.yul\":443:444   */\n  0x00\n    /* \"#utility.yul\":440:441   */\n  0x00\n    /* \"#utility.yul\":433:445   */\n  revert\n    /* \"#utility.yul\":457:559   */\ntag_24:\n    /* \"#utility.yul\":498:504   */\n  0x00\n    /* \"#utility.yul\":549:551   */\n  0x1f\n    /* \"#utility.yul\":545:552   */\n  not\n    /* \"#utility.yul\":540:542   */\n  0x1f\n    /* \"#utility.yul\":533:538   */\n  dup4\n    /* \"#utility.yul\":529:543   */\n  add\n    /* \"#utility.yul\":525:553   */\n  and\n    /* \"#utility.yul\":515:553   */\n  swap1\n  pop\n    /* \"#utility.yul\":457:559   */\n  swap2\n  swap1\n  pop\n  jump\t// out\n    /* \"#utility.yul\":565:745   */\ntag_25:\n    /* \"#utility.yul\":613:690   */\n  0x4e487b7100000000000000000000000000000000000000000000000000000000\n    /* \"#utility.yul\":610:611   */\n  0x00\n    /* \"#utility.yul\":603:691   */\n  mstore\n    /* \"#utility.yul\":710:714   */\n  0x41\n    /* \"#utility.yul\":707:708   */\n  0x04\n    /* \"#utility.yul\":700:715   */\n  mstore\n    /* \"#utility.yul\":734:738   */\n  0x24\n    /* \"#utility.yul\":731:732   */\n  0x00\n    /* \"#utility.yul\":724:739   */\n  revert\n    /* \"#utility.yul\":751:1032   */\ntag_26:\n    /* \"#utility.yul\":834:861   */\n  tag_55\n    /* \"#utility.yul\":856:860   */\n  dup3\n    /* \"#utility.yul\":834:861   */\n  tag_24\n  jump\t// in\ntag_55:\n    /* \"#utility.yul\":826:832   */\n  dup2\n    /* \"#utility.yul\":822:862   */\n  add\n    /* \"#utility.yul\":964:970   */\n  dup2\n    /* \"#utility.yul\":952:962   */\n  dup2\n    /* \"#utility.yul\":949:971   */\n  lt\n    /* \"#utility.yul\":928:946   */\n  0xffffffffffffffff\n    /* \"#utility.yul\":916:926   */\n  dup3\n    /* \"#utility.yul\":913:947   */\n  gt\n    /* \"#utility.yul\":910:972   */\n  or\n    /* \"#utility.yul\":907:995   */\n  iszero\n  tag_56\n  jumpi\n    /* \"#utility.yul\":975:993   */\n  tag_57\n  tag_25\n  jump\t// in\ntag_57:\n    /* \"#utility.yul\":907:995   */\ntag_56:\n    /* \"#utility.yul\":1015:1025   */\n  dup1\n    /* \"#utility.yul\":1011:1013   */\n  0x40\n    /* \"#utility.yul\":1004:1026   */\n  mstore\n    /* \"#utility.yul\":794:1032   */\n  pop\n    /* \"#utility.yul\":751:1032   */\n  pop\n  pop\n  jump\t// out\n    /* \"#utility.yul\":1038:1167   */\ntag_27:\n    /* \"#utility.yul\":1072:1078   */\n  0x00\n    /* \"#utility.yul\":1099:1119   */\n  tag_59\n  tag_20\n  jump\t// in\ntag_59:\n    /* \"#utility.yul\":1089:1119   */\n  swap1\n  pop\n    /* \"#utility.yul\":1128:1161   */\n  tag_60\n    /* \"#utility.yul\":1156:1160   */\n  dup3\n    /* \"#utility.yul\":1148:1154   */\n  dup3\n    /* \"#utility.yul\":1128:1161   */\n  tag_26\n  jump\t// in\ntag_60:\n    /* \"#utility.yul\":1038:1167   */\n  swap2\n  swap1\n  pop\n  jump\t// out\n    /* \"#utility.yul\":1173:1484   */\ntag_28:\n    /* \"#utility.yul\":1250:1254   */\n  0x00\n    /* \"#utility.yul\":1340:1358   */\n  0xffffffffffffffff\n    /* \"#utility.yul\":1332:1338   */\n  dup3\n    /* \"#utility.yul\":1329:1359   */\n  gt\n    /* \"#utility.yul\":1326:1382   */\n  iszero\n  tag_62\n  jumpi\n    /* \"#utility.yul\":1362:1380   */\n  tag_63\n  tag_25\n  jump\t// in\ntag_63:\n    /* \"#utility.yul\":1326:1382   */\ntag_62:\n    /* \"#utility.yul\":1412:1416   */\n  0x20\n    /* \"#utility.yul\":1404:1410   */\n  dup3\n    /* \"#utility.yul\":1400:1417   */\n  mul\n    /* \"#utility.yul\":1392:1417   */\n  swap1\n  pop\n    /* \"#utility.yul\":1472:1476   */\n  0x20\n    /* \"#utility.yul\":1466:1470   */\n  dup2\n    /* \"#utility.yul\":1462:1477   */\n  add\n    /* \"#utility.yul\":1454:1477   */\n  swap1\n  pop\n    /* \"#utility.yul\":1173:1484   */\n  swap2\n  swap1\n  pop\n  jump\t// out\n    /* \"#utility.yul\":1490:1607   */\ntag_29:\n    /* \"#utility.yul\":1599:1600   */\n  0x00\n    /* \"#utility.yul\":1596:1597   */\n  0x00\n    /* \"#utility.yul\":1589:1601   */\n  revert\n    /* \"#utility.yul\":1613:1739   */\ntag_30:\n    /* \"#utility.yul\":1650:1657   */\n  0x00\n    /* \"#utility.yul\":1690:1732   */\n  0xffffffffffffffffffffffffffffffffffffffff\n    /* \"#utility.yul\":1683:1688   */\n  dup3\n    /* \"#utility.yul\":1679:1733   */\n  and\n    /* \"#utility.yul\":1668:1733   */\n  swap1\n  pop\n    /* \"#utility.yul\":1613:1739   */\n  swap2\n  swap1\n  pop\n  jump\t// out\n    /* \"#utility.yul\":1745:1841   */\ntag_31:\n    /* \"#utility.yul\":1782:1789   */\n  0x00\n    /* \"#utility.yul\":1811:1835   */\n  tag_67\n    /* \"#utility.yul\":1829:1834   */\n  dup3\n    /* \"#utility.yul\":1811:1835   */\n  tag_30\n  jump\t// in\ntag_67:\n    /* \"#utility.yul\":1800:1835   */\n  swap1\n  pop\n    /* \"#utility.yul\":1745:1841   */\n  swap2\n  swap1\n  pop\n  jump\t// out\n    /* \"#utility.yul\":1847:1969   */\ntag_32:\n    /* \"#utility.yul\":1920:1944   */\n  tag_69\n    /* \"#utility.yul\":1938:1943   */\n  dup2\n    /* \"#utility.yul\":1920:1944   */\n  tag_31\n  jump\t// in\ntag_69:\n    /* \"#utility.yul\":1913:1918   */\n  dup2\n    /* \"#utility.yul\":1910:1945   */\n  eq\n    /* \"#utility.yul\":1900:1963   */\n  tag_70\n  jumpi\n    /* \"#utility.yul\":1959:1960   */\n  0x00\n    /* \"#utility.yul\":1956:1957   */\n  0x00\n    /* \"#utility.yul\":1949:1961   */\n  revert\n    /* \"#utility.yul\":1900:1963   */\ntag_70:\n    /* \"#utility.yul\":1847:1969   */\n  pop\n  jump\t// out\n    /* \"#utility.yul\":1975:2118   */\ntag_33:\n    /* \"#utility.yul\":2032:2037   */\n  0x00\n    /* \"#utility.yul\":2063:2069   */\n  dup2\n    /* \"#utility.yul\":2057:2070   */\n  mload\n    /* \"#utility.yul\":2048:2070   */\n  swap1\n  pop\n    /* \"#utility.yul\":2079:2112   */\n  tag_72\n    /* \"#utility.yul\":2106:2111   */\n  dup2\n    /* \"#utility.yul\":2079:2112   */\n  tag_32\n  jump\t// in\ntag_72:\n    /* \"#utility.yul\":1975:2118   */\n  swap3\n  swap2\n  pop\n  pop\n  jump\t// out\n    /* \"#utility.yul\":2141:2873   */\ntag_34:\n    /* \"#utility.yul\":2248:2253   */\n  0x00\n    /* \"#utility.yul\":2273:2354   */\n  tag_74\n    /* \"#utility.yul\":2289:2353   */\n  tag_75\n    /* \"#utility.yul\":2346:2352   */\n  dup5\n    /* \"#utility.yul\":2289:2353   */\n  tag_28\n  jump\t// in\ntag_75:\n    /* \"#utility.yul\":2273:2354   */\n  tag_27\n  jump\t// in\ntag_74:\n    /* \"#utility.yul\":2264:2354   */\n  swap1\n  pop\n    /* \"#utility.yul\":2374:2379   */\n  dup1\n    /* \"#utility.yul\":2403:2409   */\n  dup4\n    /* \"#utility.yul\":2396:2401   */\n  dup3\n    /* \"#utility.yul\":2389:2410   */\n  mstore\n    /* \"#utility.yul\":2437:2441   */\n  0x20\n    /* \"#utility.yul\":2430:2435   */\n  dup3\n    /* \"#utility.yul\":2426:2442   */\n  add\n    /* \"#utility.yul\":2419:2442   */\n  swap1\n  pop\n    /* \"#utility.yul\":2490:2494   */\n  0x20\n    /* \"#utility.yul\":2482:2488   */\n  dup5\n    /* \"#utility.yul\":2478:2495   */\n  mul\n    /* \"#utility.yul\":2470:2476   */\n  dup4\n    /* \"#utility.yul\":2466:2496   */\n  add\n    /* \"#utility.yul\":2519:2522   */\n  dup6\n    /* \"#utility.yul\":2511:2517   */\n  dup2\n    /* \"#utility.yul\":2508:2523   */\n  gt\n    /* \"#utility.yul\":2505:2627   */\n  iszero\n  tag_76\n  jumpi\n    /* \"#utility.yul\":2538:2617   */\n  tag_77\n  tag_29\n  jump\t// in\ntag_77:\n    /* \"#utility.yul\":2505:2627   */\ntag_76:\n    /* \"#utility.yul\":2653:2659   */\n  dup4\n    /* \"#utility.yul\":2636:2867   */\ntag_78:\n    /* \"#utility.yul\":2670:2676   */\n  dup2\n    /* \"#utility.yul\":2665:2668   */\n  dup2\n    /* \"#utility.yul\":2662:2677   */\n  lt\n    /* \"#utility.yul\":2636:2867   */\n  iszero\n  tag_80\n  jumpi\n    /* \"#utility.yul\":2745:2748   */\n  dup1\n    /* \"#utility.yul\":2774:2822   */\n  tag_81\n    /* \"#utility.yul\":2818:2821   */\n  dup9\n    /* \"#utility.yul\":2806:2816   */\n  dup3\n    /* \"#utility.yul\":2774:2822   */\n  tag_33\n  jump\t// in\ntag_81:\n    /* \"#utility.yul\":2769:2772   */\n  dup5\n    /* \"#utility.yul\":2762:2823   */\n  mstore\n    /* \"#utility.yul\":2852:2856   */\n  0x20\n    /* \"#utility.yul\":2847:2850   */\n  dup5\n    /* \"#utility.yul\":2843:2857   */\n  add\n    /* \"#utility.yul\":2836:2857   */\n  swap4\n  pop\n    /* \"#utility.yul\":2712:2867   */\n  pop\n    /* \"#utility.yul\":2696:2700   */\n  0x20\n    /* \"#utility.yul\":2691:2694   */\n  dup2\n    /* \"#utility.yul\":2687:2701   */\n  add\n    /* \"#utility.yul\":2680:2701   */\n  swap1\n  pop\n    /* \"#utility.yul\":2636:2867   */\n  jump(tag_78)\ntag_80:\n    /* \"#utility.yul\":2640:2661   */\n  pop\n    /* \"#utility.yul\":2254:2873   */\n  pop\n  pop\n    /* \"#utility.yul\":2141:2873   */\n  swap4\n  swap3\n  pop\n  pop\n  pop\n  jump\t// out\n    /* \"#utility.yul\":2896:3281   */\ntag_35:\n    /* \"#utility.yul\":2978:2983   */\n  0x00\n    /* \"#utility.yul\":3027:3030   */\n  dup3\n    /* \"#utility.yul\":3020:3024   */\n  0x1f\n    /* \"#utility.yul\":3012:3018   */\n  dup4\n    /* \"#utility.yul\":3008:3025   */\n  add\n    /* \"#utility.yul\":3004:3031   */\n  slt\n    /* \"#utility.yul\":2994:3116   */\n  tag_83\n  jumpi\n    /* \"#utility.yul\":3035:3114   */\n  tag_84\n  tag_23\n  jump\t// in\ntag_84:\n    /* \"#utility.yul\":2994:3116   */\ntag_83:\n    /* \"#utility.yul\":3145:3151   */\n  dup2\n    /* \"#utility.yul\":3139:3152   */\n  mload\n    /* \"#utility.yul\":3170:3275   */\n  tag_85\n    /* \"#utility.yul\":3271:3274   */\n  dup5\n    /* \"#utility.yul\":3263:3269   */\n  dup3\n    /* \"#utility.yul\":3256:3260   */\n  0x20\n    /* \"#utility.yul\":3248:3254   */\n  dup7\n    /* \"#utility.yul\":3244:3261   */\n  add\n    /* \"#utility.yul\":3170:3275   */\n  tag_34\n  jump\t// in\ntag_85:\n    /* \"#utility.yul\":3161:3275   */\n  swap2\n  pop\n    /* \"#utility.yul\":2984:3281   */\n  pop\n    /* \"#utility.yul\":2896:3281   */\n  swap3\n  swap2\n  pop\n  pop\n  jump\t// out\n    /* \"#utility.yul\":3287:3364   */\ntag_36:\n    /* \"#utility.yul\":3324:3331   */\n  0x00\n    /* \"#utility.yul\":3353:3358   */\n  dup2\n    /* \"#utility.yul\":3342:3358   */\n  swap1\n  pop\n    /* \"#utility.yul\":3287:3364   */\n  swap2\n  swap1\n  pop\n  jump\t// out\n    /* \"#utility.yul\":3370:3492   */\ntag_37:\n    /* \"#utility.yul\":3443:3467   */\n  tag_88\n    /* \"#utility.yul\":3461:3466   */\n  dup2\n    /* \"#utility.yul\":3443:3467   */\n  tag_36\n  jump\t// in\ntag_88:\n    /* \"#utility.yul\":3436:3441   */\n  dup2\n    /* \"#utility.yul\":3433:3468   */\n  eq\n    /* \"#utility.yul\":3423:3486   */\n  tag_89\n  jumpi\n    /* \"#utility.yul\":3482:3483   */\n  0x00\n    /* \"#utility.yul\":3479:3480   */\n  0x00\n    /* \"#utility.yul\":3472:3484   */\n  revert\n    /* \"#utility.yul\":3423:3486   */\ntag_89:\n    /* \"#utility.yul\":3370:3492   */\n  pop\n  jump\t// out\n    /* \"#utility.yul\":3498:3641   */\ntag_38:\n    /* \"#utility.yul\":3555:3560   */\n  0x00\n    /* \"#utility.yul\":3586:3592   */\n  dup2\n    /* \"#utility.yul\":3580:3593   */\n  mload\n    /* \"#utility.yul\":3571:3593   */\n  swap1\n  pop\n    /* \"#utility.yul\":3602:3635   */\n  tag_91\n    /* \"#utility.yul\":3629:3634   */\n  dup2\n    /* \"#utility.yul\":3602:3635   */\n  tag_37\n  jump\t// in\ntag_91:\n    /* \"#utility.yul\":3498:3641   */\n  swap3\n  swap2\n  pop\n  pop\n  jump\t// out\n    /* \"#utility.yul\":3647:3733   */\ntag_39:\n    /* \"#utility.yul\":3682:3689   */\n  0x00\n    /* \"#utility.yul\":3722:3726   */\n  0xff\n    /* \"#utility.yul\":3715:3720   */\n  dup3\n    /* \"#utility.yul\":3711:3727   */\n  and\n    /* \"#utility.yul\":3700:3727   */\n  swap1\n  pop\n    /* \"#utility.yul\":3647:3733   */\n  swap2\n  swap1\n  pop\n  jump\t// out\n    /* \"#utility.yul\":3739:3857   */\ntag_40:\n    /* \"#utility.yul\":3810:3832   */\n  tag_94\n    /* \"#utility.yul\":3826:3831   */\n  dup2\n    /* \"#utility.yul\":3810:3832   */\n  tag_39\n  jump\t// in\ntag_94:\n    /* \"#utility.yul\":3803:3808   */\n  dup2\n    /* \"#utility.yul\":3800:3833   */\n  eq\n    /* \"#utility.yul\":3790:3851   */\n  tag_95\n  jumpi\n    /* \"#utility.yul\":3847:3848   */\n  0x00\n    /* \"#utility.yul\":3844:3845   */\n  0x00\n    /* \"#utility.yul\":3837:3849   */\n  revert\n    /* \"#utility.yul\":3790:3851   */\ntag_95:\n    /* \"#utility.yul\":3739:3857   */\n  pop\n  jump\t// out\n    /* \"#utility.yul\":3863:4002   */\ntag_41:\n    /* \"#utility.yul\":3918:3923   */\n  0x00\n    /* \"#utility.yul\":3949:3955   */\n  dup2\n    /* \"#utility.yul\":3943:3956   */\n  mload\n    /* \"#utility.yul\":3934:3956   */\n  swap1\n  pop\n    /* \"#utility.yul\":3965:3996   */\n  tag_97\n    /* \"#utility.yul\":3990:3995   */\n  dup2\n    /* \"#utility.yul\":3965:3996   */\n  tag_40\n  jump\t// in\ntag_97:\n    /* \"#utility.yul\":3863:4002   */\n  swap3\n  swap2\n  pop\n  pop\n  jump\t// out\n    /* \"#utility.yul\":4008:4870   */\ntag_3:\n    /* \"#utility.yul\":4119:4125   */\n  0x00\n    /* \"#utility.yul\":4127:4133   */\n  0x00\n    /* \"#utility.yul\":4135:4141   */\n  0x00\n    /* \"#utility.yul\":4184:4186   */\n  0x60\n    /* \"#utility.yul\":4172:4181   */\n  dup5\n    /* \"#utility.yul\":4163:4170   */\n  dup7\n    /* \"#utility.yul\":4159:4182   */\n  sub\n    /* \"#utility.yul\":4155:4187   */\n  slt\n    /* \"#utility.yul\":4152:4271   */\n  iszero\n  tag_99\n  jumpi\n    /* \"#utility.yul\":4190:4269   */\n  tag_100\n  tag_21\n  jump\t// in\ntag_100:\n    /* \"#utility.yul\":4152:4271   */\ntag_99:\n    /* \"#utility.yul\":4331:4332   */\n  0x00\n    /* \"#utility.yul\":4320:4329   */\n  dup5\n    /* \"#utility.yul\":4316:4333   */\n  add\n    /* \"#utility.yul\":4310:4334   */\n  mload\n    /* \"#utility.yul\":4361:4379   */\n  0xffffffffffffffff\n    /* \"#utility.yul\":4353:4359   */\n  dup2\n    /* \"#utility.yul\":4350:4380   */\n  gt\n    /* \"#utility.yul\":4347:4464   */\n  iszero\n  tag_101\n  jumpi\n    /* \"#utility.yul\":4383:4462   */\n  tag_102\n  tag_22\n  jump\t// in\ntag_102:\n    /* \"#utility.yul\":4347:4464   */\ntag_101:\n    /* \"#utility.yul\":4488:4577   */\n  tag_103\n    /* \"#utility.yul\":4569:4576   */\n  dup7\n    /* \"#utility.yul\":4560:4566   */\n  dup3\n    /* \"#utility.yul\":4549:4558   */\n  dup8\n    /* \"#utility.yul\":4545:4567   */\n  add\n    /* \"#utility.yul\":4488:4577   */\n  tag_35\n  jump\t// in\ntag_103:\n    /* \"#utility.yul\":4478:4577   */\n  swap4\n  pop\n    /* \"#utility.yul\":4281:4587   */\n  pop\n    /* \"#utility.yul\":4626:4628   */\n  0x20\n    /* \"#utility.yul\":4652:4716   */\n  tag_104\n    /* \"#utility.yul\":4708:4715   */\n  dup7\n    /* \"#utility.yul\":4699:4705   */\n  dup3\n    /* \"#utility.yul\":4688:4697   */\n  dup8\n    /* \"#utility.yul\":4684:4706   */\n  add\n    /* \"#utility.yul\":4652:4716   */\n  tag_38\n  jump\t// in\ntag_104:\n    /* \"#utility.yul\":4642:4716   */\n  swap3\n  pop\n    /* \"#utility.yul\":4597:4726   */\n  pop\n    /* \"#utility.yul\":4765:4767   */\n  0x40\n    /* \"#utility.yul\":4791:4853   */\n  tag_105\n    /* \"#utility.yul\":4845:4852   */\n  dup7\n    /* \"#utility.yul\":4836:4842   */\n  dup3\n    /* \"#utility.yul\":4825:4834   */\n  dup8\n    /* \"#utility.yul\":4821:4843   */\n  add\n    /* \"#utility.yul\":4791:4853   */\n  tag_41\n  jump\t// in\ntag_105:\n    /* \"#utility.yul\":4781:4853   */\n  swap2\n  pop\n    /* \"#utility.yul\":4736:4863   */\n  pop\n    /* \"#utility.yul\":4008:4870   */\n  swap3\n  pop\n  swap3\n  pop\n  swap3\n  jump\t// out\n    /* \"#utility.yul\":4876:5045   */\ntag_42:\n    /* \"#utility.yul\":4960:4971   */\n  0x00\n    /* \"#utility.yul\":4994:5000   */\n  dup3\n    /* \"#utility.yul\":4989:4992   */\n  dup3\n    /* \"#utility.yul\":4982:5001   */\n  mstore\n    /* \"#utility.yul\":5034:5038   */\n  0x20\n    /* \"#utility.yul\":5029:5032   */\n  dup3\n    /* \"#utility.yul\":5025:5039   */\n  add\n    /* \"#utility.yul\":5010:5039   */\n  swap1\n  pop\n    /* \"#utility.yul\":4876:5045   */\n  swap3\n  swap2\n  pop\n  pop\n  jump\t// out\n    /* \"#utility.yul\":5051:5217   */\ntag_43:\n    /* \"#utility.yul\":5191:5209   */\n  0x4d696e696d756d2033206f776e65727300000000000000000000000000000000\n    /* \"#utility.yul\":5187:5188   */\n  0x00\n    /* \"#utility.yul\":5179:5185   */\n  dup3\n    /* \"#utility.yul\":5175:5189   */\n  add\n    /* \"#utility.yul\":5168:5210   */\n  mstore\n    /* \"#utility.yul\":5051:5217   */\n  pop\n  jump\t// out\n    /* \"#utility.yul\":5223:5589   */\ntag_44:\n    /* \"#utility.yul\":5365:5368   */\n  0x00\n    /* \"#utility.yul\":5386:5453   */\n  tag_109\n    /* \"#utility.yul\":5450:5452   */\n  0x10\n    /* \"#utility.yul\":5445:5448   */\n  dup4\n    /* \"#utility.yul\":5386:5453   */\n  tag_42\n  jump\t// in\ntag_109:\n    /* \"#utility.yul\":5379:5453   */\n  swap2\n  pop\n    /* \"#utility.yul\":5462:5555   */\n  tag_110\n    /* \"#utility.yul\":5551:5554   */\n  dup3\n    /* \"#utility.yul\":5462:5555   */\n  tag_43\n  jump\t// in\ntag_110:\n    /* \"#utility.yul\":5580:5582   */\n  0x20\n    /* \"#utility.yul\":5575:5578   */\n  dup3\n    /* \"#utility.yul\":5571:5583   */\n  add\n    /* \"#utility.yul\":5564:5583   */\n  swap1\n  pop\n    /* \"#utility.yul\":5223:5589   */\n  swap2\n  swap1\n  pop\n  jump\t// out\n    /* \"#utility.yul\":5595:6014   */\ntag_8:\n    /* \"#utility.yul\":5761:5765   */\n  0x00\n    /* \"#utility.yul\":5799:5801   */\n  0x20\n    /* \"#utility.yul\":5788:5797   */\n  dup3\n    /* \"#utility.yul\":5784:5802   */\n  add\n    /* \"#utility.yul\":5776:5802   */\n  swap1\n  pop\n    /* \"#utility.yul\":5848:5857   */\n  dup2\n    /* \"#utility.yul\":5842:5846   */\n  dup2\n    /* \"#utility.yul\":5838:5858   */\n  sub\n    /* \"#utility.yul\":5834:5835   */\n  0x00\n    /* \"#utility.yul\":5823:5832   */\n  dup4\n    /* \"#utility.yul\":5819:5836   */\n  add\n    /* \"#utility.yul\":5812:5859   */\n  mstore\n    /* \"#utility.yul\":5876:6007   */\n  tag_112\n    /* \"#utility.yul\":6002:6006   */\n  dup2\n    /* \"#utility.yul\":5876:6007   */\n  tag_44\n  jump\t// in\ntag_112:\n    /* \"#utility.yul\":5868:6007   */\n  swap1\n  pop\n    /* \"#utility.yul\":5595:6014   */\n  swap2\n  swap1\n  pop\n  jump\t// out\n    /* \"#utility.yul\":6020:6200   */\ntag_14:\n    /* \"#utility.yul\":6068:6145   */\n  0x4e487b7100000000000000000000000000000000000000000000000000000000\n    /* \"#utility.yul\":6065:6066   */\n  0x00\n    /* \"#utility.yul\":6058:6146   */\n  mstore\n    /* \"#utility.yul\":6165:6169   */\n  0x32\n    /* \"#utility.yul\":6162:6163   */\n  0x04\n    /* \"#utility.yul\":6155:6170   */\n  mstore\n    /* \"#utility.yul\":6189:6193   */\n  0x24\n    /* \"#utility.yul\":6186:6187   */\n  0x00\n    /* \"#utility.yul\":6179:6194   */\n  revert\n    /* \"#utility.yul\":6206:6372   */\ntag_45:\n    /* \"#utility.yul\":6346:6364   */\n  0x6475706c696361746564206f776e657200000000000000000000000000000000\n    /* \"#utility.yul\":6342:6343   */\n  0x00\n    /* \"#utility.yul\":6334:6340   */\n  dup3\n    /* \"#utility.yul\":6330:6344   */\n  add\n    /* \"#utility.yul\":6323:6365   */\n  mstore\n    /* \"#utility.yul\":6206:6372   */\n  pop\n  jump\t// out\n    /* \"#utility.yul\":6378:6744   */\ntag_46:\n    /* \"#utility.yul\":6520:6523   */\n  0x00\n    /* \"#utility.yul\":6541:6608   */\n  tag_116\n    /* \"#utility.yul\":6605:6607   */\n  0x10\n    /* \"#utility.yul\":6600:6603   */\n  dup4\n    /* \"#utility.yul\":6541:6608   */\n  tag_42\n  jump\t// in\ntag_116:\n    /* \"#utility.yul\":6534:6608   */\n  swap2\n  pop\n    /* \"#utility.yul\":6617:6710   */\n  tag_117\n    /* \"#utility.yul\":6706:6709   */\n  dup3\n    /* \"#utility.yul\":6617:6710   */\n  tag_45\n  jump\t// in\ntag_117:\n    /* \"#utility.yul\":6735:6737   */\n  0x20\n    /* \"#utility.yul\":6730:6733   */\n  dup3\n    /* \"#utility.yul\":6726:6738   */\n  add\n    /* \"#utility.yul\":6719:6738   */\n  swap1\n  pop\n    /* \"#utility.yul\":6378:6744   */\n  swap2\n  swap1\n  pop\n  jump\t// out\n    /* \"#utility.yul\":6750:7169   */\ntag_17:\n    /* \"#utility.yul\":6916:6920   */\n  0x00\n    /* \"#utility.yul\":6954:6956   */\n  0x20\n    /* \"#utility.yul\":6943:6952   */\n  dup3\n    /* \"#utility.yul\":6939:6957   */\n  add\n    /* \"#utility.yul\":6931:6957   */\n  swap1\n  pop\n    /* \"#utility.yul\":7003:7012   */\n  dup2\n    /* \"#utility.yul\":6997:7001   */\n  dup2\n    /* \"#utility.yul\":6993:7013   */\n  sub\n    /* \"#utility.yul\":6989:6990   */\n  0x00\n    /* \"#utility.yul\":6978:6987   */\n  dup4\n    /* \"#utility.yul\":6974:6991   */\n  add\n    /* \"#utility.yul\":6967:7014   */\n  mstore\n    /* \"#utility.yul\":7031:7162   */\n  tag_119\n    /* \"#utility.yul\":7157:7161   */\n  dup2\n    /* \"#utility.yul\":7031:7162   */\n  tag_46\n  jump\t// in\ntag_119:\n    /* \"#utility.yul\":7023:7162   */\n  swap1\n  pop\n    /* \"#utility.yul\":6750:7169   */\n  swap2\n  swap1\n  pop\n  jump\t// out\n    /* \"contracts/SomniaConsensusDAO.sol\":57:6629  contract SomniaConsensusDAO {... */\ntag_19:\n  mload(0x80)\n  codecopy(0x00, dataOffset(sub_0), dataSize(sub_0))\n  0x00\n  assignImmutable(\"0xceebf77a833b30520287ddd9478ff51abbdffa30aa90a8d655dba0e8a79ce0c1\")\n  return(0x00, dataSize(sub_0))\nstop\n\nsub_0: assembly {\n        /* \"contracts/SomniaConsensusDAO.sol\":57:6629  contract SomniaConsensusDAO {... */\n      mstore(0x40, 0x80)\n      callvalue\n      dup1\n      iszero\n      tag_1\n      jumpi\n      revert(0x00, 0x00)\n    tag_1:\n      pop\n      jumpi(tag_2, lt(calldatasize, 0x04))\n      shr(0xe0, calldataload(0x00))\n      dup1\n      0x414a6811\n      gt\n      tag_14\n      jumpi\n      dup1\n      0x414a6811\n      eq\n      tag_8\n      jumpi\n      dup1\n      0x4898b157\n      eq\n      tag_9\n      jumpi\n      dup1\n      0x7065cb48\n      eq\n      tag_10\n      jumpi\n      dup1\n      0x797af627\n      eq\n      tag_11\n      jumpi\n      dup1\n      0x9ac1636b\n      eq\n      tag_12\n      jumpi\n      dup1\n      0xfe8492c3\n      eq\n      tag_13\n      jumpi\n      jump(tag_2)\n    tag_14:\n      dup1\n      0x025e7c27\n      eq\n      tag_3\n      jumpi\n      dup1\n      0x0753a692\n      eq\n      tag_4\n      jumpi\n      dup1\n      0x0c4ecab4\n      eq\n      tag_5\n      jumpi\n      dup1\n      0x193776f4\n      eq\n      tag_6\n      jumpi\n      dup1\n      0x3c7bf9ad\n      eq\n      tag_7\n      jumpi\n    tag_2:\n      revert(0x00, 0x00)\n        /* \"contracts/SomniaConsensusDAO.sol\":158:181  address[] public owners */\n    tag_3:\n      tag_15\n      0x04\n      dup1\n      calldatasize\n      sub\n      dup2\n      add\n      swap1\n      tag_16\n      swap2\n      swap1\n      tag_17\n      jump\t// in\n    tag_16:\n      tag_18\n      jump\t// in\n    tag_15:\n      mload(0x40)\n      tag_19\n      swap2\n      swap1\n      tag_20\n      jump\t// in\n    tag_19:\n      mload(0x40)\n      dup1\n      swap2\n      sub\n      swap1\n      return\n        /* \"contracts/SomniaConsensusDAO.sol\":1815:2789  function addExecProposal(... */\n    tag_4:\n      tag_21\n      0x04\n      dup1\n      calldatasize\n      sub\n      dup2\n      add\n      swap1\n      tag_22\n      swap2\n      swap1\n      tag_23\n      jump\t// in\n    tag_22:\n      tag_24\n      jump\t// in\n    tag_21:\n      mload(0x40)\n      tag_25\n      swap2\n      swap1\n      tag_26\n      jump\t// in\n    tag_25:\n      mload(0x40)\n      dup1\n      swap2\n      sub\n      swap1\n      return\n        /* \"contracts/SomniaConsensusDAO.sol\":450:513  mapping(bytes32 =>mapping(address =>bool)) public confirmations */\n    tag_5:\n      tag_27\n      0x04\n      dup1\n      calldatasize\n      sub\n      dup2\n      add\n      swap1\n      tag_28\n      swap2\n      swap1\n      tag_29\n      jump\t// in\n    tag_28:\n      tag_30\n      jump\t// in\n    tag_27:\n      mload(0x40)\n      tag_31\n      swap2\n      swap1\n      tag_32\n      jump\t// in\n    tag_31:\n      mload(0x40)\n      dup1\n      swap2\n      sub\n      swap1\n      return\n        /* \"contracts/SomniaConsensusDAO.sol\":6531:6625  function seeMinCofReq() public view returns(uint){... */\n    tag_6:\n      tag_33\n      tag_34\n      jump\t// in\n    tag_33:\n      mload(0x40)\n      tag_35\n      swap2\n      swap1\n      tag_36\n      jump\t// in\n    tag_35:\n      mload(0x40)\n      dup1\n      swap2\n      sub\n      swap1\n      return\n        /* \"contracts/SomniaConsensusDAO.sol\":6120:6429  function assignRequiredConf(uint8 _confReq) public onlyConsensus{... */\n    tag_7:\n      tag_37\n      0x04\n      dup1\n      calldatasize\n      sub\n      dup2\n      add\n      swap1\n      tag_38\n      swap2\n      swap1\n      tag_39\n      jump\t// in\n    tag_38:\n      tag_40\n      jump\t// in\n    tag_37:\n      stop\n        /* \"contracts/SomniaConsensusDAO.sol\":6435:6525  function seeOwners() external view returns(address[] memory){... */\n    tag_8:\n      tag_41\n      tag_42\n      jump\t// in\n    tag_41:\n      mload(0x40)\n      tag_43\n      swap2\n      swap1\n      tag_44\n      jump\t// in\n    tag_43:\n      mload(0x40)\n      dup1\n      swap2\n      sub\n      swap1\n      return\n        /* \"contracts/SomniaConsensusDAO.sol\":365:408  mapping(bytes32 => ExecProposal) public eps */\n    tag_9:\n      tag_45\n      0x04\n      dup1\n      calldatasize\n      sub\n      dup2\n      add\n      swap1\n      tag_46\n      swap2\n      swap1\n      tag_47\n      jump\t// in\n    tag_46:\n      tag_48\n      jump\t// in\n    tag_45:\n      mload(0x40)\n      tag_49\n      swap7\n      swap6\n      swap5\n      swap4\n      swap3\n      swap2\n      swap1\n      tag_50\n      jump\t// in\n    tag_49:\n      mload(0x40)\n      dup1\n      swap2\n      sub\n      swap1\n      return\n        /* \"contracts/SomniaConsensusDAO.sol\":5356:5547  function addOwner(address newOwner) public onlyConsensus{... */\n    tag_10:\n      tag_51\n      0x04\n      dup1\n      calldatasize\n      sub\n      dup2\n      add\n      swap1\n      tag_52\n      swap2\n      swap1\n      tag_53\n      jump\t// in\n    tag_52:\n      tag_54\n      jump\t// in\n    tag_51:\n      stop\n        /* \"contracts/SomniaConsensusDAO.sol\":2835:3263  function confirm(bytes32 _txId) external onlyOwner {... */\n    tag_11:\n      tag_55\n      0x04\n      dup1\n      calldatasize\n      sub\n      dup2\n      add\n      swap1\n      tag_56\n      swap2\n      swap1\n      tag_47\n      jump\t// in\n    tag_56:\n      tag_57\n      jump\t// in\n    tag_55:\n      stop\n        /* \"contracts/SomniaConsensusDAO.sol\":3322:3701  function cancelConfirmation(bytes32 _txId) external onlyOwner {... */\n    tag_12:\n      tag_58\n      0x04\n      dup1\n      calldatasize\n      sub\n      dup2\n      add\n      swap1\n      tag_59\n      swap2\n      swap1\n      tag_47\n      jump\t// in\n    tag_59:\n      tag_60\n      jump\t// in\n    tag_58:\n      stop\n        /* \"contracts/SomniaConsensusDAO.sol\":5553:6114  function delOwner(uint indexOwner) public onlyConsensus {... */\n    tag_13:\n      tag_61\n      0x04\n      dup1\n      calldatasize\n      sub\n      dup2\n      add\n      swap1\n      tag_62\n      swap2\n      swap1\n      tag_17\n      jump\t// in\n    tag_62:\n      tag_63\n      jump\t// in\n    tag_61:\n      stop\n        /* \"contracts/SomniaConsensusDAO.sol\":158:181  address[] public owners */\n    tag_18:\n      0x01\n      dup2\n      dup2\n      sload\n      dup2\n      lt\n      tag_64\n      jumpi\n      0x00\n      dup1\n      revert\n    tag_64:\n      swap1\n      0x00\n      mstore\n      keccak256(0x00, 0x20)\n      add\n      0x00\n      swap2\n      pop\n      sload\n      swap1\n      0x0100\n      exp\n      swap1\n      div\n      0xffffffffffffffffffffffffffffffffffffffff\n      and\n      dup2\n      jump\t// out\n        /* \"contracts/SomniaConsensusDAO.sol\":1815:2789  function addExecProposal(... */\n    tag_24:\n        /* \"contracts/SomniaConsensusDAO.sol\":1956:1969  bytes32 _txId */\n      0x00\n        /* \"contracts/SomniaConsensusDAO.sol\":596:603  isOwner */\n      0x05\n        /* \"contracts/SomniaConsensusDAO.sol\":596:615  isOwner[msg.sender] */\n      0x00\n        /* \"contracts/SomniaConsensusDAO.sol\":604:614  msg.sender */\n      caller\n        /* \"contracts/SomniaConsensusDAO.sol\":596:615  isOwner[msg.sender] */\n      0xffffffffffffffffffffffffffffffffffffffff\n      and\n      0xffffffffffffffffffffffffffffffffffffffff\n      and\n      dup2\n      mstore\n      0x20\n      add\n      swap1\n      dup2\n      mstore\n      0x20\n      add\n      0x00\n      keccak256\n      0x00\n      swap1\n      sload\n      swap1\n      0x0100\n      exp\n      swap1\n      div\n      0xff\n      and\n        /* \"contracts/SomniaConsensusDAO.sol\":588:640  require(isOwner[msg.sender],\"You are not the owner\") */\n      tag_67\n      jumpi\n      mload(0x40)\n      0x08c379a000000000000000000000000000000000000000000000000000000000\n      dup2\n      mstore\n      0x04\n      add\n      tag_68\n      swap1\n      tag_69\n      jump\t// in\n    tag_68:\n      mload(0x40)\n      dup1\n      swap2\n      sub\n      swap1\n      revert\n    tag_67:\n        /* \"contracts/SomniaConsensusDAO.sol\":2004:2005  0 */\n      0x00\n        /* \"contracts/SomniaConsensusDAO.sol\":1989:2006  _to != address(0) */\n      0xffffffffffffffffffffffffffffffffffffffff\n      and\n        /* \"contracts/SomniaConsensusDAO.sol\":1989:1992  _to */\n      dup5\n        /* \"contracts/SomniaConsensusDAO.sol\":1989:2006  _to != address(0) */\n      0xffffffffffffffffffffffffffffffffffffffff\n      and\n      sub\n        /* \"contracts/SomniaConsensusDAO.sol\":1981:2033  require(_to != address(0), \"Invalid target address\") */\n      tag_71\n      jumpi\n      mload(0x40)\n      0x08c379a000000000000000000000000000000000000000000000000000000000\n      dup2\n      mstore\n      0x04\n      add\n      tag_72\n      swap1\n      tag_73\n      jump\t// in\n    tag_72:\n      mload(0x40)\n      dup1\n      swap2\n      sub\n      swap1\n      revert\n    tag_71:\n        /* \"contracts/SomniaConsensusDAO.sol\":2073:2074  0 */\n      0x00\n        /* \"contracts/SomniaConsensusDAO.sol\":2057:2062  _func */\n      dup7\n      dup7\n        /* \"contracts/SomniaConsensusDAO.sol\":2051:2070  bytes(_func).length */\n      swap1\n      pop\n        /* \"contracts/SomniaConsensusDAO.sol\":2051:2074  bytes(_func).length > 0 */\n      gt\n        /* \"contracts/SomniaConsensusDAO.sol\":2043:2098  require(bytes(_func).length > 0, \"Empty function name\") */\n      tag_74\n      jumpi\n      mload(0x40)\n      0x08c379a000000000000000000000000000000000000000000000000000000000\n      dup2\n      mstore\n      0x04\n      add\n      tag_75\n      swap1\n      tag_76\n      jump\t// in\n    tag_75:\n      mload(0x40)\n      dup1\n      swap2\n      sub\n      swap1\n      revert\n    tag_74:\n        /* \"contracts/SomniaConsensusDAO.sol\":2131:2132  0 */\n      0x00\n        /* \"contracts/SomniaConsensusDAO.sol\":2116:2121  _data */\n      dup4\n      dup4\n        /* \"contracts/SomniaConsensusDAO.sol\":2116:2128  _data.length */\n      swap1\n      pop\n        /* \"contracts/SomniaConsensusDAO.sol\":2116:2132  _data.length > 0 */\n      gt\n        /* \"contracts/SomniaConsensusDAO.sol\":2108:2147  require(_data.length > 0, \"Empty data\") */\n      tag_77\n      jumpi\n      mload(0x40)\n      0x08c379a000000000000000000000000000000000000000000000000000000000\n      dup2\n      mstore\n      0x04\n      add\n      tag_78\n      swap1\n      tag_79\n      jump\t// in\n    tag_78:\n      mload(0x40)\n      dup1\n      swap2\n      sub\n      swap1\n      revert\n    tag_77:\n        /* \"contracts/SomniaConsensusDAO.sol\":2166:2178  bytes32 txId */\n      0x00\n        /* \"contracts/SomniaConsensusDAO.sol\":2181:2222  txToByte(_func,_to,_data,block.timestamp) */\n      tag_80\n        /* \"contracts/SomniaConsensusDAO.sol\":2190:2195  _func */\n      dup8\n      dup8\n        /* \"contracts/SomniaConsensusDAO.sol\":2196:2199  _to */\n      dup8\n        /* \"contracts/SomniaConsensusDAO.sol\":2200:2205  _data */\n      dup8\n      dup8\n        /* \"contracts/SomniaConsensusDAO.sol\":2206:2221  block.timestamp */\n      timestamp\n        /* \"contracts/SomniaConsensusDAO.sol\":2181:2189  txToByte */\n      tag_81\n        /* \"contracts/SomniaConsensusDAO.sol\":2181:2222  txToByte(_func,_to,_data,block.timestamp) */\n      jump\t// in\n    tag_80:\n        /* \"contracts/SomniaConsensusDAO.sol\":2166:2222  bytes32 txId = txToByte(_func,_to,_data,block.timestamp) */\n      swap1\n      pop\n        /* \"contracts/SomniaConsensusDAO.sol\":2241:2246  queue */\n      0x03\n        /* \"contracts/SomniaConsensusDAO.sol\":2241:2252  queue[txId] */\n      0x00\n        /* \"contracts/SomniaConsensusDAO.sol\":2247:2251  txId */\n      dup3\n        /* \"contracts/SomniaConsensusDAO.sol\":2241:2252  queue[txId] */\n      dup2\n      mstore\n      0x20\n      add\n      swap1\n      dup2\n      mstore\n      0x20\n      add\n      0x00\n      keccak256\n      0x00\n      swap1\n      sload\n      swap1\n      0x0100\n      exp\n      swap1\n      div\n      0xff\n      and\n        /* \"contracts/SomniaConsensusDAO.sol\":2240:2252  !queue[txId] */\n      iszero\n        /* \"contracts/SomniaConsensusDAO.sol\":2232:2270  require(!queue[txId],\"allready queue\") */\n      tag_82\n      jumpi\n      mload(0x40)\n      0x08c379a000000000000000000000000000000000000000000000000000000000\n      dup2\n      mstore\n      0x04\n      add\n      tag_83\n      swap1\n      tag_84\n      jump\t// in\n    tag_83:\n      mload(0x40)\n      dup1\n      swap2\n      sub\n      swap1\n      revert\n    tag_82:\n        /* \"contracts/SomniaConsensusDAO.sol\":2295:2299  true */\n      0x01\n        /* \"contracts/SomniaConsensusDAO.sol\":2281:2286  queue */\n      0x03\n        /* \"contracts/SomniaConsensusDAO.sol\":2281:2292  queue[txId] */\n      0x00\n        /* \"contracts/SomniaConsensusDAO.sol\":2287:2291  txId */\n      dup4\n        /* \"contracts/SomniaConsensusDAO.sol\":2281:2292  queue[txId] */\n      dup2\n      mstore\n      0x20\n      add\n      swap1\n      dup2\n      mstore\n      0x20\n      add\n      0x00\n      keccak256\n      0x00\n        /* \"contracts/SomniaConsensusDAO.sol\":2281:2299  queue[txId] = true */\n      0x0100\n      exp\n      dup2\n      sload\n      dup2\n      0xff\n      mul\n      not\n      and\n      swap1\n      dup4\n      iszero\n      iszero\n      mul\n      or\n      swap1\n      sstore\n      pop\n        /* \"contracts/SomniaConsensusDAO.sol\":2343:2347  true */\n      0x01\n        /* \"contracts/SomniaConsensusDAO.sol\":2309:2322  confirmations */\n      0x04\n        /* \"contracts/SomniaConsensusDAO.sol\":2309:2328  confirmations[txId] */\n      0x00\n        /* \"contracts/SomniaConsensusDAO.sol\":2323:2327  txId */\n      dup4\n        /* \"contracts/SomniaConsensusDAO.sol\":2309:2328  confirmations[txId] */\n      dup2\n      mstore\n      0x20\n      add\n      swap1\n      dup2\n      mstore\n      0x20\n      add\n      0x00\n      keccak256\n        /* \"contracts/SomniaConsensusDAO.sol\":2309:2340  confirmations[txId][msg.sender] */\n      0x00\n        /* \"contracts/SomniaConsensusDAO.sol\":2329:2339  msg.sender */\n      caller\n        /* \"contracts/SomniaConsensusDAO.sol\":2309:2340  confirmations[txId][msg.sender] */\n      0xffffffffffffffffffffffffffffffffffffffff\n      and\n      0xffffffffffffffffffffffffffffffffffffffff\n      and\n      dup2\n      mstore\n      0x20\n      add\n      swap1\n      dup2\n      mstore\n      0x20\n      add\n      0x00\n      keccak256\n      0x00\n        /* \"contracts/SomniaConsensusDAO.sol\":2309:2347  confirmations[txId][msg.sender] = true */\n      0x0100\n      exp\n      dup2\n      sload\n      dup2\n      0xff\n      mul\n      not\n      and\n      swap1\n      dup4\n      iszero\n      iszero\n      mul\n      or\n      swap1\n      sstore\n      pop\n        /* \"contracts/SomniaConsensusDAO.sol\":2369:2593  ExecProposal({... */\n      mload(0x40)\n      dup1\n      0xc0\n      add\n      0x40\n      mstore\n      dup1\n        /* \"contracts/SomniaConsensusDAO.sol\":2406:2410  txId */\n      dup3\n        /* \"contracts/SomniaConsensusDAO.sol\":2369:2593  ExecProposal({... */\n      dup2\n      mstore\n      0x20\n      add\n        /* \"contracts/SomniaConsensusDAO.sol\":2433:2436  _to */\n      dup7\n        /* \"contracts/SomniaConsensusDAO.sol\":2369:2593  ExecProposal({... */\n      0xffffffffffffffffffffffffffffffffffffffff\n      and\n      dup2\n      mstore\n      0x20\n      add\n        /* \"contracts/SomniaConsensusDAO.sol\":2461:2466  _func */\n      dup9\n      dup9\n        /* \"contracts/SomniaConsensusDAO.sol\":2369:2593  ExecProposal({... */\n      dup1\n      dup1\n      0x1f\n      add\n      0x20\n      dup1\n      swap2\n      div\n      mul\n      0x20\n      add\n      mload(0x40)\n      swap1\n      dup2\n      add\n      0x40\n      mstore\n      dup1\n      swap4\n      swap3\n      swap2\n      swap1\n      dup2\n      dup2\n      mstore\n      0x20\n      add\n      dup4\n      dup4\n      dup1\n      dup3\n      dup5\n      calldatacopy\n      0x00\n      dup2\n      dup5\n      add\n      mstore\n      not(0x1f)\n      0x1f\n      dup3\n      add\n      and\n      swap1\n      pop\n      dup1\n      dup4\n      add\n      swap3\n      pop\n      pop\n      pop\n      pop\n      pop\n      pop\n      pop\n      dup2\n      mstore\n      0x20\n      add\n        /* \"contracts/SomniaConsensusDAO.sol\":2491:2496  _data */\n      dup6\n      dup6\n        /* \"contracts/SomniaConsensusDAO.sol\":2369:2593  ExecProposal({... */\n      dup1\n      dup1\n      0x1f\n      add\n      0x20\n      dup1\n      swap2\n      div\n      mul\n      0x20\n      add\n      mload(0x40)\n      swap1\n      dup2\n      add\n      0x40\n      mstore\n      dup1\n      swap4\n      swap3\n      swap2\n      swap1\n      dup2\n      dup2\n      mstore\n      0x20\n      add\n      dup4\n      dup4\n      dup1\n      dup3\n      dup5\n      calldatacopy\n      0x00\n      dup2\n      dup5\n      add\n      mstore\n      not(0x1f)\n      0x1f\n      dup3\n      add\n      and\n      swap1\n      pop\n      dup1\n      dup4\n      add\n      swap3\n      pop\n      pop\n      pop\n      pop\n      pop\n      pop\n      pop\n      dup2\n      mstore\n      0x20\n      add\n        /* \"contracts/SomniaConsensusDAO.sol\":2526:2541  block.timestamp */\n      timestamp\n        /* \"contracts/SomniaConsensusDAO.sol\":2369:2593  ExecProposal({... */\n      dup2\n      mstore\n      0x20\n      add\n        /* \"contracts/SomniaConsensusDAO.sol\":2573:2574  1 */\n      0x01\n        /* \"contracts/SomniaConsensusDAO.sol\":2369:2593  ExecProposal({... */\n      dup2\n      mstore\n      pop\n        /* \"contracts/SomniaConsensusDAO.sol\":2357:2360  eps */\n      0x02\n        /* \"contracts/SomniaConsensusDAO.sol\":2357:2366  eps[txId] */\n      0x00\n        /* \"contracts/SomniaConsensusDAO.sol\":2361:2365  txId */\n      dup4\n        /* \"contracts/SomniaConsensusDAO.sol\":2357:2366  eps[txId] */\n      dup2\n      mstore\n      0x20\n      add\n      swap1\n      dup2\n      mstore\n      0x20\n      add\n      0x00\n      keccak256\n        /* \"contracts/SomniaConsensusDAO.sol\":2357:2593  eps[txId] = ExecProposal({... */\n      0x00\n      dup3\n      add\n      mload\n      dup2\n      0x00\n      add\n      sstore\n      0x20\n      dup3\n      add\n      mload\n      dup2\n      0x01\n      add\n      exp(0x0100, 0x00)\n      dup2\n      sload\n      dup2\n      0xffffffffffffffffffffffffffffffffffffffff\n      mul\n      not\n      and\n      swap1\n      dup4\n      0xffffffffffffffffffffffffffffffffffffffff\n      and\n      mul\n      or\n      swap1\n      sstore\n      pop\n      0x40\n      dup3\n      add\n      mload\n      dup2\n      0x02\n      add\n      swap1\n      dup2\n      tag_85\n      swap2\n      swap1\n      tag_86\n      jump\t// in\n    tag_85:\n      pop\n      0x60\n      dup3\n      add\n      mload\n      dup2\n      0x03\n      add\n      swap1\n      dup2\n      tag_87\n      swap2\n      swap1\n      tag_88\n      jump\t// in\n    tag_87:\n      pop\n      0x80\n      dup3\n      add\n      mload\n      dup2\n      0x04\n      add\n      sstore\n      0xa0\n      dup3\n      add\n      mload\n      dup2\n      0x05\n      add\n      sstore\n      swap1\n      pop\n      pop\n        /* \"contracts/SomniaConsensusDAO.sol\":2609:2752  queueTx(... */\n      0x9ebfdc2f8d091a5a9c70ccf8288d6521eed7103f00edea478db417af66bbfd17\n        /* \"contracts/SomniaConsensusDAO.sol\":2630:2640  msg.sender */\n      caller\n        /* \"contracts/SomniaConsensusDAO.sol\":2654:2657  _to */\n      dup7\n        /* \"contracts/SomniaConsensusDAO.sol\":2671:2676  _func */\n      dup10\n      dup10\n        /* \"contracts/SomniaConsensusDAO.sol\":2690:2695  _data */\n      dup9\n      dup9\n        /* \"contracts/SomniaConsensusDAO.sol\":2709:2724  block.timestamp */\n      timestamp\n        /* \"contracts/SomniaConsensusDAO.sol\":2738:2742  txId */\n      dup9\n        /* \"contracts/SomniaConsensusDAO.sol\":2609:2752  queueTx(... */\n      mload(0x40)\n      tag_89\n      swap9\n      swap8\n      swap7\n      swap6\n      swap5\n      swap4\n      swap3\n      swap2\n      swap1\n      tag_90\n      jump\t// in\n    tag_89:\n      mload(0x40)\n      dup1\n      swap2\n      sub\n      swap1\n      log1\n        /* \"contracts/SomniaConsensusDAO.sol\":2778:2782  txId */\n      dup1\n        /* \"contracts/SomniaConsensusDAO.sol\":2771:2782  return txId */\n      swap2\n      pop\n      pop\n        /* \"contracts/SomniaConsensusDAO.sol\":1815:2789  function addExecProposal(... */\n      swap6\n      swap5\n      pop\n      pop\n      pop\n      pop\n      pop\n      jump\t// out\n        /* \"contracts/SomniaConsensusDAO.sol\":450:513  mapping(bytes32 =>mapping(address =>bool)) public confirmations */\n    tag_30:\n      mstore(0x20, 0x04)\n      dup2\n      0x00\n      mstore\n      mstore(0x20, keccak256(0x00, 0x40))\n      dup1\n      0x00\n      mstore\n      keccak256(0x00, 0x40)\n      0x00\n      swap2\n      pop\n      swap2\n      pop\n      swap1\n      sload\n      swap1\n      0x0100\n      exp\n      swap1\n      div\n      0xff\n      and\n      dup2\n      jump\t// out\n        /* \"contracts/SomniaConsensusDAO.sol\":6531:6625  function seeMinCofReq() public view returns(uint){... */\n    tag_34:\n        /* \"contracts/SomniaConsensusDAO.sol\":6575:6579  uint */\n      0x00\n        /* \"contracts/SomniaConsensusDAO.sol\":6597:6618  confirmationsRequired */\n      0x00\n      0x00\n      swap1\n      sload\n      swap1\n      0x0100\n      exp\n      swap1\n      div\n      0xff\n      and\n        /* \"contracts/SomniaConsensusDAO.sol\":6590:6618  return confirmationsRequired */\n      0xff\n      and\n      swap1\n      pop\n        /* \"contracts/SomniaConsensusDAO.sol\":6531:6625  function seeMinCofReq() public view returns(uint){... */\n      swap1\n      jump\t// out\n        /* \"contracts/SomniaConsensusDAO.sol\":6120:6429  function assignRequiredConf(uint8 _confReq) public onlyConsensus{... */\n    tag_40:\n        /* \"contracts/SomniaConsensusDAO.sol\":728:732  this */\n      address\n        /* \"contracts/SomniaConsensusDAO.sol\":706:733  msg.sender == address(this) */\n      0xffffffffffffffffffffffffffffffffffffffff\n      and\n        /* \"contracts/SomniaConsensusDAO.sol\":706:716  msg.sender */\n      caller\n        /* \"contracts/SomniaConsensusDAO.sol\":706:733  msg.sender == address(this) */\n      0xffffffffffffffffffffffffffffffffffffffff\n      and\n      eq\n        /* \"contracts/SomniaConsensusDAO.sol\":698:764  require(msg.sender == address(this),\"Call the consensus function\") */\n      tag_93\n      jumpi\n      mload(0x40)\n      0x08c379a000000000000000000000000000000000000000000000000000000000\n      dup2\n      mstore\n      0x04\n      add\n      tag_94\n      swap1\n      tag_95\n      jump\t// in\n    tag_94:\n      mload(0x40)\n      dup1\n      swap2\n      sub\n      swap1\n      revert\n    tag_93:\n        /* \"contracts/SomniaConsensusDAO.sol\":6219:6227  _confReq */\n      dup1\n        /* \"contracts/SomniaConsensusDAO.sol\":6202:6227  owners.length >= _confReq */\n      0xff\n      and\n        /* \"contracts/SomniaConsensusDAO.sol\":6202:6208  owners */\n      0x01\n        /* \"contracts/SomniaConsensusDAO.sol\":6202:6215  owners.length */\n      dup1\n      sload\n      swap1\n      pop\n        /* \"contracts/SomniaConsensusDAO.sol\":6202:6227  owners.length >= _confReq */\n      lt\n      iszero\n        /* \"contracts/SomniaConsensusDAO.sol\":6194:6262  require(owners.length >= _confReq, \"error owners.length < _confReq\") */\n      tag_97\n      jumpi\n      mload(0x40)\n      0x08c379a000000000000000000000000000000000000000000000000000000000\n      dup2\n      mstore\n      0x04\n      add\n      tag_98\n      swap1\n      tag_99\n      jump\t// in\n    tag_98:\n      mload(0x40)\n      dup1\n      swap2\n      sub\n      swap1\n      revert\n    tag_97:\n        /* \"contracts/SomniaConsensusDAO.sol\":6292:6293  2 */\n      0x02\n        /* \"contracts/SomniaConsensusDAO.sol\":6280:6288  _confReq */\n      dup2\n        /* \"contracts/SomniaConsensusDAO.sol\":6280:6293  _confReq >= 2 */\n      0xff\n      and\n      lt\n      iszero\n        /* \"contracts/SomniaConsensusDAO.sol\":6272:6319  require(_confReq >= 2, \"Minimal confRequire 2\") */\n      tag_100\n      jumpi\n      mload(0x40)\n      0x08c379a000000000000000000000000000000000000000000000000000000000\n      dup2\n      mstore\n      0x04\n      add\n      tag_101\n      swap1\n      tag_102\n      jump\t// in\n    tag_101:\n      mload(0x40)\n      dup1\n      swap2\n      sub\n      swap1\n      revert\n    tag_100:\n        /* \"contracts/SomniaConsensusDAO.sol\":6362:6370  _confReq */\n      dup1\n        /* \"contracts/SomniaConsensusDAO.sol\":6338:6359  confirmationsRequired */\n      0x00\n      0x00\n        /* \"contracts/SomniaConsensusDAO.sol\":6338:6370  confirmationsRequired = _confReq */\n      0x0100\n      exp\n      dup2\n      sload\n      dup2\n      0xff\n      mul\n      not\n      and\n      swap1\n      dup4\n      0xff\n      and\n      mul\n      or\n      swap1\n      sstore\n      pop\n        /* \"contracts/SomniaConsensusDAO.sol\":6385:6422  assignRequired(block.number,_confReq) */\n      0xf038ae2391da98e6cc50292a29178f79383d45f4798eb3d2643b2151fe648287\n        /* \"contracts/SomniaConsensusDAO.sol\":6400:6412  block.number */\n      number\n        /* \"contracts/SomniaConsensusDAO.sol\":6413:6421  _confReq */\n      dup3\n        /* \"contracts/SomniaConsensusDAO.sol\":6385:6422  assignRequired(block.number,_confReq) */\n      mload(0x40)\n      tag_103\n      swap3\n      swap2\n      swap1\n      tag_104\n      jump\t// in\n    tag_103:\n      mload(0x40)\n      dup1\n      swap2\n      sub\n      swap1\n      log1\n        /* \"contracts/SomniaConsensusDAO.sol\":6120:6429  function assignRequiredConf(uint8 _confReq) public onlyConsensus{... */\n      pop\n      jump\t// out\n        /* \"contracts/SomniaConsensusDAO.sol\":6435:6525  function seeOwners() external view returns(address[] memory){... */\n    tag_42:\n        /* \"contracts/SomniaConsensusDAO.sol\":6478:6494  address[] memory */\n      0x60\n        /* \"contracts/SomniaConsensusDAO.sol\":6512:6518  owners */\n      0x01\n        /* \"contracts/SomniaConsensusDAO.sol\":6505:6518  return owners */\n      dup1\n      sload\n      dup1\n      0x20\n      mul\n      0x20\n      add\n      mload(0x40)\n      swap1\n      dup2\n      add\n      0x40\n      mstore\n      dup1\n      swap3\n      swap2\n      swap1\n      dup2\n      dup2\n      mstore\n      0x20\n      add\n      dup3\n      dup1\n      sload\n      dup1\n      iszero\n      tag_106\n      jumpi\n      0x20\n      mul\n      dup3\n      add\n      swap2\n      swap1\n      0x00\n      mstore\n      keccak256(0x00, 0x20)\n      swap1\n    tag_107:\n      dup2\n      0x00\n      swap1\n      sload\n      swap1\n      0x0100\n      exp\n      swap1\n      div\n      0xffffffffffffffffffffffffffffffffffffffff\n      and\n      0xffffffffffffffffffffffffffffffffffffffff\n      and\n      dup2\n      mstore\n      0x20\n      add\n      swap1\n      0x01\n      add\n      swap1\n      dup1\n      dup4\n      gt\n      tag_107\n      jumpi\n    tag_106:\n      pop\n      pop\n      pop\n      pop\n      pop\n      swap1\n      pop\n        /* \"contracts/SomniaConsensusDAO.sol\":6435:6525  function seeOwners() external view returns(address[] memory){... */\n      swap1\n      jump\t// out\n        /* \"contracts/SomniaConsensusDAO.sol\":365:408  mapping(bytes32 => ExecProposal) public eps */\n    tag_48:\n      mstore(0x20, 0x02)\n      dup1\n      0x00\n      mstore\n      keccak256(0x00, 0x40)\n      0x00\n      swap2\n      pop\n      swap1\n      pop\n      dup1\n      0x00\n      add\n      sload\n      swap1\n      dup1\n      0x01\n      add\n      0x00\n      swap1\n      sload\n      swap1\n      0x0100\n      exp\n      swap1\n      div\n      0xffffffffffffffffffffffffffffffffffffffff\n      and\n      swap1\n      dup1\n      0x02\n      add\n      dup1\n      sload\n      tag_108\n      swap1\n      tag_109\n      jump\t// in\n    tag_108:\n      dup1\n      0x1f\n      add\n      0x20\n      dup1\n      swap2\n      div\n      mul\n      0x20\n      add\n      mload(0x40)\n      swap1\n      dup2\n      add\n      0x40\n      mstore\n      dup1\n      swap3\n      swap2\n      swap1\n      dup2\n      dup2\n      mstore\n      0x20\n      add\n      dup3\n      dup1\n      sload\n      tag_110\n      swap1\n      tag_109\n      jump\t// in\n    tag_110:\n      dup1\n      iszero\n      tag_111\n      jumpi\n      dup1\n      0x1f\n      lt\n      tag_112\n      jumpi\n      0x0100\n      dup1\n      dup4\n      sload\n      div\n      mul\n      dup4\n      mstore\n      swap2\n      0x20\n      add\n      swap2\n      jump(tag_111)\n    tag_112:\n      dup3\n      add\n      swap2\n      swap1\n      0x00\n      mstore\n      keccak256(0x00, 0x20)\n      swap1\n    tag_113:\n      dup2\n      sload\n      dup2\n      mstore\n      swap1\n      0x01\n      add\n      swap1\n      0x20\n      add\n      dup1\n      dup4\n      gt\n      tag_113\n      jumpi\n      dup3\n      swap1\n      sub\n      0x1f\n      and\n      dup3\n      add\n      swap2\n    tag_111:\n      pop\n      pop\n      pop\n      pop\n      pop\n      swap1\n      dup1\n      0x03\n      add\n      dup1\n      sload\n      tag_114\n      swap1\n      tag_109\n      jump\t// in\n    tag_114:\n      dup1\n      0x1f\n      add\n      0x20\n      dup1\n      swap2\n      div\n      mul\n      0x20\n      add\n      mload(0x40)\n      swap1\n      dup2\n      add\n      0x40\n      mstore\n      dup1\n      swap3\n      swap2\n      swap1\n      dup2\n      dup2\n      mstore\n      0x20\n      add\n      dup3\n      dup1\n      sload\n      tag_115\n      swap1\n      tag_109\n      jump\t// in\n    tag_115:\n      dup1\n      iszero\n      tag_116\n      jumpi\n      dup1\n      0x1f\n      lt\n      tag_117\n      jumpi\n      0x0100\n      dup1\n      dup4\n      sload\n      div\n      mul\n      dup4\n      mstore\n      swap2\n      0x20\n      add\n      swap2\n      jump(tag_116)\n    tag_117:\n      dup3\n      add\n      swap2\n      swap1\n      0x00\n      mstore\n      keccak256(0x00, 0x20)\n      swap1\n    tag_118:\n      dup2\n      sload\n      dup2\n      mstore\n      swap1\n      0x01\n      add\n      swap1\n      0x20\n      add\n      dup1\n      dup4\n      gt\n      tag_118\n      jumpi\n      dup3\n      swap1\n      sub\n      0x1f\n      and\n      dup3\n      add\n      swap2\n    tag_116:\n      pop\n      pop\n      pop\n      pop\n      pop\n      swap1\n      dup1\n      0x04\n      add\n      sload\n      swap1\n      dup1\n      0x05\n      add\n      sload\n      swap1\n      pop\n      dup7\n      jump\t// out\n        /* \"contracts/SomniaConsensusDAO.sol\":5356:5547  function addOwner(address newOwner) public onlyConsensus{... */\n    tag_54:\n        /* \"contracts/SomniaConsensusDAO.sol\":728:732  this */\n      address\n        /* \"contracts/SomniaConsensusDAO.sol\":706:733  msg.sender == address(this) */\n      0xffffffffffffffffffffffffffffffffffffffff\n      and\n        /* \"contracts/SomniaConsensusDAO.sol\":706:716  msg.sender */\n      caller\n        /* \"contracts/SomniaConsensusDAO.sol\":706:733  msg.sender == address(this) */\n      0xffffffffffffffffffffffffffffffffffffffff\n      and\n      eq\n        /* \"contracts/SomniaConsensusDAO.sol\":698:764  require(msg.sender == address(this),\"Call the consensus function\") */\n      tag_120\n      jumpi\n      mload(0x40)\n      0x08c379a000000000000000000000000000000000000000000000000000000000\n      dup2\n      mstore\n      0x04\n      add\n      tag_121\n      swap1\n      tag_95\n      jump\t// in\n    tag_121:\n      mload(0x40)\n      dup1\n      swap2\n      sub\n      swap1\n      revert\n    tag_120:\n        /* \"contracts/SomniaConsensusDAO.sol\":5450:5451  0 */\n      0x00\n        /* \"contracts/SomniaConsensusDAO.sol\":5430:5452  newOwner != address(0) */\n      0xffffffffffffffffffffffffffffffffffffffff\n      and\n        /* \"contracts/SomniaConsensusDAO.sol\":5430:5438  newOwner */\n      dup2\n        /* \"contracts/SomniaConsensusDAO.sol\":5430:5452  newOwner != address(0) */\n      0xffffffffffffffffffffffffffffffffffffffff\n      and\n      sub\n        /* \"contracts/SomniaConsensusDAO.sol\":5422:5475  require(newOwner != address(0), \"Error zero address\") */\n      tag_123\n      jumpi\n      mload(0x40)\n      0x08c379a000000000000000000000000000000000000000000000000000000000\n      dup2\n      mstore\n      0x04\n      add\n      tag_124\n      swap1\n      tag_125\n      jump\t// in\n    tag_124:\n      mload(0x40)\n      dup1\n      swap2\n      sub\n      swap1\n      revert\n    tag_123:\n        /* \"contracts/SomniaConsensusDAO.sol\":5505:5509  true */\n      0x01\n        /* \"contracts/SomniaConsensusDAO.sol\":5485:5492  isOwner */\n      0x05\n        /* \"contracts/SomniaConsensusDAO.sol\":5485:5502  isOwner[newOwner] */\n      0x00\n        /* \"contracts/SomniaConsensusDAO.sol\":5493:5501  newOwner */\n      dup4\n        /* \"contracts/SomniaConsensusDAO.sol\":5485:5502  isOwner[newOwner] */\n      0xffffffffffffffffffffffffffffffffffffffff\n      and\n      0xffffffffffffffffffffffffffffffffffffffff\n      and\n      dup2\n      mstore\n      0x20\n      add\n      swap1\n      dup2\n      mstore\n      0x20\n      add\n      0x00\n      keccak256\n      0x00\n        /* \"contracts/SomniaConsensusDAO.sol\":5485:5509  isOwner[newOwner] = true */\n      0x0100\n      exp\n      dup2\n      sload\n      dup2\n      0xff\n      mul\n      not\n      and\n      swap1\n      dup4\n      iszero\n      iszero\n      mul\n      or\n      swap1\n      sstore\n      pop\n        /* \"contracts/SomniaConsensusDAO.sol\":5519:5525  owners */\n      0x01\n        /* \"contracts/SomniaConsensusDAO.sol\":5531:5539  newOwner */\n      dup2\n        /* \"contracts/SomniaConsensusDAO.sol\":5519:5540  owners.push(newOwner) */\n      swap1\n      dup1\n      0x01\n      dup2\n      sload\n      add\n      dup1\n      dup3\n      sstore\n      dup1\n      swap2\n      pop\n      pop\n      0x01\n      swap1\n      sub\n      swap1\n      0x00\n      mstore\n      keccak256(0x00, 0x20)\n      add\n      0x00\n      swap1\n      swap2\n      swap1\n      swap2\n      swap1\n      swap2\n      0x0100\n      exp\n      dup2\n      sload\n      dup2\n      0xffffffffffffffffffffffffffffffffffffffff\n      mul\n      not\n      and\n      swap1\n      dup4\n      0xffffffffffffffffffffffffffffffffffffffff\n      and\n      mul\n      or\n      swap1\n      sstore\n      pop\n        /* \"contracts/SomniaConsensusDAO.sol\":5356:5547  function addOwner(address newOwner) public onlyConsensus{... */\n      pop\n      jump\t// out\n        /* \"contracts/SomniaConsensusDAO.sol\":2835:3263  function confirm(bytes32 _txId) external onlyOwner {... */\n    tag_57:\n        /* \"contracts/SomniaConsensusDAO.sol\":596:603  isOwner */\n      0x05\n        /* \"contracts/SomniaConsensusDAO.sol\":596:615  isOwner[msg.sender] */\n      0x00\n        /* \"contracts/SomniaConsensusDAO.sol\":604:614  msg.sender */\n      caller\n        /* \"contracts/SomniaConsensusDAO.sol\":596:615  isOwner[msg.sender] */\n      0xffffffffffffffffffffffffffffffffffffffff\n      and\n      0xffffffffffffffffffffffffffffffffffffffff\n      and\n      dup2\n      mstore\n      0x20\n      add\n      swap1\n      dup2\n      mstore\n      0x20\n      add\n      0x00\n      keccak256\n      0x00\n      swap1\n      sload\n      swap1\n      0x0100\n      exp\n      swap1\n      div\n      0xff\n      and\n        /* \"contracts/SomniaConsensusDAO.sol\":588:640  require(isOwner[msg.sender],\"You are not the owner\") */\n      tag_128\n      jumpi\n      mload(0x40)\n      0x08c379a000000000000000000000000000000000000000000000000000000000\n      dup2\n      mstore\n      0x04\n      add\n      tag_129\n      swap1\n      tag_69\n      jump\t// in\n    tag_129:\n      mload(0x40)\n      dup1\n      swap2\n      sub\n      swap1\n      revert\n    tag_128:\n        /* \"contracts/SomniaConsensusDAO.sol\":2904:2909  queue */\n      0x03\n        /* \"contracts/SomniaConsensusDAO.sol\":2904:2916  queue[_txId] */\n      0x00\n        /* \"contracts/SomniaConsensusDAO.sol\":2910:2915  _txId */\n      dup3\n        /* \"contracts/SomniaConsensusDAO.sol\":2904:2916  queue[_txId] */\n      dup2\n      mstore\n      0x20\n      add\n      swap1\n      dup2\n      mstore\n      0x20\n      add\n      0x00\n      keccak256\n      0x00\n      swap1\n      sload\n      swap1\n      0x0100\n      exp\n      swap1\n      div\n      0xff\n      and\n        /* \"contracts/SomniaConsensusDAO.sol\":2896:2932  require(queue[_txId], \"not queued!\") */\n      tag_131\n      jumpi\n      mload(0x40)\n      0x08c379a000000000000000000000000000000000000000000000000000000000\n      dup2\n      mstore\n      0x04\n      add\n      tag_132\n      swap1\n      tag_133\n      jump\t// in\n    tag_132:\n      mload(0x40)\n      dup1\n      swap2\n      sub\n      swap1\n      revert\n    tag_131:\n        /* \"contracts/SomniaConsensusDAO.sol\":2951:2964  confirmations */\n      0x04\n        /* \"contracts/SomniaConsensusDAO.sol\":2951:2971  confirmations[_txId] */\n      0x00\n        /* \"contracts/SomniaConsensusDAO.sol\":2965:2970  _txId */\n      dup3\n        /* \"contracts/SomniaConsensusDAO.sol\":2951:2971  confirmations[_txId] */\n      dup2\n      mstore\n      0x20\n      add\n      swap1\n      dup2\n      mstore\n      0x20\n      add\n      0x00\n      keccak256\n        /* \"contracts/SomniaConsensusDAO.sol\":2951:2983  confirmations[_txId][msg.sender] */\n      0x00\n        /* \"contracts/SomniaConsensusDAO.sol\":2972:2982  msg.sender */\n      caller\n        /* \"contracts/SomniaConsensusDAO.sol\":2951:2983  confirmations[_txId][msg.sender] */\n      0xffffffffffffffffffffffffffffffffffffffff\n      and\n      0xffffffffffffffffffffffffffffffffffffffff\n      and\n      dup2\n      mstore\n      0x20\n      add\n      swap1\n      dup2\n      mstore\n      0x20\n      add\n      0x00\n      keccak256\n      0x00\n      swap1\n      sload\n      swap1\n      0x0100\n      exp\n      swap1\n      div\n      0xff\n      and\n        /* \"contracts/SomniaConsensusDAO.sol\":2950:2983  !confirmations[_txId][msg.sender] */\n      iszero\n        /* \"contracts/SomniaConsensusDAO.sol\":2942:3006  require(!confirmations[_txId][msg.sender], \"already confirmed!\") */\n      tag_134\n      jumpi\n      mload(0x40)\n      0x08c379a000000000000000000000000000000000000000000000000000000000\n      dup2\n      mstore\n      0x04\n      add\n      tag_135\n      swap1\n      tag_136\n      jump\t// in\n    tag_135:\n      mload(0x40)\n      dup1\n      swap2\n      sub\n      swap1\n      revert\n    tag_134:\n        /* \"contracts/SomniaConsensusDAO.sol\":3017:3050  ExecProposal storage execProposal */\n      0x00\n        /* \"contracts/SomniaConsensusDAO.sol\":3053:3056  eps */\n      0x02\n        /* \"contracts/SomniaConsensusDAO.sol\":3053:3063  eps[_txId] */\n      0x00\n        /* \"contracts/SomniaConsensusDAO.sol\":3057:3062  _txId */\n      dup4\n        /* \"contracts/SomniaConsensusDAO.sol\":3053:3063  eps[_txId] */\n      dup2\n      mstore\n      0x20\n      add\n      swap1\n      dup2\n      mstore\n      0x20\n      add\n      0x00\n      keccak256\n        /* \"contracts/SomniaConsensusDAO.sol\":3017:3063  ExecProposal storage execProposal = eps[_txId] */\n      swap1\n      pop\n        /* \"contracts/SomniaConsensusDAO.sol\":3074:3086  execProposal */\n      dup1\n        /* \"contracts/SomniaConsensusDAO.sol\":3074:3100  execProposal.confirmations */\n      0x05\n      add\n      0x00\n        /* \"contracts/SomniaConsensusDAO.sol\":3074:3102  execProposal.confirmations++ */\n      dup2\n      sload\n      dup1\n      swap3\n      swap2\n      swap1\n      tag_137\n      swap1\n      tag_138\n      jump\t// in\n    tag_137:\n      swap2\n      swap1\n      pop\n      sstore\n      pop\n        /* \"contracts/SomniaConsensusDAO.sol\":3147:3151  true */\n      0x01\n        /* \"contracts/SomniaConsensusDAO.sol\":3112:3125  confirmations */\n      0x04\n        /* \"contracts/SomniaConsensusDAO.sol\":3112:3132  confirmations[_txId] */\n      0x00\n        /* \"contracts/SomniaConsensusDAO.sol\":3126:3131  _txId */\n      dup5\n        /* \"contracts/SomniaConsensusDAO.sol\":3112:3132  confirmations[_txId] */\n      dup2\n      mstore\n      0x20\n      add\n      swap1\n      dup2\n      mstore\n      0x20\n      add\n      0x00\n      keccak256\n        /* \"contracts/SomniaConsensusDAO.sol\":3112:3144  confirmations[_txId][msg.sender] */\n      0x00\n        /* \"contracts/SomniaConsensusDAO.sol\":3133:3143  msg.sender */\n      caller\n        /* \"contracts/SomniaConsensusDAO.sol\":3112:3144  confirmations[_txId][msg.sender] */\n      0xffffffffffffffffffffffffffffffffffffffff\n      and\n      0xffffffffffffffffffffffffffffffffffffffff\n      and\n      dup2\n      mstore\n      0x20\n      add\n      swap1\n      dup2\n      mstore\n      0x20\n      add\n      0x00\n      keccak256\n      0x00\n        /* \"contracts/SomniaConsensusDAO.sol\":3112:3151  confirmations[_txId][msg.sender] = true */\n      0x0100\n      exp\n      dup2\n      sload\n      dup2\n      0xff\n      mul\n      not\n      and\n      swap1\n      dup4\n      iszero\n      iszero\n      mul\n      or\n      swap1\n      sstore\n      pop\n        /* \"contracts/SomniaConsensusDAO.sol\":3196:3217  confirmationsRequired */\n      0x00\n      0x00\n      swap1\n      sload\n      swap1\n      0x0100\n      exp\n      swap1\n      div\n      0xff\n      and\n        /* \"contracts/SomniaConsensusDAO.sol\":3166:3217  execProposal.confirmations >= confirmationsRequired */\n      0xff\n      and\n        /* \"contracts/SomniaConsensusDAO.sol\":3166:3178  execProposal */\n      dup2\n        /* \"contracts/SomniaConsensusDAO.sol\":3166:3192  execProposal.confirmations */\n      0x05\n      add\n      sload\n        /* \"contracts/SomniaConsensusDAO.sol\":3166:3217  execProposal.confirmations >= confirmationsRequired */\n      lt\n        /* \"contracts/SomniaConsensusDAO.sol\":3162:3257  if (execProposal.confirmations >= confirmationsRequired){... */\n      tag_139\n      jumpi\n        /* \"contracts/SomniaConsensusDAO.sol\":3232:3246  execute(_txId) */\n      tag_140\n        /* \"contracts/SomniaConsensusDAO.sol\":3240:3245  _txId */\n      dup3\n        /* \"contracts/SomniaConsensusDAO.sol\":3232:3239  execute */\n      tag_141\n        /* \"contracts/SomniaConsensusDAO.sol\":3232:3246  execute(_txId) */\n      jump\t// in\n    tag_140:\n        /* \"contracts/SomniaConsensusDAO.sol\":3162:3257  if (execProposal.confirmations >= confirmationsRequired){... */\n    tag_139:\n        /* \"contracts/SomniaConsensusDAO.sol\":2886:3263  {... */\n      pop\n        /* \"contracts/SomniaConsensusDAO.sol\":2835:3263  function confirm(bytes32 _txId) external onlyOwner {... */\n      pop\n      jump\t// out\n        /* \"contracts/SomniaConsensusDAO.sol\":3322:3701  function cancelConfirmation(bytes32 _txId) external onlyOwner {... */\n    tag_60:\n        /* \"contracts/SomniaConsensusDAO.sol\":596:603  isOwner */\n      0x05\n        /* \"contracts/SomniaConsensusDAO.sol\":596:615  isOwner[msg.sender] */\n      0x00\n        /* \"contracts/SomniaConsensusDAO.sol\":604:614  msg.sender */\n      caller\n        /* \"contracts/SomniaConsensusDAO.sol\":596:615  isOwner[msg.sender] */\n      0xffffffffffffffffffffffffffffffffffffffff\n      and\n      0xffffffffffffffffffffffffffffffffffffffff\n      and\n      dup2\n      mstore\n      0x20\n      add\n      swap1\n      dup2\n      mstore\n      0x20\n      add\n      0x00\n      keccak256\n      0x00\n      swap1\n      sload\n      swap1\n      0x0100\n      exp\n      swap1\n      div\n      0xff\n      and\n        /* \"contracts/SomniaConsensusDAO.sol\":588:640  require(isOwner[msg.sender],\"You are not the owner\") */\n      tag_143\n      jumpi\n      mload(0x40)\n      0x08c379a000000000000000000000000000000000000000000000000000000000\n      dup2\n      mstore\n      0x04\n      add\n      tag_144\n      swap1\n      tag_69\n      jump\t// in\n    tag_144:\n      mload(0x40)\n      dup1\n      swap2\n      sub\n      swap1\n      revert\n    tag_143:\n        /* \"contracts/SomniaConsensusDAO.sol\":3402:3415  confirmations */\n      0x04\n        /* \"contracts/SomniaConsensusDAO.sol\":3402:3422  confirmations[_txId] */\n      0x00\n        /* \"contracts/SomniaConsensusDAO.sol\":3416:3421  _txId */\n      dup3\n        /* \"contracts/SomniaConsensusDAO.sol\":3402:3422  confirmations[_txId] */\n      dup2\n      mstore\n      0x20\n      add\n      swap1\n      dup2\n      mstore\n      0x20\n      add\n      0x00\n      keccak256\n        /* \"contracts/SomniaConsensusDAO.sol\":3402:3434  confirmations[_txId][msg.sender] */\n      0x00\n        /* \"contracts/SomniaConsensusDAO.sol\":3423:3433  msg.sender */\n      caller\n        /* \"contracts/SomniaConsensusDAO.sol\":3402:3434  confirmations[_txId][msg.sender] */\n      0xffffffffffffffffffffffffffffffffffffffff\n      and\n      0xffffffffffffffffffffffffffffffffffffffff\n      and\n      dup2\n      mstore\n      0x20\n      add\n      swap1\n      dup2\n      mstore\n      0x20\n      add\n      0x00\n      keccak256\n      0x00\n      swap1\n      sload\n      swap1\n      0x0100\n      exp\n      swap1\n      div\n      0xff\n      and\n        /* \"contracts/SomniaConsensusDAO.sol\":3394:3453  require(confirmations[_txId][msg.sender], \"not confirmed!\") */\n      tag_146\n      jumpi\n      mload(0x40)\n      0x08c379a000000000000000000000000000000000000000000000000000000000\n      dup2\n      mstore\n      0x04\n      add\n      tag_147\n      swap1\n      tag_148\n      jump\t// in\n    tag_147:\n      mload(0x40)\n      dup1\n      swap2\n      sub\n      swap1\n      revert\n    tag_146:\n        /* \"contracts/SomniaConsensusDAO.sol\":3464:3497  ExecProposal storage execProposal */\n      0x00\n        /* \"contracts/SomniaConsensusDAO.sol\":3500:3503  eps */\n      0x02\n        /* \"contracts/SomniaConsensusDAO.sol\":3500:3510  eps[_txId] */\n      0x00\n        /* \"contracts/SomniaConsensusDAO.sol\":3504:3509  _txId */\n      dup4\n        /* \"contracts/SomniaConsensusDAO.sol\":3500:3510  eps[_txId] */\n      dup2\n      mstore\n      0x20\n      add\n      swap1\n      dup2\n      mstore\n      0x20\n      add\n      0x00\n      keccak256\n        /* \"contracts/SomniaConsensusDAO.sol\":3464:3510  ExecProposal storage execProposal = eps[_txId] */\n      swap1\n      pop\n        /* \"contracts/SomniaConsensusDAO.sol\":3520:3532  execProposal */\n      dup1\n        /* \"contracts/SomniaConsensusDAO.sol\":3520:3546  execProposal.confirmations */\n      0x05\n      add\n      0x00\n        /* \"contracts/SomniaConsensusDAO.sol\":3520:3548  execProposal.confirmations-- */\n      dup2\n      sload\n      dup1\n      swap3\n      swap2\n      swap1\n      tag_149\n      swap1\n      tag_150\n      jump\t// in\n    tag_149:\n      swap2\n      swap1\n      pop\n      sstore\n      pop\n        /* \"contracts/SomniaConsensusDAO.sol\":3593:3598  false */\n      0x00\n        /* \"contracts/SomniaConsensusDAO.sol\":3558:3571  confirmations */\n      0x04\n        /* \"contracts/SomniaConsensusDAO.sol\":3558:3578  confirmations[_txId] */\n      0x00\n        /* \"contracts/SomniaConsensusDAO.sol\":3572:3577  _txId */\n      dup5\n        /* \"contracts/SomniaConsensusDAO.sol\":3558:3578  confirmations[_txId] */\n      dup2\n      mstore\n      0x20\n      add\n      swap1\n      dup2\n      mstore\n      0x20\n      add\n      0x00\n      keccak256\n        /* \"contracts/SomniaConsensusDAO.sol\":3558:3590  confirmations[_txId][msg.sender] */\n      0x00\n        /* \"contracts/SomniaConsensusDAO.sol\":3579:3589  msg.sender */\n      caller\n        /* \"contracts/SomniaConsensusDAO.sol\":3558:3590  confirmations[_txId][msg.sender] */\n      0xffffffffffffffffffffffffffffffffffffffff\n      and\n      0xffffffffffffffffffffffffffffffffffffffff\n      and\n      dup2\n      mstore\n      0x20\n      add\n      swap1\n      dup2\n      mstore\n      0x20\n      add\n      0x00\n      keccak256\n      0x00\n        /* \"contracts/SomniaConsensusDAO.sol\":3558:3598  confirmations[_txId][msg.sender] = false */\n      0x0100\n      exp\n      dup2\n      sload\n      dup2\n      0xff\n      mul\n      not\n      and\n      swap1\n      dup4\n      iszero\n      iszero\n      mul\n      or\n      swap1\n      sstore\n      pop\n        /* \"contracts/SomniaConsensusDAO.sol\":3642:3643  0 */\n      0x00\n        /* \"contracts/SomniaConsensusDAO.sol\":3612:3624  execProposal */\n      dup2\n        /* \"contracts/SomniaConsensusDAO.sol\":3612:3638  execProposal.confirmations */\n      0x05\n      add\n      sload\n        /* \"contracts/SomniaConsensusDAO.sol\":3612:3643  execProposal.confirmations == 0 */\n      sub\n        /* \"contracts/SomniaConsensusDAO.sol\":3609:3695  if(execProposal.confirmations == 0){... */\n      tag_151\n      jumpi\n        /* \"contracts/SomniaConsensusDAO.sol\":3658:3684  discardExecProposal(_txId) */\n      tag_152\n        /* \"contracts/SomniaConsensusDAO.sol\":3678:3683  _txId */\n      dup3\n        /* \"contracts/SomniaConsensusDAO.sol\":3658:3677  discardExecProposal */\n      tag_153\n        /* \"contracts/SomniaConsensusDAO.sol\":3658:3684  discardExecProposal(_txId) */\n      jump\t// in\n    tag_152:\n        /* \"contracts/SomniaConsensusDAO.sol\":3609:3695  if(execProposal.confirmations == 0){... */\n    tag_151:\n        /* \"contracts/SomniaConsensusDAO.sol\":3384:3701  {... */\n      pop\n        /* \"contracts/SomniaConsensusDAO.sol\":3322:3701  function cancelConfirmation(bytes32 _txId) external onlyOwner {... */\n      pop\n      jump\t// out\n        /* \"contracts/SomniaConsensusDAO.sol\":5553:6114  function delOwner(uint indexOwner) public onlyConsensus {... */\n    tag_63:\n        /* \"contracts/SomniaConsensusDAO.sol\":728:732  this */\n      address\n        /* \"contracts/SomniaConsensusDAO.sol\":706:733  msg.sender == address(this) */\n      0xffffffffffffffffffffffffffffffffffffffff\n      and\n        /* \"contracts/SomniaConsensusDAO.sol\":706:716  msg.sender */\n      caller\n        /* \"contracts/SomniaConsensusDAO.sol\":706:733  msg.sender == address(this) */\n      0xffffffffffffffffffffffffffffffffffffffff\n      and\n      eq\n        /* \"contracts/SomniaConsensusDAO.sol\":698:764  require(msg.sender == address(this),\"Call the consensus function\") */\n      tag_155\n      jumpi\n      mload(0x40)\n      0x08c379a000000000000000000000000000000000000000000000000000000000\n      dup2\n      mstore\n      0x04\n      add\n      tag_156\n      swap1\n      tag_95\n      jump\t// in\n    tag_156:\n      mload(0x40)\n      dup1\n      swap2\n      sub\n      swap1\n      revert\n    tag_155:\n        /* \"contracts/SomniaConsensusDAO.sol\":5619:5635  uint ownerLength */\n      0x00\n        /* \"contracts/SomniaConsensusDAO.sol\":5638:5644  owners */\n      0x01\n        /* \"contracts/SomniaConsensusDAO.sol\":5638:5651  owners.length */\n      dup1\n      sload\n      swap1\n      pop\n        /* \"contracts/SomniaConsensusDAO.sol\":5619:5651  uint ownerLength = owners.length */\n      swap1\n      pop\n        /* \"contracts/SomniaConsensusDAO.sol\":5683:5694  ownerLength */\n      dup1\n        /* \"contracts/SomniaConsensusDAO.sol\":5669:5679  indexOwner */\n      dup3\n        /* \"contracts/SomniaConsensusDAO.sol\":5669:5694  indexOwner <= ownerLength */\n      gt\n      iszero\n        /* \"contracts/SomniaConsensusDAO.sol\":5661:5744  require(indexOwner <= ownerLength, \"Node index cannot be higher than their number\") */\n      tag_158\n      jumpi\n      mload(0x40)\n      0x08c379a000000000000000000000000000000000000000000000000000000000\n      dup2\n      mstore\n      0x04\n      add\n      tag_159\n      swap1\n      tag_160\n      jump\t// in\n    tag_159:\n      mload(0x40)\n      dup1\n      swap2\n      sub\n      swap1\n      revert\n    tag_158:\n        /* \"contracts/SomniaConsensusDAO.sol\":5833:5854  confirmationsRequired */\n      0x00\n      0x00\n      swap1\n      sload\n      swap1\n      0x0100\n      exp\n      swap1\n      div\n      0xff\n      and\n        /* \"contracts/SomniaConsensusDAO.sol\":5814:5854  ownerLength -1  >= confirmationsRequired */\n      0xff\n      and\n        /* \"contracts/SomniaConsensusDAO.sol\":5827:5828  1 */\n      0x01\n        /* \"contracts/SomniaConsensusDAO.sol\":5814:5825  ownerLength */\n      dup3\n        /* \"contracts/SomniaConsensusDAO.sol\":5814:5828  ownerLength -1 */\n      tag_161\n      swap2\n      swap1\n      tag_162\n      jump\t// in\n    tag_161:\n        /* \"contracts/SomniaConsensusDAO.sol\":5814:5854  ownerLength -1  >= confirmationsRequired */\n      lt\n      iszero\n        /* \"contracts/SomniaConsensusDAO.sol\":5806:5884  require(ownerLength -1  >= confirmationsRequired, \"error minimal count owner\") */\n      tag_163\n      jumpi\n      mload(0x40)\n      0x08c379a000000000000000000000000000000000000000000000000000000000\n      dup2\n      mstore\n      0x04\n      add\n      tag_164\n      swap1\n      tag_165\n      jump\t// in\n    tag_164:\n      mload(0x40)\n      dup1\n      swap2\n      sub\n      swap1\n      revert\n    tag_163:\n        /* \"contracts/SomniaConsensusDAO.sol\":5925:5930  false */\n      0x00\n        /* \"contracts/SomniaConsensusDAO.sol\":5895:5902  isOwner */\n      0x05\n        /* \"contracts/SomniaConsensusDAO.sol\":5895:5922  isOwner[owners[indexOwner]] */\n      0x00\n        /* \"contracts/SomniaConsensusDAO.sol\":5903:5909  owners */\n      0x01\n        /* \"contracts/SomniaConsensusDAO.sol\":5910:5920  indexOwner */\n      dup6\n        /* \"contracts/SomniaConsensusDAO.sol\":5903:5921  owners[indexOwner] */\n      dup2\n      sload\n      dup2\n      lt\n      tag_166\n      jumpi\n      tag_167\n      tag_168\n      jump\t// in\n    tag_167:\n    tag_166:\n      swap1\n      0x00\n      mstore\n      keccak256(0x00, 0x20)\n      add\n      0x00\n      swap1\n      sload\n      swap1\n      0x0100\n      exp\n      swap1\n      div\n      0xffffffffffffffffffffffffffffffffffffffff\n      and\n        /* \"contracts/SomniaConsensusDAO.sol\":5895:5922  isOwner[owners[indexOwner]] */\n      0xffffffffffffffffffffffffffffffffffffffff\n      and\n      0xffffffffffffffffffffffffffffffffffffffff\n      and\n      dup2\n      mstore\n      0x20\n      add\n      swap1\n      dup2\n      mstore\n      0x20\n      add\n      0x00\n      keccak256\n      0x00\n        /* \"contracts/SomniaConsensusDAO.sol\":5895:5930  isOwner[owners[indexOwner]] = false */\n      0x0100\n      exp\n      dup2\n      sload\n      dup2\n      0xff\n      mul\n      not\n      and\n      swap1\n      dup4\n      iszero\n      iszero\n      mul\n      or\n      swap1\n      sstore\n      pop\n        /* \"contracts/SomniaConsensusDAO.sol\":5946:5952  uint i */\n      0x00\n        /* \"contracts/SomniaConsensusDAO.sol\":5955:5965  indexOwner */\n      dup3\n        /* \"contracts/SomniaConsensusDAO.sol\":5946:5965  uint i = indexOwner */\n      swap1\n      pop\n        /* \"contracts/SomniaConsensusDAO.sol\":5941:6039  for (uint i = indexOwner; i < ownerLength -1; i++){... */\n    tag_170:\n        /* \"contracts/SomniaConsensusDAO.sol\":5984:5985  1 */\n      0x01\n        /* \"contracts/SomniaConsensusDAO.sol\":5971:5982  ownerLength */\n      dup3\n        /* \"contracts/SomniaConsensusDAO.sol\":5971:5985  ownerLength -1 */\n      tag_173\n      swap2\n      swap1\n      tag_162\n      jump\t// in\n    tag_173:\n        /* \"contracts/SomniaConsensusDAO.sol\":5967:5968  i */\n      dup2\n        /* \"contracts/SomniaConsensusDAO.sol\":5967:5985  i < ownerLength -1 */\n      lt\n        /* \"contracts/SomniaConsensusDAO.sol\":5941:6039  for (uint i = indexOwner; i < ownerLength -1; i++){... */\n      iszero\n      tag_171\n      jumpi\n        /* \"contracts/SomniaConsensusDAO.sol\":6017:6023  owners */\n      0x01\n        /* \"contracts/SomniaConsensusDAO.sol\":6026:6027  1 */\n      dup1\n        /* \"contracts/SomniaConsensusDAO.sol\":6024:6025  i */\n      dup3\n        /* \"contracts/SomniaConsensusDAO.sol\":6024:6027  i+1 */\n      tag_174\n      swap2\n      swap1\n      tag_175\n      jump\t// in\n    tag_174:\n        /* \"contracts/SomniaConsensusDAO.sol\":6017:6028  owners[i+1] */\n      dup2\n      sload\n      dup2\n      lt\n      tag_176\n      jumpi\n      tag_177\n      tag_168\n      jump\t// in\n    tag_177:\n    tag_176:\n      swap1\n      0x00\n      mstore\n      keccak256(0x00, 0x20)\n      add\n      0x00\n      swap1\n      sload\n      swap1\n      0x0100\n      exp\n      swap1\n      div\n      0xffffffffffffffffffffffffffffffffffffffff\n      and\n        /* \"contracts/SomniaConsensusDAO.sol\":6005:6011  owners */\n      0x01\n        /* \"contracts/SomniaConsensusDAO.sol\":6012:6013  i */\n      dup3\n        /* \"contracts/SomniaConsensusDAO.sol\":6005:6014  owners[i] */\n      dup2\n      sload\n      dup2\n      lt\n      tag_179\n      jumpi\n      tag_180\n      tag_168\n      jump\t// in\n    tag_180:\n    tag_179:\n      swap1\n      0x00\n      mstore\n      keccak256(0x00, 0x20)\n      add\n      0x00\n        /* \"contracts/SomniaConsensusDAO.sol\":6005:6028  owners[i] = owners[i+1] */\n      0x0100\n      exp\n      dup2\n      sload\n      dup2\n      0xffffffffffffffffffffffffffffffffffffffff\n      mul\n      not\n      and\n      swap1\n      dup4\n      0xffffffffffffffffffffffffffffffffffffffff\n      and\n      mul\n      or\n      swap1\n      sstore\n      pop\n        /* \"contracts/SomniaConsensusDAO.sol\":5987:5990  i++ */\n      dup1\n      dup1\n      0x01\n      add\n      swap2\n      pop\n      pop\n        /* \"contracts/SomniaConsensusDAO.sol\":5941:6039  for (uint i = indexOwner; i < ownerLength -1; i++){... */\n      jump(tag_170)\n    tag_171:\n      pop\n        /* \"contracts/SomniaConsensusDAO.sol\":6064:6070  owners */\n      0x01\n        /* \"contracts/SomniaConsensusDAO.sol\":6083:6084  1 */\n      dup1\n        /* \"contracts/SomniaConsensusDAO.sol\":6071:6082  ownerLength */\n      dup3\n        /* \"contracts/SomniaConsensusDAO.sol\":6071:6084  ownerLength-1 */\n      tag_182\n      swap2\n      swap1\n      tag_162\n      jump\t// in\n    tag_182:\n        /* \"contracts/SomniaConsensusDAO.sol\":6064:6085  owners[ownerLength-1] */\n      dup2\n      sload\n      dup2\n      lt\n      tag_183\n      jumpi\n      tag_184\n      tag_168\n      jump\t// in\n    tag_184:\n    tag_183:\n      swap1\n      0x00\n      mstore\n      keccak256(0x00, 0x20)\n      add\n      0x00\n        /* \"contracts/SomniaConsensusDAO.sol\":6057:6085  delete owners[ownerLength-1] */\n      0x0100\n      exp\n      dup2\n      sload\n      swap1\n      0xffffffffffffffffffffffffffffffffffffffff\n      mul\n      not\n      and\n      swap1\n      sstore\n        /* \"contracts/SomniaConsensusDAO.sol\":6095:6101  owners */\n      0x01\n        /* \"contracts/SomniaConsensusDAO.sol\":6095:6107  owners.pop() */\n      dup1\n      sload\n      dup1\n      tag_186\n      jumpi\n      tag_187\n      tag_188\n      jump\t// in\n    tag_187:\n    tag_186:\n      0x01\n      swap1\n      sub\n      dup2\n      dup2\n      swap1\n      0x00\n      mstore\n      keccak256(0x00, 0x20)\n      add\n      exp(0x0100, 0x00)\n      dup2\n      sload\n      swap1\n      0xffffffffffffffffffffffffffffffffffffffff\n      mul\n      not\n      and\n      swap1\n      sstore\n      swap1\n      sstore\n        /* \"contracts/SomniaConsensusDAO.sol\":5609:6114  {... */\n      pop\n        /* \"contracts/SomniaConsensusDAO.sol\":5553:6114  function delOwner(uint indexOwner) public onlyConsensus {... */\n      pop\n      jump\t// out\n        /* \"contracts/SomniaConsensusDAO.sol\":5018:5350  function txToByte(... */\n    tag_81:\n        /* \"contracts/SomniaConsensusDAO.sol\":5172:5185  bytes32 _txId */\n      0x00\n        /* \"contracts/SomniaConsensusDAO.sol\":5197:5209  bytes32 txId */\n      0x00\n        /* \"contracts/SomniaConsensusDAO.sol\":5246:5251  _func */\n      dup8\n      dup8\n        /* \"contracts/SomniaConsensusDAO.sol\":5265:5268  _to */\n      dup8\n        /* \"contracts/SomniaConsensusDAO.sol\":5282:5287  _data */\n      dup8\n      dup8\n        /* \"contracts/SomniaConsensusDAO.sol\":5301:5311  _timestamp */\n      dup8\n        /* \"contracts/SomniaConsensusDAO.sol\":5222:5321  abi.encode(... */\n      add(0x20, mload(0x40))\n      tag_191\n      swap7\n      swap6\n      swap5\n      swap4\n      swap3\n      swap2\n      swap1\n      tag_192\n      jump\t// in\n    tag_191:\n      mload(0x40)\n      0x20\n      dup2\n      dup4\n      sub\n      sub\n      dup2\n      mstore\n      swap1\n      0x40\n      mstore\n        /* \"contracts/SomniaConsensusDAO.sol\":5212:5322  keccak256(abi.encode(... */\n      dup1\n      mload\n      swap1\n      0x20\n      add\n      keccak256\n        /* \"contracts/SomniaConsensusDAO.sol\":5197:5322  bytes32 txId = keccak256(abi.encode(... */\n      swap1\n      pop\n        /* \"contracts/SomniaConsensusDAO.sol\":5339:5343  txId */\n      dup1\n        /* \"contracts/SomniaConsensusDAO.sol\":5332:5343  return txId */\n      swap2\n      pop\n      pop\n        /* \"contracts/SomniaConsensusDAO.sol\":5018:5350  function txToByte(... */\n      swap7\n      swap6\n      pop\n      pop\n      pop\n      pop\n      pop\n      pop\n      jump\t// out\n        /* \"contracts/SomniaConsensusDAO.sol\":4085:5012  function execute(bytes32 txId) private {... */\n    tag_141:\n        /* \"contracts/SomniaConsensusDAO.sol\":4134:4167  ExecProposal storage execProposal */\n      0x00\n        /* \"contracts/SomniaConsensusDAO.sol\":4170:4173  eps */\n      0x02\n        /* \"contracts/SomniaConsensusDAO.sol\":4170:4179  eps[txId] */\n      0x00\n        /* \"contracts/SomniaConsensusDAO.sol\":4174:4178  txId */\n      dup4\n        /* \"contracts/SomniaConsensusDAO.sol\":4170:4179  eps[txId] */\n      dup2\n      mstore\n      0x20\n      add\n      swap1\n      dup2\n      mstore\n      0x20\n      add\n      0x00\n      keccak256\n        /* \"contracts/SomniaConsensusDAO.sol\":4134:4179  ExecProposal storage execProposal = eps[txId] */\n      swap1\n      pop\n        /* \"contracts/SomniaConsensusDAO.sol\":4198:4203  queue */\n      0x03\n        /* \"contracts/SomniaConsensusDAO.sol\":4198:4209  queue[txId] */\n      0x00\n        /* \"contracts/SomniaConsensusDAO.sol\":4204:4208  txId */\n      dup4\n        /* \"contracts/SomniaConsensusDAO.sol\":4198:4209  queue[txId] */\n      dup2\n      mstore\n      0x20\n      add\n      swap1\n      dup2\n      mstore\n      0x20\n      add\n      0x00\n      keccak256\n      0x00\n      swap1\n      sload\n      swap1\n      0x0100\n      exp\n      swap1\n      div\n      0xff\n      and\n        /* \"contracts/SomniaConsensusDAO.sol\":4190:4224  require(queue[txId], \"not queued\") */\n      tag_194\n      jumpi\n      mload(0x40)\n      0x08c379a000000000000000000000000000000000000000000000000000000000\n      dup2\n      mstore\n      0x04\n      add\n      tag_195\n      swap1\n      tag_196\n      jump\t// in\n    tag_195:\n      mload(0x40)\n      dup1\n      swap2\n      sub\n      swap1\n      revert\n    tag_194:\n        /* \"contracts/SomniaConsensusDAO.sol\":4282:4297  block.timestamp */\n      timestamp\n        /* \"contracts/SomniaConsensusDAO.sol\":4267:4279  GRACE_PERIOD */\n      immutable(\"0xceebf77a833b30520287ddd9478ff51abbdffa30aa90a8d655dba0e8a79ce0c1\")\n        /* \"contracts/SomniaConsensusDAO.sol\":4242:4254  execProposal */\n      dup3\n        /* \"contracts/SomniaConsensusDAO.sol\":4242:4264  execProposal.timestamp */\n      0x04\n      add\n      sload\n        /* \"contracts/SomniaConsensusDAO.sol\":4242:4279  execProposal.timestamp + GRACE_PERIOD */\n      tag_197\n      swap2\n      swap1\n      tag_175\n      jump\t// in\n    tag_197:\n        /* \"contracts/SomniaConsensusDAO.sol\":4242:4297  execProposal.timestamp + GRACE_PERIOD > block.timestamp */\n      gt\n        /* \"contracts/SomniaConsensusDAO.sol\":4234:4321  require(execProposal.timestamp + GRACE_PERIOD > block.timestamp, \"Grace period failed\") */\n      tag_198\n      jumpi\n      mload(0x40)\n      0x08c379a000000000000000000000000000000000000000000000000000000000\n      dup2\n      mstore\n      0x04\n      add\n      tag_199\n      swap1\n      tag_200\n      jump\t// in\n    tag_199:\n      mload(0x40)\n      dup1\n      swap2\n      sub\n      swap1\n      revert\n    tag_198:\n        /* \"contracts/SomniaConsensusDAO.sol\":4357:4369  execProposal */\n      dup1\n        /* \"contracts/SomniaConsensusDAO.sol\":4357:4379  execProposal.timestamp */\n      0x04\n      add\n      sload\n        /* \"contracts/SomniaConsensusDAO.sol\":4339:4354  block.timestamp */\n      timestamp\n        /* \"contracts/SomniaConsensusDAO.sol\":4339:4379  block.timestamp > execProposal.timestamp */\n      gt\n        /* \"contracts/SomniaConsensusDAO.sol\":4331:4399  require(block.timestamp > execProposal.timestamp, \"Error timestamp\") */\n      tag_201\n      jumpi\n      mload(0x40)\n      0x08c379a000000000000000000000000000000000000000000000000000000000\n      dup2\n      mstore\n      0x04\n      add\n      tag_202\n      swap1\n      tag_203\n      jump\t// in\n    tag_202:\n      mload(0x40)\n      dup1\n      swap2\n      sub\n      swap1\n      revert\n    tag_201:\n        /* \"contracts/SomniaConsensusDAO.sol\":4469:4490  confirmationsRequired */\n      0x00\n      0x00\n      swap1\n      sload\n      swap1\n      0x0100\n      exp\n      swap1\n      div\n      0xff\n      and\n        /* \"contracts/SomniaConsensusDAO.sol\":4439:4490  execProposal.confirmations >= confirmationsRequired */\n      0xff\n      and\n        /* \"contracts/SomniaConsensusDAO.sol\":4439:4451  execProposal */\n      dup2\n        /* \"contracts/SomniaConsensusDAO.sol\":4439:4465  execProposal.confirmations */\n      0x05\n      add\n      sload\n        /* \"contracts/SomniaConsensusDAO.sol\":4439:4490  execProposal.confirmations >= confirmationsRequired */\n      lt\n      iszero\n        /* \"contracts/SomniaConsensusDAO.sol\":4418:4545  require(... */\n      tag_204\n      jumpi\n      mload(0x40)\n      0x08c379a000000000000000000000000000000000000000000000000000000000\n      dup2\n      mstore\n      0x04\n      add\n      tag_205\n      swap1\n      tag_206\n      jump\t// in\n    tag_205:\n      mload(0x40)\n      dup1\n      swap2\n      sub\n      swap1\n      revert\n    tag_204:\n        /* \"contracts/SomniaConsensusDAO.sol\":4563:4568  queue */\n      0x03\n        /* \"contracts/SomniaConsensusDAO.sol\":4563:4574  queue[txId] */\n      0x00\n        /* \"contracts/SomniaConsensusDAO.sol\":4569:4573  txId */\n      dup4\n        /* \"contracts/SomniaConsensusDAO.sol\":4563:4574  queue[txId] */\n      dup2\n      mstore\n      0x20\n      add\n      swap1\n      dup2\n      mstore\n      0x20\n      add\n      0x00\n      keccak256\n      0x00\n        /* \"contracts/SomniaConsensusDAO.sol\":4556:4574  delete queue[txId] */\n      0x0100\n      exp\n      dup2\n      sload\n      swap1\n      0xff\n      mul\n      not\n      and\n      swap1\n      sstore\n        /* \"contracts/SomniaConsensusDAO.sol\":4594:4611  bytes memory data */\n      0x60\n        /* \"contracts/SomniaConsensusDAO.sol\":4689:4701  execProposal */\n      dup2\n        /* \"contracts/SomniaConsensusDAO.sol\":4689:4706  execProposal.func */\n      0x02\n      add\n        /* \"contracts/SomniaConsensusDAO.sol\":4673:4708  keccak256(bytes(execProposal.func)) */\n      mload(0x40)\n      tag_207\n      swap2\n      swap1\n      tag_208\n      jump\t// in\n    tag_207:\n      mload(0x40)\n      dup1\n      swap2\n      sub\n      swap1\n      keccak256\n        /* \"contracts/SomniaConsensusDAO.sol\":4731:4743  execProposal */\n      dup3\n        /* \"contracts/SomniaConsensusDAO.sol\":4731:4748  execProposal.data */\n      0x03\n      add\n        /* \"contracts/SomniaConsensusDAO.sol\":4628:4758  abi.encodePacked(... */\n      add(0x20, mload(0x40))\n      tag_209\n      swap3\n      swap2\n      swap1\n      tag_210\n      jump\t// in\n    tag_209:\n      mload(0x40)\n      0x20\n      dup2\n      dup4\n      sub\n      sub\n      dup2\n      mstore\n      swap1\n      0x40\n      mstore\n        /* \"contracts/SomniaConsensusDAO.sol\":4621:4758  data = abi.encodePacked(... */\n      swap1\n      pop\n        /* \"contracts/SomniaConsensusDAO.sol\":4770:4782  bool success */\n      0x00\n        /* \"contracts/SomniaConsensusDAO.sol\":4788:4800  execProposal */\n      dup3\n        /* \"contracts/SomniaConsensusDAO.sol\":4788:4803  execProposal.to */\n      0x01\n      add\n      0x00\n      swap1\n      sload\n      swap1\n      0x0100\n      exp\n      swap1\n      div\n      0xffffffffffffffffffffffffffffffffffffffff\n      and\n        /* \"contracts/SomniaConsensusDAO.sol\":4788:4808  execProposal.to.call */\n      0xffffffffffffffffffffffffffffffffffffffff\n      and\n        /* \"contracts/SomniaConsensusDAO.sol\":4815:4816  0 */\n      0x00\n        /* \"contracts/SomniaConsensusDAO.sol\":4818:4822  data */\n      dup4\n        /* \"contracts/SomniaConsensusDAO.sol\":4788:4823  execProposal.to.call{value:0}(data) */\n      mload(0x40)\n      tag_211\n      swap2\n      swap1\n      tag_212\n      jump\t// in\n    tag_211:\n      0x00\n      mload(0x40)\n      dup1\n      dup4\n      sub\n      dup2\n      dup6\n      dup8\n      gas\n      call\n      swap3\n      pop\n      pop\n      pop\n      returndatasize\n      dup1\n      0x00\n      dup2\n      eq\n      tag_215\n      jumpi\n      mload(0x40)\n      swap2\n      pop\n      and(add(returndatasize, 0x3f), not(0x1f))\n      dup3\n      add\n      0x40\n      mstore\n      returndatasize\n      dup3\n      mstore\n      returndatasize\n      0x00\n      0x20\n      dup5\n      add\n      returndatacopy\n      jump(tag_214)\n    tag_215:\n      0x60\n      swap2\n      pop\n    tag_214:\n      pop\n        /* \"contracts/SomniaConsensusDAO.sol\":4769:4823  (bool success, ) = execProposal.to.call{value:0}(data) */\n      pop\n      swap1\n      pop\n        /* \"contracts/SomniaConsensusDAO.sol\":4850:4857  success */\n      dup1\n        /* \"contracts/SomniaConsensusDAO.sol\":4842:4869  require(success,\"tx error\") */\n      tag_216\n      jumpi\n      mload(0x40)\n      0x08c379a000000000000000000000000000000000000000000000000000000000\n      dup2\n      mstore\n      0x04\n      add\n      tag_217\n      swap1\n      tag_218\n      jump\t// in\n    tag_217:\n      mload(0x40)\n      dup1\n      swap2\n      sub\n      swap1\n      revert\n    tag_216:\n        /* \"contracts/SomniaConsensusDAO.sol\":4893:4977  executTx(msg.sender,txId,execProposal.timestamp, execProposal.to, execProposal.func) */\n      0x9c7070454b027dadd42327b0e9874fd7d5f4d0b60ffb5e65b23fc530e91d992b\n        /* \"contracts/SomniaConsensusDAO.sol\":4902:4912  msg.sender */\n      caller\n        /* \"contracts/SomniaConsensusDAO.sol\":4913:4917  txId */\n      dup6\n        /* \"contracts/SomniaConsensusDAO.sol\":4918:4930  execProposal */\n      dup6\n        /* \"contracts/SomniaConsensusDAO.sol\":4918:4940  execProposal.timestamp */\n      0x04\n      add\n      sload\n        /* \"contracts/SomniaConsensusDAO.sol\":4942:4954  execProposal */\n      dup7\n        /* \"contracts/SomniaConsensusDAO.sol\":4942:4957  execProposal.to */\n      0x01\n      add\n      0x00\n      swap1\n      sload\n      swap1\n      0x0100\n      exp\n      swap1\n      div\n      0xffffffffffffffffffffffffffffffffffffffff\n      and\n        /* \"contracts/SomniaConsensusDAO.sol\":4959:4971  execProposal */\n      dup8\n        /* \"contracts/SomniaConsensusDAO.sol\":4959:4976  execProposal.func */\n      0x02\n      add\n        /* \"contracts/SomniaConsensusDAO.sol\":4893:4977  executTx(msg.sender,txId,execProposal.timestamp, execProposal.to, execProposal.func) */\n      mload(0x40)\n      tag_219\n      swap6\n      swap5\n      swap4\n      swap3\n      swap2\n      swap1\n      tag_220\n      jump\t// in\n    tag_219:\n      mload(0x40)\n      dup1\n      swap2\n      sub\n      swap1\n      log1\n        /* \"contracts/SomniaConsensusDAO.sol\":4995:4998  eps */\n      0x02\n        /* \"contracts/SomniaConsensusDAO.sol\":4995:5004  eps[txId] */\n      0x00\n        /* \"contracts/SomniaConsensusDAO.sol\":4999:5003  txId */\n      dup6\n        /* \"contracts/SomniaConsensusDAO.sol\":4995:5004  eps[txId] */\n      dup2\n      mstore\n      0x20\n      add\n      swap1\n      dup2\n      mstore\n      0x20\n      add\n      0x00\n      keccak256\n      0x00\n        /* \"contracts/SomniaConsensusDAO.sol\":4988:5004  delete eps[txId] */\n      0x00\n      dup3\n      add\n      0x00\n      swap1\n      sstore\n      0x01\n      dup3\n      add\n      exp(0x0100, 0x00)\n      dup2\n      sload\n      swap1\n      0xffffffffffffffffffffffffffffffffffffffff\n      mul\n      not\n      and\n      swap1\n      sstore\n      0x02\n      dup3\n      add\n      0x00\n      tag_221\n      swap2\n      swap1\n      tag_222\n      jump\t// in\n    tag_221:\n      0x03\n      dup3\n      add\n      0x00\n      tag_223\n      swap2\n      swap1\n      tag_224\n      jump\t// in\n    tag_223:\n      0x04\n      dup3\n      add\n      0x00\n      swap1\n      sstore\n      0x05\n      dup3\n      add\n      0x00\n      swap1\n      sstore\n      pop\n      pop\n        /* \"contracts/SomniaConsensusDAO.sol\":4124:5012  {... */\n      pop\n      pop\n      pop\n        /* \"contracts/SomniaConsensusDAO.sol\":4085:5012  function execute(bytes32 txId) private {... */\n      pop\n      jump\t// out\n        /* \"contracts/SomniaConsensusDAO.sol\":3739:4046  function discardExecProposal(bytes32 _txId) private {... */\n    tag_153:\n        /* \"contracts/SomniaConsensusDAO.sol\":3809:3814  queue */\n      0x03\n        /* \"contracts/SomniaConsensusDAO.sol\":3809:3821  queue[_txId] */\n      0x00\n        /* \"contracts/SomniaConsensusDAO.sol\":3815:3820  _txId */\n      dup3\n        /* \"contracts/SomniaConsensusDAO.sol\":3809:3821  queue[_txId] */\n      dup2\n      mstore\n      0x20\n      add\n      swap1\n      dup2\n      mstore\n      0x20\n      add\n      0x00\n      keccak256\n      0x00\n      swap1\n      sload\n      swap1\n      0x0100\n      exp\n      swap1\n      div\n      0xff\n      and\n        /* \"contracts/SomniaConsensusDAO.sol\":3801:3836  require(queue[_txId], \"not queued\") */\n      tag_226\n      jumpi\n      mload(0x40)\n      0x08c379a000000000000000000000000000000000000000000000000000000000\n      dup2\n      mstore\n      0x04\n      add\n      tag_227\n      swap1\n      tag_196\n      jump\t// in\n    tag_227:\n      mload(0x40)\n      dup1\n      swap2\n      sub\n      swap1\n      revert\n    tag_226:\n        /* \"contracts/SomniaConsensusDAO.sol\":3862:3867  queue */\n      0x03\n        /* \"contracts/SomniaConsensusDAO.sol\":3862:3874  queue[_txId] */\n      0x00\n        /* \"contracts/SomniaConsensusDAO.sol\":3868:3873  _txId */\n      dup3\n        /* \"contracts/SomniaConsensusDAO.sol\":3862:3874  queue[_txId] */\n      dup2\n      mstore\n      0x20\n      add\n      swap1\n      dup2\n      mstore\n      0x20\n      add\n      0x00\n      keccak256\n      0x00\n        /* \"contracts/SomniaConsensusDAO.sol\":3855:3874  delete queue[_txId] */\n      0x0100\n      exp\n      dup2\n      sload\n      swap1\n      0xff\n      mul\n      not\n      and\n      swap1\n      sstore\n        /* \"contracts/SomniaConsensusDAO.sol\":3891:3894  eps */\n      0x02\n        /* \"contracts/SomniaConsensusDAO.sol\":3891:3901  eps[_txId] */\n      0x00\n        /* \"contracts/SomniaConsensusDAO.sol\":3895:3900  _txId */\n      dup3\n        /* \"contracts/SomniaConsensusDAO.sol\":3891:3901  eps[_txId] */\n      dup2\n      mstore\n      0x20\n      add\n      swap1\n      dup2\n      mstore\n      0x20\n      add\n      0x00\n      keccak256\n      0x00\n        /* \"contracts/SomniaConsensusDAO.sol\":3884:3901  delete eps[_txId] */\n      0x00\n      dup3\n      add\n      0x00\n      swap1\n      sstore\n      0x01\n      dup3\n      add\n      exp(0x0100, 0x00)\n      dup2\n      sload\n      swap1\n      0xffffffffffffffffffffffffffffffffffffffff\n      mul\n      not\n      and\n      swap1\n      sstore\n      0x02\n      dup3\n      add\n      0x00\n      tag_228\n      swap2\n      swap1\n      tag_222\n      jump\t// in\n    tag_228:\n      0x03\n      dup3\n      add\n      0x00\n      tag_229\n      swap2\n      swap1\n      tag_224\n      jump\t// in\n    tag_229:\n      0x04\n      dup3\n      add\n      0x00\n      swap1\n      sstore\n      0x05\n      dup3\n      add\n      0x00\n      swap1\n      sstore\n      pop\n      pop\n        /* \"contracts/SomniaConsensusDAO.sol\":3916:3922  uint i */\n      0x00\n        /* \"contracts/SomniaConsensusDAO.sol\":3911:4010  for (uint i; i < owners.length;i++){... */\n    tag_230:\n        /* \"contracts/SomniaConsensusDAO.sol\":3928:3934  owners */\n      0x01\n        /* \"contracts/SomniaConsensusDAO.sol\":3928:3941  owners.length */\n      dup1\n      sload\n      swap1\n      pop\n        /* \"contracts/SomniaConsensusDAO.sol\":3924:3925  i */\n      dup2\n        /* \"contracts/SomniaConsensusDAO.sol\":3924:3941  i < owners.length */\n      lt\n        /* \"contracts/SomniaConsensusDAO.sol\":3911:4010  for (uint i; i < owners.length;i++){... */\n      iszero\n      tag_231\n      jumpi\n        /* \"contracts/SomniaConsensusDAO.sol\":3994:3999  false */\n      0x00\n        /* \"contracts/SomniaConsensusDAO.sol\":3960:3973  confirmations */\n      0x04\n        /* \"contracts/SomniaConsensusDAO.sol\":3960:3980  confirmations[_txId] */\n      0x00\n        /* \"contracts/SomniaConsensusDAO.sol\":3974:3979  _txId */\n      dup5\n        /* \"contracts/SomniaConsensusDAO.sol\":3960:3980  confirmations[_txId] */\n      dup2\n      mstore\n      0x20\n      add\n      swap1\n      dup2\n      mstore\n      0x20\n      add\n      0x00\n      keccak256\n        /* \"contracts/SomniaConsensusDAO.sol\":3960:3991  confirmations[_txId][owners[i]] */\n      0x00\n        /* \"contracts/SomniaConsensusDAO.sol\":3981:3987  owners */\n      0x01\n        /* \"contracts/SomniaConsensusDAO.sol\":3988:3989  i */\n      dup5\n        /* \"contracts/SomniaConsensusDAO.sol\":3981:3990  owners[i] */\n      dup2\n      sload\n      dup2\n      lt\n      tag_233\n      jumpi\n      tag_234\n      tag_168\n      jump\t// in\n    tag_234:\n    tag_233:\n      swap1\n      0x00\n      mstore\n      keccak256(0x00, 0x20)\n      add\n      0x00\n      swap1\n      sload\n      swap1\n      0x0100\n      exp\n      swap1\n      div\n      0xffffffffffffffffffffffffffffffffffffffff\n      and\n        /* \"contracts/SomniaConsensusDAO.sol\":3960:3991  confirmations[_txId][owners[i]] */\n      0xffffffffffffffffffffffffffffffffffffffff\n      and\n      0xffffffffffffffffffffffffffffffffffffffff\n      and\n      dup2\n      mstore\n      0x20\n      add\n      swap1\n      dup2\n      mstore\n      0x20\n      add\n      0x00\n      keccak256\n      0x00\n        /* \"contracts/SomniaConsensusDAO.sol\":3960:3999  confirmations[_txId][owners[i]] = false */\n      0x0100\n      exp\n      dup2\n      sload\n      dup2\n      0xff\n      mul\n      not\n      and\n      swap1\n      dup4\n      iszero\n      iszero\n      mul\n      or\n      swap1\n      sstore\n      pop\n        /* \"contracts/SomniaConsensusDAO.sol\":3942:3945  i++ */\n      dup1\n      dup1\n      0x01\n      add\n      swap2\n      pop\n      pop\n        /* \"contracts/SomniaConsensusDAO.sol\":3911:4010  for (uint i; i < owners.length;i++){... */\n      jump(tag_230)\n    tag_231:\n      pop\n        /* \"contracts/SomniaConsensusDAO.sol\":4025:4039  discard(_txId) */\n      0x72cd7667542ebd154efd241871dca06d4b862c64b2b81be5f7eda452e015548f\n        /* \"contracts/SomniaConsensusDAO.sol\":4033:4038  _txId */\n      dup2\n        /* \"contracts/SomniaConsensusDAO.sol\":4025:4039  discard(_txId) */\n      mload(0x40)\n      tag_236\n      swap2\n      swap1\n      tag_26\n      jump\t// in\n    tag_236:\n      mload(0x40)\n      dup1\n      swap2\n      sub\n      swap1\n      log1\n        /* \"contracts/SomniaConsensusDAO.sol\":3739:4046  function discardExecProposal(bytes32 _txId) private {... */\n      pop\n      jump\t// out\n    tag_222:\n      pop\n      dup1\n      sload\n      tag_237\n      swap1\n      tag_109\n      jump\t// in\n    tag_237:\n      0x00\n      dup3\n      sstore\n      dup1\n      0x1f\n      lt\n      tag_239\n      jumpi\n      pop\n      jump(tag_238)\n    tag_239:\n      0x1f\n      add\n      0x20\n      swap1\n      div\n      swap1\n      0x00\n      mstore\n      keccak256(0x00, 0x20)\n      swap1\n      dup2\n      add\n      swap1\n      tag_240\n      swap2\n      swap1\n      tag_241\n      jump\t// in\n    tag_240:\n    tag_238:\n      pop\n      jump\t// out\n    tag_224:\n      pop\n      dup1\n      sload\n      tag_242\n      swap1\n      tag_109\n      jump\t// in\n    tag_242:\n      0x00\n      dup3\n      sstore\n      dup1\n      0x1f\n      lt\n      tag_244\n      jumpi\n      pop\n      jump(tag_243)\n    tag_244:\n      0x1f\n      add\n      0x20\n      swap1\n      div\n      swap1\n      0x00\n      mstore\n      keccak256(0x00, 0x20)\n      swap1\n      dup2\n      add\n      swap1\n      tag_245\n      swap2\n      swap1\n      tag_241\n      jump\t// in\n    tag_245:\n    tag_243:\n      pop\n      jump\t// out\n    tag_241:\n    tag_246:\n      dup1\n      dup3\n      gt\n      iszero\n      tag_247\n      jumpi\n      0x00\n      dup2\n      0x00\n      swap1\n      sstore\n      pop\n      0x01\n      add\n      jump(tag_246)\n    tag_247:\n      pop\n      swap1\n      jump\t// out\n        /* \"#utility.yul\":88:205   */\n    tag_249:\n        /* \"#utility.yul\":197:198   */\n      0x00\n        /* \"#utility.yul\":194:195   */\n      0x00\n        /* \"#utility.yul\":187:199   */\n      revert\n        /* \"#utility.yul\":211:328   */\n    tag_250:\n        /* \"#utility.yul\":320:321   */\n      0x00\n        /* \"#utility.yul\":317:318   */\n      0x00\n        /* \"#utility.yul\":310:322   */\n      revert\n        /* \"#utility.yul\":334:411   */\n    tag_251:\n        /* \"#utility.yul\":371:378   */\n      0x00\n        /* \"#utility.yul\":400:405   */\n      dup2\n        /* \"#utility.yul\":389:405   */\n      swap1\n      pop\n        /* \"#utility.yul\":334:411   */\n      swap2\n      swap1\n      pop\n      jump\t// out\n        /* \"#utility.yul\":417:539   */\n    tag_252:\n        /* \"#utility.yul\":490:514   */\n      tag_366\n        /* \"#utility.yul\":508:513   */\n      dup2\n        /* \"#utility.yul\":490:514   */\n      tag_251\n      jump\t// in\n    tag_366:\n        /* \"#utility.yul\":483:488   */\n      dup2\n        /* \"#utility.yul\":480:515   */\n      eq\n        /* \"#utility.yul\":470:533   */\n      tag_367\n      jumpi\n        /* \"#utility.yul\":529:530   */\n      0x00\n        /* \"#utility.yul\":526:527   */\n      0x00\n        /* \"#utility.yul\":519:531   */\n      revert\n        /* \"#utility.yul\":470:533   */\n    tag_367:\n        /* \"#utility.yul\":417:539   */\n      pop\n      jump\t// out\n        /* \"#utility.yul\":545:684   */\n    tag_253:\n        /* \"#utility.yul\":591:596   */\n      0x00\n        /* \"#utility.yul\":629:635   */\n      dup2\n        /* \"#utility.yul\":616:636   */\n      calldataload\n        /* \"#utility.yul\":607:636   */\n      swap1\n      pop\n        /* \"#utility.yul\":645:678   */\n      tag_369\n        /* \"#utility.yul\":672:677   */\n      dup2\n        /* \"#utility.yul\":645:678   */\n      tag_252\n      jump\t// in\n    tag_369:\n        /* \"#utility.yul\":545:684   */\n      swap3\n      swap2\n      pop\n      pop\n      jump\t// out\n        /* \"#utility.yul\":690:1019   */\n    tag_17:\n        /* \"#utility.yul\":749:755   */\n      0x00\n        /* \"#utility.yul\":798:800   */\n      0x20\n        /* \"#utility.yul\":786:795   */\n      dup3\n        /* \"#utility.yul\":777:784   */\n      dup5\n        /* \"#utility.yul\":773:796   */\n      sub\n        /* \"#utility.yul\":769:801   */\n      slt\n        /* \"#utility.yul\":766:885   */\n      iszero\n      tag_371\n      jumpi\n        /* \"#utility.yul\":804:883   */\n      tag_372\n      tag_249\n      jump\t// in\n    tag_372:\n        /* \"#utility.yul\":766:885   */\n    tag_371:\n        /* \"#utility.yul\":924:925   */\n      0x00\n        /* \"#utility.yul\":949:1002   */\n      tag_373\n        /* \"#utility.yul\":994:1001   */\n      dup5\n        /* \"#utility.yul\":985:991   */\n      dup3\n        /* \"#utility.yul\":974:983   */\n      dup6\n        /* \"#utility.yul\":970:992   */\n      add\n        /* \"#utility.yul\":949:1002   */\n      tag_253\n      jump\t// in\n    tag_373:\n        /* \"#utility.yul\":939:1002   */\n      swap2\n      pop\n        /* \"#utility.yul\":895:1012   */\n      pop\n        /* \"#utility.yul\":690:1019   */\n      swap3\n      swap2\n      pop\n      pop\n      jump\t// out\n        /* \"#utility.yul\":1025:1151   */\n    tag_254:\n        /* \"#utility.yul\":1062:1069   */\n      0x00\n        /* \"#utility.yul\":1102:1144   */\n      0xffffffffffffffffffffffffffffffffffffffff\n        /* \"#utility.yul\":1095:1100   */\n      dup3\n        /* \"#utility.yul\":1091:1145   */\n      and\n        /* \"#utility.yul\":1080:1145   */\n      swap1\n      pop\n        /* \"#utility.yul\":1025:1151   */\n      swap2\n      swap1\n      pop\n      jump\t// out\n        /* \"#utility.yul\":1157:1253   */\n    tag_255:\n        /* \"#utility.yul\":1194:1201   */\n      0x00\n        /* \"#utility.yul\":1223:1247   */\n      tag_376\n        /* \"#utility.yul\":1241:1246   */\n      dup3\n        /* \"#utility.yul\":1223:1247   */\n      tag_254\n      jump\t// in\n    tag_376:\n        /* \"#utility.yul\":1212:1247   */\n      swap1\n      pop\n        /* \"#utility.yul\":1157:1253   */\n      swap2\n      swap1\n      pop\n      jump\t// out\n        /* \"#utility.yul\":1259:1377   */\n    tag_256:\n        /* \"#utility.yul\":1346:1370   */\n      tag_378\n        /* \"#utility.yul\":1364:1369   */\n      dup2\n        /* \"#utility.yul\":1346:1370   */\n      tag_255\n      jump\t// in\n    tag_378:\n        /* \"#utility.yul\":1341:1344   */\n      dup3\n        /* \"#utility.yul\":1334:1371   */\n      mstore\n        /* \"#utility.yul\":1259:1377   */\n      pop\n      pop\n      jump\t// out\n        /* \"#utility.yul\":1383:1605   */\n    tag_20:\n        /* \"#utility.yul\":1476:1480   */\n      0x00\n        /* \"#utility.yul\":1514:1516   */\n      0x20\n        /* \"#utility.yul\":1503:1512   */\n      dup3\n        /* \"#utility.yul\":1499:1517   */\n      add\n        /* \"#utility.yul\":1491:1517   */\n      swap1\n      pop\n        /* \"#utility.yul\":1527:1598   */\n      tag_380\n        /* \"#utility.yul\":1595:1596   */\n      0x00\n        /* \"#utility.yul\":1584:1593   */\n      dup4\n        /* \"#utility.yul\":1580:1597   */\n      add\n        /* \"#utility.yul\":1571:1577   */\n      dup5\n        /* \"#utility.yul\":1527:1598   */\n      tag_256\n      jump\t// in\n    tag_380:\n        /* \"#utility.yul\":1383:1605   */\n      swap3\n      swap2\n      pop\n      pop\n      jump\t// out\n        /* \"#utility.yul\":1611:1728   */\n    tag_257:\n        /* \"#utility.yul\":1720:1721   */\n      0x00\n        /* \"#utility.yul\":1717:1718   */\n      0x00\n        /* \"#utility.yul\":1710:1722   */\n      revert\n        /* \"#utility.yul\":1734:1851   */\n    tag_258:\n        /* \"#utility.yul\":1843:1844   */\n      0x00\n        /* \"#utility.yul\":1840:1841   */\n      0x00\n        /* \"#utility.yul\":1833:1845   */\n      revert\n        /* \"#utility.yul\":1857:1974   */\n    tag_259:\n        /* \"#utility.yul\":1966:1967   */\n      0x00\n        /* \"#utility.yul\":1963:1964   */\n      0x00\n        /* \"#utility.yul\":1956:1968   */\n      revert\n        /* \"#utility.yul\":1994:2547   */\n    tag_260:\n        /* \"#utility.yul\":2052:2060   */\n      0x00\n        /* \"#utility.yul\":2062:2068   */\n      0x00\n        /* \"#utility.yul\":2112:2115   */\n      dup4\n        /* \"#utility.yul\":2105:2109   */\n      0x1f\n        /* \"#utility.yul\":2097:2103   */\n      dup5\n        /* \"#utility.yul\":2093:2110   */\n      add\n        /* \"#utility.yul\":2089:2116   */\n      slt\n        /* \"#utility.yul\":2079:2201   */\n      tag_385\n      jumpi\n        /* \"#utility.yul\":2120:2199   */\n      tag_386\n      tag_257\n      jump\t// in\n    tag_386:\n        /* \"#utility.yul\":2079:2201   */\n    tag_385:\n        /* \"#utility.yul\":2233:2239   */\n      dup3\n        /* \"#utility.yul\":2220:2240   */\n      calldataload\n        /* \"#utility.yul\":2210:2240   */\n      swap1\n      pop\n        /* \"#utility.yul\":2263:2281   */\n      0xffffffffffffffff\n        /* \"#utility.yul\":2255:2261   */\n      dup2\n        /* \"#utility.yul\":2252:2282   */\n      gt\n        /* \"#utility.yul\":2249:2366   */\n      iszero\n      tag_387\n      jumpi\n        /* \"#utility.yul\":2285:2364   */\n      tag_388\n      tag_258\n      jump\t// in\n    tag_388:\n        /* \"#utility.yul\":2249:2366   */\n    tag_387:\n        /* \"#utility.yul\":2399:2403   */\n      0x20\n        /* \"#utility.yul\":2391:2397   */\n      dup4\n        /* \"#utility.yul\":2387:2404   */\n      add\n        /* \"#utility.yul\":2375:2404   */\n      swap2\n      pop\n        /* \"#utility.yul\":2453:2456   */\n      dup4\n        /* \"#utility.yul\":2445:2449   */\n      0x01\n        /* \"#utility.yul\":2437:2443   */\n      dup3\n        /* \"#utility.yul\":2433:2450   */\n      mul\n        /* \"#utility.yul\":2423:2431   */\n      dup4\n        /* \"#utility.yul\":2419:2451   */\n      add\n        /* \"#utility.yul\":2416:2457   */\n      gt\n        /* \"#utility.yul\":2413:2541   */\n      iszero\n      tag_389\n      jumpi\n        /* \"#utility.yul\":2460:2539   */\n      tag_390\n      tag_259\n      jump\t// in\n    tag_390:\n        /* \"#utility.yul\":2413:2541   */\n    tag_389:\n        /* \"#utility.yul\":1994:2547   */\n      swap3\n      pop\n      swap3\n      swap1\n      pop\n      jump\t// out\n        /* \"#utility.yul\":2553:2675   */\n    tag_261:\n        /* \"#utility.yul\":2626:2650   */\n      tag_392\n        /* \"#utility.yul\":2644:2649   */\n      dup2\n        /* \"#utility.yul\":2626:2650   */\n      tag_255\n      jump\t// in\n    tag_392:\n        /* \"#utility.yul\":2619:2624   */\n      dup2\n        /* \"#utility.yul\":2616:2651   */\n      eq\n        /* \"#utility.yul\":2606:2669   */\n      tag_393\n      jumpi\n        /* \"#utility.yul\":2665:2666   */\n      0x00\n        /* \"#utility.yul\":2662:2663   */\n      0x00\n        /* \"#utility.yul\":2655:2667   */\n      revert\n        /* \"#utility.yul\":2606:2669   */\n    tag_393:\n        /* \"#utility.yul\":2553:2675   */\n      pop\n      jump\t// out\n        /* \"#utility.yul\":2681:2820   */\n    tag_262:\n        /* \"#utility.yul\":2727:2732   */\n      0x00\n        /* \"#utility.yul\":2765:2771   */\n      dup2\n        /* \"#utility.yul\":2752:2772   */\n      calldataload\n        /* \"#utility.yul\":2743:2772   */\n      swap1\n      pop\n        /* \"#utility.yul\":2781:2814   */\n      tag_395\n        /* \"#utility.yul\":2808:2813   */\n      dup2\n        /* \"#utility.yul\":2781:2814   */\n      tag_261\n      jump\t// in\n    tag_395:\n        /* \"#utility.yul\":2681:2820   */\n      swap3\n      swap2\n      pop\n      pop\n      jump\t// out\n        /* \"#utility.yul\":2839:3391   */\n    tag_263:\n        /* \"#utility.yul\":2896:2904   */\n      0x00\n        /* \"#utility.yul\":2906:2912   */\n      0x00\n        /* \"#utility.yul\":2956:2959   */\n      dup4\n        /* \"#utility.yul\":2949:2953   */\n      0x1f\n        /* \"#utility.yul\":2941:2947   */\n      dup5\n        /* \"#utility.yul\":2937:2954   */\n      add\n        /* \"#utility.yul\":2933:2960   */\n      slt\n        /* \"#utility.yul\":2923:3045   */\n      tag_397\n      jumpi\n        /* \"#utility.yul\":2964:3043   */\n      tag_398\n      tag_257\n      jump\t// in\n    tag_398:\n        /* \"#utility.yul\":2923:3045   */\n    tag_397:\n        /* \"#utility.yul\":3077:3083   */\n      dup3\n        /* \"#utility.yul\":3064:3084   */\n      calldataload\n        /* \"#utility.yul\":3054:3084   */\n      swap1\n      pop\n        /* \"#utility.yul\":3107:3125   */\n      0xffffffffffffffff\n        /* \"#utility.yul\":3099:3105   */\n      dup2\n        /* \"#utility.yul\":3096:3126   */\n      gt\n        /* \"#utility.yul\":3093:3210   */\n      iszero\n      tag_399\n      jumpi\n        /* \"#utility.yul\":3129:3208   */\n      tag_400\n      tag_258\n      jump\t// in\n    tag_400:\n        /* \"#utility.yul\":3093:3210   */\n    tag_399:\n        /* \"#utility.yul\":3243:3247   */\n      0x20\n        /* \"#utility.yul\":3235:3241   */\n      dup4\n        /* \"#utility.yul\":3231:3248   */\n      add\n        /* \"#utility.yul\":3219:3248   */\n      swap2\n      pop\n        /* \"#utility.yul\":3297:3300   */\n      dup4\n        /* \"#utility.yul\":3289:3293   */\n      0x01\n        /* \"#utility.yul\":3281:3287   */\n      dup3\n        /* \"#utility.yul\":3277:3294   */\n      mul\n        /* \"#utility.yul\":3267:3275   */\n      dup4\n        /* \"#utility.yul\":3263:3295   */\n      add\n        /* \"#utility.yul\":3260:3301   */\n      gt\n        /* \"#utility.yul\":3257:3385   */\n      iszero\n      tag_401\n      jumpi\n        /* \"#utility.yul\":3304:3383   */\n      tag_402\n      tag_259\n      jump\t// in\n    tag_402:\n        /* \"#utility.yul\":3257:3385   */\n    tag_401:\n        /* \"#utility.yul\":2839:3391   */\n      swap3\n      pop\n      swap3\n      swap1\n      pop\n      jump\t// out\n        /* \"#utility.yul\":3397:4414   */\n    tag_23:\n        /* \"#utility.yul\":3497:3503   */\n      0x00\n        /* \"#utility.yul\":3505:3511   */\n      0x00\n        /* \"#utility.yul\":3513:3519   */\n      0x00\n        /* \"#utility.yul\":3521:3527   */\n      0x00\n        /* \"#utility.yul\":3529:3535   */\n      0x00\n        /* \"#utility.yul\":3578:3580   */\n      0x60\n        /* \"#utility.yul\":3566:3575   */\n      dup7\n        /* \"#utility.yul\":3557:3564   */\n      dup9\n        /* \"#utility.yul\":3553:3576   */\n      sub\n        /* \"#utility.yul\":3549:3581   */\n      slt\n        /* \"#utility.yul\":3546:3665   */\n      iszero\n      tag_404\n      jumpi\n        /* \"#utility.yul\":3584:3663   */\n      tag_405\n      tag_249\n      jump\t// in\n    tag_405:\n        /* \"#utility.yul\":3546:3665   */\n    tag_404:\n        /* \"#utility.yul\":3732:3733   */\n      0x00\n        /* \"#utility.yul\":3721:3730   */\n      dup7\n        /* \"#utility.yul\":3717:3734   */\n      add\n        /* \"#utility.yul\":3704:3735   */\n      calldataload\n        /* \"#utility.yul\":3762:3780   */\n      0xffffffffffffffff\n        /* \"#utility.yul\":3754:3760   */\n      dup2\n        /* \"#utility.yul\":3751:3781   */\n      gt\n        /* \"#utility.yul\":3748:3865   */\n      iszero\n      tag_406\n      jumpi\n        /* \"#utility.yul\":3784:3863   */\n      tag_407\n      tag_250\n      jump\t// in\n    tag_407:\n        /* \"#utility.yul\":3748:3865   */\n    tag_406:\n        /* \"#utility.yul\":3897:3962   */\n      tag_408\n        /* \"#utility.yul\":3954:3961   */\n      dup9\n        /* \"#utility.yul\":3945:3951   */\n      dup3\n        /* \"#utility.yul\":3934:3943   */\n      dup10\n        /* \"#utility.yul\":3930:3952   */\n      add\n        /* \"#utility.yul\":3897:3962   */\n      tag_260\n      jump\t// in\n    tag_408:\n        /* \"#utility.yul\":3879:3962   */\n      swap6\n      pop\n      swap6\n      pop\n        /* \"#utility.yul\":3675:3972   */\n      pop\n        /* \"#utility.yul\":4011:4013   */\n      0x20\n        /* \"#utility.yul\":4037:4090   */\n      tag_409\n        /* \"#utility.yul\":4082:4089   */\n      dup9\n        /* \"#utility.yul\":4073:4079   */\n      dup3\n        /* \"#utility.yul\":4062:4071   */\n      dup10\n        /* \"#utility.yul\":4058:4080   */\n      add\n        /* \"#utility.yul\":4037:4090   */\n      tag_262\n      jump\t// in\n    tag_409:\n        /* \"#utility.yul\":4027:4090   */\n      swap4\n      pop\n        /* \"#utility.yul\":3982:4100   */\n      pop\n        /* \"#utility.yul\":4167:4169   */\n      0x40\n        /* \"#utility.yul\":4156:4165   */\n      dup7\n        /* \"#utility.yul\":4152:4170   */\n      add\n        /* \"#utility.yul\":4139:4171   */\n      calldataload\n        /* \"#utility.yul\":4198:4216   */\n      0xffffffffffffffff\n        /* \"#utility.yul\":4190:4196   */\n      dup2\n        /* \"#utility.yul\":4187:4217   */\n      gt\n        /* \"#utility.yul\":4184:4301   */\n      iszero\n      tag_410\n      jumpi\n        /* \"#utility.yul\":4220:4299   */\n      tag_411\n      tag_250\n      jump\t// in\n    tag_411:\n        /* \"#utility.yul\":4184:4301   */\n    tag_410:\n        /* \"#utility.yul\":4333:4397   */\n      tag_412\n        /* \"#utility.yul\":4389:4396   */\n      dup9\n        /* \"#utility.yul\":4380:4386   */\n      dup3\n        /* \"#utility.yul\":4369:4378   */\n      dup10\n        /* \"#utility.yul\":4365:4387   */\n      add\n        /* \"#utility.yul\":4333:4397   */\n      tag_263\n      jump\t// in\n    tag_412:\n        /* \"#utility.yul\":4315:4397   */\n      swap3\n      pop\n      swap3\n      pop\n        /* \"#utility.yul\":4110:4407   */\n      pop\n        /* \"#utility.yul\":3397:4414   */\n      swap3\n      swap6\n      pop\n      swap3\n      swap6\n      swap1\n      swap4\n      pop\n      jump\t// out\n        /* \"#utility.yul\":4420:4497   */\n    tag_264:\n        /* \"#utility.yul\":4457:4464   */\n      0x00\n        /* \"#utility.yul\":4486:4491   */\n      dup2\n        /* \"#utility.yul\":4475:4491   */\n      swap1\n      pop\n        /* \"#utility.yul\":4420:4497   */\n      swap2\n      swap1\n      pop\n      jump\t// out\n        /* \"#utility.yul\":4503:4621   */\n    tag_265:\n        /* \"#utility.yul\":4590:4614   */\n      tag_415\n        /* \"#utility.yul\":4608:4613   */\n      dup2\n        /* \"#utility.yul\":4590:4614   */\n      tag_264\n      jump\t// in\n    tag_415:\n        /* \"#utility.yul\":4585:4588   */\n      dup3\n        /* \"#utility.yul\":4578:4615   */\n      mstore\n        /* \"#utility.yul\":4503:4621   */\n      pop\n      pop\n      jump\t// out\n        /* \"#utility.yul\":4627:4849   */\n    tag_26:\n        /* \"#utility.yul\":4720:4724   */\n      0x00\n        /* \"#utility.yul\":4758:4760   */\n      0x20\n        /* \"#utility.yul\":4747:4756   */\n      dup3\n        /* \"#utility.yul\":4743:4761   */\n      add\n        /* \"#utility.yul\":4735:4761   */\n      swap1\n      pop\n        /* \"#utility.yul\":4771:4842   */\n      tag_417\n        /* \"#utility.yul\":4839:4840   */\n      0x00\n        /* \"#utility.yul\":4828:4837   */\n      dup4\n        /* \"#utility.yul\":4824:4841   */\n      add\n        /* \"#utility.yul\":4815:4821   */\n      dup5\n        /* \"#utility.yul\":4771:4842   */\n      tag_265\n      jump\t// in\n    tag_417:\n        /* \"#utility.yul\":4627:4849   */\n      swap3\n      swap2\n      pop\n      pop\n      jump\t// out\n        /* \"#utility.yul\":4855:4977   */\n    tag_266:\n        /* \"#utility.yul\":4928:4952   */\n      tag_419\n        /* \"#utility.yul\":4946:4951   */\n      dup2\n        /* \"#utility.yul\":4928:4952   */\n      tag_264\n      jump\t// in\n    tag_419:\n        /* \"#utility.yul\":4921:4926   */\n      dup2\n        /* \"#utility.yul\":4918:4953   */\n      eq\n        /* \"#utility.yul\":4908:4971   */\n      tag_420\n      jumpi\n        /* \"#utility.yul\":4967:4968   */\n      0x00\n        /* \"#utility.yul\":4964:4965   */\n      0x00\n        /* \"#utility.yul\":4957:4969   */\n      revert\n        /* \"#utility.yul\":4908:4971   */\n    tag_420:\n        /* \"#utility.yul\":4855:4977   */\n      pop\n      jump\t// out\n        /* \"#utility.yul\":4983:5122   */\n    tag_267:\n        /* \"#utility.yul\":5029:5034   */\n      0x00\n        /* \"#utility.yul\":5067:5073   */\n      dup2\n        /* \"#utility.yul\":5054:5074   */\n      calldataload\n        /* \"#utility.yul\":5045:5074   */\n      swap1\n      pop\n        /* \"#utility.yul\":5083:5116   */\n      tag_422\n        /* \"#utility.yul\":5110:5115   */\n      dup2\n        /* \"#utility.yul\":5083:5116   */\n      tag_266\n      jump\t// in\n    tag_422:\n        /* \"#utility.yul\":4983:5122   */\n      swap3\n      swap2\n      pop\n      pop\n      jump\t// out\n        /* \"#utility.yul\":5128:5602   */\n    tag_29:\n        /* \"#utility.yul\":5196:5202   */\n      0x00\n        /* \"#utility.yul\":5204:5210   */\n      0x00\n        /* \"#utility.yul\":5253:5255   */\n      0x40\n        /* \"#utility.yul\":5241:5250   */\n      dup4\n        /* \"#utility.yul\":5232:5239   */\n      dup6\n        /* \"#utility.yul\":5228:5251   */\n      sub\n        /* \"#utility.yul\":5224:5256   */\n      slt\n        /* \"#utility.yul\":5221:5340   */\n      iszero\n      tag_424\n      jumpi\n        /* \"#utility.yul\":5259:5338   */\n      tag_425\n      tag_249\n      jump\t// in\n    tag_425:\n        /* \"#utility.yul\":5221:5340   */\n    tag_424:\n        /* \"#utility.yul\":5379:5380   */\n      0x00\n        /* \"#utility.yul\":5404:5457   */\n      tag_426\n        /* \"#utility.yul\":5449:5456   */\n      dup6\n        /* \"#utility.yul\":5440:5446   */\n      dup3\n        /* \"#utility.yul\":5429:5438   */\n      dup7\n        /* \"#utility.yul\":5425:5447   */\n      add\n        /* \"#utility.yul\":5404:5457   */\n      tag_267\n      jump\t// in\n    tag_426:\n        /* \"#utility.yul\":5394:5457   */\n      swap3\n      pop\n        /* \"#utility.yul\":5350:5467   */\n      pop\n        /* \"#utility.yul\":5506:5508   */\n      0x20\n        /* \"#utility.yul\":5532:5585   */\n      tag_427\n        /* \"#utility.yul\":5577:5584   */\n      dup6\n        /* \"#utility.yul\":5568:5574   */\n      dup3\n        /* \"#utility.yul\":5557:5566   */\n      dup7\n        /* \"#utility.yul\":5553:5575   */\n      add\n        /* \"#utility.yul\":5532:5585   */\n      tag_262\n      jump\t// in\n    tag_427:\n        /* \"#utility.yul\":5522:5585   */\n      swap2\n      pop\n        /* \"#utility.yul\":5477:5595   */\n      pop\n        /* \"#utility.yul\":5128:5602   */\n      swap3\n      pop\n      swap3\n      swap1\n      pop\n      jump\t// out\n        /* \"#utility.yul\":5608:5698   */\n    tag_268:\n        /* \"#utility.yul\":5642:5649   */\n      0x00\n        /* \"#utility.yul\":5685:5690   */\n      dup2\n        /* \"#utility.yul\":5678:5691   */\n      iszero\n        /* \"#utility.yul\":5671:5692   */\n      iszero\n        /* \"#utility.yul\":5660:5692   */\n      swap1\n      pop\n        /* \"#utility.yul\":5608:5698   */\n      swap2\n      swap1\n      pop\n      jump\t// out\n        /* \"#utility.yul\":5704:5813   */\n    tag_269:\n        /* \"#utility.yul\":5785:5806   */\n      tag_430\n        /* \"#utility.yul\":5800:5805   */\n      dup2\n        /* \"#utility.yul\":5785:5806   */\n      tag_268\n      jump\t// in\n    tag_430:\n        /* \"#utility.yul\":5780:5783   */\n      dup3\n        /* \"#utility.yul\":5773:5807   */\n      mstore\n        /* \"#utility.yul\":5704:5813   */\n      pop\n      pop\n      jump\t// out\n        /* \"#utility.yul\":5819:6029   */\n    tag_32:\n        /* \"#utility.yul\":5906:5910   */\n      0x00\n        /* \"#utility.yul\":5944:5946   */\n      0x20\n        /* \"#utility.yul\":5933:5942   */\n      dup3\n        /* \"#utility.yul\":5929:5947   */\n      add\n        /* \"#utility.yul\":5921:5947   */\n      swap1\n      pop\n        /* \"#utility.yul\":5957:6022   */\n      tag_432\n        /* \"#utility.yul\":6019:6020   */\n      0x00\n        /* \"#utility.yul\":6008:6017   */\n      dup4\n        /* \"#utility.yul\":6004:6021   */\n      add\n        /* \"#utility.yul\":5995:6001   */\n      dup5\n        /* \"#utility.yul\":5957:6022   */\n      tag_269\n      jump\t// in\n    tag_432:\n        /* \"#utility.yul\":5819:6029   */\n      swap3\n      swap2\n      pop\n      pop\n      jump\t// out\n        /* \"#utility.yul\":6035:6153   */\n    tag_270:\n        /* \"#utility.yul\":6122:6146   */\n      tag_434\n        /* \"#utility.yul\":6140:6145   */\n      dup2\n        /* \"#utility.yul\":6122:6146   */\n      tag_251\n      jump\t// in\n    tag_434:\n        /* \"#utility.yul\":6117:6120   */\n      dup3\n        /* \"#utility.yul\":6110:6147   */\n      mstore\n        /* \"#utility.yul\":6035:6153   */\n      pop\n      pop\n      jump\t// out\n        /* \"#utility.yul\":6159:6381   */\n    tag_36:\n        /* \"#utility.yul\":6252:6256   */\n      0x00\n        /* \"#utility.yul\":6290:6292   */\n      0x20\n        /* \"#utility.yul\":6279:6288   */\n      dup3\n        /* \"#utility.yul\":6275:6293   */\n      add\n        /* \"#utility.yul\":6267:6293   */\n      swap1\n      pop\n        /* \"#utility.yul\":6303:6374   */\n      tag_436\n        /* \"#utility.yul\":6371:6372   */\n      0x00\n        /* \"#utility.yul\":6360:6369   */\n      dup4\n        /* \"#utility.yul\":6356:6373   */\n      add\n        /* \"#utility.yul\":6347:6353   */\n      dup5\n        /* \"#utility.yul\":6303:6374   */\n      tag_270\n      jump\t// in\n    tag_436:\n        /* \"#utility.yul\":6159:6381   */\n      swap3\n      swap2\n      pop\n      pop\n      jump\t// out\n        /* \"#utility.yul\":6387:6473   */\n    tag_271:\n        /* \"#utility.yul\":6422:6429   */\n      0x00\n        /* \"#utility.yul\":6462:6466   */\n      0xff\n        /* \"#utility.yul\":6455:6460   */\n      dup3\n        /* \"#utility.yul\":6451:6467   */\n      and\n        /* \"#utility.yul\":6440:6467   */\n      swap1\n      pop\n        /* \"#utility.yul\":6387:6473   */\n      swap2\n      swap1\n      pop\n      jump\t// out\n        /* \"#utility.yul\":6479:6597   */\n    tag_272:\n        /* \"#utility.yul\":6550:6572   */\n      tag_439\n        /* \"#utility.yul\":6566:6571   */\n      dup2\n        /* \"#utility.yul\":6550:6572   */\n      tag_271\n      jump\t// in\n    tag_439:\n        /* \"#utility.yul\":6543:6548   */\n      dup2\n        /* \"#utility.yul\":6540:6573   */\n      eq\n        /* \"#utility.yul\":6530:6591   */\n      tag_440\n      jumpi\n        /* \"#utility.yul\":6587:6588   */\n      0x00\n        /* \"#utility.yul\":6584:6585   */\n      0x00\n        /* \"#utility.yul\":6577:6589   */\n      revert\n        /* \"#utility.yul\":6530:6591   */\n    tag_440:\n        /* \"#utility.yul\":6479:6597   */\n      pop\n      jump\t// out\n        /* \"#utility.yul\":6603:6738   */\n    tag_273:\n        /* \"#utility.yul\":6647:6652   */\n      0x00\n        /* \"#utility.yul\":6685:6691   */\n      dup2\n        /* \"#utility.yul\":6672:6692   */\n      calldataload\n        /* \"#utility.yul\":6663:6692   */\n      swap1\n      pop\n        /* \"#utility.yul\":6701:6732   */\n      tag_442\n        /* \"#utility.yul\":6726:6731   */\n      dup2\n        /* \"#utility.yul\":6701:6732   */\n      tag_272\n      jump\t// in\n    tag_442:\n        /* \"#utility.yul\":6603:6738   */\n      swap3\n      swap2\n      pop\n      pop\n      jump\t// out\n        /* \"#utility.yul\":6744:7069   */\n    tag_39:\n        /* \"#utility.yul\":6801:6807   */\n      0x00\n        /* \"#utility.yul\":6850:6852   */\n      0x20\n        /* \"#utility.yul\":6838:6847   */\n      dup3\n        /* \"#utility.yul\":6829:6836   */\n      dup5\n        /* \"#utility.yul\":6825:6848   */\n      sub\n        /* \"#utility.yul\":6821:6853   */\n      slt\n        /* \"#utility.yul\":6818:6937   */\n      iszero\n      tag_444\n      jumpi\n        /* \"#utility.yul\":6856:6935   */\n      tag_445\n      tag_249\n      jump\t// in\n    tag_445:\n        /* \"#utility.yul\":6818:6937   */\n    tag_444:\n        /* \"#utility.yul\":6976:6977   */\n      0x00\n        /* \"#utility.yul\":7001:7052   */\n      tag_446\n        /* \"#utility.yul\":7044:7051   */\n      dup5\n        /* \"#utility.yul\":7035:7041   */\n      dup3\n        /* \"#utility.yul\":7024:7033   */\n      dup6\n        /* \"#utility.yul\":7020:7042   */\n      add\n        /* \"#utility.yul\":7001:7052   */\n      tag_273\n      jump\t// in\n    tag_446:\n        /* \"#utility.yul\":6991:7052   */\n      swap2\n      pop\n        /* \"#utility.yul\":6947:7062   */\n      pop\n        /* \"#utility.yul\":6744:7069   */\n      swap3\n      swap2\n      pop\n      pop\n      jump\t// out\n        /* \"#utility.yul\":7075:7189   */\n    tag_274:\n        /* \"#utility.yul\":7142:7148   */\n      0x00\n        /* \"#utility.yul\":7176:7181   */\n      dup2\n        /* \"#utility.yul\":7170:7182   */\n      mload\n        /* \"#utility.yul\":7160:7182   */\n      swap1\n      pop\n        /* \"#utility.yul\":7075:7189   */\n      swap2\n      swap1\n      pop\n      jump\t// out\n        /* \"#utility.yul\":7195:7379   */\n    tag_275:\n        /* \"#utility.yul\":7294:7305   */\n      0x00\n        /* \"#utility.yul\":7328:7334   */\n      dup3\n        /* \"#utility.yul\":7323:7326   */\n      dup3\n        /* \"#utility.yul\":7316:7335   */\n      mstore\n        /* \"#utility.yul\":7368:7372   */\n      0x20\n        /* \"#utility.yul\":7363:7366   */\n      dup3\n        /* \"#utility.yul\":7359:7373   */\n      add\n        /* \"#utility.yul\":7344:7373   */\n      swap1\n      pop\n        /* \"#utility.yul\":7195:7379   */\n      swap3\n      swap2\n      pop\n      pop\n      jump\t// out\n        /* \"#utility.yul\":7385:7517   */\n    tag_276:\n        /* \"#utility.yul\":7452:7456   */\n      0x00\n        /* \"#utility.yul\":7475:7478   */\n      dup2\n        /* \"#utility.yul\":7467:7478   */\n      swap1\n      pop\n        /* \"#utility.yul\":7505:7509   */\n      0x20\n        /* \"#utility.yul\":7500:7503   */\n      dup3\n        /* \"#utility.yul\":7496:7510   */\n      add\n        /* \"#utility.yul\":7488:7510   */\n      swap1\n      pop\n        /* \"#utility.yul\":7385:7517   */\n      swap2\n      swap1\n      pop\n      jump\t// out\n        /* \"#utility.yul\":7523:7631   */\n    tag_277:\n        /* \"#utility.yul\":7600:7624   */\n      tag_451\n        /* \"#utility.yul\":7618:7623   */\n      dup2\n        /* \"#utility.yul\":7600:7624   */\n      tag_255\n      jump\t// in\n    tag_451:\n        /* \"#utility.yul\":7595:7598   */\n      dup3\n        /* \"#utility.yul\":7588:7625   */\n      mstore\n        /* \"#utility.yul\":7523:7631   */\n      pop\n      pop\n      jump\t// out\n        /* \"#utility.yul\":7637:7816   */\n    tag_278:\n        /* \"#utility.yul\":7706:7716   */\n      0x00\n        /* \"#utility.yul\":7727:7773   */\n      tag_453\n        /* \"#utility.yul\":7769:7772   */\n      dup4\n        /* \"#utility.yul\":7761:7767   */\n      dup4\n        /* \"#utility.yul\":7727:7773   */\n      tag_277\n      jump\t// in\n    tag_453:\n        /* \"#utility.yul\":7805:7809   */\n      0x20\n        /* \"#utility.yul\":7800:7803   */\n      dup4\n        /* \"#utility.yul\":7796:7810   */\n      add\n        /* \"#utility.yul\":7782:7810   */\n      swap1\n      pop\n        /* \"#utility.yul\":7637:7816   */\n      swap3\n      swap2\n      pop\n      pop\n      jump\t// out\n        /* \"#utility.yul\":7822:7935   */\n    tag_279:\n        /* \"#utility.yul\":7892:7896   */\n      0x00\n        /* \"#utility.yul\":7924:7928   */\n      0x20\n        /* \"#utility.yul\":7919:7922   */\n      dup3\n        /* \"#utility.yul\":7915:7929   */\n      add\n        /* \"#utility.yul\":7907:7929   */\n      swap1\n      pop\n        /* \"#utility.yul\":7822:7935   */\n      swap2\n      swap1\n      pop\n      jump\t// out\n        /* \"#utility.yul\":7971:8703   */\n    tag_280:\n        /* \"#utility.yul\":8090:8093   */\n      0x00\n        /* \"#utility.yul\":8119:8173   */\n      tag_456\n        /* \"#utility.yul\":8167:8172   */\n      dup3\n        /* \"#utility.yul\":8119:8173   */\n      tag_274\n      jump\t// in\n    tag_456:\n        /* \"#utility.yul\":8189:8275   */\n      tag_457\n        /* \"#utility.yul\":8268:8274   */\n      dup2\n        /* \"#utility.yul\":8263:8266   */\n      dup6\n        /* \"#utility.yul\":8189:8275   */\n      tag_275\n      jump\t// in\n    tag_457:\n        /* \"#utility.yul\":8182:8275   */\n      swap4\n      pop\n        /* \"#utility.yul\":8299:8355   */\n      tag_458\n        /* \"#utility.yul\":8349:8354   */\n      dup4\n        /* \"#utility.yul\":8299:8355   */\n      tag_276\n      jump\t// in\n    tag_458:\n        /* \"#utility.yul\":8378:8385   */\n      dup1\n        /* \"#utility.yul\":8409:8410   */\n      0x00\n        /* \"#utility.yul\":8394:8678   */\n    tag_459:\n        /* \"#utility.yul\":8419:8425   */\n      dup4\n        /* \"#utility.yul\":8416:8417   */\n      dup2\n        /* \"#utility.yul\":8413:8426   */\n      lt\n        /* \"#utility.yul\":8394:8678   */\n      iszero\n      tag_461\n      jumpi\n        /* \"#utility.yul\":8495:8501   */\n      dup2\n        /* \"#utility.yul\":8489:8502   */\n      mload\n        /* \"#utility.yul\":8522:8585   */\n      tag_462\n        /* \"#utility.yul\":8581:8584   */\n      dup9\n        /* \"#utility.yul\":8566:8579   */\n      dup3\n        /* \"#utility.yul\":8522:8585   */\n      tag_278\n      jump\t// in\n    tag_462:\n        /* \"#utility.yul\":8515:8585   */\n      swap8\n      pop\n        /* \"#utility.yul\":8608:8668   */\n      tag_463\n        /* \"#utility.yul\":8661:8667   */\n      dup4\n        /* \"#utility.yul\":8608:8668   */\n      tag_279\n      jump\t// in\n    tag_463:\n        /* \"#utility.yul\":8598:8668   */\n      swap3\n      pop\n        /* \"#utility.yul\":8454:8678   */\n      pop\n        /* \"#utility.yul\":8441:8442   */\n      0x01\n        /* \"#utility.yul\":8438:8439   */\n      dup2\n        /* \"#utility.yul\":8434:8443   */\n      add\n        /* \"#utility.yul\":8429:8443   */\n      swap1\n      pop\n        /* \"#utility.yul\":8394:8678   */\n      jump(tag_459)\n    tag_461:\n        /* \"#utility.yul\":8398:8412   */\n      pop\n        /* \"#utility.yul\":8694:8697   */\n      dup6\n        /* \"#utility.yul\":8687:8697   */\n      swap4\n      pop\n        /* \"#utility.yul\":8095:8703   */\n      pop\n      pop\n      pop\n        /* \"#utility.yul\":7971:8703   */\n      swap3\n      swap2\n      pop\n      pop\n      jump\t// out\n        /* \"#utility.yul\":8709:9082   */\n    tag_44:\n        /* \"#utility.yul\":8852:8856   */\n      0x00\n        /* \"#utility.yul\":8890:8892   */\n      0x20\n        /* \"#utility.yul\":8879:8888   */\n      dup3\n        /* \"#utility.yul\":8875:8893   */\n      add\n        /* \"#utility.yul\":8867:8893   */\n      swap1\n      pop\n        /* \"#utility.yul\":8939:8948   */\n      dup2\n        /* \"#utility.yul\":8933:8937   */\n      dup2\n        /* \"#utility.yul\":8929:8949   */\n      sub\n        /* \"#utility.yul\":8925:8926   */\n      0x00\n        /* \"#utility.yul\":8914:8923   */\n      dup4\n        /* \"#utility.yul\":8910:8927   */\n      add\n        /* \"#utility.yul\":8903:8950   */\n      mstore\n        /* \"#utility.yul\":8967:9075   */\n      tag_465\n        /* \"#utility.yul\":9070:9074   */\n      dup2\n        /* \"#utility.yul\":9061:9067   */\n      dup5\n        /* \"#utility.yul\":8967:9075   */\n      tag_280\n      jump\t// in\n    tag_465:\n        /* \"#utility.yul\":8959:9075   */\n      swap1\n      pop\n        /* \"#utility.yul\":8709:9082   */\n      swap3\n      swap2\n      pop\n      pop\n      jump\t// out\n        /* \"#utility.yul\":9088:9417   */\n    tag_47:\n        /* \"#utility.yul\":9147:9153   */\n      0x00\n        /* \"#utility.yul\":9196:9198   */\n      0x20\n        /* \"#utility.yul\":9184:9193   */\n      dup3\n        /* \"#utility.yul\":9175:9182   */\n      dup5\n        /* \"#utility.yul\":9171:9194   */\n      sub\n        /* \"#utility.yul\":9167:9199   */\n      slt\n        /* \"#utility.yul\":9164:9283   */\n      iszero\n      tag_467\n      jumpi\n        /* \"#utility.yul\":9202:9281   */\n      tag_468\n      tag_249\n      jump\t// in\n    tag_468:\n        /* \"#utility.yul\":9164:9283   */\n    tag_467:\n        /* \"#utility.yul\":9322:9323   */\n      0x00\n        /* \"#utility.yul\":9347:9400   */\n      tag_469\n        /* \"#utility.yul\":9392:9399   */\n      dup5\n        /* \"#utility.yul\":9383:9389   */\n      dup3\n        /* \"#utility.yul\":9372:9381   */\n      dup6\n        /* \"#utility.yul\":9368:9390   */\n      add\n        /* \"#utility.yul\":9347:9400   */\n      tag_267\n      jump\t// in\n    tag_469:\n        /* \"#utility.yul\":9337:9400   */\n      swap2\n      pop\n        /* \"#utility.yul\":9293:9410   */\n      pop\n        /* \"#utility.yul\":9088:9417   */\n      swap3\n      swap2\n      pop\n      pop\n      jump\t// out\n        /* \"#utility.yul\":9423:9522   */\n    tag_281:\n        /* \"#utility.yul\":9475:9481   */\n      0x00\n        /* \"#utility.yul\":9509:9514   */\n      dup2\n        /* \"#utility.yul\":9503:9515   */\n      mload\n        /* \"#utility.yul\":9493:9515   */\n      swap1\n      pop\n        /* \"#utility.yul\":9423:9522   */\n      swap2\n      swap1\n      pop\n      jump\t// out\n        /* \"#utility.yul\":9528:9697   */\n    tag_282:\n        /* \"#utility.yul\":9612:9623   */\n      0x00\n        /* \"#utility.yul\":9646:9652   */\n      dup3\n        /* \"#utility.yul\":9641:9644   */\n      dup3\n        /* \"#utility.yul\":9634:9653   */\n      mstore\n        /* \"#utility.yul\":9686:9690   */\n      0x20\n        /* \"#utility.yul\":9681:9684   */\n      dup3\n        /* \"#utility.yul\":9677:9691   */\n      add\n        /* \"#utility.yul\":9662:9691   */\n      swap1\n      pop\n        /* \"#utility.yul\":9528:9697   */\n      swap3\n      swap2\n      pop\n      pop\n      jump\t// out\n        /* \"#utility.yul\":9703:9842   */\n    tag_283:\n        /* \"#utility.yul\":9792:9798   */\n      dup3\n        /* \"#utility.yul\":9787:9790   */\n      dup2\n        /* \"#utility.yul\":9782:9785   */\n      dup4\n        /* \"#utility.yul\":9776:9799   */\n      mcopy\n        /* \"#utility.yul\":9833:9834   */\n      0x00\n        /* \"#utility.yul\":9824:9830   */\n      dup4\n        /* \"#utility.yul\":9819:9822   */\n      dup4\n        /* \"#utility.yul\":9815:9831   */\n      add\n        /* \"#utility.yul\":9808:9835   */\n      mstore\n        /* \"#utility.yul\":9703:9842   */\n      pop\n      pop\n      pop\n      jump\t// out\n        /* \"#utility.yul\":9848:9950   */\n    tag_284:\n        /* \"#utility.yul\":9889:9895   */\n      0x00\n        /* \"#utility.yul\":9940:9942   */\n      0x1f\n        /* \"#utility.yul\":9936:9943   */\n      not\n        /* \"#utility.yul\":9931:9933   */\n      0x1f\n        /* \"#utility.yul\":9924:9929   */\n      dup4\n        /* \"#utility.yul\":9920:9934   */\n      add\n        /* \"#utility.yul\":9916:9944   */\n      and\n        /* \"#utility.yul\":9906:9944   */\n      swap1\n      pop\n        /* \"#utility.yul\":9848:9950   */\n      swap2\n      swap1\n      pop\n      jump\t// out\n        /* \"#utility.yul\":9956:10333   */\n    tag_285:\n        /* \"#utility.yul\":10044:10047   */\n      0x00\n        /* \"#utility.yul\":10072:10111   */\n      tag_475\n        /* \"#utility.yul\":10105:10110   */\n      dup3\n        /* \"#utility.yul\":10072:10111   */\n      tag_281\n      jump\t// in\n    tag_475:\n        /* \"#utility.yul\":10127:10198   */\n      tag_476\n        /* \"#utility.yul\":10191:10197   */\n      dup2\n        /* \"#utility.yul\":10186:10189   */\n      dup6\n        /* \"#utility.yul\":10127:10198   */\n      tag_282\n      jump\t// in\n    tag_476:\n        /* \"#utility.yul\":10120:10198   */\n      swap4\n      pop\n        /* \"#utility.yul\":10207:10272   */\n      tag_477\n        /* \"#utility.yul\":10265:10271   */\n      dup2\n        /* \"#utility.yul\":10260:10263   */\n      dup6\n        /* \"#utility.yul\":10253:10257   */\n      0x20\n        /* \"#utility.yul\":10246:10251   */\n      dup7\n        /* \"#utility.yul\":10242:10258   */\n      add\n        /* \"#utility.yul\":10207:10272   */\n      tag_283\n      jump\t// in\n    tag_477:\n        /* \"#utility.yul\":10297:10326   */\n      tag_478\n        /* \"#utility.yul\":10319:10325   */\n      dup2\n        /* \"#utility.yul\":10297:10326   */\n      tag_284\n      jump\t// in\n    tag_478:\n        /* \"#utility.yul\":10292:10295   */\n      dup5\n        /* \"#utility.yul\":10288:10327   */\n      add\n        /* \"#utility.yul\":10281:10327   */\n      swap2\n      pop\n        /* \"#utility.yul\":10048:10333   */\n      pop\n        /* \"#utility.yul\":9956:10333   */\n      swap3\n      swap2\n      pop\n      pop\n      jump\t// out\n        /* \"#utility.yul\":10339:10437   */\n    tag_286:\n        /* \"#utility.yul\":10390:10396   */\n      0x00\n        /* \"#utility.yul\":10424:10429   */\n      dup2\n        /* \"#utility.yul\":10418:10430   */\n      mload\n        /* \"#utility.yul\":10408:10430   */\n      swap1\n      pop\n        /* \"#utility.yul\":10339:10437   */\n      swap2\n      swap1\n      pop\n      jump\t// out\n        /* \"#utility.yul\":10443:10611   */\n    tag_287:\n        /* \"#utility.yul\":10526:10537   */\n      0x00\n        /* \"#utility.yul\":10560:10566   */\n      dup3\n        /* \"#utility.yul\":10555:10558   */\n      dup3\n        /* \"#utility.yul\":10548:10567   */\n      mstore\n        /* \"#utility.yul\":10600:10604   */\n      0x20\n        /* \"#utility.yul\":10595:10598   */\n      dup3\n        /* \"#utility.yul\":10591:10605   */\n      add\n        /* \"#utility.yul\":10576:10605   */\n      swap1\n      pop\n        /* \"#utility.yul\":10443:10611   */\n      swap3\n      swap2\n      pop\n      pop\n      jump\t// out\n        /* \"#utility.yul\":10617:10990   */\n    tag_288:\n        /* \"#utility.yul\":10703:10706   */\n      0x00\n        /* \"#utility.yul\":10731:10769   */\n      tag_482\n        /* \"#utility.yul\":10763:10768   */\n      dup3\n        /* \"#utility.yul\":10731:10769   */\n      tag_286\n      jump\t// in\n    tag_482:\n        /* \"#utility.yul\":10785:10855   */\n      tag_483\n        /* \"#utility.yul\":10848:10854   */\n      dup2\n        /* \"#utility.yul\":10843:10846   */\n      dup6\n        /* \"#utility.yul\":10785:10855   */\n      tag_287\n      jump\t// in\n    tag_483:\n        /* \"#utility.yul\":10778:10855   */\n      swap4\n      pop\n        /* \"#utility.yul\":10864:10929   */\n      tag_484\n        /* \"#utility.yul\":10922:10928   */\n      dup2\n        /* \"#utility.yul\":10917:10920   */\n      dup6\n        /* \"#utility.yul\":10910:10914   */\n      0x20\n        /* \"#utility.yul\":10903:10908   */\n      dup7\n        /* \"#utility.yul\":10899:10915   */\n      add\n        /* \"#utility.yul\":10864:10929   */\n      tag_283\n      jump\t// in\n    tag_484:\n        /* \"#utility.yul\":10954:10983   */\n      tag_485\n        /* \"#utility.yul\":10976:10982   */\n      dup2\n        /* \"#utility.yul\":10954:10983   */\n      tag_284\n      jump\t// in\n    tag_485:\n        /* \"#utility.yul\":10949:10952   */\n      dup5\n        /* \"#utility.yul\":10945:10984   */\n      add\n        /* \"#utility.yul\":10938:10984   */\n      swap2\n      pop\n        /* \"#utility.yul\":10707:10990   */\n      pop\n        /* \"#utility.yul\":10617:10990   */\n      swap3\n      swap2\n      pop\n      pop\n      jump\t// out\n        /* \"#utility.yul\":10996:11949   */\n    tag_50:\n        /* \"#utility.yul\":11267:11271   */\n      0x00\n        /* \"#utility.yul\":11305:11308   */\n      0xc0\n        /* \"#utility.yul\":11294:11303   */\n      dup3\n        /* \"#utility.yul\":11290:11309   */\n      add\n        /* \"#utility.yul\":11282:11309   */\n      swap1\n      pop\n        /* \"#utility.yul\":11319:11390   */\n      tag_487\n        /* \"#utility.yul\":11387:11388   */\n      0x00\n        /* \"#utility.yul\":11376:11385   */\n      dup4\n        /* \"#utility.yul\":11372:11389   */\n      add\n        /* \"#utility.yul\":11363:11369   */\n      dup10\n        /* \"#utility.yul\":11319:11390   */\n      tag_265\n      jump\t// in\n    tag_487:\n        /* \"#utility.yul\":11400:11472   */\n      tag_488\n        /* \"#utility.yul\":11468:11470   */\n      0x20\n        /* \"#utility.yul\":11457:11466   */\n      dup4\n        /* \"#utility.yul\":11453:11471   */\n      add\n        /* \"#utility.yul\":11444:11450   */\n      dup9\n        /* \"#utility.yul\":11400:11472   */\n      tag_256\n      jump\t// in\n    tag_488:\n        /* \"#utility.yul\":11519:11528   */\n      dup2\n        /* \"#utility.yul\":11513:11517   */\n      dup2\n        /* \"#utility.yul\":11509:11529   */\n      sub\n        /* \"#utility.yul\":11504:11506   */\n      0x40\n        /* \"#utility.yul\":11493:11502   */\n      dup4\n        /* \"#utility.yul\":11489:11507   */\n      add\n        /* \"#utility.yul\":11482:11530   */\n      mstore\n        /* \"#utility.yul\":11547:11625   */\n      tag_489\n        /* \"#utility.yul\":11620:11624   */\n      dup2\n        /* \"#utility.yul\":11611:11617   */\n      dup8\n        /* \"#utility.yul\":11547:11625   */\n      tag_285\n      jump\t// in\n    tag_489:\n        /* \"#utility.yul\":11539:11625   */\n      swap1\n      pop\n        /* \"#utility.yul\":11672:11681   */\n      dup2\n        /* \"#utility.yul\":11666:11670   */\n      dup2\n        /* \"#utility.yul\":11662:11682   */\n      sub\n        /* \"#utility.yul\":11657:11659   */\n      0x60\n        /* \"#utility.yul\":11646:11655   */\n      dup4\n        /* \"#utility.yul\":11642:11660   */\n      add\n        /* \"#utility.yul\":11635:11683   */\n      mstore\n        /* \"#utility.yul\":11700:11776   */\n      tag_490\n        /* \"#utility.yul\":11771:11775   */\n      dup2\n        /* \"#utility.yul\":11762:11768   */\n      dup7\n        /* \"#utility.yul\":11700:11776   */\n      tag_288\n      jump\t// in\n    tag_490:\n        /* \"#utility.yul\":11692:11776   */\n      swap1\n      pop\n        /* \"#utility.yul\":11786:11859   */\n      tag_491\n        /* \"#utility.yul\":11854:11857   */\n      0x80\n        /* \"#utility.yul\":11843:11852   */\n      dup4\n        /* \"#utility.yul\":11839:11858   */\n      add\n        /* \"#utility.yul\":11830:11836   */\n      dup6\n        /* \"#utility.yul\":11786:11859   */\n      tag_270\n      jump\t// in\n    tag_491:\n        /* \"#utility.yul\":11869:11942   */\n      tag_492\n        /* \"#utility.yul\":11937:11940   */\n      0xa0\n        /* \"#utility.yul\":11926:11935   */\n      dup4\n        /* \"#utility.yul\":11922:11941   */\n      add\n        /* \"#utility.yul\":11913:11919   */\n      dup5\n        /* \"#utility.yul\":11869:11942   */\n      tag_270\n      jump\t// in\n    tag_492:\n        /* \"#utility.yul\":10996:11949   */\n      swap8\n      swap7\n      pop\n      pop\n      pop\n      pop\n      pop\n      pop\n      pop\n      jump\t// out\n        /* \"#utility.yul\":11955:12284   */\n    tag_53:\n        /* \"#utility.yul\":12014:12020   */\n      0x00\n        /* \"#utility.yul\":12063:12065   */\n      0x20\n        /* \"#utility.yul\":12051:12060   */\n      dup3\n        /* \"#utility.yul\":12042:12049   */\n      dup5\n        /* \"#utility.yul\":12038:12061   */\n      sub\n        /* \"#utility.yul\":12034:12066   */\n      slt\n        /* \"#utility.yul\":12031:12150   */\n      iszero\n      tag_494\n      jumpi\n        /* \"#utility.yul\":12069:12148   */\n      tag_495\n      tag_249\n      jump\t// in\n    tag_495:\n        /* \"#utility.yul\":12031:12150   */\n    tag_494:\n        /* \"#utility.yul\":12189:12190   */\n      0x00\n        /* \"#utility.yul\":12214:12267   */\n      tag_496\n        /* \"#utility.yul\":12259:12266   */\n      dup5\n        /* \"#utility.yul\":12250:12256   */\n      dup3\n        /* \"#utility.yul\":12239:12248   */\n      dup6\n        /* \"#utility.yul\":12235:12257   */\n      add\n        /* \"#utility.yul\":12214:12267   */\n      tag_262\n      jump\t// in\n    tag_496:\n        /* \"#utility.yul\":12204:12267   */\n      swap2\n      pop\n        /* \"#utility.yul\":12160:12277   */\n      pop\n        /* \"#utility.yul\":11955:12284   */\n      swap3\n      swap2\n      pop\n      pop\n      jump\t// out\n        /* \"#utility.yul\":12290:12461   */\n    tag_289:\n        /* \"#utility.yul\":12430:12453   */\n      0x596f7520617265206e6f7420746865206f776e65720000000000000000000000\n        /* \"#utility.yul\":12426:12427   */\n      0x00\n        /* \"#utility.yul\":12418:12424   */\n      dup3\n        /* \"#utility.yul\":12414:12428   */\n      add\n        /* \"#utility.yul\":12407:12454   */\n      mstore\n        /* \"#utility.yul\":12290:12461   */\n      pop\n      jump\t// out\n        /* \"#utility.yul\":12467:12833   */\n    tag_290:\n        /* \"#utility.yul\":12609:12612   */\n      0x00\n        /* \"#utility.yul\":12630:12697   */\n      tag_499\n        /* \"#utility.yul\":12694:12696   */\n      0x15\n        /* \"#utility.yul\":12689:12692   */\n      dup4\n        /* \"#utility.yul\":12630:12697   */\n      tag_282\n      jump\t// in\n    tag_499:\n        /* \"#utility.yul\":12623:12697   */\n      swap2\n      pop\n        /* \"#utility.yul\":12706:12799   */\n      tag_500\n        /* \"#utility.yul\":12795:12798   */\n      dup3\n        /* \"#utility.yul\":12706:12799   */\n      tag_289\n      jump\t// in\n    tag_500:\n        /* \"#utility.yul\":12824:12826   */\n      0x20\n        /* \"#utility.yul\":12819:12822   */\n      dup3\n        /* \"#utility.yul\":12815:12827   */\n      add\n        /* \"#utility.yul\":12808:12827   */\n      swap1\n      pop\n        /* \"#utility.yul\":12467:12833   */\n      swap2\n      swap1\n      pop\n      jump\t// out\n        /* \"#utility.yul\":12839:13258   */\n    tag_69:\n        /* \"#utility.yul\":13005:13009   */\n      0x00\n        /* \"#utility.yul\":13043:13045   */\n      0x20\n        /* \"#utility.yul\":13032:13041   */\n      dup3\n        /* \"#utility.yul\":13028:13046   */\n      add\n        /* \"#utility.yul\":13020:13046   */\n      swap1\n      pop\n        /* \"#utility.yul\":13092:13101   */\n      dup2\n        /* \"#utility.yul\":13086:13090   */\n      dup2\n        /* \"#utility.yul\":13082:13102   */\n      sub\n        /* \"#utility.yul\":13078:13079   */\n      0x00\n        /* \"#utility.yul\":13067:13076   */\n      dup4\n        /* \"#utility.yul\":13063:13080   */\n      add\n        /* \"#utility.yul\":13056:13103   */\n      mstore\n        /* \"#utility.yul\":13120:13251   */\n      tag_502\n        /* \"#utility.yul\":13246:13250   */\n      dup2\n        /* \"#utility.yul\":13120:13251   */\n      tag_290\n      jump\t// in\n    tag_502:\n        /* \"#utility.yul\":13112:13251   */\n      swap1\n      pop\n        /* \"#utility.yul\":12839:13258   */\n      swap2\n      swap1\n      pop\n      jump\t// out\n        /* \"#utility.yul\":13264:13436   */\n    tag_291:\n        /* \"#utility.yul\":13404:13428   */\n      0x496e76616c696420746172676574206164647265737300000000000000000000\n        /* \"#utility.yul\":13400:13401   */\n      0x00\n        /* \"#utility.yul\":13392:13398   */\n      dup3\n        /* \"#utility.yul\":13388:13402   */\n      add\n        /* \"#utility.yul\":13381:13429   */\n      mstore\n        /* \"#utility.yul\":13264:13436   */\n      pop\n      jump\t// out\n        /* \"#utility.yul\":13442:13808   */\n    tag_292:\n        /* \"#utility.yul\":13584:13587   */\n      0x00\n        /* \"#utility.yul\":13605:13672   */\n      tag_505\n        /* \"#utility.yul\":13669:13671   */\n      0x16\n        /* \"#utility.yul\":13664:13667   */\n      dup4\n        /* \"#utility.yul\":13605:13672   */\n      tag_282\n      jump\t// in\n    tag_505:\n        /* \"#utility.yul\":13598:13672   */\n      swap2\n      pop\n        /* \"#utility.yul\":13681:13774   */\n      tag_506\n        /* \"#utility.yul\":13770:13773   */\n      dup3\n        /* \"#utility.yul\":13681:13774   */\n      tag_291\n      jump\t// in\n    tag_506:\n        /* \"#utility.yul\":13799:13801   */\n      0x20\n        /* \"#utility.yul\":13794:13797   */\n      dup3\n        /* \"#utility.yul\":13790:13802   */\n      add\n        /* \"#utility.yul\":13783:13802   */\n      swap1\n      pop\n        /* \"#utility.yul\":13442:13808   */\n      swap2\n      swap1\n      pop\n      jump\t// out\n        /* \"#utility.yul\":13814:14233   */\n    tag_73:\n        /* \"#utility.yul\":13980:13984   */\n      0x00\n        /* \"#utility.yul\":14018:14020   */\n      0x20\n        /* \"#utility.yul\":14007:14016   */\n      dup3\n        /* \"#utility.yul\":14003:14021   */\n      add\n        /* \"#utility.yul\":13995:14021   */\n      swap1\n      pop\n        /* \"#utility.yul\":14067:14076   */\n      dup2\n        /* \"#utility.yul\":14061:14065   */\n      dup2\n        /* \"#utility.yul\":14057:14077   */\n      sub\n        /* \"#utility.yul\":14053:14054   */\n      0x00\n        /* \"#utility.yul\":14042:14051   */\n      dup4\n        /* \"#utility.yul\":14038:14055   */\n      add\n        /* \"#utility.yul\":14031:14078   */\n      mstore\n        /* \"#utility.yul\":14095:14226   */\n      tag_508\n        /* \"#utility.yul\":14221:14225   */\n      dup2\n        /* \"#utility.yul\":14095:14226   */\n      tag_292\n      jump\t// in\n    tag_508:\n        /* \"#utility.yul\":14087:14226   */\n      swap1\n      pop\n        /* \"#utility.yul\":13814:14233   */\n      swap2\n      swap1\n      pop\n      jump\t// out\n        /* \"#utility.yul\":14239:14408   */\n    tag_293:\n        /* \"#utility.yul\":14379:14400   */\n      0x456d7074792066756e6374696f6e206e616d6500000000000000000000000000\n        /* \"#utility.yul\":14375:14376   */\n      0x00\n        /* \"#utility.yul\":14367:14373   */\n      dup3\n        /* \"#utility.yul\":14363:14377   */\n      add\n        /* \"#utility.yul\":14356:14401   */\n      mstore\n        /* \"#utility.yul\":14239:14408   */\n      pop\n      jump\t// out\n        /* \"#utility.yul\":14414:14780   */\n    tag_294:\n        /* \"#utility.yul\":14556:14559   */\n      0x00\n        /* \"#utility.yul\":14577:14644   */\n      tag_511\n        /* \"#utility.yul\":14641:14643   */\n      0x13\n        /* \"#utility.yul\":14636:14639   */\n      dup4\n        /* \"#utility.yul\":14577:14644   */\n      tag_282\n      jump\t// in\n    tag_511:\n        /* \"#utility.yul\":14570:14644   */\n      swap2\n      pop\n        /* \"#utility.yul\":14653:14746   */\n      tag_512\n        /* \"#utility.yul\":14742:14745   */\n      dup3\n        /* \"#utility.yul\":14653:14746   */\n      tag_293\n      jump\t// in\n    tag_512:\n        /* \"#utility.yul\":14771:14773   */\n      0x20\n        /* \"#utility.yul\":14766:14769   */\n      dup3\n        /* \"#utility.yul\":14762:14774   */\n      add\n        /* \"#utility.yul\":14755:14774   */\n      swap1\n      pop\n        /* \"#utility.yul\":14414:14780   */\n      swap2\n      swap1\n      pop\n      jump\t// out\n        /* \"#utility.yul\":14786:15205   */\n    tag_76:\n        /* \"#utility.yul\":14952:14956   */\n      0x00\n        /* \"#utility.yul\":14990:14992   */\n      0x20\n        /* \"#utility.yul\":14979:14988   */\n      dup3\n        /* \"#utility.yul\":14975:14993   */\n      add\n        /* \"#utility.yul\":14967:14993   */\n      swap1\n      pop\n        /* \"#utility.yul\":15039:15048   */\n      dup2\n        /* \"#utility.yul\":15033:15037   */\n      dup2\n        /* \"#utility.yul\":15029:15049   */\n      sub\n        /* \"#utility.yul\":15025:15026   */\n      0x00\n        /* \"#utility.yul\":15014:15023   */\n      dup4\n        /* \"#utility.yul\":15010:15027   */\n      add\n        /* \"#utility.yul\":15003:15050   */\n      mstore\n        /* \"#utility.yul\":15067:15198   */\n      tag_514\n        /* \"#utility.yul\":15193:15197   */\n      dup2\n        /* \"#utility.yul\":15067:15198   */\n      tag_294\n      jump\t// in\n    tag_514:\n        /* \"#utility.yul\":15059:15198   */\n      swap1\n      pop\n        /* \"#utility.yul\":14786:15205   */\n      swap2\n      swap1\n      pop\n      jump\t// out\n        /* \"#utility.yul\":15211:15371   */\n    tag_295:\n        /* \"#utility.yul\":15351:15363   */\n      0x456d707479206461746100000000000000000000000000000000000000000000\n        /* \"#utility.yul\":15347:15348   */\n      0x00\n        /* \"#utility.yul\":15339:15345   */\n      dup3\n        /* \"#utility.yul\":15335:15349   */\n      add\n        /* \"#utility.yul\":15328:15364   */\n      mstore\n        /* \"#utility.yul\":15211:15371   */\n      pop\n      jump\t// out\n        /* \"#utility.yul\":15377:15743   */\n    tag_296:\n        /* \"#utility.yul\":15519:15522   */\n      0x00\n        /* \"#utility.yul\":15540:15607   */\n      tag_517\n        /* \"#utility.yul\":15604:15606   */\n      0x0a\n        /* \"#utility.yul\":15599:15602   */\n      dup4\n        /* \"#utility.yul\":15540:15607   */\n      tag_282\n      jump\t// in\n    tag_517:\n        /* \"#utility.yul\":15533:15607   */\n      swap2\n      pop\n        /* \"#utility.yul\":15616:15709   */\n      tag_518\n        /* \"#utility.yul\":15705:15708   */\n      dup3\n        /* \"#utility.yul\":15616:15709   */\n      tag_295\n      jump\t// in\n    tag_518:\n        /* \"#utility.yul\":15734:15736   */\n      0x20\n        /* \"#utility.yul\":15729:15732   */\n      dup3\n        /* \"#utility.yul\":15725:15737   */\n      add\n        /* \"#utility.yul\":15718:15737   */\n      swap1\n      pop\n        /* \"#utility.yul\":15377:15743   */\n      swap2\n      swap1\n      pop\n      jump\t// out\n        /* \"#utility.yul\":15749:16168   */\n    tag_79:\n        /* \"#utility.yul\":15915:15919   */\n      0x00\n        /* \"#utility.yul\":15953:15955   */\n      0x20\n        /* \"#utility.yul\":15942:15951   */\n      dup3\n        /* \"#utility.yul\":15938:15956   */\n      add\n        /* \"#utility.yul\":15930:15956   */\n      swap1\n      pop\n        /* \"#utility.yul\":16002:16011   */\n      dup2\n        /* \"#utility.yul\":15996:16000   */\n      dup2\n        /* \"#utility.yul\":15992:16012   */\n      sub\n        /* \"#utility.yul\":15988:15989   */\n      0x00\n        /* \"#utility.yul\":15977:15986   */\n      dup4\n        /* \"#utility.yul\":15973:15990   */\n      add\n        /* \"#utility.yul\":15966:16013   */\n      mstore\n        /* \"#utility.yul\":16030:16161   */\n      tag_520\n        /* \"#utility.yul\":16156:16160   */\n      dup2\n        /* \"#utility.yul\":16030:16161   */\n      tag_296\n      jump\t// in\n    tag_520:\n        /* \"#utility.yul\":16022:16161   */\n      swap1\n      pop\n        /* \"#utility.yul\":15749:16168   */\n      swap2\n      swap1\n      pop\n      jump\t// out\n        /* \"#utility.yul\":16174:16338   */\n    tag_297:\n        /* \"#utility.yul\":16314:16330   */\n      0x616c6c7265616479207175657565000000000000000000000000000000000000\n        /* \"#utility.yul\":16310:16311   */\n      0x00\n        /* \"#utility.yul\":16302:16308   */\n      dup3\n        /* \"#utility.yul\":16298:16312   */\n      add\n        /* \"#utility.yul\":16291:16331   */\n      mstore\n        /* \"#utility.yul\":16174:16338   */\n      pop\n      jump\t// out\n        /* \"#utility.yul\":16344:16710   */\n    tag_298:\n        /* \"#utility.yul\":16486:16489   */\n      0x00\n        /* \"#utility.yul\":16507:16574   */\n      tag_523\n        /* \"#utility.yul\":16571:16573   */\n      0x0e\n        /* \"#utility.yul\":16566:16569   */\n      dup4\n        /* \"#utility.yul\":16507:16574   */\n      tag_282\n      jump\t// in\n    tag_523:\n        /* \"#utility.yul\":16500:16574   */\n      swap2\n      pop\n        /* \"#utility.yul\":16583:16676   */\n      tag_524\n        /* \"#utility.yul\":16672:16675   */\n      dup3\n        /* \"#utility.yul\":16583:16676   */\n      tag_297\n      jump\t// in\n    tag_524:\n        /* \"#utility.yul\":16701:16703   */\n      0x20\n        /* \"#utility.yul\":16696:16699   */\n      dup3\n        /* \"#utility.yul\":16692:16704   */\n      add\n        /* \"#utility.yul\":16685:16704   */\n      swap1\n      pop\n        /* \"#utility.yul\":16344:16710   */\n      swap2\n      swap1\n      pop\n      jump\t// out\n        /* \"#utility.yul\":16716:17135   */\n    tag_84:\n        /* \"#utility.yul\":16882:16886   */\n      0x00\n        /* \"#utility.yul\":16920:16922   */\n      0x20\n        /* \"#utility.yul\":16909:16918   */\n      dup3\n        /* \"#utility.yul\":16905:16923   */\n      add\n        /* \"#utility.yul\":16897:16923   */\n      swap1\n      pop\n        /* \"#utility.yul\":16969:16978   */\n      dup2\n        /* \"#utility.yul\":16963:16967   */\n      dup2\n        /* \"#utility.yul\":16959:16979   */\n      sub\n        /* \"#utility.yul\":16955:16956   */\n      0x00\n        /* \"#utility.yul\":16944:16953   */\n      dup4\n        /* \"#utility.yul\":16940:16957   */\n      add\n        /* \"#utility.yul\":16933:16980   */\n      mstore\n        /* \"#utility.yul\":16997:17128   */\n      tag_526\n        /* \"#utility.yul\":17123:17127   */\n      dup2\n        /* \"#utility.yul\":16997:17128   */\n      tag_298\n      jump\t// in\n    tag_526:\n        /* \"#utility.yul\":16989:17128   */\n      swap1\n      pop\n        /* \"#utility.yul\":16716:17135   */\n      swap2\n      swap1\n      pop\n      jump\t// out\n        /* \"#utility.yul\":17141:17321   */\n    tag_299:\n        /* \"#utility.yul\":17189:17266   */\n      0x4e487b7100000000000000000000000000000000000000000000000000000000\n        /* \"#utility.yul\":17186:17187   */\n      0x00\n        /* \"#utility.yul\":17179:17267   */\n      mstore\n        /* \"#utility.yul\":17286:17290   */\n      0x41\n        /* \"#utility.yul\":17283:17284   */\n      0x04\n        /* \"#utility.yul\":17276:17291   */\n      mstore\n        /* \"#utility.yul\":17310:17314   */\n      0x24\n        /* \"#utility.yul\":17307:17308   */\n      0x00\n        /* \"#utility.yul\":17300:17315   */\n      revert\n        /* \"#utility.yul\":17327:17507   */\n    tag_300:\n        /* \"#utility.yul\":17375:17452   */\n      0x4e487b7100000000000000000000000000000000000000000000000000000000\n        /* \"#utility.yul\":17372:17373   */\n      0x00\n        /* \"#utility.yul\":17365:17453   */\n      mstore\n        /* \"#utility.yul\":17472:17476   */\n      0x22\n        /* \"#utility.yul\":17469:17470   */\n      0x04\n        /* \"#utility.yul\":17462:17477   */\n      mstore\n        /* \"#utility.yul\":17496:17500   */\n      0x24\n        /* \"#utility.yul\":17493:17494   */\n      0x00\n        /* \"#utility.yul\":17486:17501   */\n      revert\n        /* \"#utility.yul\":17513:17833   */\n    tag_109:\n        /* \"#utility.yul\":17557:17563   */\n      0x00\n        /* \"#utility.yul\":17594:17595   */\n      0x02\n        /* \"#utility.yul\":17588:17592   */\n      dup3\n        /* \"#utility.yul\":17584:17596   */\n      div\n        /* \"#utility.yul\":17574:17596   */\n      swap1\n      pop\n        /* \"#utility.yul\":17641:17642   */\n      0x01\n        /* \"#utility.yul\":17635:17639   */\n      dup3\n        /* \"#utility.yul\":17631:17643   */\n      and\n        /* \"#utility.yul\":17662:17680   */\n      dup1\n        /* \"#utility.yul\":17652:17733   */\n      tag_530\n      jumpi\n        /* \"#utility.yul\":17718:17722   */\n      0x7f\n        /* \"#utility.yul\":17710:17716   */\n      dup3\n        /* \"#utility.yul\":17706:17723   */\n      and\n        /* \"#utility.yul\":17696:17723   */\n      swap2\n      pop\n        /* \"#utility.yul\":17652:17733   */\n    tag_530:\n        /* \"#utility.yul\":17780:17782   */\n      0x20\n        /* \"#utility.yul\":17772:17778   */\n      dup3\n        /* \"#utility.yul\":17769:17783   */\n      lt\n        /* \"#utility.yul\":17749:17767   */\n      dup2\n        /* \"#utility.yul\":17746:17784   */\n      sub\n        /* \"#utility.yul\":17743:17827   */\n      tag_531\n      jumpi\n        /* \"#utility.yul\":17799:17817   */\n      tag_532\n      tag_300\n      jump\t// in\n    tag_532:\n        /* \"#utility.yul\":17743:17827   */\n    tag_531:\n        /* \"#utility.yul\":17564:17833   */\n      pop\n        /* \"#utility.yul\":17513:17833   */\n      swap2\n      swap1\n      pop\n      jump\t// out\n        /* \"#utility.yul\":17839:17980   */\n    tag_301:\n        /* \"#utility.yul\":17888:17892   */\n      0x00\n        /* \"#utility.yul\":17911:17914   */\n      dup2\n        /* \"#utility.yul\":17903:17914   */\n      swap1\n      pop\n        /* \"#utility.yul\":17934:17937   */\n      dup2\n        /* \"#utility.yul\":17931:17932   */\n      0x00\n        /* \"#utility.yul\":17924:17938   */\n      mstore\n        /* \"#utility.yul\":17968:17972   */\n      0x20\n        /* \"#utility.yul\":17965:17966   */\n      0x00\n        /* \"#utility.yul\":17955:17973   */\n      keccak256\n        /* \"#utility.yul\":17947:17973   */\n      swap1\n      pop\n        /* \"#utility.yul\":17839:17980   */\n      swap2\n      swap1\n      pop\n      jump\t// out\n        /* \"#utility.yul\":17986:18079   */\n    tag_302:\n        /* \"#utility.yul\":18023:18029   */\n      0x00\n        /* \"#utility.yul\":18070:18072   */\n      0x20\n        /* \"#utility.yul\":18065:18067   */\n      0x1f\n        /* \"#utility.yul\":18058:18063   */\n      dup4\n        /* \"#utility.yul\":18054:18068   */\n      add\n        /* \"#utility.yul\":18050:18073   */\n      div\n        /* \"#utility.yul\":18040:18073   */\n      swap1\n      pop\n        /* \"#utility.yul\":17986:18079   */\n      swap2\n      swap1\n      pop\n      jump\t// out\n        /* \"#utility.yul\":18085:18192   */\n    tag_303:\n        /* \"#utility.yul\":18129:18137   */\n      0x00\n        /* \"#utility.yul\":18179:18184   */\n      dup3\n        /* \"#utility.yul\":18173:18177   */\n      dup3\n        /* \"#utility.yul\":18169:18185   */\n      shl\n        /* \"#utility.yul\":18148:18185   */\n      swap1\n      pop\n        /* \"#utility.yul\":18085:18192   */\n      swap3\n      swap2\n      pop\n      pop\n      jump\t// out\n        /* \"#utility.yul\":18198:18591   */\n    tag_304:\n        /* \"#utility.yul\":18267:18273   */\n      0x00\n        /* \"#utility.yul\":18317:18318   */\n      0x08\n        /* \"#utility.yul\":18305:18315   */\n      dup4\n        /* \"#utility.yul\":18301:18319   */\n      mul\n        /* \"#utility.yul\":18340:18437   */\n      tag_537\n        /* \"#utility.yul\":18370:18436   */\n      0xffffffffffffffffffffffffffffffffffffffffffffffffffffffffffffffff\n        /* \"#utility.yul\":18359:18368   */\n      dup3\n        /* \"#utility.yul\":18340:18437   */\n      tag_303\n      jump\t// in\n    tag_537:\n        /* \"#utility.yul\":18458:18497   */\n      tag_538\n        /* \"#utility.yul\":18488:18496   */\n      dup7\n        /* \"#utility.yul\":18477:18486   */\n      dup4\n        /* \"#utility.yul\":18458:18497   */\n      tag_303\n      jump\t// in\n    tag_538:\n        /* \"#utility.yul\":18446:18497   */\n      swap6\n      pop\n        /* \"#utility.yul\":18530:18534   */\n      dup1\n        /* \"#utility.yul\":18526:18535   */\n      not\n        /* \"#utility.yul\":18519:18524   */\n      dup5\n        /* \"#utility.yul\":18515:18536   */\n      and\n        /* \"#utility.yul\":18506:18536   */\n      swap4\n      pop\n        /* \"#utility.yul\":18579:18583   */\n      dup1\n        /* \"#utility.yul\":18569:18577   */\n      dup7\n        /* \"#utility.yul\":18565:18584   */\n      and\n        /* \"#utility.yul\":18558:18563   */\n      dup5\n        /* \"#utility.yul\":18555:18585   */\n      or\n        /* \"#utility.yul\":18545:18585   */\n      swap3\n      pop\n        /* \"#utility.yul\":18274:18591   */\n      pop\n      pop\n        /* \"#utility.yul\":18198:18591   */\n      swap4\n      swap3\n      pop\n      pop\n      pop\n      jump\t// out\n        /* \"#utility.yul\":18597:18657   */\n    tag_305:\n        /* \"#utility.yul\":18625:18628   */\n      0x00\n        /* \"#utility.yul\":18646:18651   */\n      dup2\n        /* \"#utility.yul\":18639:18651   */\n      swap1\n      pop\n        /* \"#utility.yul\":18597:18657   */\n      swap2\n      swap1\n      pop\n      jump\t// out\n        /* \"#utility.yul\":18663:18805   */\n    tag_306:\n        /* \"#utility.yul\":18713:18722   */\n      0x00\n        /* \"#utility.yul\":18746:18799   */\n      tag_541\n        /* \"#utility.yul\":18764:18798   */\n      tag_542\n        /* \"#utility.yul\":18773:18797   */\n      tag_543\n        /* \"#utility.yul\":18791:18796   */\n      dup5\n        /* \"#utility.yul\":18773:18797   */\n      tag_251\n      jump\t// in\n    tag_543:\n        /* \"#utility.yul\":18764:18798   */\n      tag_305\n      jump\t// in\n    tag_542:\n        /* \"#utility.yul\":18746:18799   */\n      tag_251\n      jump\t// in\n    tag_541:\n        /* \"#utility.yul\":18733:18799   */\n      swap1\n      pop\n        /* \"#utility.yul\":18663:18805   */\n      swap2\n      swap1\n      pop\n      jump\t// out\n        /* \"#utility.yul\":18811:18886   */\n    tag_307:\n        /* \"#utility.yul\":18854:18857   */\n      0x00\n        /* \"#utility.yul\":18875:18880   */\n      dup2\n        /* \"#utility.yul\":18868:18880   */\n      swap1\n      pop\n        /* \"#utility.yul\":18811:18886   */\n      swap2\n      swap1\n      pop\n      jump\t// out\n        /* \"#utility.yul\":18892:19161   */\n    tag_308:\n        /* \"#utility.yul\":19002:19041   */\n      tag_546\n        /* \"#utility.yul\":19033:19040   */\n      dup4\n        /* \"#utility.yul\":19002:19041   */\n      tag_306\n      jump\t// in\n    tag_546:\n        /* \"#utility.yul\":19063:19154   */\n      tag_547\n        /* \"#utility.yul\":19112:19153   */\n      tag_548\n        /* \"#utility.yul\":19136:19152   */\n      dup3\n        /* \"#utility.yul\":19112:19153   */\n      tag_307\n      jump\t// in\n    tag_548:\n        /* \"#utility.yul\":19104:19110   */\n      dup5\n        /* \"#utility.yul\":19097:19101   */\n      dup5\n        /* \"#utility.yul\":19091:19102   */\n      sload\n        /* \"#utility.yul\":19063:19154   */\n      tag_304\n      jump\t// in\n    tag_547:\n        /* \"#utility.yul\":19057:19061   */\n      dup3\n        /* \"#utility.yul\":19050:19155   */\n      sstore\n        /* \"#utility.yul\":18968:19161   */\n      pop\n        /* \"#utility.yul\":18892:19161   */\n      pop\n      pop\n      pop\n      jump\t// out\n        /* \"#utility.yul\":19167:19240   */\n    tag_309:\n        /* \"#utility.yul\":19212:19215   */\n      0x00\n        /* \"#utility.yul\":19233:19234   */\n      0x00\n        /* \"#utility.yul\":19226:19234   */\n      swap1\n      pop\n        /* \"#utility.yul\":19167:19240   */\n      swap1\n      jump\t// out\n        /* \"#utility.yul\":19246:19435   */\n    tag_310:\n        /* \"#utility.yul\":19323:19355   */\n      tag_551\n      tag_309\n      jump\t// in\n    tag_551:\n        /* \"#utility.yul\":19364:19429   */\n      tag_552\n        /* \"#utility.yul\":19422:19428   */\n      dup2\n        /* \"#utility.yul\":19414:19420   */\n      dup5\n        /* \"#utility.yul\":19408:19412   */\n      dup5\n        /* \"#utility.yul\":19364:19429   */\n      tag_308\n      jump\t// in\n    tag_552:\n        /* \"#utility.yul\":19299:19435   */\n      pop\n        /* \"#utility.yul\":19246:19435   */\n      pop\n      pop\n      jump\t// out\n        /* \"#utility.yul\":19441:19627   */\n    tag_311:\n        /* \"#utility.yul\":19501:19621   */\n    tag_554:\n        /* \"#utility.yul\":19518:19521   */\n      dup2\n        /* \"#utility.yul\":19511:19516   */\n      dup2\n        /* \"#utility.yul\":19508:19522   */\n      lt\n        /* \"#utility.yul\":19501:19621   */\n      iszero\n      tag_556\n      jumpi\n        /* \"#utility.yul\":19572:19611   */\n      tag_557\n        /* \"#utility.yul\":19609:19610   */\n      0x00\n        /* \"#utility.yul\":19602:19607   */\n      dup3\n        /* \"#utility.yul\":19572:19611   */\n      tag_310\n      jump\t// in\n    tag_557:\n        /* \"#utility.yul\":19545:19546   */\n      0x01\n        /* \"#utility.yul\":19538:19543   */\n      dup2\n        /* \"#utility.yul\":19534:19547   */\n      add\n        /* \"#utility.yul\":19525:19547   */\n      swap1\n      pop\n        /* \"#utility.yul\":19501:19621   */\n      jump(tag_554)\n    tag_556:\n        /* \"#utility.yul\":19441:19627   */\n      pop\n      pop\n      jump\t// out\n        /* \"#utility.yul\":19633:20176   */\n    tag_312:\n        /* \"#utility.yul\":19734:19736   */\n      0x1f\n        /* \"#utility.yul\":19729:19732   */\n      dup3\n        /* \"#utility.yul\":19726:19737   */\n      gt\n        /* \"#utility.yul\":19723:20169   */\n      iszero\n      tag_559\n      jumpi\n        /* \"#utility.yul\":19768:19806   */\n      tag_560\n        /* \"#utility.yul\":19800:19805   */\n      dup2\n        /* \"#utility.yul\":19768:19806   */\n      tag_301\n      jump\t// in\n    tag_560:\n        /* \"#utility.yul\":19852:19881   */\n      tag_561\n        /* \"#utility.yul\":19870:19880   */\n      dup5\n        /* \"#utility.yul\":19852:19881   */\n      tag_302\n      jump\t// in\n    tag_561:\n        /* \"#utility.yul\":19842:19850   */\n      dup2\n        /* \"#utility.yul\":19838:19882   */\n      add\n        /* \"#utility.yul\":20035:20037   */\n      0x20\n        /* \"#utility.yul\":20023:20033   */\n      dup6\n        /* \"#utility.yul\":20020:20038   */\n      lt\n        /* \"#utility.yul\":20017:20066   */\n      iszero\n      tag_562\n      jumpi\n        /* \"#utility.yul\":20056:20064   */\n      dup2\n        /* \"#utility.yul\":20041:20064   */\n      swap1\n      pop\n        /* \"#utility.yul\":20017:20066   */\n    tag_562:\n        /* \"#utility.yul\":20079:20159   */\n      tag_563\n        /* \"#utility.yul\":20135:20157   */\n      tag_564\n        /* \"#utility.yul\":20153:20156   */\n      dup6\n        /* \"#utility.yul\":20135:20157   */\n      tag_302\n      jump\t// in\n    tag_564:\n        /* \"#utility.yul\":20125:20133   */\n      dup4\n        /* \"#utility.yul\":20121:20158   */\n      add\n        /* \"#utility.yul\":20108:20119   */\n      dup3\n        /* \"#utility.yul\":20079:20159   */\n      tag_311\n      jump\t// in\n    tag_563:\n        /* \"#utility.yul\":19738:20169   */\n      pop\n      pop\n        /* \"#utility.yul\":19723:20169   */\n    tag_559:\n        /* \"#utility.yul\":19633:20176   */\n      pop\n      pop\n      pop\n      jump\t// out\n        /* \"#utility.yul\":20182:20299   */\n    tag_313:\n        /* \"#utility.yul\":20236:20244   */\n      0x00\n        /* \"#utility.yul\":20286:20291   */\n      dup3\n        /* \"#utility.yul\":20280:20284   */\n      dup3\n        /* \"#utility.yul\":20276:20292   */\n      shr\n        /* \"#utility.yul\":20255:20292   */\n      swap1\n      pop\n        /* \"#utility.yul\":20182:20299   */\n      swap3\n      swap2\n      pop\n      pop\n      jump\t// out\n        /* \"#utility.yul\":20305:20474   */\n    tag_314:\n        /* \"#utility.yul\":20349:20355   */\n      0x00\n        /* \"#utility.yul\":20382:20433   */\n      tag_567\n        /* \"#utility.yul\":20430:20431   */\n      0x00\n        /* \"#utility.yul\":20426:20432   */\n      not\n        /* \"#utility.yul\":20418:20423   */\n      dup5\n        /* \"#utility.yul\":20415:20416   */\n      0x08\n        /* \"#utility.yul\":20411:20424   */\n      mul\n        /* \"#utility.yul\":20382:20433   */\n      tag_313\n      jump\t// in\n    tag_567:\n        /* \"#utility.yul\":20378:20434   */\n      not\n        /* \"#utility.yul\":20463:20467   */\n      dup1\n        /* \"#utility.yul\":20457:20461   */\n      dup4\n        /* \"#utility.yul\":20453:20468   */\n      and\n        /* \"#utility.yul\":20443:20468   */\n      swap2\n      pop\n        /* \"#utility.yul\":20356:20474   */\n      pop\n        /* \"#utility.yul\":20305:20474   */\n      swap3\n      swap2\n      pop\n      pop\n      jump\t// out\n        /* \"#utility.yul\":20479:20774   */\n    tag_315:\n        /* \"#utility.yul\":20555:20559   */\n      0x00\n        /* \"#utility.yul\":20701:20730   */\n      tag_569\n        /* \"#utility.yul\":20726:20729   */\n      dup4\n        /* \"#utility.yul\":20720:20724   */\n      dup4\n        /* \"#utility.yul\":20701:20730   */\n      tag_314\n      jump\t// in\n    tag_569:\n        /* \"#utility.yul\":20693:20730   */\n      swap2\n      pop\n        /* \"#utility.yul\":20763:20766   */\n      dup3\n        /* \"#utility.yul\":20760:20761   */\n      0x02\n        /* \"#utility.yul\":20756:20767   */\n      mul\n        /* \"#utility.yul\":20750:20754   */\n      dup3\n        /* \"#utility.yul\":20747:20768   */\n      or\n        /* \"#utility.yul\":20739:20768   */\n      swap1\n      pop\n        /* \"#utility.yul\":20479:20774   */\n      swap3\n      swap2\n      pop\n      pop\n      jump\t// out\n        /* \"#utility.yul\":20779:22174   */\n    tag_86:\n        /* \"#utility.yul\":20896:20933   */\n      tag_571\n        /* \"#utility.yul\":20929:20932   */\n      dup3\n        /* \"#utility.yul\":20896:20933   */\n      tag_281\n      jump\t// in\n    tag_571:\n        /* \"#utility.yul\":20998:21016   */\n      0xffffffffffffffff\n        /* \"#utility.yul\":20990:20996   */\n      dup2\n        /* \"#utility.yul\":20987:21017   */\n      gt\n        /* \"#utility.yul\":20984:21040   */\n      iszero\n      tag_572\n      jumpi\n        /* \"#utility.yul\":21020:21038   */\n      tag_573\n      tag_299\n      jump\t// in\n    tag_573:\n        /* \"#utility.yul\":20984:21040   */\n    tag_572:\n        /* \"#utility.yul\":21064:21102   */\n      tag_574\n        /* \"#utility.yul\":21096:21100   */\n      dup3\n        /* \"#utility.yul\":21090:21101   */\n      sload\n        /* \"#utility.yul\":21064:21102   */\n      tag_109\n      jump\t// in\n    tag_574:\n        /* \"#utility.yul\":21149:21216   */\n      tag_575\n        /* \"#utility.yul\":21209:21215   */\n      dup3\n        /* \"#utility.yul\":21201:21207   */\n      dup3\n        /* \"#utility.yul\":21195:21199   */\n      dup6\n        /* \"#utility.yul\":21149:21216   */\n      tag_312\n      jump\t// in\n    tag_575:\n        /* \"#utility.yul\":21243:21244   */\n      0x00\n        /* \"#utility.yul\":21267:21271   */\n      0x20\n        /* \"#utility.yul\":21254:21271   */\n      swap1\n      pop\n        /* \"#utility.yul\":21299:21301   */\n      0x1f\n        /* \"#utility.yul\":21291:21297   */\n      dup4\n        /* \"#utility.yul\":21288:21302   */\n      gt\n        /* \"#utility.yul\":21316:21317   */\n      0x01\n        /* \"#utility.yul\":21311:21929   */\n      dup2\n      eq\n      tag_577\n      jumpi\n        /* \"#utility.yul\":21973:21974   */\n      0x00\n        /* \"#utility.yul\":21990:21996   */\n      dup5\n        /* \"#utility.yul\":21987:22064   */\n      iszero\n      tag_578\n      jumpi\n        /* \"#utility.yul\":22039:22048   */\n      dup3\n        /* \"#utility.yul\":22034:22037   */\n      dup8\n        /* \"#utility.yul\":22030:22049   */\n      add\n        /* \"#utility.yul\":22024:22050   */\n      mload\n        /* \"#utility.yul\":22015:22050   */\n      swap1\n      pop\n        /* \"#utility.yul\":21987:22064   */\n    tag_578:\n        /* \"#utility.yul\":22090:22157   */\n      tag_579\n        /* \"#utility.yul\":22150:22156   */\n      dup6\n        /* \"#utility.yul\":22143:22148   */\n      dup3\n        /* \"#utility.yul\":22090:22157   */\n      tag_315\n      jump\t// in\n    tag_579:\n        /* \"#utility.yul\":22084:22088   */\n      dup7\n        /* \"#utility.yul\":22077:22158   */\n      sstore\n        /* \"#utility.yul\":21946:22168   */\n      pop\n        /* \"#utility.yul\":21281:22168   */\n      jump(tag_576)\n        /* \"#utility.yul\":21311:21929   */\n    tag_577:\n        /* \"#utility.yul\":21363:21367   */\n      0x1f\n        /* \"#utility.yul\":21359:21368   */\n      not\n        /* \"#utility.yul\":21351:21357   */\n      dup5\n        /* \"#utility.yul\":21347:21369   */\n      and\n        /* \"#utility.yul\":21397:21434   */\n      tag_580\n        /* \"#utility.yul\":21429:21433   */\n      dup7\n        /* \"#utility.yul\":21397:21434   */\n      tag_301\n      jump\t// in\n    tag_580:\n        /* \"#utility.yul\":21456:21457   */\n      0x00\n        /* \"#utility.yul\":21470:21678   */\n    tag_581:\n        /* \"#utility.yul\":21484:21491   */\n      dup3\n        /* \"#utility.yul\":21481:21482   */\n      dup2\n        /* \"#utility.yul\":21478:21492   */\n      lt\n        /* \"#utility.yul\":21470:21678   */\n      iszero\n      tag_583\n      jumpi\n        /* \"#utility.yul\":21563:21572   */\n      dup5\n        /* \"#utility.yul\":21558:21561   */\n      dup10\n        /* \"#utility.yul\":21554:21573   */\n      add\n        /* \"#utility.yul\":21548:21574   */\n      mload\n        /* \"#utility.yul\":21540:21546   */\n      dup3\n        /* \"#utility.yul\":21533:21575   */\n      sstore\n        /* \"#utility.yul\":21614:21615   */\n      0x01\n        /* \"#utility.yul\":21606:21612   */\n      dup3\n        /* \"#utility.yul\":21602:21616   */\n      add\n        /* \"#utility.yul\":21592:21616   */\n      swap2\n      pop\n        /* \"#utility.yul\":21661:21663   */\n      0x20\n        /* \"#utility.yul\":21650:21659   */\n      dup6\n        /* \"#utility.yul\":21646:21664   */\n      add\n        /* \"#utility.yul\":21633:21664   */\n      swap5\n      pop\n        /* \"#utility.yul\":21507:21511   */\n      0x20\n        /* \"#utility.yul\":21504:21505   */\n      dup2\n        /* \"#utility.yul\":21500:21512   */\n      add\n        /* \"#utility.yul\":21495:21512   */\n      swap1\n      pop\n        /* \"#utility.yul\":21470:21678   */\n      jump(tag_581)\n    tag_583:\n        /* \"#utility.yul\":21706:21712   */\n      dup7\n        /* \"#utility.yul\":21697:21704   */\n      dup4\n        /* \"#utility.yul\":21694:21713   */\n      lt\n        /* \"#utility.yul\":21691:21870   */\n      iszero\n      tag_584\n      jumpi\n        /* \"#utility.yul\":21764:21773   */\n      dup5\n        /* \"#utility.yul\":21759:21762   */\n      dup10\n        /* \"#utility.yul\":21755:21774   */\n      add\n        /* \"#utility.yul\":21749:21775   */\n      mload\n        /* \"#utility.yul\":21807:21855   */\n      tag_585\n        /* \"#utility.yul\":21849:21853   */\n      0x1f\n        /* \"#utility.yul\":21841:21847   */\n      dup10\n        /* \"#utility.yul\":21837:21854   */\n      and\n        /* \"#utility.yul\":21826:21835   */\n      dup3\n        /* \"#utility.yul\":21807:21855   */\n      tag_314\n      jump\t// in\n    tag_585:\n        /* \"#utility.yul\":21799:21805   */\n      dup4\n        /* \"#utility.yul\":21792:21856   */\n      sstore\n        /* \"#utility.yul\":21714:21870   */\n      pop\n        /* \"#utility.yul\":21691:21870   */\n    tag_584:\n        /* \"#utility.yul\":21916:21917   */\n      0x01\n        /* \"#utility.yul\":21912:21913   */\n      0x02\n        /* \"#utility.yul\":21904:21910   */\n      dup9\n        /* \"#utility.yul\":21900:21914   */\n      mul\n        /* \"#utility.yul\":21896:21918   */\n      add\n        /* \"#utility.yul\":21890:21894   */\n      dup9\n        /* \"#utility.yul\":21883:21919   */\n      sstore\n        /* \"#utility.yul\":21318:21929   */\n      pop\n      pop\n      pop\n        /* \"#utility.yul\":21281:22168   */\n    tag_576:\n      pop\n        /* \"#utility.yul\":20871:22174   */\n      pop\n      pop\n      pop\n        /* \"#utility.yul\":20779:22174   */\n      pop\n      pop\n      jump\t// out\n        /* \"#utility.yul\":22180:22320   */\n    tag_316:\n        /* \"#utility.yul\":22228:22232   */\n      0x00\n        /* \"#utility.yul\":22251:22254   */\n      dup2\n        /* \"#utility.yul\":22243:22254   */\n      swap1\n      pop\n        /* \"#utility.yul\":22274:22277   */\n      dup2\n        /* \"#utility.yul\":22271:22272   */\n      0x00\n        /* \"#utility.yul\":22264:22278   */\n      mstore\n        /* \"#utility.yul\":22308:22312   */\n      0x20\n        /* \"#utility.yul\":22305:22306   */\n      0x00\n        /* \"#utility.yul\":22295:22313   */\n      keccak256\n        /* \"#utility.yul\":22287:22313   */\n      swap1\n      pop\n        /* \"#utility.yul\":22180:22320   */\n      swap2\n      swap1\n      pop\n      jump\t// out\n        /* \"#utility.yul\":22326:22867   */\n    tag_317:\n        /* \"#utility.yul\":22426:22428   */\n      0x1f\n        /* \"#utility.yul\":22421:22424   */\n      dup3\n        /* \"#utility.yul\":22418:22429   */\n      gt\n        /* \"#utility.yul\":22415:22860   */\n      iszero\n      tag_588\n      jumpi\n        /* \"#utility.yul\":22460:22497   */\n      tag_589\n        /* \"#utility.yul\":22491:22496   */\n      dup2\n        /* \"#utility.yul\":22460:22497   */\n      tag_316\n      jump\t// in\n    tag_589:\n        /* \"#utility.yul\":22543:22572   */\n      tag_590\n        /* \"#utility.yul\":22561:22571   */\n      dup5\n        /* \"#utility.yul\":22543:22572   */\n      tag_302\n      jump\t// in\n    tag_590:\n        /* \"#utility.yul\":22533:22541   */\n      dup2\n        /* \"#utility.yul\":22529:22573   */\n      add\n        /* \"#utility.yul\":22726:22728   */\n      0x20\n        /* \"#utility.yul\":22714:22724   */\n      dup6\n        /* \"#utility.yul\":22711:22729   */\n      lt\n        /* \"#utility.yul\":22708:22757   */\n      iszero\n      tag_591\n      jumpi\n        /* \"#utility.yul\":22747:22755   */\n      dup2\n        /* \"#utility.yul\":22732:22755   */\n      swap1\n      pop\n        /* \"#utility.yul\":22708:22757   */\n    tag_591:\n        /* \"#utility.yul\":22770:22850   */\n      tag_592\n        /* \"#utility.yul\":22826:22848   */\n      tag_593\n        /* \"#utility.yul\":22844:22847   */\n      dup6\n        /* \"#utility.yul\":22826:22848   */\n      tag_302\n      jump\t// in\n    tag_593:\n        /* \"#utility.yul\":22816:22824   */\n      dup4\n        /* \"#utility.yul\":22812:22849   */\n      add\n        /* \"#utility.yul\":22799:22810   */\n      dup3\n        /* \"#utility.yul\":22770:22850   */\n      tag_311\n      jump\t// in\n    tag_592:\n        /* \"#utility.yul\":22430:22860   */\n      pop\n      pop\n        /* \"#utility.yul\":22415:22860   */\n    tag_588:\n        /* \"#utility.yul\":22326:22867   */\n      pop\n      pop\n      pop\n      jump\t// out\n        /* \"#utility.yul\":22873:24263   */\n    tag_88:\n        /* \"#utility.yul\":22988:23024   */\n      tag_595\n        /* \"#utility.yul\":23020:23023   */\n      dup3\n        /* \"#utility.yul\":22988:23024   */\n      tag_286\n      jump\t// in\n    tag_595:\n        /* \"#utility.yul\":23089:23107   */\n      0xffffffffffffffff\n        /* \"#utility.yul\":23081:23087   */\n      dup2\n        /* \"#utility.yul\":23078:23108   */\n      gt\n        /* \"#utility.yul\":23075:23131   */\n      iszero\n      tag_596\n      jumpi\n        /* \"#utility.yul\":23111:23129   */\n      tag_597\n      tag_299\n      jump\t// in\n    tag_597:\n        /* \"#utility.yul\":23075:23131   */\n    tag_596:\n        /* \"#utility.yul\":23155:23193   */\n      tag_598\n        /* \"#utility.yul\":23187:23191   */\n      dup3\n        /* \"#utility.yul\":23181:23192   */\n      sload\n        /* \"#utility.yul\":23155:23193   */\n      tag_109\n      jump\t// in\n    tag_598:\n        /* \"#utility.yul\":23240:23306   */\n      tag_599\n        /* \"#utility.yul\":23299:23305   */\n      dup3\n        /* \"#utility.yul\":23291:23297   */\n      dup3\n        /* \"#utility.yul\":23285:23289   */\n      dup6\n        /* \"#utility.yul\":23240:23306   */\n      tag_317\n      jump\t// in\n    tag_599:\n        /* \"#utility.yul\":23333:23334   */\n      0x00\n        /* \"#utility.yul\":23357:23361   */\n      0x20\n        /* \"#utility.yul\":23344:23361   */\n      swap1\n      pop\n        /* \"#utility.yul\":23389:23391   */\n      0x1f\n        /* \"#utility.yul\":23381:23387   */\n      dup4\n        /* \"#utility.yul\":23378:23392   */\n      gt\n        /* \"#utility.yul\":23406:23407   */\n      0x01\n        /* \"#utility.yul\":23401:24018   */\n      dup2\n      eq\n      tag_601\n      jumpi\n        /* \"#utility.yul\":24062:24063   */\n      0x00\n        /* \"#utility.yul\":24079:24085   */\n      dup5\n        /* \"#utility.yul\":24076:24153   */\n      iszero\n      tag_602\n      jumpi\n        /* \"#utility.yul\":24128:24137   */\n      dup3\n        /* \"#utility.yul\":24123:24126   */\n      dup8\n        /* \"#utility.yul\":24119:24138   */\n      add\n        /* \"#utility.yul\":24113:24139   */\n      mload\n        /* \"#utility.yul\":24104:24139   */\n      swap1\n      pop\n        /* \"#utility.yul\":24076:24153   */\n    tag_602:\n        /* \"#utility.yul\":24179:24246   */\n      tag_603\n        /* \"#utility.yul\":24239:24245   */\n      dup6\n        /* \"#utility.yul\":24232:24237   */\n      dup3\n        /* \"#utility.yul\":24179:24246   */\n      tag_315\n      jump\t// in\n    tag_603:\n        /* \"#utility.yul\":24173:24177   */\n      dup7\n        /* \"#utility.yul\":24166:24247   */\n      sstore\n        /* \"#utility.yul\":24035:24257   */\n      pop\n        /* \"#utility.yul\":23371:24257   */\n      jump(tag_600)\n        /* \"#utility.yul\":23401:24018   */\n    tag_601:\n        /* \"#utility.yul\":23453:23457   */\n      0x1f\n        /* \"#utility.yul\":23449:23458   */\n      not\n        /* \"#utility.yul\":23441:23447   */\n      dup5\n        /* \"#utility.yul\":23437:23459   */\n      and\n        /* \"#utility.yul\":23487:23523   */\n      tag_604\n        /* \"#utility.yul\":23518:23522   */\n      dup7\n        /* \"#utility.yul\":23487:23523   */\n      tag_316\n      jump\t// in\n    tag_604:\n        /* \"#utility.yul\":23545:23546   */\n      0x00\n        /* \"#utility.yul\":23559:23767   */\n    tag_605:\n        /* \"#utility.yul\":23573:23580   */\n      dup3\n        /* \"#utility.yul\":23570:23571   */\n      dup2\n        /* \"#utility.yul\":23567:23581   */\n      lt\n        /* \"#utility.yul\":23559:23767   */\n      iszero\n      tag_607\n      jumpi\n        /* \"#utility.yul\":23652:23661   */\n      dup5\n        /* \"#utility.yul\":23647:23650   */\n      dup10\n        /* \"#utility.yul\":23643:23662   */\n      add\n        /* \"#utility.yul\":23637:23663   */\n      mload\n        /* \"#utility.yul\":23629:23635   */\n      dup3\n        /* \"#utility.yul\":23622:23664   */\n      sstore\n        /* \"#utility.yul\":23703:23704   */\n      0x01\n        /* \"#utility.yul\":23695:23701   */\n      dup3\n        /* \"#utility.yul\":23691:23705   */\n      add\n        /* \"#utility.yul\":23681:23705   */\n      swap2\n      pop\n        /* \"#utility.yul\":23750:23752   */\n      0x20\n        /* \"#utility.yul\":23739:23748   */\n      dup6\n        /* \"#utility.yul\":23735:23753   */\n      add\n        /* \"#utility.yul\":23722:23753   */\n      swap5\n      pop\n        /* \"#utility.yul\":23596:23600   */\n      0x20\n        /* \"#utility.yul\":23593:23594   */\n      dup2\n        /* \"#utility.yul\":23589:23601   */\n      add\n        /* \"#utility.yul\":23584:23601   */\n      swap1\n      pop\n        /* \"#utility.yul\":23559:23767   */\n      jump(tag_605)\n    tag_607:\n        /* \"#utility.yul\":23795:23801   */\n      dup7\n        /* \"#utility.yul\":23786:23793   */\n      dup4\n        /* \"#utility.yul\":23783:23802   */\n      lt\n        /* \"#utility.yul\":23780:23959   */\n      iszero\n      tag_608\n      jumpi\n        /* \"#utility.yul\":23853:23862   */\n      dup5\n        /* \"#utility.yul\":23848:23851   */\n      dup10\n        /* \"#utility.yul\":23844:23863   */\n      add\n        /* \"#utility.yul\":23838:23864   */\n      mload\n        /* \"#utility.yul\":23896:23944   */\n      tag_609\n        /* \"#utility.yul\":23938:23942   */\n      0x1f\n        /* \"#utility.yul\":23930:23936   */\n      dup10\n        /* \"#utility.yul\":23926:23943   */\n      and\n        /* \"#utility.yul\":23915:23924   */\n      dup3\n        /* \"#utility.yul\":23896:23944   */\n      tag_314\n      jump\t// in\n    tag_609:\n        /* \"#utility.yul\":23888:23894   */\n      dup4\n        /* \"#utility.yul\":23881:23945   */\n      sstore\n        /* \"#utility.yul\":23803:23959   */\n      pop\n        /* \"#utility.yul\":23780:23959   */\n    tag_608:\n        /* \"#utility.yul\":24005:24006   */\n      0x01\n        /* \"#utility.yul\":24001:24002   */\n      0x02\n        /* \"#utility.yul\":23993:23999   */\n      dup9\n        /* \"#utility.yul\":23989:24003   */\n      mul\n        /* \"#utility.yul\":23985:24007   */\n      add\n        /* \"#utility.yul\":23979:23983   */\n      dup9\n        /* \"#utility.yul\":23972:24008   */\n      sstore\n        /* \"#utility.yul\":23408:24018   */\n      pop\n      pop\n      pop\n        /* \"#utility.yul\":23371:24257   */\n    tag_600:\n      pop\n        /* \"#utility.yul\":22963:24263   */\n      pop\n      pop\n      pop\n        /* \"#utility.yul\":22873:24263   */\n      pop\n      pop\n      jump\t// out\n        /* \"#utility.yul\":24269:24417   */\n    tag_318:\n        /* \"#utility.yul\":24367:24373   */\n      dup3\n        /* \"#utility.yul\":24362:24365   */\n      dup2\n        /* \"#utility.yul\":24357:24360   */\n      dup4\n        /* \"#utility.yul\":24344:24374   */\n      calldatacopy\n        /* \"#utility.yul\":24408:24409   */\n      0x00\n        /* \"#utility.yul\":24399:24405   */\n      dup4\n        /* \"#utility.yul\":24394:24397   */\n      dup4\n        /* \"#utility.yul\":24390:24406   */\n      add\n        /* \"#utility.yul\":24383:24410   */\n      mstore\n        /* \"#utility.yul\":24269:24417   */\n      pop\n      pop\n      pop\n      jump\t// out\n        /* \"#utility.yul\":24447:24764   */\n    tag_319:\n        /* \"#utility.yul\":24545:24548   */\n      0x00\n        /* \"#utility.yul\":24566:24637   */\n      tag_612\n        /* \"#utility.yul\":24630:24636   */\n      dup4\n        /* \"#utility.yul\":24625:24628   */\n      dup6\n        /* \"#utility.yul\":24566:24637   */\n      tag_282\n      jump\t// in\n    tag_612:\n        /* \"#utility.yul\":24559:24637   */\n      swap4\n      pop\n        /* \"#utility.yul\":24647:24703   */\n      tag_613\n        /* \"#utility.yul\":24696:24702   */\n      dup4\n        /* \"#utility.yul\":24691:24694   */\n      dup6\n        /* \"#utility.yul\":24684:24689   */\n      dup5\n        /* \"#utility.yul\":24647:24703   */\n      tag_318\n      jump\t// in\n    tag_613:\n        /* \"#utility.yul\":24728:24757   */\n      tag_614\n        /* \"#utility.yul\":24750:24756   */\n      dup4\n        /* \"#utility.yul\":24728:24757   */\n      tag_284\n      jump\t// in\n    tag_614:\n        /* \"#utility.yul\":24723:24726   */\n      dup5\n        /* \"#utility.yul\":24719:24758   */\n      add\n        /* \"#utility.yul\":24712:24758   */\n      swap1\n      pop\n        /* \"#utility.yul\":24447:24764   */\n      swap4\n      swap3\n      pop\n      pop\n      pop\n      jump\t// out\n        /* \"#utility.yul\":24792:25106   */\n    tag_320:\n        /* \"#utility.yul\":24888:24891   */\n      0x00\n        /* \"#utility.yul\":24909:24979   */\n      tag_616\n        /* \"#utility.yul\":24972:24978   */\n      dup4\n        /* \"#utility.yul\":24967:24970   */\n      dup6\n        /* \"#utility.yul\":24909:24979   */\n      tag_287\n      jump\t// in\n    tag_616:\n        /* \"#utility.yul\":24902:24979   */\n      swap4\n      pop\n        /* \"#utility.yul\":24989:25045   */\n      tag_617\n        /* \"#utility.yul\":25038:25044   */\n      dup4\n        /* \"#utility.yul\":25033:25036   */\n      dup6\n        /* \"#utility.yul\":25026:25031   */\n      dup5\n        /* \"#utility.yul\":24989:25045   */\n      tag_318\n      jump\t// in\n    tag_617:\n        /* \"#utility.yul\":25070:25099   */\n      tag_618\n        /* \"#utility.yul\":25092:25098   */\n      dup4\n        /* \"#utility.yul\":25070:25099   */\n      tag_284\n      jump\t// in\n    tag_618:\n        /* \"#utility.yul\":25065:25068   */\n      dup5\n        /* \"#utility.yul\":25061:25100   */\n      add\n        /* \"#utility.yul\":25054:25100   */\n      swap1\n      pop\n        /* \"#utility.yul\":24792:25106   */\n      swap4\n      swap3\n      pop\n      pop\n      pop\n      jump\t// out\n        /* \"#utility.yul\":25112:26105   */\n    tag_90:\n        /* \"#utility.yul\":25403:25407   */\n      0x00\n        /* \"#utility.yul\":25441:25444   */\n      0xc0\n        /* \"#utility.yul\":25430:25439   */\n      dup3\n        /* \"#utility.yul\":25426:25445   */\n      add\n        /* \"#utility.yul\":25418:25445   */\n      swap1\n      pop\n        /* \"#utility.yul\":25455:25526   */\n      tag_620\n        /* \"#utility.yul\":25523:25524   */\n      0x00\n        /* \"#utility.yul\":25512:25521   */\n      dup4\n        /* \"#utility.yul\":25508:25525   */\n      add\n        /* \"#utility.yul\":25499:25505   */\n      dup12\n        /* \"#utility.yul\":25455:25526   */\n      tag_256\n      jump\t// in\n    tag_620:\n        /* \"#utility.yul\":25536:25608   */\n      tag_621\n        /* \"#utility.yul\":25604:25606   */\n      0x20\n        /* \"#utility.yul\":25593:25602   */\n      dup4\n        /* \"#utility.yul\":25589:25607   */\n      add\n        /* \"#utility.yul\":25580:25586   */\n      dup11\n        /* \"#utility.yul\":25536:25608   */\n      tag_256\n      jump\t// in\n    tag_621:\n        /* \"#utility.yul\":25655:25664   */\n      dup2\n        /* \"#utility.yul\":25649:25653   */\n      dup2\n        /* \"#utility.yul\":25645:25665   */\n      sub\n        /* \"#utility.yul\":25640:25642   */\n      0x40\n        /* \"#utility.yul\":25629:25638   */\n      dup4\n        /* \"#utility.yul\":25625:25643   */\n      add\n        /* \"#utility.yul\":25618:25666   */\n      mstore\n        /* \"#utility.yul\":25683:25771   */\n      tag_622\n        /* \"#utility.yul\":25766:25770   */\n      dup2\n        /* \"#utility.yul\":25757:25763   */\n      dup9\n        /* \"#utility.yul\":25749:25755   */\n      dup11\n        /* \"#utility.yul\":25683:25771   */\n      tag_319\n      jump\t// in\n    tag_622:\n        /* \"#utility.yul\":25675:25771   */\n      swap1\n      pop\n        /* \"#utility.yul\":25818:25827   */\n      dup2\n        /* \"#utility.yul\":25812:25816   */\n      dup2\n        /* \"#utility.yul\":25808:25828   */\n      sub\n        /* \"#utility.yul\":25803:25805   */\n      0x60\n        /* \"#utility.yul\":25792:25801   */\n      dup4\n        /* \"#utility.yul\":25788:25806   */\n      add\n        /* \"#utility.yul\":25781:25829   */\n      mstore\n        /* \"#utility.yul\":25846:25932   */\n      tag_623\n        /* \"#utility.yul\":25927:25931   */\n      dup2\n        /* \"#utility.yul\":25918:25924   */\n      dup7\n        /* \"#utility.yul\":25910:25916   */\n      dup9\n        /* \"#utility.yul\":25846:25932   */\n      tag_320\n      jump\t// in\n    tag_623:\n        /* \"#utility.yul\":25838:25932   */\n      swap1\n      pop\n        /* \"#utility.yul\":25942:26015   */\n      tag_624\n        /* \"#utility.yul\":26010:26013   */\n      0x80\n        /* \"#utility.yul\":25999:26008   */\n      dup4\n        /* \"#utility.yul\":25995:26014   */\n      add\n        /* \"#utility.yul\":25986:25992   */\n      dup6\n        /* \"#utility.yul\":25942:26015   */\n      tag_270\n      jump\t// in\n    tag_624:\n        /* \"#utility.yul\":26025:26098   */\n      tag_625\n        /* \"#utility.yul\":26093:26096   */\n      0xa0\n        /* \"#utility.yul\":26082:26091   */\n      dup4\n        /* \"#utility.yul\":26078:26097   */\n      add\n        /* \"#utility.yul\":26069:26075   */\n      dup5\n        /* \"#utility.yul\":26025:26098   */\n      tag_265\n      jump\t// in\n    tag_625:\n        /* \"#utility.yul\":25112:26105   */\n      swap10\n      swap9\n      pop\n      pop\n      pop\n      pop\n      pop\n      pop\n      pop\n      pop\n      pop\n      jump\t// out\n        /* \"#utility.yul\":26111:26288   */\n    tag_321:\n        /* \"#utility.yul\":26251:26280   */\n      0x43616c6c2074686520636f6e73656e7375732066756e6374696f6e0000000000\n        /* \"#utility.yul\":26247:26248   */\n      0x00\n        /* \"#utility.yul\":26239:26245   */\n      dup3\n        /* \"#utility.yul\":26235:26249   */\n      add\n        /* \"#utility.yul\":26228:26281   */\n      mstore\n        /* \"#utility.yul\":26111:26288   */\n      pop\n      jump\t// out\n        /* \"#utility.yul\":26294:26660   */\n    tag_322:\n        /* \"#utility.yul\":26436:26439   */\n      0x00\n        /* \"#utility.yul\":26457:26524   */\n      tag_628\n        /* \"#utility.yul\":26521:26523   */\n      0x1b\n        /* \"#utility.yul\":26516:26519   */\n      dup4\n        /* \"#utility.yul\":26457:26524   */\n      tag_282\n      jump\t// in\n    tag_628:\n        /* \"#utility.yul\":26450:26524   */\n      swap2\n      pop\n        /* \"#utility.yul\":26533:26626   */\n      tag_629\n        /* \"#utility.yul\":26622:26625   */\n      dup3\n        /* \"#utility.yul\":26533:26626   */\n      tag_321\n      jump\t// in\n    tag_629:\n        /* \"#utility.yul\":26651:26653   */\n      0x20\n        /* \"#utility.yul\":26646:26649   */\n      dup3\n        /* \"#utility.yul\":26642:26654   */\n      add\n        /* \"#utility.yul\":26635:26654   */\n      swap1\n      pop\n        /* \"#utility.yul\":26294:26660   */\n      swap2\n      swap1\n      pop\n      jump\t// out\n        /* \"#utility.yul\":26666:27085   */\n    tag_95:\n        /* \"#utility.yul\":26832:26836   */\n      0x00\n        /* \"#utility.yul\":26870:26872   */\n      0x20\n        /* \"#utility.yul\":26859:26868   */\n      dup3\n        /* \"#utility.yul\":26855:26873   */\n      add\n        /* \"#utility.yul\":26847:26873   */\n      swap1\n      pop\n        /* \"#utility.yul\":26919:26928   */\n      dup2\n        /* \"#utility.yul\":26913:26917   */\n      dup2\n        /* \"#utility.yul\":26909:26929   */\n      sub\n        /* \"#utility.yul\":26905:26906   */\n      0x00\n        /* \"#utility.yul\":26894:26903   */\n      dup4\n        /* \"#utility.yul\":26890:26907   */\n      add\n        /* \"#utility.yul\":26883:26930   */\n      mstore\n        /* \"#utility.yul\":26947:27078   */\n      tag_631\n        /* \"#utility.yul\":27073:27077   */\n      dup2\n        /* \"#utility.yul\":26947:27078   */\n      tag_322\n      jump\t// in\n    tag_631:\n        /* \"#utility.yul\":26939:27078   */\n      swap1\n      pop\n        /* \"#utility.yul\":26666:27085   */\n      swap2\n      swap1\n      pop\n      jump\t// out\n        /* \"#utility.yul\":27091:27271   */\n    tag_323:\n        /* \"#utility.yul\":27231:27263   */\n      0x6572726f72206f776e6572732e6c656e677468203c205f636f6e665265710000\n        /* \"#utility.yul\":27227:27228   */\n      0x00\n        /* \"#utility.yul\":27219:27225   */\n      dup3\n        /* \"#utility.yul\":27215:27229   */\n      add\n        /* \"#utility.yul\":27208:27264   */\n      mstore\n        /* \"#utility.yul\":27091:27271   */\n      pop\n      jump\t// out\n        /* \"#utility.yul\":27277:27643   */\n    tag_324:\n        /* \"#utility.yul\":27419:27422   */\n      0x00\n        /* \"#utility.yul\":27440:27507   */\n      tag_634\n        /* \"#utility.yul\":27504:27506   */\n      0x1e\n        /* \"#utility.yul\":27499:27502   */\n      dup4\n        /* \"#utility.yul\":27440:27507   */\n      tag_282\n      jump\t// in\n    tag_634:\n        /* \"#utility.yul\":27433:27507   */\n      swap2\n      pop\n        /* \"#utility.yul\":27516:27609   */\n      tag_635\n        /* \"#utility.yul\":27605:27608   */\n      dup3\n        /* \"#utility.yul\":27516:27609   */\n      tag_323\n      jump\t// in\n    tag_635:\n        /* \"#utility.yul\":27634:27636   */\n      0x20\n        /* \"#utility.yul\":27629:27632   */\n      dup3\n        /* \"#utility.yul\":27625:27637   */\n      add\n        /* \"#utility.yul\":27618:27637   */\n      swap1\n      pop\n        /* \"#utility.yul\":27277:27643   */\n      swap2\n      swap1\n      pop\n      jump\t// out\n        /* \"#utility.yul\":27649:28068   */\n    tag_99:\n        /* \"#utility.yul\":27815:27819   */\n      0x00\n        /* \"#utility.yul\":27853:27855   */\n      0x20\n        /* \"#utility.yul\":27842:27851   */\n      dup3\n        /* \"#utility.yul\":27838:27856   */\n      add\n        /* \"#utility.yul\":27830:27856   */\n      swap1\n      pop\n        /* \"#utility.yul\":27902:27911   */\n      dup2\n        /* \"#utility.yul\":27896:27900   */\n      dup2\n        /* \"#utility.yul\":27892:27912   */\n      sub\n        /* \"#utility.yul\":27888:27889   */\n      0x00\n        /* \"#utility.yul\":27877:27886   */\n      dup4\n        /* \"#utility.yul\":27873:27890   */\n      add\n        /* \"#utility.yul\":27866:27913   */\n      mstore\n        /* \"#utility.yul\":27930:28061   */\n      tag_637\n        /* \"#utility.yul\":28056:28060   */\n      dup2\n        /* \"#utility.yul\":27930:28061   */\n      tag_324\n      jump\t// in\n    tag_637:\n        /* \"#utility.yul\":27922:28061   */\n      swap1\n      pop\n        /* \"#utility.yul\":27649:28068   */\n      swap2\n      swap1\n      pop\n      jump\t// out\n        /* \"#utility.yul\":28074:28245   */\n    tag_325:\n        /* \"#utility.yul\":28214:28237   */\n      0x4d696e696d616c20636f6e665265717569726520320000000000000000000000\n        /* \"#utility.yul\":28210:28211   */\n      0x00\n        /* \"#utility.yul\":28202:28208   */\n      dup3\n        /* \"#utility.yul\":28198:28212   */\n      add\n        /* \"#utility.yul\":28191:28238   */\n      mstore\n        /* \"#utility.yul\":28074:28245   */\n      pop\n      jump\t// out\n        /* \"#utility.yul\":28251:28617   */\n    tag_326:\n        /* \"#utility.yul\":28393:28396   */\n      0x00\n        /* \"#utility.yul\":28414:28481   */\n      tag_640\n        /* \"#utility.yul\":28478:28480   */\n      0x15\n        /* \"#utility.yul\":28473:28476   */\n      dup4\n        /* \"#utility.yul\":28414:28481   */\n      tag_282\n      jump\t// in\n    tag_640:\n        /* \"#utility.yul\":28407:28481   */\n      swap2\n      pop\n        /* \"#utility.yul\":28490:28583   */\n      tag_641\n        /* \"#utility.yul\":28579:28582   */\n      dup3\n        /* \"#utility.yul\":28490:28583   */\n      tag_325\n      jump\t// in\n    tag_641:\n        /* \"#utility.yul\":28608:28610   */\n      0x20\n        /* \"#utility.yul\":28603:28606   */\n      dup3\n        /* \"#utility.yul\":28599:28611   */\n      add\n        /* \"#utility.yul\":28592:28611   */\n      swap1\n      pop\n        /* \"#utility.yul\":28251:28617   */\n      swap2\n      swap1\n      pop\n      jump\t// out\n        /* \"#utility.yul\":28623:29042   */\n    tag_102:\n        /* \"#utility.yul\":28789:28793   */\n      0x00\n        /* \"#utility.yul\":28827:28829   */\n      0x20\n        /* \"#utility.yul\":28816:28825   */\n      dup3\n        /* \"#utility.yul\":28812:28830   */\n      add\n        /* \"#utility.yul\":28804:28830   */\n      swap1\n      pop\n        /* \"#utility.yul\":28876:28885   */\n      dup2\n        /* \"#utility.yul\":28870:28874   */\n      dup2\n        /* \"#utility.yul\":28866:28886   */\n      sub\n        /* \"#utility.yul\":28862:28863   */\n      0x00\n        /* \"#utility.yul\":28851:28860   */\n      dup4\n        /* \"#utility.yul\":28847:28864   */\n      add\n        /* \"#utility.yul\":28840:28887   */\n      mstore\n        /* \"#utility.yul\":28904:29035   */\n      tag_643\n        /* \"#utility.yul\":29030:29034   */\n      dup2\n        /* \"#utility.yul\":28904:29035   */\n      tag_326\n      jump\t// in\n    tag_643:\n        /* \"#utility.yul\":28896:29035   */\n      swap1\n      pop\n        /* \"#utility.yul\":28623:29042   */\n      swap2\n      swap1\n      pop\n      jump\t// out\n        /* \"#utility.yul\":29048:29160   */\n    tag_327:\n        /* \"#utility.yul\":29131:29153   */\n      tag_645\n        /* \"#utility.yul\":29147:29152   */\n      dup2\n        /* \"#utility.yul\":29131:29153   */\n      tag_271\n      jump\t// in\n    tag_645:\n        /* \"#utility.yul\":29126:29129   */\n      dup3\n        /* \"#utility.yul\":29119:29154   */\n      mstore\n        /* \"#utility.yul\":29048:29160   */\n      pop\n      pop\n      jump\t// out\n        /* \"#utility.yul\":29166:29490   */\n    tag_104:\n        /* \"#utility.yul\":29283:29287   */\n      0x00\n        /* \"#utility.yul\":29321:29323   */\n      0x40\n        /* \"#utility.yul\":29310:29319   */\n      dup3\n        /* \"#utility.yul\":29306:29324   */\n      add\n        /* \"#utility.yul\":29298:29324   */\n      swap1\n      pop\n        /* \"#utility.yul\":29334:29405   */\n      tag_647\n        /* \"#utility.yul\":29402:29403   */\n      0x00\n        /* \"#utility.yul\":29391:29400   */\n      dup4\n        /* \"#utility.yul\":29387:29404   */\n      add\n        /* \"#utility.yul\":29378:29384   */\n      dup6\n        /* \"#utility.yul\":29334:29405   */\n      tag_270\n      jump\t// in\n    tag_647:\n        /* \"#utility.yul\":29415:29483   */\n      tag_648\n        /* \"#utility.yul\":29479:29481   */\n      0x20\n        /* \"#utility.yul\":29468:29477   */\n      dup4\n        /* \"#utility.yul\":29464:29482   */\n      add\n        /* \"#utility.yul\":29455:29461   */\n      dup5\n        /* \"#utility.yul\":29415:29483   */\n      tag_327\n      jump\t// in\n    tag_648:\n        /* \"#utility.yul\":29166:29490   */\n      swap4\n      swap3\n      pop\n      pop\n      pop\n      jump\t// out\n        /* \"#utility.yul\":29496:29664   */\n    tag_328:\n        /* \"#utility.yul\":29636:29656   */\n      0x4572726f72207a65726f20616464726573730000000000000000000000000000\n        /* \"#utility.yul\":29632:29633   */\n      0x00\n        /* \"#utility.yul\":29624:29630   */\n      dup3\n        /* \"#utility.yul\":29620:29634   */\n      add\n        /* \"#utility.yul\":29613:29657   */\n      mstore\n        /* \"#utility.yul\":29496:29664   */\n      pop\n      jump\t// out\n        /* \"#utility.yul\":29670:30036   */\n    tag_329:\n        /* \"#utility.yul\":29812:29815   */\n      0x00\n        /* \"#utility.yul\":29833:29900   */\n      tag_651\n        /* \"#utility.yul\":29897:29899   */\n      0x12\n        /* \"#utility.yul\":29892:29895   */\n      dup4\n        /* \"#utility.yul\":29833:29900   */\n      tag_282\n      jump\t// in\n    tag_651:\n        /* \"#utility.yul\":29826:29900   */\n      swap2\n      pop\n        /* \"#utility.yul\":29909:30002   */\n      tag_652\n        /* \"#utility.yul\":29998:30001   */\n      dup3\n        /* \"#utility.yul\":29909:30002   */\n      tag_328\n      jump\t// in\n    tag_652:\n        /* \"#utility.yul\":30027:30029   */\n      0x20\n        /* \"#utility.yul\":30022:30025   */\n      dup3\n        /* \"#utility.yul\":30018:30030   */\n      add\n        /* \"#utility.yul\":30011:30030   */\n      swap1\n      pop\n        /* \"#utility.yul\":29670:30036   */\n      swap2\n      swap1\n      pop\n      jump\t// out\n        /* \"#utility.yul\":30042:30461   */\n    tag_125:\n        /* \"#utility.yul\":30208:30212   */\n      0x00\n        /* \"#utility.yul\":30246:30248   */\n      0x20\n        /* \"#utility.yul\":30235:30244   */\n      dup3\n        /* \"#utility.yul\":30231:30249   */\n      add\n        /* \"#utility.yul\":30223:30249   */\n      swap1\n      pop\n        /* \"#utility.yul\":30295:30304   */\n      dup2\n        /* \"#utility.yul\":30289:30293   */\n      dup2\n        /* \"#utility.yul\":30285:30305   */\n      sub\n        /* \"#utility.yul\":30281:30282   */\n      0x00\n        /* \"#utility.yul\":30270:30279   */\n      dup4\n        /* \"#utility.yul\":30266:30283   */\n      add\n        /* \"#utility.yul\":30259:30306   */\n      mstore\n        /* \"#utility.yul\":30323:30454   */\n      tag_654\n        /* \"#utility.yul\":30449:30453   */\n      dup2\n        /* \"#utility.yul\":30323:30454   */\n      tag_329\n      jump\t// in\n    tag_654:\n        /* \"#utility.yul\":30315:30454   */\n      swap1\n      pop\n        /* \"#utility.yul\":30042:30461   */\n      swap2\n      swap1\n      pop\n      jump\t// out\n        /* \"#utility.yul\":30467:30628   */\n    tag_330:\n        /* \"#utility.yul\":30607:30620   */\n      0x6e6f742071756575656421000000000000000000000000000000000000000000\n        /* \"#utility.yul\":30603:30604   */\n      0x00\n        /* \"#utility.yul\":30595:30601   */\n      dup3\n        /* \"#utility.yul\":30591:30605   */\n      add\n        /* \"#utility.yul\":30584:30621   */\n      mstore\n        /* \"#utility.yul\":30467:30628   */\n      pop\n      jump\t// out\n        /* \"#utility.yul\":30634:31000   */\n    tag_331:\n        /* \"#utility.yul\":30776:30779   */\n      0x00\n        /* \"#utility.yul\":30797:30864   */\n      tag_657\n        /* \"#utility.yul\":30861:30863   */\n      0x0b\n        /* \"#utility.yul\":30856:30859   */\n      dup4\n        /* \"#utility.yul\":30797:30864   */\n      tag_282\n      jump\t// in\n    tag_657:\n        /* \"#utility.yul\":30790:30864   */\n      swap2\n      pop\n        /* \"#utility.yul\":30873:30966   */\n      tag_658\n        /* \"#utility.yul\":30962:30965   */\n      dup3\n        /* \"#utility.yul\":30873:30966   */\n      tag_330\n      jump\t// in\n    tag_658:\n        /* \"#utility.yul\":30991:30993   */\n      0x20\n        /* \"#utility.yul\":30986:30989   */\n      dup3\n        /* \"#utility.yul\":30982:30994   */\n      add\n        /* \"#utility.yul\":30975:30994   */\n      swap1\n      pop\n        /* \"#utility.yul\":30634:31000   */\n      swap2\n      swap1\n      pop\n      jump\t// out\n        /* \"#utility.yul\":31006:31425   */\n    tag_133:\n        /* \"#utility.yul\":31172:31176   */\n      0x00\n        /* \"#utility.yul\":31210:31212   */\n      0x20\n        /* \"#utility.yul\":31199:31208   */\n      dup3\n        /* \"#utility.yul\":31195:31213   */\n      add\n        /* \"#utility.yul\":31187:31213   */\n      swap1\n      pop\n        /* \"#utility.yul\":31259:31268   */\n      dup2\n        /* \"#utility.yul\":31253:31257   */\n      dup2\n        /* \"#utility.yul\":31249:31269   */\n      sub\n        /* \"#utility.yul\":31245:31246   */\n      0x00\n        /* \"#utility.yul\":31234:31243   */\n      dup4\n        /* \"#utility.yul\":31230:31247   */\n      add\n        /* \"#utility.yul\":31223:31270   */\n      mstore\n        /* \"#utility.yul\":31287:31418   */\n      tag_660\n        /* \"#utility.yul\":31413:31417   */\n      dup2\n        /* \"#utility.yul\":31287:31418   */\n      tag_331\n      jump\t// in\n    tag_660:\n        /* \"#utility.yul\":31279:31418   */\n      swap1\n      pop\n        /* \"#utility.yul\":31006:31425   */\n      swap2\n      swap1\n      pop\n      jump\t// out\n        /* \"#utility.yul\":31431:31599   */\n    tag_332:\n        /* \"#utility.yul\":31571:31591   */\n      0x616c726561647920636f6e6669726d6564210000000000000000000000000000\n        /* \"#utility.yul\":31567:31568   */\n      0x00\n        /* \"#utility.yul\":31559:31565   */\n      dup3\n        /* \"#utility.yul\":31555:31569   */\n      add\n        /* \"#utility.yul\":31548:31592   */\n      mstore\n        /* \"#utility.yul\":31431:31599   */\n      pop\n      jump\t// out\n        /* \"#utility.yul\":31605:31971   */\n    tag_333:\n        /* \"#utility.yul\":31747:31750   */\n      0x00\n        /* \"#utility.yul\":31768:31835   */\n      tag_663\n        /* \"#utility.yul\":31832:31834   */\n      0x12\n        /* \"#utility.yul\":31827:31830   */\n      dup4\n        /* \"#utility.yul\":31768:31835   */\n      tag_282\n      jump\t// in\n    tag_663:\n        /* \"#utility.yul\":31761:31835   */\n      swap2\n      pop\n        /* \"#utility.yul\":31844:31937   */\n      tag_664\n        /* \"#utility.yul\":31933:31936   */\n      dup3\n        /* \"#utility.yul\":31844:31937   */\n      tag_332\n      jump\t// in\n    tag_664:\n        /* \"#utility.yul\":31962:31964   */\n      0x20\n        /* \"#utility.yul\":31957:31960   */\n      dup3\n        /* \"#utility.yul\":31953:31965   */\n      add\n        /* \"#utility.yul\":31946:31965   */\n      swap1\n      pop\n        /* \"#utility.yul\":31605:31971   */\n      swap2\n      swap1\n      pop\n      jump\t// out\n        /* \"#utility.yul\":31977:32396   */\n    tag_136:\n        /* \"#utility.yul\":32143:32147   */\n      0x00\n        /* \"#utility.yul\":32181:32183   */\n      0x20\n        /* \"#utility.yul\":32170:32179   */\n      dup3\n        /* \"#utility.yul\":32166:32184   */\n      add\n        /* \"#utility.yul\":32158:32184   */\n      swap1\n      pop\n        /* \"#utility.yul\":32230:32239   */\n      dup2\n        /* \"#utility.yul\":32224:32228   */\n      dup2\n        /* \"#utility.yul\":32220:32240   */\n      sub\n        /* \"#utility.yul\":32216:32217   */\n      0x00\n        /* \"#utility.yul\":32205:32214   */\n      dup4\n        /* \"#utility.yul\":32201:32218   */\n      add\n        /* \"#utility.yul\":32194:32241   */\n      mstore\n        /* \"#utility.yul\":32258:32389   */\n      tag_666\n        /* \"#utility.yul\":32384:32388   */\n      dup2\n        /* \"#utility.yul\":32258:32389   */\n      tag_333\n      jump\t// in\n    tag_666:\n        /* \"#utility.yul\":32250:32389   */\n      swap1\n      pop\n        /* \"#utility.yul\":31977:32396   */\n      swap2\n      swap1\n      pop\n      jump\t// out\n        /* \"#utility.yul\":32402:32582   */\n    tag_334:\n        /* \"#utility.yul\":32450:32527   */\n      0x4e487b7100000000000000000000000000000000000000000000000000000000\n        /* \"#utility.yul\":32447:32448   */\n      0x00\n        /* \"#utility.yul\":32440:32528   */\n      mstore\n        /* \"#utility.yul\":32547:32551   */\n      0x11\n        /* \"#utility.yul\":32544:32545   */\n      0x04\n        /* \"#utility.yul\":32537:32552   */\n      mstore\n        /* \"#utility.yul\":32571:32575   */\n      0x24\n        /* \"#utility.yul\":32568:32569   */\n      0x00\n        /* \"#utility.yul\":32561:32576   */\n      revert\n        /* \"#utility.yul\":32588:32821   */\n    tag_138:\n        /* \"#utility.yul\":32627:32630   */\n      0x00\n        /* \"#utility.yul\":32650:32674   */\n      tag_669\n        /* \"#utility.yul\":32668:32673   */\n      dup3\n        /* \"#utility.yul\":32650:32674   */\n      tag_251\n      jump\t// in\n    tag_669:\n        /* \"#utility.yul\":32641:32674   */\n      swap2\n      pop\n        /* \"#utility.yul\":32696:32762   */\n      0xffffffffffffffffffffffffffffffffffffffffffffffffffffffffffffffff\n        /* \"#utility.yul\":32689:32694   */\n      dup3\n        /* \"#utility.yul\":32686:32763   */\n      sub\n        /* \"#utility.yul\":32683:32786   */\n      tag_670\n      jumpi\n        /* \"#utility.yul\":32766:32784   */\n      tag_671\n      tag_334\n      jump\t// in\n    tag_671:\n        /* \"#utility.yul\":32683:32786   */\n    tag_670:\n        /* \"#utility.yul\":32813:32814   */\n      0x01\n        /* \"#utility.yul\":32806:32811   */\n      dup3\n        /* \"#utility.yul\":32802:32815   */\n      add\n        /* \"#utility.yul\":32795:32815   */\n      swap1\n      pop\n        /* \"#utility.yul\":32588:32821   */\n      swap2\n      swap1\n      pop\n      jump\t// out\n        /* \"#utility.yul\":32827:32991   */\n    tag_335:\n        /* \"#utility.yul\":32967:32983   */\n      0x6e6f7420636f6e6669726d656421000000000000000000000000000000000000\n        /* \"#utility.yul\":32963:32964   */\n      0x00\n        /* \"#utility.yul\":32955:32961   */\n      dup3\n        /* \"#utility.yul\":32951:32965   */\n      add\n        /* \"#utility.yul\":32944:32984   */\n      mstore\n        /* \"#utility.yul\":32827:32991   */\n      pop\n      jump\t// out\n        /* \"#utility.yul\":32997:33363   */\n    tag_336:\n        /* \"#utility.yul\":33139:33142   */\n      0x00\n        /* \"#utility.yul\":33160:33227   */\n      tag_674\n        /* \"#utility.yul\":33224:33226   */\n      0x0e\n        /* \"#utility.yul\":33219:33222   */\n      dup4\n        /* \"#utility.yul\":33160:33227   */\n      tag_282\n      jump\t// in\n    tag_674:\n        /* \"#utility.yul\":33153:33227   */\n      swap2\n      pop\n        /* \"#utility.yul\":33236:33329   */\n      tag_675\n        /* \"#utility.yul\":33325:33328   */\n      dup3\n        /* \"#utility.yul\":33236:33329   */\n      tag_335\n      jump\t// in\n    tag_675:\n        /* \"#utility.yul\":33354:33356   */\n      0x20\n        /* \"#utility.yul\":33349:33352   */\n      dup3\n        /* \"#utility.yul\":33345:33357   */\n      add\n        /* \"#utility.yul\":33338:33357   */\n      swap1\n      pop\n        /* \"#utility.yul\":32997:33363   */\n      swap2\n      swap1\n      pop\n      jump\t// out\n        /* \"#utility.yul\":33369:33788   */\n    tag_148:\n        /* \"#utility.yul\":33535:33539   */\n      0x00\n        /* \"#utility.yul\":33573:33575   */\n      0x20\n        /* \"#utility.yul\":33562:33571   */\n      dup3\n        /* \"#utility.yul\":33558:33576   */\n      add\n        /* \"#utility.yul\":33550:33576   */\n      swap1\n      pop\n        /* \"#utility.yul\":33622:33631   */\n      dup2\n        /* \"#utility.yul\":33616:33620   */\n      dup2\n        /* \"#utility.yul\":33612:33632   */\n      sub\n        /* \"#utility.yul\":33608:33609   */\n      0x00\n        /* \"#utility.yul\":33597:33606   */\n      dup4\n        /* \"#utility.yul\":33593:33610   */\n      add\n        /* \"#utility.yul\":33586:33633   */\n      mstore\n        /* \"#utility.yul\":33650:33781   */\n      tag_677\n        /* \"#utility.yul\":33776:33780   */\n      dup2\n        /* \"#utility.yul\":33650:33781   */\n      tag_336\n      jump\t// in\n    tag_677:\n        /* \"#utility.yul\":33642:33781   */\n      swap1\n      pop\n        /* \"#utility.yul\":33369:33788   */\n      swap2\n      swap1\n      pop\n      jump\t// out\n        /* \"#utility.yul\":33794:33965   */\n    tag_150:\n        /* \"#utility.yul\":33833:33836   */\n      0x00\n        /* \"#utility.yul\":33856:33880   */\n      tag_679\n        /* \"#utility.yul\":33874:33879   */\n      dup3\n        /* \"#utility.yul\":33856:33880   */\n      tag_251\n      jump\t// in\n    tag_679:\n        /* \"#utility.yul\":33847:33880   */\n      swap2\n      pop\n        /* \"#utility.yul\":33902:33906   */\n      0x00\n        /* \"#utility.yul\":33895:33900   */\n      dup3\n        /* \"#utility.yul\":33892:33907   */\n      sub\n        /* \"#utility.yul\":33889:33930   */\n      tag_680\n      jumpi\n        /* \"#utility.yul\":33910:33928   */\n      tag_681\n      tag_334\n      jump\t// in\n    tag_681:\n        /* \"#utility.yul\":33889:33930   */\n    tag_680:\n        /* \"#utility.yul\":33957:33958   */\n      0x01\n        /* \"#utility.yul\":33950:33955   */\n      dup3\n        /* \"#utility.yul\":33946:33959   */\n      sub\n        /* \"#utility.yul\":33939:33959   */\n      swap1\n      pop\n        /* \"#utility.yul\":33794:33965   */\n      swap2\n      swap1\n      pop\n      jump\t// out\n        /* \"#utility.yul\":33971:34203   */\n    tag_337:\n        /* \"#utility.yul\":34111:34145   */\n      0x4e6f646520696e6465782063616e6e6f7420626520686967686572207468616e\n        /* \"#utility.yul\":34107:34108   */\n      0x00\n        /* \"#utility.yul\":34099:34105   */\n      dup3\n        /* \"#utility.yul\":34095:34109   */\n      add\n        /* \"#utility.yul\":34088:34146   */\n      mstore\n        /* \"#utility.yul\":34180:34195   */\n      0x207468656972206e756d62657200000000000000000000000000000000000000\n        /* \"#utility.yul\":34175:34177   */\n      0x20\n        /* \"#utility.yul\":34167:34173   */\n      dup3\n        /* \"#utility.yul\":34163:34178   */\n      add\n        /* \"#utility.yul\":34156:34196   */\n      mstore\n        /* \"#utility.yul\":33971:34203   */\n      pop\n      jump\t// out\n        /* \"#utility.yul\":34209:34575   */\n    tag_338:\n        /* \"#utility.yul\":34351:34354   */\n      0x00\n        /* \"#utility.yul\":34372:34439   */\n      tag_684\n        /* \"#utility.yul\":34436:34438   */\n      0x2d\n        /* \"#utility.yul\":34431:34434   */\n      dup4\n        /* \"#utility.yul\":34372:34439   */\n      tag_282\n      jump\t// in\n    tag_684:\n        /* \"#utility.yul\":34365:34439   */\n      swap2\n      pop\n        /* \"#utility.yul\":34448:34541   */\n      tag_685\n        /* \"#utility.yul\":34537:34540   */\n      dup3\n        /* \"#utility.yul\":34448:34541   */\n      tag_337\n      jump\t// in\n    tag_685:\n        /* \"#utility.yul\":34566:34568   */\n      0x40\n        /* \"#utility.yul\":34561:34564   */\n      dup3\n        /* \"#utility.yul\":34557:34569   */\n      add\n        /* \"#utility.yul\":34550:34569   */\n      swap1\n      pop\n        /* \"#utility.yul\":34209:34575   */\n      swap2\n      swap1\n      pop\n      jump\t// out\n        /* \"#utility.yul\":34581:35000   */\n    tag_160:\n        /* \"#utility.yul\":34747:34751   */\n      0x00\n        /* \"#utility.yul\":34785:34787   */\n      0x20\n        /* \"#utility.yul\":34774:34783   */\n      dup3\n        /* \"#utility.yul\":34770:34788   */\n      add\n        /* \"#utility.yul\":34762:34788   */\n      swap1\n      pop\n        /* \"#utility.yul\":34834:34843   */\n      dup2\n        /* \"#utility.yul\":34828:34832   */\n      dup2\n        /* \"#utility.yul\":34824:34844   */\n      sub\n        /* \"#utility.yul\":34820:34821   */\n      0x00\n        /* \"#utility.yul\":34809:34818   */\n      dup4\n        /* \"#utility.yul\":34805:34822   */\n      add\n        /* \"#utility.yul\":34798:34845   */\n      mstore\n        /* \"#utility.yul\":34862:34993   */\n      tag_687\n        /* \"#utility.yul\":34988:34992   */\n      dup2\n        /* \"#utility.yul\":34862:34993   */\n      tag_338\n      jump\t// in\n    tag_687:\n        /* \"#utility.yul\":34854:34993   */\n      swap1\n      pop\n        /* \"#utility.yul\":34581:35000   */\n      swap2\n      swap1\n      pop\n      jump\t// out\n        /* \"#utility.yul\":35006:35200   */\n    tag_162:\n        /* \"#utility.yul\":35046:35050   */\n      0x00\n        /* \"#utility.yul\":35066:35086   */\n      tag_689\n        /* \"#utility.yul\":35084:35085   */\n      dup3\n        /* \"#utility.yul\":35066:35086   */\n      tag_251\n      jump\t// in\n    tag_689:\n        /* \"#utility.yul\":35061:35086   */\n      swap2\n      pop\n        /* \"#utility.yul\":35100:35120   */\n      tag_690\n        /* \"#utility.yul\":35118:35119   */\n      dup4\n        /* \"#utility.yul\":35100:35120   */\n      tag_251\n      jump\t// in\n    tag_690:\n        /* \"#utility.yul\":35095:35120   */\n      swap3\n      pop\n        /* \"#utility.yul\":35144:35145   */\n      dup3\n        /* \"#utility.yul\":35141:35142   */\n      dup3\n        /* \"#utility.yul\":35137:35146   */\n      sub\n        /* \"#utility.yul\":35129:35146   */\n      swap1\n      pop\n        /* \"#utility.yul\":35168:35169   */\n      dup2\n        /* \"#utility.yul\":35162:35166   */\n      dup2\n        /* \"#utility.yul\":35159:35170   */\n      gt\n        /* \"#utility.yul\":35156:35193   */\n      iszero\n      tag_691\n      jumpi\n        /* \"#utility.yul\":35173:35191   */\n      tag_692\n      tag_334\n      jump\t// in\n    tag_692:\n        /* \"#utility.yul\":35156:35193   */\n    tag_691:\n        /* \"#utility.yul\":35006:35200   */\n      swap3\n      swap2\n      pop\n      pop\n      jump\t// out\n        /* \"#utility.yul\":35206:35381   */\n    tag_339:\n        /* \"#utility.yul\":35346:35373   */\n      0x6572726f72206d696e696d616c20636f756e74206f776e657200000000000000\n        /* \"#utility.yul\":35342:35343   */\n      0x00\n        /* \"#utility.yul\":35334:35340   */\n      dup3\n        /* \"#utility.yul\":35330:35344   */\n      add\n        /* \"#utility.yul\":35323:35374   */\n      mstore\n        /* \"#utility.yul\":35206:35381   */\n      pop\n      jump\t// out\n        /* \"#utility.yul\":35387:35753   */\n    tag_340:\n        /* \"#utility.yul\":35529:35532   */\n      0x00\n        /* \"#utility.yul\":35550:35617   */\n      tag_695\n        /* \"#utility.yul\":35614:35616   */\n      0x19\n        /* \"#utility.yul\":35609:35612   */\n      dup4\n        /* \"#utility.yul\":35550:35617   */\n      tag_282\n      jump\t// in\n    tag_695:\n        /* \"#utility.yul\":35543:35617   */\n      swap2\n      pop\n        /* \"#utility.yul\":35626:35719   */\n      tag_696\n        /* \"#utility.yul\":35715:35718   */\n      dup3\n        /* \"#utility.yul\":35626:35719   */\n      tag_339\n      jump\t// in\n    tag_696:\n        /* \"#utility.yul\":35744:35746   */\n      0x20\n        /* \"#utility.yul\":35739:35742   */\n      dup3\n        /* \"#utility.yul\":35735:35747   */\n      add\n        /* \"#utility.yul\":35728:35747   */\n      swap1\n      pop\n        /* \"#utility.yul\":35387:35753   */\n      swap2\n      swap1\n      pop\n      jump\t// out\n        /* \"#utility.yul\":35759:36178   */\n    tag_165:\n        /* \"#utility.yul\":35925:35929   */\n      0x00\n        /* \"#utility.yul\":35963:35965   */\n      0x20\n        /* \"#utility.yul\":35952:35961   */\n      dup3\n        /* \"#utility.yul\":35948:35966   */\n      add\n        /* \"#utility.yul\":35940:35966   */\n      swap1\n      pop\n        /* \"#utility.yul\":36012:36021   */\n      dup2\n        /* \"#utility.yul\":36006:36010   */\n      dup2\n        /* \"#utility.yul\":36002:36022   */\n      sub\n        /* \"#utility.yul\":35998:35999   */\n      0x00\n        /* \"#utility.yul\":35987:35996   */\n      dup4\n        /* \"#utility.yul\":35983:36000   */\n      add\n        /* \"#utility.yul\":35976:36023   */\n      mstore\n        /* \"#utility.yul\":36040:36171   */\n      tag_698\n        /* \"#utility.yul\":36166:36170   */\n      dup2\n        /* \"#utility.yul\":36040:36171   */\n      tag_340\n      jump\t// in\n    tag_698:\n        /* \"#utility.yul\":36032:36171   */\n      swap1\n      pop\n        /* \"#utility.yul\":35759:36178   */\n      swap2\n      swap1\n      pop\n      jump\t// out\n        /* \"#utility.yul\":36184:36364   */\n    tag_168:\n        /* \"#utility.yul\":36232:36309   */\n      0x4e487b7100000000000000000000000000000000000000000000000000000000\n        /* \"#utility.yul\":36229:36230   */\n      0x00\n        /* \"#utility.yul\":36222:36310   */\n      mstore\n        /* \"#utility.yul\":36329:36333   */\n      0x32\n        /* \"#utility.yul\":36326:36327   */\n      0x04\n        /* \"#utility.yul\":36319:36334   */\n      mstore\n        /* \"#utility.yul\":36353:36357   */\n      0x24\n        /* \"#utility.yul\":36350:36351   */\n      0x00\n        /* \"#utility.yul\":36343:36358   */\n      revert\n        /* \"#utility.yul\":36370:36561   */\n    tag_175:\n        /* \"#utility.yul\":36410:36413   */\n      0x00\n        /* \"#utility.yul\":36429:36449   */\n      tag_701\n        /* \"#utility.yul\":36447:36448   */\n      dup3\n        /* \"#utility.yul\":36429:36449   */\n      tag_251\n      jump\t// in\n    tag_701:\n        /* \"#utility.yul\":36424:36449   */\n      swap2\n      pop\n        /* \"#utility.yul\":36463:36483   */\n      tag_702\n        /* \"#utility.yul\":36481:36482   */\n      dup4\n        /* \"#utility.yul\":36463:36483   */\n      tag_251\n      jump\t// in\n    tag_702:\n        /* \"#utility.yul\":36458:36483   */\n      swap3\n      pop\n        /* \"#utility.yul\":36506:36507   */\n      dup3\n        /* \"#utility.yul\":36503:36504   */\n      dup3\n        /* \"#utility.yul\":36499:36508   */\n      add\n        /* \"#utility.yul\":36492:36508   */\n      swap1\n      pop\n        /* \"#utility.yul\":36527:36530   */\n      dup1\n        /* \"#utility.yul\":36524:36525   */\n      dup3\n        /* \"#utility.yul\":36521:36531   */\n      gt\n        /* \"#utility.yul\":36518:36554   */\n      iszero\n      tag_703\n      jumpi\n        /* \"#utility.yul\":36534:36552   */\n      tag_704\n      tag_334\n      jump\t// in\n    tag_704:\n        /* \"#utility.yul\":36518:36554   */\n    tag_703:\n        /* \"#utility.yul\":36370:36561   */\n      swap3\n      swap2\n      pop\n      pop\n      jump\t// out\n        /* \"#utility.yul\":36567:36747   */\n    tag_188:\n        /* \"#utility.yul\":36615:36692   */\n      0x4e487b7100000000000000000000000000000000000000000000000000000000\n        /* \"#utility.yul\":36612:36613   */\n      0x00\n        /* \"#utility.yul\":36605:36693   */\n      mstore\n        /* \"#utility.yul\":36712:36716   */\n      0x31\n        /* \"#utility.yul\":36709:36710   */\n      0x04\n        /* \"#utility.yul\":36702:36717   */\n      mstore\n        /* \"#utility.yul\":36736:36740   */\n      0x24\n        /* \"#utility.yul\":36733:36734   */\n      0x00\n        /* \"#utility.yul\":36726:36741   */\n      revert\n        /* \"#utility.yul\":36753:37524   */\n    tag_192:\n        /* \"#utility.yul\":36988:36992   */\n      0x00\n        /* \"#utility.yul\":37026:37029   */\n      0x80\n        /* \"#utility.yul\":37015:37024   */\n      dup3\n        /* \"#utility.yul\":37011:37030   */\n      add\n        /* \"#utility.yul\":37003:37030   */\n      swap1\n      pop\n        /* \"#utility.yul\":37076:37085   */\n      dup2\n        /* \"#utility.yul\":37070:37074   */\n      dup2\n        /* \"#utility.yul\":37066:37086   */\n      sub\n        /* \"#utility.yul\":37062:37063   */\n      0x00\n        /* \"#utility.yul\":37051:37060   */\n      dup4\n        /* \"#utility.yul\":37047:37064   */\n      add\n        /* \"#utility.yul\":37040:37087   */\n      mstore\n        /* \"#utility.yul\":37104:37192   */\n      tag_707\n        /* \"#utility.yul\":37187:37191   */\n      dup2\n        /* \"#utility.yul\":37178:37184   */\n      dup9\n        /* \"#utility.yul\":37170:37176   */\n      dup11\n        /* \"#utility.yul\":37104:37192   */\n      tag_319\n      jump\t// in\n    tag_707:\n        /* \"#utility.yul\":37096:37192   */\n      swap1\n      pop\n        /* \"#utility.yul\":37202:37274   */\n      tag_708\n        /* \"#utility.yul\":37270:37272   */\n      0x20\n        /* \"#utility.yul\":37259:37268   */\n      dup4\n        /* \"#utility.yul\":37255:37273   */\n      add\n        /* \"#utility.yul\":37246:37252   */\n      dup8\n        /* \"#utility.yul\":37202:37274   */\n      tag_256\n      jump\t// in\n    tag_708:\n        /* \"#utility.yul\":37321:37330   */\n      dup2\n        /* \"#utility.yul\":37315:37319   */\n      dup2\n        /* \"#utility.yul\":37311:37331   */\n      sub\n        /* \"#utility.yul\":37306:37308   */\n      0x40\n        /* \"#utility.yul\":37295:37304   */\n      dup4\n        /* \"#utility.yul\":37291:37309   */\n      add\n        /* \"#utility.yul\":37284:37332   */\n      mstore\n        /* \"#utility.yul\":37349:37435   */\n      tag_709\n        /* \"#utility.yul\":37430:37434   */\n      dup2\n        /* \"#utility.yul\":37421:37427   */\n      dup6\n        /* \"#utility.yul\":37413:37419   */\n      dup8\n        /* \"#utility.yul\":37349:37435   */\n      tag_320\n      jump\t// in\n    tag_709:\n        /* \"#utility.yul\":37341:37435   */\n      swap1\n      pop\n        /* \"#utility.yul\":37445:37517   */\n      tag_710\n        /* \"#utility.yul\":37513:37515   */\n      0x60\n        /* \"#utility.yul\":37502:37511   */\n      dup4\n        /* \"#utility.yul\":37498:37516   */\n      add\n        /* \"#utility.yul\":37489:37495   */\n      dup5\n        /* \"#utility.yul\":37445:37517   */\n      tag_270\n      jump\t// in\n    tag_710:\n        /* \"#utility.yul\":36753:37524   */\n      swap8\n      swap7\n      pop\n      pop\n      pop\n      pop\n      pop\n      pop\n      pop\n      jump\t// out\n        /* \"#utility.yul\":37530:37690   */\n    tag_341:\n        /* \"#utility.yul\":37670:37682   */\n      0x6e6f742071756575656400000000000000000000000000000000000000000000\n        /* \"#utility.yul\":37666:37667   */\n      0x00\n        /* \"#utility.yul\":37658:37664   */\n      dup3\n        /* \"#utility.yul\":37654:37668   */\n      add\n        /* \"#utility.yul\":37647:37683   */\n      mstore\n        /* \"#utility.yul\":37530:37690   */\n      pop\n      jump\t// out\n        /* \"#utility.yul\":37696:38062   */\n    tag_342:\n        /* \"#utility.yul\":37838:37841   */\n      0x00\n        /* \"#utility.yul\":37859:37926   */\n      tag_713\n        /* \"#utility.yul\":37923:37925   */\n      0x0a\n        /* \"#utility.yul\":37918:37921   */\n      dup4\n        /* \"#utility.yul\":37859:37926   */\n      tag_282\n      jump\t// in\n    tag_713:\n        /* \"#utility.yul\":37852:37926   */\n      swap2\n      pop\n        /* \"#utility.yul\":37935:38028   */\n      tag_714\n        /* \"#utility.yul\":38024:38027   */\n      dup3\n        /* \"#utility.yul\":37935:38028   */\n      tag_341\n      jump\t// in\n    tag_714:\n        /* \"#utility.yul\":38053:38055   */\n      0x20\n        /* \"#utility.yul\":38048:38051   */\n      dup3\n        /* \"#utility.yul\":38044:38056   */\n      add\n        /* \"#utility.yul\":38037:38056   */\n      swap1\n      pop\n        /* \"#utility.yul\":37696:38062   */\n      swap2\n      swap1\n      pop\n      jump\t// out\n        /* \"#utility.yul\":38068:38487   */\n    tag_196:\n        /* \"#utility.yul\":38234:38238   */\n      0x00\n        /* \"#utility.yul\":38272:38274   */\n      0x20\n        /* \"#utility.yul\":38261:38270   */\n      dup3\n        /* \"#utility.yul\":38257:38275   */\n      add\n        /* \"#utility.yul\":38249:38275   */\n      swap1\n      pop\n        /* \"#utility.yul\":38321:38330   */\n      dup2\n        /* \"#utility.yul\":38315:38319   */\n      dup2\n        /* \"#utility.yul\":38311:38331   */\n      sub\n        /* \"#utility.yul\":38307:38308   */\n      0x00\n        /* \"#utility.yul\":38296:38305   */\n      dup4\n        /* \"#utility.yul\":38292:38309   */\n      add\n        /* \"#utility.yul\":38285:38332   */\n      mstore\n        /* \"#utility.yul\":38349:38480   */\n      tag_716\n        /* \"#utility.yul\":38475:38479   */\n      dup2\n        /* \"#utility.yul\":38349:38480   */\n      tag_342\n      jump\t// in\n    tag_716:\n        /* \"#utility.yul\":38341:38480   */\n      swap1\n      pop\n        /* \"#utility.yul\":38068:38487   */\n      swap2\n      swap1\n      pop\n      jump\t// out\n        /* \"#utility.yul\":38493:38662   */\n    tag_343:\n        /* \"#utility.yul\":38633:38654   */\n      0x477261636520706572696f64206661696c656400000000000000000000000000\n        /* \"#utility.yul\":38629:38630   */\n      0x00\n        /* \"#utility.yul\":38621:38627   */\n      dup3\n        /* \"#utility.yul\":38617:38631   */\n      add\n        /* \"#utility.yul\":38610:38655   */\n      mstore\n        /* \"#utility.yul\":38493:38662   */\n      pop\n      jump\t// out\n        /* \"#utility.yul\":38668:39034   */\n    tag_344:\n        /* \"#utility.yul\":38810:38813   */\n      0x00\n        /* \"#utility.yul\":38831:38898   */\n      tag_719\n        /* \"#utility.yul\":38895:38897   */\n      0x13\n        /* \"#utility.yul\":38890:38893   */\n      dup4\n        /* \"#utility.yul\":38831:38898   */\n      tag_282\n      jump\t// in\n    tag_719:\n        /* \"#utility.yul\":38824:38898   */\n      swap2\n      pop\n        /* \"#utility.yul\":38907:39000   */\n      tag_720\n        /* \"#utility.yul\":38996:38999   */\n      dup3\n        /* \"#utility.yul\":38907:39000   */\n      tag_343\n      jump\t// in\n    tag_720:\n        /* \"#utility.yul\":39025:39027   */\n      0x20\n        /* \"#utility.yul\":39020:39023   */\n      dup3\n        /* \"#utility.yul\":39016:39028   */\n      add\n        /* \"#utility.yul\":39009:39028   */\n      swap1\n      pop\n        /* \"#utility.yul\":38668:39034   */\n      swap2\n      swap1\n      pop\n      jump\t// out\n        /* \"#utility.yul\":39040:39459   */\n    tag_200:\n        /* \"#utility.yul\":39206:39210   */\n      0x00\n        /* \"#utility.yul\":39244:39246   */\n      0x20\n        /* \"#utility.yul\":39233:39242   */\n      dup3\n        /* \"#utility.yul\":39229:39247   */\n      add\n        /* \"#utility.yul\":39221:39247   */\n      swap1\n      pop\n        /* \"#utility.yul\":39293:39302   */\n      dup2\n        /* \"#utility.yul\":39287:39291   */\n      dup2\n        /* \"#utility.yul\":39283:39303   */\n      sub\n        /* \"#utility.yul\":39279:39280   */\n      0x00\n        /* \"#utility.yul\":39268:39277   */\n      dup4\n        /* \"#utility.yul\":39264:39281   */\n      add\n        /* \"#utility.yul\":39257:39304   */\n      mstore\n        /* \"#utility.yul\":39321:39452   */\n      tag_722\n        /* \"#utility.yul\":39447:39451   */\n      dup2\n        /* \"#utility.yul\":39321:39452   */\n      tag_344\n      jump\t// in\n    tag_722:\n        /* \"#utility.yul\":39313:39452   */\n      swap1\n      pop\n        /* \"#utility.yul\":39040:39459   */\n      swap2\n      swap1\n      pop\n      jump\t// out\n        /* \"#utility.yul\":39465:39630   */\n    tag_345:\n        /* \"#utility.yul\":39605:39622   */\n      0x4572726f722074696d657374616d700000000000000000000000000000000000\n        /* \"#utility.yul\":39601:39602   */\n      0x00\n        /* \"#utility.yul\":39593:39599   */\n      dup3\n        /* \"#utility.yul\":39589:39603   */\n      add\n        /* \"#utility.yul\":39582:39623   */\n      mstore\n        /* \"#utility.yul\":39465:39630   */\n      pop\n      jump\t// out\n        /* \"#utility.yul\":39636:40002   */\n    tag_346:\n        /* \"#utility.yul\":39778:39781   */\n      0x00\n        /* \"#utility.yul\":39799:39866   */\n      tag_725\n        /* \"#utility.yul\":39863:39865   */\n      0x0f\n        /* \"#utility.yul\":39858:39861   */\n      dup4\n        /* \"#utility.yul\":39799:39866   */\n      tag_282\n      jump\t// in\n    tag_725:\n        /* \"#utility.yul\":39792:39866   */\n      swap2\n      pop\n        /* \"#utility.yul\":39875:39968   */\n      tag_726\n        /* \"#utility.yul\":39964:39967   */\n      dup3\n        /* \"#utility.yul\":39875:39968   */\n      tag_345\n      jump\t// in\n    tag_726:\n        /* \"#utility.yul\":39993:39995   */\n      0x20\n        /* \"#utility.yul\":39988:39991   */\n      dup3\n        /* \"#utility.yul\":39984:39996   */\n      add\n        /* \"#utility.yul\":39977:39996   */\n      swap1\n      pop\n        /* \"#utility.yul\":39636:40002   */\n      swap2\n      swap1\n      pop\n      jump\t// out\n        /* \"#utility.yul\":40008:40427   */\n    tag_203:\n        /* \"#utility.yul\":40174:40178   */\n      0x00\n        /* \"#utility.yul\":40212:40214   */\n      0x20\n        /* \"#utility.yul\":40201:40210   */\n      dup3\n        /* \"#utility.yul\":40197:40215   */\n      add\n        /* \"#utility.yul\":40189:40215   */\n      swap1\n      pop\n        /* \"#utility.yul\":40261:40270   */\n      dup2\n        /* \"#utility.yul\":40255:40259   */\n      dup2\n        /* \"#utility.yul\":40251:40271   */\n      sub\n        /* \"#utility.yul\":40247:40248   */\n      0x00\n        /* \"#utility.yul\":40236:40245   */\n      dup4\n        /* \"#utility.yul\":40232:40249   */\n      add\n        /* \"#utility.yul\":40225:40272   */\n      mstore\n        /* \"#utility.yul\":40289:40420   */\n      tag_728\n        /* \"#utility.yul\":40415:40419   */\n      dup2\n        /* \"#utility.yul\":40289:40420   */\n      tag_346\n      jump\t// in\n    tag_728:\n        /* \"#utility.yul\":40281:40420   */\n      swap1\n      pop\n        /* \"#utility.yul\":40008:40427   */\n      swap2\n      swap1\n      pop\n      jump\t// out\n        /* \"#utility.yul\":40433:40608   */\n    tag_347:\n        /* \"#utility.yul\":40573:40600   */\n      0x6e6f7420656e6f75676820636f6e6669726d6174696f6e732000000000000000\n        /* \"#utility.yul\":40569:40570   */\n      0x00\n        /* \"#utility.yul\":40561:40567   */\n      dup3\n        /* \"#utility.yul\":40557:40571   */\n      add\n        /* \"#utility.yul\":40550:40601   */\n      mstore\n        /* \"#utility.yul\":40433:40608   */\n      pop\n      jump\t// out\n        /* \"#utility.yul\":40614:40980   */\n    tag_348:\n        /* \"#utility.yul\":40756:40759   */\n      0x00\n        /* \"#utility.yul\":40777:40844   */\n      tag_731\n        /* \"#utility.yul\":40841:40843   */\n      0x19\n        /* \"#utility.yul\":40836:40839   */\n      dup4\n        /* \"#utility.yul\":40777:40844   */\n      tag_282\n      jump\t// in\n    tag_731:\n        /* \"#utility.yul\":40770:40844   */\n      swap2\n      pop\n        /* \"#utility.yul\":40853:40946   */\n      tag_732\n        /* \"#utility.yul\":40942:40945   */\n      dup3\n        /* \"#utility.yul\":40853:40946   */\n      tag_347\n      jump\t// in\n    tag_732:\n        /* \"#utility.yul\":40971:40973   */\n      0x20\n        /* \"#utility.yul\":40966:40969   */\n      dup3\n        /* \"#utility.yul\":40962:40974   */\n      add\n        /* \"#utility.yul\":40955:40974   */\n      swap1\n      pop\n        /* \"#utility.yul\":40614:40980   */\n      swap2\n      swap1\n      pop\n      jump\t// out\n        /* \"#utility.yul\":40986:41405   */\n    tag_206:\n        /* \"#utility.yul\":41152:41156   */\n      0x00\n        /* \"#utility.yul\":41190:41192   */\n      0x20\n        /* \"#utility.yul\":41179:41188   */\n      dup3\n        /* \"#utility.yul\":41175:41193   */\n      add\n        /* \"#utility.yul\":41167:41193   */\n      swap1\n      pop\n        /* \"#utility.yul\":41239:41248   */\n      dup2\n        /* \"#utility.yul\":41233:41237   */\n      dup2\n        /* \"#utility.yul\":41229:41249   */\n      sub\n        /* \"#utility.yul\":41225:41226   */\n      0x00\n        /* \"#utility.yul\":41214:41223   */\n      dup4\n        /* \"#utility.yul\":41210:41227   */\n      add\n        /* \"#utility.yul\":41203:41250   */\n      mstore\n        /* \"#utility.yul\":41267:41398   */\n      tag_734\n        /* \"#utility.yul\":41393:41397   */\n      dup2\n        /* \"#utility.yul\":41267:41398   */\n      tag_348\n      jump\t// in\n    tag_734:\n        /* \"#utility.yul\":41259:41398   */\n      swap1\n      pop\n        /* \"#utility.yul\":40986:41405   */\n      swap2\n      swap1\n      pop\n      jump\t// out\n        /* \"#utility.yul\":41411:41558   */\n    tag_349:\n        /* \"#utility.yul\":41512:41523   */\n      0x00\n        /* \"#utility.yul\":41549:41552   */\n      dup2\n        /* \"#utility.yul\":41534:41552   */\n      swap1\n      pop\n        /* \"#utility.yul\":41411:41558   */\n      swap3\n      swap2\n      pop\n      pop\n      jump\t// out\n        /* \"#utility.yul\":41564:41708   */\n    tag_350:\n        /* \"#utility.yul\":41616:41620   */\n      0x00\n        /* \"#utility.yul\":41639:41642   */\n      dup2\n        /* \"#utility.yul\":41631:41642   */\n      swap1\n      pop\n        /* \"#utility.yul\":41662:41665   */\n      dup2\n        /* \"#utility.yul\":41659:41660   */\n      0x00\n        /* \"#utility.yul\":41652:41666   */\n      mstore\n        /* \"#utility.yul\":41696:41700   */\n      0x20\n        /* \"#utility.yul\":41693:41694   */\n      0x00\n        /* \"#utility.yul\":41683:41701   */\n      keccak256\n        /* \"#utility.yul\":41675:41701   */\n      swap1\n      pop\n        /* \"#utility.yul\":41564:41708   */\n      swap2\n      swap1\n      pop\n      jump\t// out\n        /* \"#utility.yul\":41736:42614   */\n    tag_351:\n        /* \"#utility.yul\":41841:41844   */\n      0x00\n        /* \"#utility.yul\":41878:41883   */\n      dup2\n        /* \"#utility.yul\":41872:41884   */\n      sload\n        /* \"#utility.yul\":41907:41943   */\n      tag_738\n        /* \"#utility.yul\":41933:41942   */\n      dup2\n        /* \"#utility.yul\":41907:41943   */\n      tag_109\n      jump\t// in\n    tag_738:\n        /* \"#utility.yul\":41959:42047   */\n      tag_739\n        /* \"#utility.yul\":42040:42046   */\n      dup2\n        /* \"#utility.yul\":42035:42038   */\n      dup7\n        /* \"#utility.yul\":41959:42047   */\n      tag_349\n      jump\t// in\n    tag_739:\n        /* \"#utility.yul\":41952:42047   */\n      swap5\n      pop\n        /* \"#utility.yul\":42078:42079   */\n      0x01\n        /* \"#utility.yul\":42067:42076   */\n      dup3\n        /* \"#utility.yul\":42063:42080   */\n      and\n        /* \"#utility.yul\":42094:42095   */\n      0x00\n        /* \"#utility.yul\":42089:42255   */\n      dup2\n      eq\n      tag_741\n      jumpi\n        /* \"#utility.yul\":42269:42270   */\n      0x01\n        /* \"#utility.yul\":42264:42608   */\n      dup2\n      eq\n      tag_742\n      jumpi\n        /* \"#utility.yul\":42056:42608   */\n      jump(tag_740)\n        /* \"#utility.yul\":42089:42255   */\n    tag_741:\n        /* \"#utility.yul\":42173:42177   */\n      0xff\n        /* \"#utility.yul\":42169:42178   */\n      not\n        /* \"#utility.yul\":42158:42167   */\n      dup4\n        /* \"#utility.yul\":42154:42179   */\n      and\n        /* \"#utility.yul\":42149:42152   */\n      dup7\n        /* \"#utility.yul\":42142:42180   */\n      mstore\n        /* \"#utility.yul\":42235:42241   */\n      dup2\n        /* \"#utility.yul\":42228:42242   */\n      iszero\n        /* \"#utility.yul\":42221:42243   */\n      iszero\n        /* \"#utility.yul\":42213:42219   */\n      dup3\n        /* \"#utility.yul\":42209:42244   */\n      mul\n        /* \"#utility.yul\":42204:42207   */\n      dup7\n        /* \"#utility.yul\":42200:42245   */\n      add\n        /* \"#utility.yul\":42193:42245   */\n      swap4\n      pop\n        /* \"#utility.yul\":42089:42255   */\n      jump(tag_740)\n        /* \"#utility.yul\":42264:42608   */\n    tag_742:\n        /* \"#utility.yul\":42331:42372   */\n      tag_743\n        /* \"#utility.yul\":42366:42371   */\n      dup6\n        /* \"#utility.yul\":42331:42372   */\n      tag_350\n      jump\t// in\n    tag_743:\n        /* \"#utility.yul\":42394:42395   */\n      0x00\n        /* \"#utility.yul\":42408:42562   */\n    tag_744:\n        /* \"#utility.yul\":42422:42428   */\n      dup4\n        /* \"#utility.yul\":42419:42420   */\n      dup2\n        /* \"#utility.yul\":42416:42429   */\n      lt\n        /* \"#utility.yul\":42408:42562   */\n      iszero\n      tag_746\n      jumpi\n        /* \"#utility.yul\":42496:42503   */\n      dup2\n        /* \"#utility.yul\":42490:42504   */\n      sload\n        /* \"#utility.yul\":42486:42487   */\n      dup2\n        /* \"#utility.yul\":42481:42484   */\n      dup10\n        /* \"#utility.yul\":42477:42488   */\n      add\n        /* \"#utility.yul\":42470:42505   */\n      mstore\n        /* \"#utility.yul\":42546:42547   */\n      0x01\n        /* \"#utility.yul\":42537:42544   */\n      dup3\n        /* \"#utility.yul\":42533:42548   */\n      add\n        /* \"#utility.yul\":42522:42548   */\n      swap2\n      pop\n        /* \"#utility.yul\":42444:42448   */\n      0x20\n        /* \"#utility.yul\":42441:42442   */\n      dup2\n        /* \"#utility.yul\":42437:42449   */\n      add\n        /* \"#utility.yul\":42432:42449   */\n      swap1\n      pop\n        /* \"#utility.yul\":42408:42562   */\n      jump(tag_744)\n    tag_746:\n        /* \"#utility.yul\":42591:42597   */\n      dup4\n        /* \"#utility.yul\":42586:42589   */\n      dup9\n        /* \"#utility.yul\":42582:42598   */\n      add\n        /* \"#utility.yul\":42575:42598   */\n      swap6\n      pop\n        /* \"#utility.yul\":42271:42608   */\n      pop\n      pop\n        /* \"#utility.yul\":42056:42608   */\n    tag_740:\n      pop\n        /* \"#utility.yul\":41845:42614   */\n      pop\n      pop\n        /* \"#utility.yul\":41736:42614   */\n      swap3\n      swap2\n      pop\n      pop\n      jump\t// out\n        /* \"#utility.yul\":42620:42893   */\n    tag_208:\n        /* \"#utility.yul\":42751:42754   */\n      0x00\n        /* \"#utility.yul\":42773:42867   */\n      tag_748\n        /* \"#utility.yul\":42863:42866   */\n      dup3\n        /* \"#utility.yul\":42854:42860   */\n      dup5\n        /* \"#utility.yul\":42773:42867   */\n      tag_351\n      jump\t// in\n    tag_748:\n        /* \"#utility.yul\":42766:42867   */\n      swap2\n      pop\n        /* \"#utility.yul\":42884:42887   */\n      dup2\n        /* \"#utility.yul\":42877:42887   */\n      swap1\n      pop\n        /* \"#utility.yul\":42620:42893   */\n      swap3\n      swap2\n      pop\n      pop\n      jump\t// out\n        /* \"#utility.yul\":42899:43048   */\n    tag_352:\n        /* \"#utility.yul\":42935:42942   */\n      0x00\n        /* \"#utility.yul\":42975:43041   */\n      0xffffffff00000000000000000000000000000000000000000000000000000000\n        /* \"#utility.yul\":42968:42973   */\n      dup3\n        /* \"#utility.yul\":42964:43042   */\n      and\n        /* \"#utility.yul\":42953:43042   */\n      swap1\n      pop\n        /* \"#utility.yul\":42899:43048   */\n      swap2\n      swap1\n      pop\n      jump\t// out\n        /* \"#utility.yul\":43054:43132   */\n    tag_353:\n        /* \"#utility.yul\":43092:43099   */\n      0x00\n        /* \"#utility.yul\":43121:43126   */\n      dup2\n        /* \"#utility.yul\":43110:43126   */\n      swap1\n      pop\n        /* \"#utility.yul\":43054:43132   */\n      swap2\n      swap1\n      pop\n      jump\t// out\n        /* \"#utility.yul\":43138:43291   */\n    tag_354:\n        /* \"#utility.yul\":43241:43284   */\n      tag_752\n        /* \"#utility.yul\":43260:43283   */\n      tag_753\n        /* \"#utility.yul\":43277:43282   */\n      dup3\n        /* \"#utility.yul\":43260:43283   */\n      tag_352\n      jump\t// in\n    tag_753:\n        /* \"#utility.yul\":43241:43284   */\n      tag_353\n      jump\t// in\n    tag_752:\n        /* \"#utility.yul\":43236:43239   */\n      dup3\n        /* \"#utility.yul\":43229:43285   */\n      mstore\n        /* \"#utility.yul\":43138:43291   */\n      pop\n      pop\n      jump\t// out\n        /* \"#utility.yul\":43319:44189   */\n    tag_355:\n        /* \"#utility.yul\":43420:43423   */\n      0x00\n        /* \"#utility.yul\":43457:43462   */\n      dup2\n        /* \"#utility.yul\":43451:43463   */\n      sload\n        /* \"#utility.yul\":43486:43522   */\n      tag_755\n        /* \"#utility.yul\":43512:43521   */\n      dup2\n        /* \"#utility.yul\":43486:43522   */\n      tag_109\n      jump\t// in\n    tag_755:\n        /* \"#utility.yul\":43538:43626   */\n      tag_756\n        /* \"#utility.yul\":43619:43625   */\n      dup2\n        /* \"#utility.yul\":43614:43617   */\n      dup7\n        /* \"#utility.yul\":43538:43626   */\n      tag_349\n      jump\t// in\n    tag_756:\n        /* \"#utility.yul\":43531:43626   */\n      swap5\n      pop\n        /* \"#utility.yul\":43657:43658   */\n      0x01\n        /* \"#utility.yul\":43646:43655   */\n      dup3\n        /* \"#utility.yul\":43642:43659   */\n      and\n        /* \"#utility.yul\":43673:43674   */\n      0x00\n        /* \"#utility.yul\":43668:43834   */\n      dup2\n      eq\n      tag_758\n      jumpi\n        /* \"#utility.yul\":43848:43849   */\n      0x01\n        /* \"#utility.yul\":43843:44183   */\n      dup2\n      eq\n      tag_759\n      jumpi\n        /* \"#utility.yul\":43635:44183   */\n      jump(tag_757)\n        /* \"#utility.yul\":43668:43834   */\n    tag_758:\n        /* \"#utility.yul\":43752:43756   */\n      0xff\n        /* \"#utility.yul\":43748:43757   */\n      not\n        /* \"#utility.yul\":43737:43746   */\n      dup4\n        /* \"#utility.yul\":43733:43758   */\n      and\n        /* \"#utility.yul\":43728:43731   */\n      dup7\n        /* \"#utility.yul\":43721:43759   */\n      mstore\n        /* \"#utility.yul\":43814:43820   */\n      dup2\n        /* \"#utility.yul\":43807:43821   */\n      iszero\n        /* \"#utility.yul\":43800:43822   */\n      iszero\n        /* \"#utility.yul\":43792:43798   */\n      dup3\n        /* \"#utility.yul\":43788:43823   */\n      mul\n        /* \"#utility.yul\":43783:43786   */\n      dup7\n        /* \"#utility.yul\":43779:43824   */\n      add\n        /* \"#utility.yul\":43772:43824   */\n      swap4\n      pop\n        /* \"#utility.yul\":43668:43834   */\n      jump(tag_757)\n        /* \"#utility.yul\":43843:44183   */\n    tag_759:\n        /* \"#utility.yul\":43910:43947   */\n      tag_760\n        /* \"#utility.yul\":43941:43946   */\n      dup6\n        /* \"#utility.yul\":43910:43947   */\n      tag_316\n      jump\t// in\n    tag_760:\n        /* \"#utility.yul\":43969:43970   */\n      0x00\n        /* \"#utility.yul\":43983:44137   */\n    tag_761:\n        /* \"#utility.yul\":43997:44003   */\n      dup4\n        /* \"#utility.yul\":43994:43995   */\n      dup2\n        /* \"#utility.yul\":43991:44004   */\n      lt\n        /* \"#utility.yul\":43983:44137   */\n      iszero\n      tag_763\n      jumpi\n        /* \"#utility.yul\":44071:44078   */\n      dup2\n        /* \"#utility.yul\":44065:44079   */\n      sload\n        /* \"#utility.yul\":44061:44062   */\n      dup2\n        /* \"#utility.yul\":44056:44059   */\n      dup10\n        /* \"#utility.yul\":44052:44063   */\n      add\n        /* \"#utility.yul\":44045:44080   */\n      mstore\n        /* \"#utility.yul\":44121:44122   */\n      0x01\n        /* \"#utility.yul\":44112:44119   */\n      dup3\n        /* \"#utility.yul\":44108:44123   */\n      add\n        /* \"#utility.yul\":44097:44123   */\n      swap2\n      pop\n        /* \"#utility.yul\":44019:44023   */\n      0x20\n        /* \"#utility.yul\":44016:44017   */\n      dup2\n        /* \"#utility.yul\":44012:44024   */\n      add\n        /* \"#utility.yul\":44007:44024   */\n      swap1\n      pop\n        /* \"#utility.yul\":43983:44137   */\n      jump(tag_761)\n    tag_763:\n        /* \"#utility.yul\":44166:44172   */\n      dup4\n        /* \"#utility.yul\":44161:44164   */\n      dup9\n        /* \"#utility.yul\":44157:44173   */\n      add\n        /* \"#utility.yul\":44150:44173   */\n      swap6\n      pop\n        /* \"#utility.yul\":43850:44183   */\n      pop\n      pop\n        /* \"#utility.yul\":43635:44183   */\n    tag_757:\n      pop\n        /* \"#utility.yul\":43424:44189   */\n      pop\n      pop\n        /* \"#utility.yul\":43319:44189   */\n      swap3\n      swap2\n      pop\n      pop\n      jump\t// out\n        /* \"#utility.yul\":44195:44596   */\n    tag_210:\n        /* \"#utility.yul\":44348:44351   */\n      0x00\n        /* \"#utility.yul\":44363:44436   */\n      tag_765\n        /* \"#utility.yul\":44432:44435   */\n      dup3\n        /* \"#utility.yul\":44423:44429   */\n      dup6\n        /* \"#utility.yul\":44363:44436   */\n      tag_354\n      jump\t// in\n    tag_765:\n        /* \"#utility.yul\":44461:44462   */\n      0x04\n        /* \"#utility.yul\":44456:44459   */\n      dup3\n        /* \"#utility.yul\":44452:44463   */\n      add\n        /* \"#utility.yul\":44445:44463   */\n      swap2\n      pop\n        /* \"#utility.yul\":44480:44570   */\n      tag_766\n        /* \"#utility.yul\":44566:44569   */\n      dup3\n        /* \"#utility.yul\":44557:44563   */\n      dup5\n        /* \"#utility.yul\":44480:44570   */\n      tag_355\n      jump\t// in\n    tag_766:\n        /* \"#utility.yul\":44473:44570   */\n      swap2\n      pop\n        /* \"#utility.yul\":44587:44590   */\n      dup2\n        /* \"#utility.yul\":44580:44590   */\n      swap1\n      pop\n        /* \"#utility.yul\":44195:44596   */\n      swap4\n      swap3\n      pop\n      pop\n      pop\n      jump\t// out\n        /* \"#utility.yul\":44602:44988   */\n    tag_356:\n        /* \"#utility.yul\":44706:44709   */\n      0x00\n        /* \"#utility.yul\":44734:44772   */\n      tag_768\n        /* \"#utility.yul\":44766:44771   */\n      dup3\n        /* \"#utility.yul\":44734:44772   */\n      tag_286\n      jump\t// in\n    tag_768:\n        /* \"#utility.yul\":44788:44876   */\n      tag_769\n        /* \"#utility.yul\":44869:44875   */\n      dup2\n        /* \"#utility.yul\":44864:44867   */\n      dup6\n        /* \"#utility.yul\":44788:44876   */\n      tag_349\n      jump\t// in\n    tag_769:\n        /* \"#utility.yul\":44781:44876   */\n      swap4\n      pop\n        /* \"#utility.yul\":44885:44950   */\n      tag_770\n        /* \"#utility.yul\":44943:44949   */\n      dup2\n        /* \"#utility.yul\":44938:44941   */\n      dup6\n        /* \"#utility.yul\":44931:44935   */\n      0x20\n        /* \"#utility.yul\":44924:44929   */\n      dup7\n        /* \"#utility.yul\":44920:44936   */\n      add\n        /* \"#utility.yul\":44885:44950   */\n      tag_283\n      jump\t// in\n    tag_770:\n        /* \"#utility.yul\":44975:44981   */\n      dup1\n        /* \"#utility.yul\":44970:44973   */\n      dup5\n        /* \"#utility.yul\":44966:44982   */\n      add\n        /* \"#utility.yul\":44959:44982   */\n      swap2\n      pop\n        /* \"#utility.yul\":44710:44988   */\n      pop\n        /* \"#utility.yul\":44602:44988   */\n      swap3\n      swap2\n      pop\n      pop\n      jump\t// out\n        /* \"#utility.yul\":44994:45265   */\n    tag_212:\n        /* \"#utility.yul\":45124:45127   */\n      0x00\n        /* \"#utility.yul\":45146:45239   */\n      tag_772\n        /* \"#utility.yul\":45235:45238   */\n      dup3\n        /* \"#utility.yul\":45226:45232   */\n      dup5\n        /* \"#utility.yul\":45146:45239   */\n      tag_356\n      jump\t// in\n    tag_772:\n        /* \"#utility.yul\":45139:45239   */\n      swap2\n      pop\n        /* \"#utility.yul\":45256:45259   */\n      dup2\n        /* \"#utility.yul\":45249:45259   */\n      swap1\n      pop\n        /* \"#utility.yul\":44994:45265   */\n      swap3\n      swap2\n      pop\n      pop\n      jump\t// out\n        /* \"#utility.yul\":45271:45429   */\n    tag_357:\n        /* \"#utility.yul\":45411:45421   */\n      0x7478206572726f72000000000000000000000000000000000000000000000000\n        /* \"#utility.yul\":45407:45408   */\n      0x00\n        /* \"#utility.yul\":45399:45405   */\n      dup3\n        /* \"#utility.yul\":45395:45409   */\n      add\n        /* \"#utility.yul\":45388:45422   */\n      mstore\n        /* \"#utility.yul\":45271:45429   */\n      pop\n      jump\t// out\n        /* \"#utility.yul\":45435:45800   */\n    tag_358:\n        /* \"#utility.yul\":45577:45580   */\n      0x00\n        /* \"#utility.yul\":45598:45664   */\n      tag_775\n        /* \"#utility.yul\":45662:45663   */\n      0x08\n        /* \"#utility.yul\":45657:45660   */\n      dup4\n        /* \"#utility.yul\":45598:45664   */\n      tag_282\n      jump\t// in\n    tag_775:\n        /* \"#utility.yul\":45591:45664   */\n      swap2\n      pop\n        /* \"#utility.yul\":45673:45766   */\n      tag_776\n        /* \"#utility.yul\":45762:45765   */\n      dup3\n        /* \"#utility.yul\":45673:45766   */\n      tag_357\n      jump\t// in\n    tag_776:\n        /* \"#utility.yul\":45791:45793   */\n      0x20\n        /* \"#utility.yul\":45786:45789   */\n      dup3\n        /* \"#utility.yul\":45782:45794   */\n      add\n        /* \"#utility.yul\":45775:45794   */\n      swap1\n      pop\n        /* \"#utility.yul\":45435:45800   */\n      swap2\n      swap1\n      pop\n      jump\t// out\n        /* \"#utility.yul\":45806:46225   */\n    tag_218:\n        /* \"#utility.yul\":45972:45976   */\n      0x00\n        /* \"#utility.yul\":46010:46012   */\n      0x20\n        /* \"#utility.yul\":45999:46008   */\n      dup3\n        /* \"#utility.yul\":45995:46013   */\n      add\n        /* \"#utility.yul\":45987:46013   */\n      swap1\n      pop\n        /* \"#utility.yul\":46059:46068   */\n      dup2\n        /* \"#utility.yul\":46053:46057   */\n      dup2\n        /* \"#utility.yul\":46049:46069   */\n      sub\n        /* \"#utility.yul\":46045:46046   */\n      0x00\n        /* \"#utility.yul\":46034:46043   */\n      dup4\n        /* \"#utility.yul\":46030:46047   */\n      add\n        /* \"#utility.yul\":46023:46070   */\n      mstore\n        /* \"#utility.yul\":46087:46218   */\n      tag_778\n        /* \"#utility.yul\":46213:46217   */\n      dup2\n        /* \"#utility.yul\":46087:46218   */\n      tag_358\n      jump\t// in\n    tag_778:\n        /* \"#utility.yul\":46079:46218   */\n      swap1\n      pop\n        /* \"#utility.yul\":45806:46225   */\n      swap2\n      swap1\n      pop\n      jump\t// out\n        /* \"#utility.yul\":46255:47086   */\n    tag_359:\n        /* \"#utility.yul\":46340:46343   */\n      0x00\n        /* \"#utility.yul\":46377:46382   */\n      dup2\n        /* \"#utility.yul\":46371:46383   */\n      sload\n        /* \"#utility.yul\":46406:46442   */\n      tag_780\n        /* \"#utility.yul\":46432:46441   */\n      dup2\n        /* \"#utility.yul\":46406:46442   */\n      tag_109\n      jump\t// in\n    tag_780:\n        /* \"#utility.yul\":46458:46529   */\n      tag_781\n        /* \"#utility.yul\":46522:46528   */\n      dup2\n        /* \"#utility.yul\":46517:46520   */\n      dup7\n        /* \"#utility.yul\":46458:46529   */\n      tag_282\n      jump\t// in\n    tag_781:\n        /* \"#utility.yul\":46451:46529   */\n      swap5\n      pop\n        /* \"#utility.yul\":46560:46561   */\n      0x01\n        /* \"#utility.yul\":46549:46558   */\n      dup3\n        /* \"#utility.yul\":46545:46562   */\n      and\n        /* \"#utility.yul\":46576:46577   */\n      0x00\n        /* \"#utility.yul\":46571:46735   */\n      dup2\n      eq\n      tag_783\n      jumpi\n        /* \"#utility.yul\":46749:46750   */\n      0x01\n        /* \"#utility.yul\":46744:47080   */\n      dup2\n      eq\n      tag_784\n      jumpi\n        /* \"#utility.yul\":46538:47080   */\n      jump(tag_782)\n        /* \"#utility.yul\":46571:46735   */\n    tag_783:\n        /* \"#utility.yul\":46655:46659   */\n      0xff\n        /* \"#utility.yul\":46651:46660   */\n      not\n        /* \"#utility.yul\":46640:46649   */\n      dup4\n        /* \"#utility.yul\":46636:46661   */\n      and\n        /* \"#utility.yul\":46631:46634   */\n      dup7\n        /* \"#utility.yul\":46624:46662   */\n      mstore\n        /* \"#utility.yul\":46715:46721   */\n      dup2\n        /* \"#utility.yul\":46708:46722   */\n      iszero\n        /* \"#utility.yul\":46701:46723   */\n      iszero\n        /* \"#utility.yul\":46695:46699   */\n      0x20\n        /* \"#utility.yul\":46691:46724   */\n      mul\n        /* \"#utility.yul\":46686:46689   */\n      dup7\n        /* \"#utility.yul\":46682:46725   */\n      add\n        /* \"#utility.yul\":46675:46725   */\n      swap4\n      pop\n        /* \"#utility.yul\":46571:46735   */\n      jump(tag_782)\n        /* \"#utility.yul\":46744:47080   */\n    tag_784:\n        /* \"#utility.yul\":46811:46849   */\n      tag_785\n        /* \"#utility.yul\":46843:46848   */\n      dup6\n        /* \"#utility.yul\":46811:46849   */\n      tag_301\n      jump\t// in\n    tag_785:\n        /* \"#utility.yul\":46871:46872   */\n      0x00\n        /* \"#utility.yul\":46885:47039   */\n    tag_786:\n        /* \"#utility.yul\":46899:46905   */\n      dup4\n        /* \"#utility.yul\":46896:46897   */\n      dup2\n        /* \"#utility.yul\":46893:46906   */\n      lt\n        /* \"#utility.yul\":46885:47039   */\n      iszero\n      tag_788\n      jumpi\n        /* \"#utility.yul\":46973:46980   */\n      dup2\n        /* \"#utility.yul\":46967:46981   */\n      sload\n        /* \"#utility.yul\":46963:46964   */\n      dup2\n        /* \"#utility.yul\":46958:46961   */\n      dup10\n        /* \"#utility.yul\":46954:46965   */\n      add\n        /* \"#utility.yul\":46947:46982   */\n      mstore\n        /* \"#utility.yul\":47023:47024   */\n      0x01\n        /* \"#utility.yul\":47014:47021   */\n      dup3\n        /* \"#utility.yul\":47010:47025   */\n      add\n        /* \"#utility.yul\":46999:47025   */\n      swap2\n      pop\n        /* \"#utility.yul\":46921:46925   */\n      0x20\n        /* \"#utility.yul\":46918:46919   */\n      dup2\n        /* \"#utility.yul\":46914:46926   */\n      add\n        /* \"#utility.yul\":46909:46926   */\n      swap1\n      pop\n        /* \"#utility.yul\":46885:47039   */\n      jump(tag_786)\n    tag_788:\n        /* \"#utility.yul\":47068:47069   */\n      dup1\n        /* \"#utility.yul\":47063:47066   */\n      dup9\n        /* \"#utility.yul\":47059:47070   */\n      add\n        /* \"#utility.yul\":47052:47070   */\n      swap6\n      pop\n        /* \"#utility.yul\":46751:47080   */\n      pop\n      pop\n        /* \"#utility.yul\":46538:47080   */\n    tag_782:\n      pop\n        /* \"#utility.yul\":46344:47086   */\n      pop\n      pop\n        /* \"#utility.yul\":46255:47086   */\n      swap3\n      swap2\n      pop\n      pop\n      jump\t// out\n        /* \"#utility.yul\":47092:47841   */\n    tag_220:\n        /* \"#utility.yul\":47314:47318   */\n      0x00\n        /* \"#utility.yul\":47352:47355   */\n      0xa0\n        /* \"#utility.yul\":47341:47350   */\n      dup3\n        /* \"#utility.yul\":47337:47356   */\n      add\n        /* \"#utility.yul\":47329:47356   */\n      swap1\n      pop\n        /* \"#utility.yul\":47366:47437   */\n      tag_790\n        /* \"#utility.yul\":47434:47435   */\n      0x00\n        /* \"#utility.yul\":47423:47432   */\n      dup4\n        /* \"#utility.yul\":47419:47436   */\n      add\n        /* \"#utility.yul\":47410:47416   */\n      dup9\n        /* \"#utility.yul\":47366:47437   */\n      tag_256\n      jump\t// in\n    tag_790:\n        /* \"#utility.yul\":47447:47519   */\n      tag_791\n        /* \"#utility.yul\":47515:47517   */\n      0x20\n        /* \"#utility.yul\":47504:47513   */\n      dup4\n        /* \"#utility.yul\":47500:47518   */\n      add\n        /* \"#utility.yul\":47491:47497   */\n      dup8\n        /* \"#utility.yul\":47447:47519   */\n      tag_265\n      jump\t// in\n    tag_791:\n        /* \"#utility.yul\":47529:47601   */\n      tag_792\n        /* \"#utility.yul\":47597:47599   */\n      0x40\n        /* \"#utility.yul\":47586:47595   */\n      dup4\n        /* \"#utility.yul\":47582:47600   */\n      add\n        /* \"#utility.yul\":47573:47579   */\n      dup7\n        /* \"#utility.yul\":47529:47601   */\n      tag_270\n      jump\t// in\n    tag_792:\n        /* \"#utility.yul\":47611:47683   */\n      tag_793\n        /* \"#utility.yul\":47679:47681   */\n      0x60\n        /* \"#utility.yul\":47668:47677   */\n      dup4\n        /* \"#utility.yul\":47664:47682   */\n      add\n        /* \"#utility.yul\":47655:47661   */\n      dup6\n        /* \"#utility.yul\":47611:47683   */\n      tag_256\n      jump\t// in\n    tag_793:\n        /* \"#utility.yul\":47731:47740   */\n      dup2\n        /* \"#utility.yul\":47725:47729   */\n      dup2\n        /* \"#utility.yul\":47721:47741   */\n      sub\n        /* \"#utility.yul\":47715:47718   */\n      0x80\n        /* \"#utility.yul\":47704:47713   */\n      dup4\n        /* \"#utility.yul\":47700:47719   */\n      add\n        /* \"#utility.yul\":47693:47742   */\n      mstore\n        /* \"#utility.yul\":47759:47834   */\n      tag_794\n        /* \"#utility.yul\":47829:47833   */\n      dup2\n        /* \"#utility.yul\":47820:47826   */\n      dup5\n        /* \"#utility.yul\":47759:47834   */\n      tag_359\n      jump\t// in\n    tag_794:\n        /* \"#utility.yul\":47751:47834   */\n      swap1\n      pop\n        /* \"#utility.yul\":47092:47841   */\n      swap7\n      swap6\n      pop\n      pop\n      pop\n      pop\n      pop\n      pop\n      jump\t// out\n\n    auxdata: 0xa2646970667358221220af513f09220da55cc6571d6bda3a8306e40323ed64532584ec3a962027690c1064736f6c634300081c0033\n}\n",
				"bytecode": {
					"linkReferences": {},
					"object": "60a060405234801561000f575f5ffd5b506040516136693803806136698339818101604052810190610031919061043c565b8060ff1683511015610078576040517f08c379a000000000000000000000000000000000000000000000000000000000815260040161006f90610502565b60405180910390fd5b5f5b83518110156101ee575f84828151811061009757610096610520565b5b6020026020010151905060055f8273ffffffffffffffffffffffffffffffffffffffff1673ffffffffffffffffffffffffffffffffffffffff1681526020019081526020015f205f9054906101000a900460ff161561012b576040517f08c379a000000000000000000000000000000000000000000000000000000000815260040161012290610597565b60405180910390fd5b600160055f8373ffffffffffffffffffffffffffffffffffffffff1673ffffffffffffffffffffffffffffffffffffffff1681526020019081526020015f205f6101000a81548160ff021916908315150217905550600181908060018154018082558091505060019003905f5260205f20015f9091909190916101000a81548173ffffffffffffffffffffffffffffffffffffffff021916908373ffffffffffffffffffffffffffffffffffffffff16021790555050808060010191505061007a565b508160808181525050805f5f6101000a81548160ff021916908360ff1602179055505050506105b5565b5f604051905090565b5f5ffd5b5f5ffd5b5f5ffd5b5f601f19601f8301169050919050565b7f4e487b71000000000000000000000000000000000000000000000000000000005f52604160045260245ffd5b6102738261022d565b810181811067ffffffffffffffff821117156102925761029161023d565b5b80604052505050565b5f6102a4610218565b90506102b0828261026a565b919050565b5f67ffffffffffffffff8211156102cf576102ce61023d565b5b602082029050602081019050919050565b5f5ffd5b5f73ffffffffffffffffffffffffffffffffffffffff82169050919050565b5f61030d826102e4565b9050919050565b61031d81610303565b8114610327575f5ffd5b50565b5f8151905061033881610314565b92915050565b5f61035061034b846102b5565b61029b565b90508083825260208201905060208402830185811115610373576103726102e0565b5b835b8181101561039c5780610388888261032a565b845260208401935050602081019050610375565b5050509392505050565b5f82601f8301126103ba576103b9610229565b5b81516103ca84826020860161033e565b91505092915050565b5f819050919050565b6103e5816103d3565b81146103ef575f5ffd5b50565b5f81519050610400816103dc565b92915050565b5f60ff82169050919050565b61041b81610406565b8114610425575f5ffd5b50565b5f8151905061043681610412565b92915050565b5f5f5f6060848603121561045357610452610221565b5b5f84015167ffffffffffffffff8111156104705761046f610225565b5b61047c868287016103a6565b935050602061048d868287016103f2565b925050604061049e86828701610428565b9150509250925092565b5f82825260208201905092915050565b7f4d696e696d756d2033206f776e657273000000000000000000000000000000005f82015250565b5f6104ec6010836104a8565b91506104f7826104b8565b602082019050919050565b5f6020820190508181035f830152610519816104e0565b9050919050565b7f4e487b71000000000000000000000000000000000000000000000000000000005f52603260045260245ffd5b7f6475706c696361746564206f776e6572000000000000000000000000000000005f82015250565b5f6105816010836104a8565b915061058c8261054d565b602082019050919050565b5f6020820190508181035f8301526105ae81610575565b9050919050565b60805161309c6105cd5f395f611381015261309c5ff3fe608060405234801561000f575f5ffd5b50600436106100a7575f3560e01c8063414a68111161006f578063414a6811146101755780634898b157146101935780637065cb48146101c8578063797af627146101e45780639ac1636b14610200578063fe8492c31461021c576100a7565b8063025e7c27146100ab5780630753a692146100db5780630c4ecab41461010b578063193776f41461013b5780633c7bf9ad14610159575b5f5ffd5b6100c560048036038101906100c09190611943565b610238565b6040516100d291906119ad565b60405180910390f35b6100f560048036038101906100f09190611aa6565b610273565b6040516101029190611b4f565b60405180910390f35b61012560048036038101906101209190611b92565b6106af565b6040516101329190611bea565b60405180910390f35b6101436106d9565b6040516101509190611c12565b60405180910390f35b610173600480360381019061016e9190611c61565b6106f0565b005b61017d610845565b60405161018a9190611d43565b60405180910390f35b6101ad60048036038101906101a89190611d63565b6108d0565b6040516101bf96959493929190611e50565b60405180910390f35b6101e260048036038101906101dd9190611ebd565b610a33565b005b6101fe60048036038101906101f99190611d63565b610bc7565b005b61021a60048036038101906102159190611d63565b610e00565b005b61023660048036038101906102319190611943565b610fca565b005b60018181548110610247575f80fd5b905f5260205f20015f915054906101000a900473ffffffffffffffffffffffffffffffffffffffff1681565b5f60055f3373ffffffffffffffffffffffffffffffffffffffff1673ffffffffffffffffffffffffffffffffffffffff1681526020019081526020015f205f9054906101000a900460ff166102fd576040517f08c379a00000000000000000000000000000000000000000000000000000000081526004016102f490611f32565b60405180910390fd5b5f73ffffffffffffffffffffffffffffffffffffffff168473ffffffffffffffffffffffffffffffffffffffff160361036b576040517f08c379a000000000000000000000000000000000000000000000000000000000815260040161036290611f9a565b60405180910390fd5b5f86869050116103b0576040517f08c379a00000000000000000000000000000000000000000000000000000000081526004016103a790612002565b60405180910390fd5b5f83839050116103f5576040517f08c379a00000000000000000000000000000000000000000000000000000000081526004016103ec9061206a565b60405180910390fd5b5f6104048787878787426112ca565b905060035f8281526020019081526020015f205f9054906101000a900460ff1615610464576040517f08c379a000000000000000000000000000000000000000000000000000000000815260040161045b906120d2565b60405180910390fd5b600160035f8381526020019081526020015f205f6101000a81548160ff021916908315150217905550600160045f8381526020019081526020015f205f3373ffffffffffffffffffffffffffffffffffffffff1673ffffffffffffffffffffffffffffffffffffffff1681526020019081526020015f205f6101000a81548160ff0219169083151502179055506040518060c001604052808281526020018673ffffffffffffffffffffffffffffffffffffffff16815260200188888080601f0160208091040260200160405190810160405280939291908181526020018383808284375f81840152601f19601f82011690508083019250505050505050815260200185858080601f0160208091040260200160405190810160405280939291908181526020018383808284375f81840152601f19601f820116905080830192505050505050508152602001428152602001600181525060025f8381526020019081526020015f205f820151815f01556020820151816001015f6101000a81548173ffffffffffffffffffffffffffffffffffffffff021916908373ffffffffffffffffffffffffffffffffffffffff160217905550604082015181600201908161062f919061231a565b5060608201518160030190816106459190612441565b506080820151816004015560a082015181600501559050507f9ebfdc2f8d091a5a9c70ccf8288d6521eed7103f00edea478db417af66bbfd17338689898888428860405161069a989796959493929190612576565b60405180910390a18091505095945050505050565b6004602052815f5260405f20602052805f5260405f205f915091509054906101000a900460ff1681565b5f5f5f9054906101000a900460ff1660ff16905090565b3073ffffffffffffffffffffffffffffffffffffffff163373ffffffffffffffffffffffffffffffffffffffff161461075e576040517f08c379a000000000000000000000000000000000000000000000000000000000815260040161075590612631565b60405180910390fd5b8060ff1660018054905010156107a9576040517f08c379a00000000000000000000000000000000000000000000000000000000081526004016107a090612699565b60405180910390fd5b60028160ff1610156107f0576040517f08c379a00000000000000000000000000000000000000000000000000000000081526004016107e790612701565b60405180910390fd5b805f5f6101000a81548160ff021916908360ff1602179055507ff038ae2391da98e6cc50292a29178f79383d45f4798eb3d2643b2151fe648287438260405161083a92919061272e565b60405180910390a150565b606060018054806020026020016040519081016040528092919081815260200182805480156108c657602002820191905f5260205f20905b815f9054906101000a900473ffffffffffffffffffffffffffffffffffffffff1673ffffffffffffffffffffffffffffffffffffffff168152602001906001019080831161087d575b5050505050905090565b6002602052805f5260405f205f91509050805f015490806001015f9054906101000a900473ffffffffffffffffffffffffffffffffffffffff169080600201805461091a9061214a565b80601f01602080910402602001604051908101604052809291908181526020018280546109469061214a565b80156109915780601f1061096857610100808354040283529160200191610991565b820191905f5260205f20905b81548152906001019060200180831161097457829003601f168201915b5050505050908060030180546109a69061214a565b80601f01602080910402602001604051908101604052809291908181526020018280546109d29061214a565b8015610a1d5780601f106109f457610100808354040283529160200191610a1d565b820191905f5260205f20905b815481529060010190602001808311610a0057829003601f168201915b5050505050908060040154908060050154905086565b3073ffffffffffffffffffffffffffffffffffffffff163373ffffffffffffffffffffffffffffffffffffffff1614610aa1576040517f08c379a0000000000000000000000000000000000000000000000000000000008152600401610a9890612631565b60405180910390fd5b5f73ffffffffffffffffffffffffffffffffffffffff168173ffffffffffffffffffffffffffffffffffffffff1603610b0f576040517f08c379a0000000000000000000000000000000000000000000000000000000008152600401610b069061279f565b60405180910390fd5b600160055f8373ffffffffffffffffffffffffffffffffffffffff1673ffffffffffffffffffffffffffffffffffffffff1681526020019081526020015f205f6101000a81548160ff021916908315150217905550600181908060018154018082558091505060019003905f5260205f20015f9091909190916101000a81548173ffffffffffffffffffffffffffffffffffffffff021916908373ffffffffffffffffffffffffffffffffffffffff16021790555050565b60055f3373ffffffffffffffffffffffffffffffffffffffff1673ffffffffffffffffffffffffffffffffffffffff1681526020019081526020015f205f9054906101000a900460ff16610c50576040517f08c379a0000000000000000000000000000000000000000000000000000000008152600401610c4790611f32565b60405180910390fd5b60035f8281526020019081526020015f205f9054906101000a900460ff16610cad576040517f08c379a0000000000000000000000000000000000000000000000000000000008152600401610ca490612807565b60405180910390fd5b60045f8281526020019081526020015f205f3373ffffffffffffffffffffffffffffffffffffffff1673ffffffffffffffffffffffffffffffffffffffff1681526020019081526020015f205f9054906101000a900460ff1615610d46576040517f08c379a0000000000000000000000000000000000000000000000000000000008152600401610d3d9061286f565b60405180910390fd5b5f60025f8381526020019081526020015f209050806005015f815480929190610d6e906128ba565b9190505550600160045f8481526020019081526020015f205f3373ffffffffffffffffffffffffffffffffffffffff1673ffffffffffffffffffffffffffffffffffffffff1681526020019081526020015f205f6101000a81548160ff0219169083151502179055505f5f9054906101000a900460ff1660ff16816005015410610dfc57610dfb8261130d565b5b5050565b60055f3373ffffffffffffffffffffffffffffffffffffffff1673ffffffffffffffffffffffffffffffffffffffff1681526020019081526020015f205f9054906101000a900460ff16610e89576040517f08c379a0000000000000000000000000000000000000000000000000000000008152600401610e8090611f32565b60405180910390fd5b60045f8281526020019081526020015f205f3373ffffffffffffffffffffffffffffffffffffffff1673ffffffffffffffffffffffffffffffffffffffff1681526020019081526020015f205f9054906101000a900460ff16610f21576040517f08c379a0000000000000000000000000000000000000000000000000000000008152600401610f189061294b565b60405180910390fd5b5f60025f8381526020019081526020015f209050806005015f815480929190610f4990612969565b91905055505f60045f8481526020019081526020015f205f3373ffffffffffffffffffffffffffffffffffffffff1673ffffffffffffffffffffffffffffffffffffffff1681526020019081526020015f205f6101000a81548160ff0219169083151502179055505f816005015403610fc657610fc582611695565b5b5050565b3073ffffffffffffffffffffffffffffffffffffffff163373ffffffffffffffffffffffffffffffffffffffff1614611038576040517f08c379a000000000000000000000000000000000000000000000000000000000815260040161102f90612631565b60405180910390fd5b5f600180549050905080821115611084576040517f08c379a000000000000000000000000000000000000000000000000000000000815260040161107b90612a00565b60405180910390fd5b5f5f9054906101000a900460ff1660ff166001826110a29190612a1e565b10156110e3576040517f08c379a00000000000000000000000000000000000000000000000000000000081526004016110da90612a9b565b60405180910390fd5b5f60055f600185815481106110fb576110fa612ab9565b5b905f5260205f20015f9054906101000a900473ffffffffffffffffffffffffffffffffffffffff1673ffffffffffffffffffffffffffffffffffffffff1673ffffffffffffffffffffffffffffffffffffffff1681526020019081526020015f205f6101000a81548160ff0219169083151502179055505f8290505b6001826111849190612a1e565b81101561123857600180826111999190612ae6565b815481106111aa576111a9612ab9565b5b905f5260205f20015f9054906101000a900473ffffffffffffffffffffffffffffffffffffffff16600182815481106111e6576111e5612ab9565b5b905f5260205f20015f6101000a81548173ffffffffffffffffffffffffffffffffffffffff021916908373ffffffffffffffffffffffffffffffffffffffff1602179055508080600101915050611177565b50600180826112479190612a1e565b8154811061125857611257612ab9565b5b905f5260205f20015f6101000a81549073ffffffffffffffffffffffffffffffffffffffff0219169055600180548061129457611293612b19565b5b600190038181905f5260205f20015f6101000a81549073ffffffffffffffffffffffffffffffffffffffff021916905590555050565b5f5f8787878787876040516020016112e796959493929190612b46565b604051602081830303815290604052805190602001209050809150509695505050505050565b5f60025f8381526020019081526020015f20905060035f8381526020019081526020015f205f9054906101000a900460ff1661137e576040517f08c379a000000000000000000000000000000000000000000000000000000000815260040161137590612be5565b60405180910390fd5b427f000000000000000000000000000000000000000000000000000000000000000082600401546113af9190612ae6565b116113ef576040517f08c379a00000000000000000000000000000000000000000000000000000000081526004016113e690612c4d565b60405180910390fd5b80600401544211611435576040517f08c379a000000000000000000000000000000000000000000000000000000000815260040161142c90612cb5565b60405180910390fd5b5f5f9054906101000a900460ff1660ff168160050154101561148c576040517f08c379a000000000000000000000000000000000000000000000000000000000815260040161148390612d1d565b60405180910390fd5b60035f8381526020019081526020015f205f6101000a81549060ff02191690556060816002016040516114bf9190612dd7565b6040518091039020826003016040516020016114dc929190612eb8565b60405160208183030381529060405290505f826001015f9054906101000a900473ffffffffffffffffffffffffffffffffffffffff1673ffffffffffffffffffffffffffffffffffffffff165f836040516115379190612f0f565b5f6040518083038185875af1925050503d805f8114611571576040519150601f19603f3d011682016040523d82523d5f602084013e611576565b606091505b50509050806115ba576040517f08c379a00000000000000000000000000000000000000000000000000000000081526004016115b190612f6f565b60405180910390fd5b7f9c7070454b027dadd42327b0e9874fd7d5f4d0b60ffb5e65b23fc530e91d992b33858560040154866001015f9054906101000a900473ffffffffffffffffffffffffffffffffffffffff168760020160405161161b95949392919061300e565b60405180910390a160025f8581526020019081526020015f205f5f82015f9055600182015f6101000a81549073ffffffffffffffffffffffffffffffffffffffff0219169055600282015f6116709190611873565b600382015f61167f91906118b0565b600482015f9055600582015f9055505050505050565b60035f8281526020019081526020015f205f9054906101000a900460ff166116f2576040517f08c379a00000000000000000000000000000000000000000000000000000000081526004016116e990612be5565b60405180910390fd5b60035f8281526020019081526020015f205f6101000a81549060ff021916905560025f8281526020019081526020015f205f5f82015f9055600182015f6101000a81549073ffffffffffffffffffffffffffffffffffffffff0219169055600282015f61175f9190611873565b600382015f61176e91906118b0565b600482015f9055600582015f905550505f5b600180549050811015611838575f60045f8481526020019081526020015f205f600184815481106117b4576117b3612ab9565b5b905f5260205f20015f9054906101000a900473ffffffffffffffffffffffffffffffffffffffff1673ffffffffffffffffffffffffffffffffffffffff1673ffffffffffffffffffffffffffffffffffffffff1681526020019081526020015f205f6101000a81548160ff0219169083151502179055508080600101915050611780565b507f72cd7667542ebd154efd241871dca06d4b862c64b2b81be5f7eda452e015548f816040516118689190611b4f565b60405180910390a150565b50805461187f9061214a565b5f825580601f1061189057506118ad565b601f0160209004905f5260205f20908101906118ac91906118ed565b5b50565b5080546118bc9061214a565b5f825580601f106118cd57506118ea565b601f0160209004905f5260205f20908101906118e991906118ed565b5b50565b5b80821115611904575f815f9055506001016118ee565b5090565b5f5ffd5b5f5ffd5b5f819050919050565b61192281611910565b811461192c575f5ffd5b50565b5f8135905061193d81611919565b92915050565b5f6020828403121561195857611957611908565b5b5f6119658482850161192f565b91505092915050565b5f73ffffffffffffffffffffffffffffffffffffffff82169050919050565b5f6119978261196e565b9050919050565b6119a78161198d565b82525050565b5f6020820190506119c05f83018461199e565b92915050565b5f5ffd5b5f5ffd5b5f5ffd5b5f5f83601f8401126119e7576119e66119c6565b5b8235905067ffffffffffffffff811115611a0457611a036119ca565b5b602083019150836001820283011115611a2057611a1f6119ce565b5b9250929050565b611a308161198d565b8114611a3a575f5ffd5b50565b5f81359050611a4b81611a27565b92915050565b5f5f83601f840112611a6657611a656119c6565b5b8235905067ffffffffffffffff811115611a8357611a826119ca565b5b602083019150836001820283011115611a9f57611a9e6119ce565b5b9250929050565b5f5f5f5f5f60608688031215611abf57611abe611908565b5b5f86013567ffffffffffffffff811115611adc57611adb61190c565b5b611ae8888289016119d2565b95509550506020611afb88828901611a3d565b935050604086013567ffffffffffffffff811115611b1c57611b1b61190c565b5b611b2888828901611a51565b92509250509295509295909350565b5f819050919050565b611b4981611b37565b82525050565b5f602082019050611b625f830184611b40565b92915050565b611b7181611b37565b8114611b7b575f5ffd5b50565b5f81359050611b8c81611b68565b92915050565b5f5f60408385031215611ba857611ba7611908565b5b5f611bb585828601611b7e565b9250506020611bc685828601611a3d565b9150509250929050565b5f8115159050919050565b611be481611bd0565b82525050565b5f602082019050611bfd5f830184611bdb565b92915050565b611c0c81611910565b82525050565b5f602082019050611c255f830184611c03565b92915050565b5f60ff82169050919050565b611c4081611c2b565b8114611c4a575f5ffd5b50565b5f81359050611c5b81611c37565b92915050565b5f60208284031215611c7657611c75611908565b5b5f611c8384828501611c4d565b91505092915050565b5f81519050919050565b5f82825260208201905092915050565b5f819050602082019050919050565b611cbe8161198d565b82525050565b5f611ccf8383611cb5565b60208301905092915050565b5f602082019050919050565b5f611cf182611c8c565b611cfb8185611c96565b9350611d0683611ca6565b805f5b83811015611d36578151611d1d8882611cc4565b9750611d2883611cdb565b925050600181019050611d09565b5085935050505092915050565b5f6020820190508181035f830152611d5b8184611ce7565b905092915050565b5f60208284031215611d7857611d77611908565b5b5f611d8584828501611b7e565b91505092915050565b5f81519050919050565b5f82825260208201905092915050565b8281835e5f83830152505050565b5f601f19601f8301169050919050565b5f611dd082611d8e565b611dda8185611d98565b9350611dea818560208601611da8565b611df381611db6565b840191505092915050565b5f81519050919050565b5f82825260208201905092915050565b5f611e2282611dfe565b611e2c8185611e08565b9350611e3c818560208601611da8565b611e4581611db6565b840191505092915050565b5f60c082019050611e635f830189611b40565b611e70602083018861199e565b8181036040830152611e828187611dc6565b90508181036060830152611e968186611e18565b9050611ea56080830185611c03565b611eb260a0830184611c03565b979650505050505050565b5f60208284031215611ed257611ed1611908565b5b5f611edf84828501611a3d565b91505092915050565b7f596f7520617265206e6f7420746865206f776e657200000000000000000000005f82015250565b5f611f1c601583611d98565b9150611f2782611ee8565b602082019050919050565b5f6020820190508181035f830152611f4981611f10565b9050919050565b7f496e76616c6964207461726765742061646472657373000000000000000000005f82015250565b5f611f84601683611d98565b9150611f8f82611f50565b602082019050919050565b5f6020820190508181035f830152611fb181611f78565b9050919050565b7f456d7074792066756e6374696f6e206e616d65000000000000000000000000005f82015250565b5f611fec601383611d98565b9150611ff782611fb8565b602082019050919050565b5f6020820190508181035f83015261201981611fe0565b9050919050565b7f456d7074792064617461000000000000000000000000000000000000000000005f82015250565b5f612054600a83611d98565b915061205f82612020565b602082019050919050565b5f6020820190508181035f83015261208181612048565b9050919050565b7f616c6c72656164792071756575650000000000000000000000000000000000005f82015250565b5f6120bc600e83611d98565b91506120c782612088565b602082019050919050565b5f6020820190508181035f8301526120e9816120b0565b9050919050565b7f4e487b71000000000000000000000000000000000000000000000000000000005f52604160045260245ffd5b7f4e487b71000000000000000000000000000000000000000000000000000000005f52602260045260245ffd5b5f600282049050600182168061216157607f821691505b6020821081036121745761217361211d565b5b50919050565b5f819050815f5260205f209050919050565b5f6020601f8301049050919050565b5f82821b905092915050565b5f600883026121d67fffffffffffffffffffffffffffffffffffffffffffffffffffffffffffffffff8261219b565b6121e0868361219b565b95508019841693508086168417925050509392505050565b5f819050919050565b5f61221b61221661221184611910565b6121f8565b611910565b9050919050565b5f819050919050565b61223483612201565b61224861224082612222565b8484546121a7565b825550505050565b5f5f905090565b61225f612250565b61226a81848461222b565b505050565b5b8181101561228d576122825f82612257565b600181019050612270565b5050565b601f8211156122d2576122a38161217a565b6122ac8461218c565b810160208510156122bb578190505b6122cf6122c78561218c565b83018261226f565b50505b505050565b5f82821c905092915050565b5f6122f25f19846008026122d7565b1980831691505092915050565b5f61230a83836122e3565b9150826002028217905092915050565b61232382611d8e565b67ffffffffffffffff81111561233c5761233b6120f0565b5b612346825461214a565b612351828285612291565b5f60209050601f831160018114612382575f8415612370578287015190505b61237a85826122ff565b8655506123e1565b601f1984166123908661217a565b5f5b828110156123b757848901518255600182019150602085019450602081019050612392565b868310156123d457848901516123d0601f8916826122e3565b8355505b6001600288020188555050505b505050505050565b5f819050815f5260205f209050919050565b601f82111561243c5761240d816123e9565b6124168461218c565b81016020851015612425578190505b6124396124318561218c565b83018261226f565b50505b505050565b61244a82611dfe565b67ffffffffffffffff811115612463576124626120f0565b5b61246d825461214a565b6124788282856123fb565b5f60209050601f8311600181146124a9575f8415612497578287015190505b6124a185826122ff565b865550612508565b601f1984166124b7866123e9565b5f5b828110156124de578489015182556001820191506020850194506020810190506124b9565b868310156124fb57848901516124f7601f8916826122e3565b8355505b6001600288020188555050505b505050505050565b828183375f83830152505050565b5f6125298385611d98565b9350612536838584612510565b61253f83611db6565b840190509392505050565b5f6125558385611e08565b9350612562838584612510565b61256b83611db6565b840190509392505050565b5f60c0820190506125895f83018b61199e565b612596602083018a61199e565b81810360408301526125a981888a61251e565b905081810360608301526125be81868861254a565b90506125cd6080830185611c03565b6125da60a0830184611b40565b9998505050505050505050565b7f43616c6c2074686520636f6e73656e7375732066756e6374696f6e00000000005f82015250565b5f61261b601b83611d98565b9150612626826125e7565b602082019050919050565b5f6020820190508181035f8301526126488161260f565b9050919050565b7f6572726f72206f776e6572732e6c656e677468203c205f636f6e6652657100005f82015250565b5f612683601e83611d98565b915061268e8261264f565b602082019050919050565b5f6020820190508181035f8301526126b081612677565b9050919050565b7f4d696e696d616c20636f6e6652657175697265203200000000000000000000005f82015250565b5f6126eb601583611d98565b91506126f6826126b7565b602082019050919050565b5f6020820190508181035f830152612718816126df565b9050919050565b61272881611c2b565b82525050565b5f6040820190506127415f830185611c03565b61274e602083018461271f565b9392505050565b7f4572726f72207a65726f206164647265737300000000000000000000000000005f82015250565b5f612789601283611d98565b915061279482612755565b602082019050919050565b5f6020820190508181035f8301526127b68161277d565b9050919050565b7f6e6f7420717565756564210000000000000000000000000000000000000000005f82015250565b5f6127f1600b83611d98565b91506127fc826127bd565b602082019050919050565b5f6020820190508181035f83015261281e816127e5565b9050919050565b7f616c726561647920636f6e6669726d65642100000000000000000000000000005f82015250565b5f612859601283611d98565b915061286482612825565b602082019050919050565b5f6020820190508181035f8301526128868161284d565b9050919050565b7f4e487b71000000000000000000000000000000000000000000000000000000005f52601160045260245ffd5b5f6128c482611910565b91507fffffffffffffffffffffffffffffffffffffffffffffffffffffffffffffffff82036128f6576128f561288d565b5b600182019050919050565b7f6e6f7420636f6e6669726d6564210000000000000000000000000000000000005f82015250565b5f612935600e83611d98565b915061294082612901565b602082019050919050565b5f6020820190508181035f83015261296281612929565b9050919050565b5f61297382611910565b91505f82036129855761298461288d565b5b600182039050919050565b7f4e6f646520696e6465782063616e6e6f7420626520686967686572207468616e5f8201527f207468656972206e756d62657200000000000000000000000000000000000000602082015250565b5f6129ea602d83611d98565b91506129f582612990565b604082019050919050565b5f6020820190508181035f830152612a17816129de565b9050919050565b5f612a2882611910565b9150612a3383611910565b9250828203905081811115612a4b57612a4a61288d565b5b92915050565b7f6572726f72206d696e696d616c20636f756e74206f776e6572000000000000005f82015250565b5f612a85601983611d98565b9150612a9082612a51565b602082019050919050565b5f6020820190508181035f830152612ab281612a79565b9050919050565b7f4e487b71000000000000000000000000000000000000000000000000000000005f52603260045260245ffd5b5f612af082611910565b9150612afb83611910565b9250828201905080821115612b1357612b1261288d565b5b92915050565b7f4e487b71000000000000000000000000000000000000000000000000000000005f52603160045260245ffd5b5f6080820190508181035f830152612b5f81888a61251e565b9050612b6e602083018761199e565b8181036040830152612b8181858761254a565b9050612b906060830184611c03565b979650505050505050565b7f6e6f7420717565756564000000000000000000000000000000000000000000005f82015250565b5f612bcf600a83611d98565b9150612bda82612b9b565b602082019050919050565b5f6020820190508181035f830152612bfc81612bc3565b9050919050565b7f477261636520706572696f64206661696c6564000000000000000000000000005f82015250565b5f612c37601383611d98565b9150612c4282612c03565b602082019050919050565b5f6020820190508181035f830152612c6481612c2b565b9050919050565b7f4572726f722074696d657374616d7000000000000000000000000000000000005f82015250565b5f612c9f600f83611d98565b9150612caa82612c6b565b602082019050919050565b5f6020820190508181035f830152612ccc81612c93565b9050919050565b7f6e6f7420656e6f75676820636f6e6669726d6174696f6e7320000000000000005f82015250565b5f612d07601983611d98565b9150612d1282612cd3565b602082019050919050565b5f6020820190508181035f830152612d3481612cfb565b9050919050565b5f81905092915050565b5f819050815f5260205f209050919050565b5f8154612d638161214a565b612d6d8186612d3b565b9450600182165f8114612d875760018114612d9c57612dce565b60ff1983168652811515820286019350612dce565b612da585612d45565b5f5b83811015612dc657815481890152600182019150602081019050612da7565b838801955050505b50505092915050565b5f612de28284612d57565b915081905092915050565b5f7fffffffff0000000000000000000000000000000000000000000000000000000082169050919050565b5f819050919050565b612e32612e2d82612ded565b612e18565b82525050565b5f8154612e448161214a565b612e4e8186612d3b565b9450600182165f8114612e685760018114612e7d57612eaf565b60ff1983168652811515820286019350612eaf565b612e86856123e9565b5f5b83811015612ea757815481890152600182019150602081019050612e88565b838801955050505b50505092915050565b5f612ec38285612e21565b600482019150612ed38284612e38565b91508190509392505050565b5f612ee982611dfe565b612ef38185612d3b565b9350612f03818560208601611da8565b80840191505092915050565b5f612f1a8284612edf565b915081905092915050565b7f7478206572726f720000000000000000000000000000000000000000000000005f82015250565b5f612f59600883611d98565b9150612f6482612f25565b602082019050919050565b5f6020820190508181035f830152612f8681612f4d565b9050919050565b5f8154612f998161214a565b612fa38186611d98565b9450600182165f8114612fbd5760018114612fd357613005565b60ff198316865281151560200286019350613005565b612fdc8561217a565b5f5b83811015612ffd57815481890152600182019150602081019050612fde565b808801955050505b50505092915050565b5f60a0820190506130215f83018861199e565b61302e6020830187611b40565b61303b6040830186611c03565b613048606083018561199e565b818103608083015261305a8184612f8d565b9050969550505050505056fea2646970667358221220af513f09220da55cc6571d6bda3a8306e40323ed64532584ec3a962027690c1064736f6c634300081c0033",
					"opcodes": "PUSH1 0xA0 PUSH1 0x40 MSTORE CALLVALUE DUP1 ISZERO PUSH2 0xF JUMPI PUSH0 PUSH0 REVERT JUMPDEST POP PUSH1 0x40 MLOAD PUSH2 0x3669 CODESIZE SUB DUP1 PUSH2 0x3669 DUP4 CODECOPY DUP2 DUP2 ADD PUSH1 0x40 MSTORE DUP2 ADD SWAP1 PUSH2 0x31 SWAP2 SWAP1 PUSH2 0x43C JUMP JUMPDEST DUP1 PUSH1 0xFF AND DUP4 MLOAD LT ISZERO PUSH2 0x78 JUMPI PUSH1 0x40 MLOAD PUSH32 0x8C379A000000000000000000000000000000000000000000000000000000000 DUP2 MSTORE PUSH1 0x4 ADD PUSH2 0x6F SWAP1 PUSH2 0x502 JUMP JUMPDEST PUSH1 0x40 MLOAD DUP1 SWAP2 SUB SWAP1 REVERT JUMPDEST PUSH0 JUMPDEST DUP4 MLOAD DUP2 LT ISZERO PUSH2 0x1EE JUMPI PUSH0 DUP5 DUP3 DUP2 MLOAD DUP2 LT PUSH2 0x97 JUMPI PUSH2 0x96 PUSH2 0x520 JUMP JUMPDEST JUMPDEST PUSH1 0x20 MUL PUSH1 0x20 ADD ADD MLOAD SWAP1 POP PUSH1 0x5 PUSH0 DUP3 PUSH20 0xFFFFFFFFFFFFFFFFFFFFFFFFFFFFFFFFFFFFFFFF AND PUSH20 0xFFFFFFFFFFFFFFFFFFFFFFFFFFFFFFFFFFFFFFFF AND DUP2 MSTORE PUSH1 0x20 ADD SWAP1 DUP2 MSTORE PUSH1 0x20 ADD PUSH0 KECCAK256 PUSH0 SWAP1 SLOAD SWAP1 PUSH2 0x100 EXP SWAP1 DIV PUSH1 0xFF AND ISZERO PUSH2 0x12B JUMPI PUSH1 0x40 MLOAD PUSH32 0x8C379A000000000000000000000000000000000000000000000000000000000 DUP2 MSTORE PUSH1 0x4 ADD PUSH2 0x122 SWAP1 PUSH2 0x597 JUMP JUMPDEST PUSH1 0x40 MLOAD DUP1 SWAP2 SUB SWAP1 REVERT JUMPDEST PUSH1 0x1 PUSH1 0x5 PUSH0 DUP4 PUSH20 0xFFFFFFFFFFFFFFFFFFFFFFFFFFFFFFFFFFFFFFFF AND PUSH20 0xFFFFFFFFFFFFFFFFFFFFFFFFFFFFFFFFFFFFFFFF AND DUP2 MSTORE PUSH1 0x20 ADD SWAP1 DUP2 MSTORE PUSH1 0x20 ADD PUSH0 KECCAK256 PUSH0 PUSH2 0x100 EXP DUP2 SLOAD DUP2 PUSH1 0xFF MUL NOT AND SWAP1 DUP4 ISZERO ISZERO MUL OR SWAP1 SSTORE POP PUSH1 0x1 DUP2 SWAP1 DUP1 PUSH1 0x1 DUP2 SLOAD ADD DUP1 DUP3 SSTORE DUP1 SWAP2 POP POP PUSH1 0x1 SWAP1 SUB SWAP1 PUSH0 MSTORE PUSH1 0x20 PUSH0 KECCAK256 ADD PUSH0 SWAP1 SWAP2 SWAP1 SWAP2 SWAP1 SWAP2 PUSH2 0x100 EXP DUP2 SLOAD DUP2 PUSH20 0xFFFFFFFFFFFFFFFFFFFFFFFFFFFFFFFFFFFFFFFF MUL NOT AND SWAP1 DUP4 PUSH20 0xFFFFFFFFFFFFFFFFFFFFFFFFFFFFFFFFFFFFFFFF AND MUL OR SWAP1 SSTORE POP POP DUP1 DUP1 PUSH1 0x1 ADD SWAP2 POP POP PUSH2 0x7A JUMP JUMPDEST POP DUP2 PUSH1 0x80 DUP2 DUP2 MSTORE POP POP DUP1 PUSH0 PUSH0 PUSH2 0x100 EXP DUP2 SLOAD DUP2 PUSH1 0xFF MUL NOT AND SWAP1 DUP4 PUSH1 0xFF AND MUL OR SWAP1 SSTORE POP POP POP POP PUSH2 0x5B5 JUMP JUMPDEST PUSH0 PUSH1 0x40 MLOAD SWAP1 POP SWAP1 JUMP JUMPDEST PUSH0 PUSH0 REVERT JUMPDEST PUSH0 PUSH0 REVERT JUMPDEST PUSH0 PUSH0 REVERT JUMPDEST PUSH0 PUSH1 0x1F NOT PUSH1 0x1F DUP4 ADD AND SWAP1 POP SWAP2 SWAP1 POP JUMP JUMPDEST PUSH32 0x4E487B7100000000000000000000000000000000000000000000000000000000 PUSH0 MSTORE PUSH1 0x41 PUSH1 0x4 MSTORE PUSH1 0x24 PUSH0 REVERT JUMPDEST PUSH2 0x273 DUP3 PUSH2 0x22D JUMP JUMPDEST DUP2 ADD DUP2 DUP2 LT PUSH8 0xFFFFFFFFFFFFFFFF DUP3 GT OR ISZERO PUSH2 0x292 JUMPI PUSH2 0x291 PUSH2 0x23D JUMP JUMPDEST JUMPDEST DUP1 PUSH1 0x40 MSTORE POP POP POP JUMP JUMPDEST PUSH0 PUSH2 0x2A4 PUSH2 0x218 JUMP JUMPDEST SWAP1 POP PUSH2 0x2B0 DUP3 DUP3 PUSH2 0x26A JUMP JUMPDEST SWAP2 SWAP1 POP JUMP JUMPDEST PUSH0 PUSH8 0xFFFFFFFFFFFFFFFF DUP3 GT ISZERO PUSH2 0x2CF JUMPI PUSH2 0x2CE PUSH2 0x23D JUMP JUMPDEST JUMPDEST PUSH1 0x20 DUP3 MUL SWAP1 POP PUSH1 0x20 DUP2 ADD SWAP1 POP SWAP2 SWAP1 POP JUMP JUMPDEST PUSH0 PUSH0 REVERT JUMPDEST PUSH0 PUSH20 0xFFFFFFFFFFFFFFFFFFFFFFFFFFFFFFFFFFFFFFFF DUP3 AND SWAP1 POP SWAP2 SWAP1 POP JUMP JUMPDEST PUSH0 PUSH2 0x30D DUP3 PUSH2 0x2E4 JUMP JUMPDEST SWAP1 POP SWAP2 SWAP1 POP JUMP JUMPDEST PUSH2 0x31D DUP2 PUSH2 0x303 JUMP JUMPDEST DUP2 EQ PUSH2 0x327 JUMPI PUSH0 PUSH0 REVERT JUMPDEST POP JUMP JUMPDEST PUSH0 DUP2 MLOAD SWAP1 POP PUSH2 0x338 DUP2 PUSH2 0x314 JUMP JUMPDEST SWAP3 SWAP2 POP POP JUMP JUMPDEST PUSH0 PUSH2 0x350 PUSH2 0x34B DUP5 PUSH2 0x2B5 JUMP JUMPDEST PUSH2 0x29B JUMP JUMPDEST SWAP1 POP DUP1 DUP4 DUP3 MSTORE PUSH1 0x20 DUP3 ADD SWAP1 POP PUSH1 0x20 DUP5 MUL DUP4 ADD DUP6 DUP2 GT ISZERO PUSH2 0x373 JUMPI PUSH2 0x372 PUSH2 0x2E0 JUMP JUMPDEST JUMPDEST DUP4 JUMPDEST DUP2 DUP2 LT ISZERO PUSH2 0x39C JUMPI DUP1 PUSH2 0x388 DUP9 DUP3 PUSH2 0x32A JUMP JUMPDEST DUP5 MSTORE PUSH1 0x20 DUP5 ADD SWAP4 POP POP PUSH1 0x20 DUP2 ADD SWAP1 POP PUSH2 0x375 JUMP JUMPDEST POP POP POP SWAP4 SWAP3 POP POP POP JUMP JUMPDEST PUSH0 DUP3 PUSH1 0x1F DUP4 ADD SLT PUSH2 0x3BA JUMPI PUSH2 0x3B9 PUSH2 0x229 JUMP JUMPDEST JUMPDEST DUP2 MLOAD PUSH2 0x3CA DUP5 DUP3 PUSH1 0x20 DUP7 ADD PUSH2 0x33E JUMP JUMPDEST SWAP2 POP POP SWAP3 SWAP2 POP POP JUMP JUMPDEST PUSH0 DUP2 SWAP1 POP SWAP2 SWAP1 POP JUMP JUMPDEST PUSH2 0x3E5 DUP2 PUSH2 0x3D3 JUMP JUMPDEST DUP2 EQ PUSH2 0x3EF JUMPI PUSH0 PUSH0 REVERT JUMPDEST POP JUMP JUMPDEST PUSH0 DUP2 MLOAD SWAP1 POP PUSH2 0x400 DUP2 PUSH2 0x3DC JUMP JUMPDEST SWAP3 SWAP2 POP POP JUMP JUMPDEST PUSH0 PUSH1 0xFF DUP3 AND SWAP1 POP SWAP2 SWAP1 POP JUMP JUMPDEST PUSH2 0x41B DUP2 PUSH2 0x406 JUMP JUMPDEST DUP2 EQ PUSH2 0x425 JUMPI PUSH0 PUSH0 REVERT JUMPDEST POP JUMP JUMPDEST PUSH0 DUP2 MLOAD SWAP1 POP PUSH2 0x436 DUP2 PUSH2 0x412 JUMP JUMPDEST SWAP3 SWAP2 POP POP JUMP JUMPDEST PUSH0 PUSH0 PUSH0 PUSH1 0x60 DUP5 DUP7 SUB SLT ISZERO PUSH2 0x453 JUMPI PUSH2 0x452 PUSH2 0x221 JUMP JUMPDEST JUMPDEST PUSH0 DUP5 ADD MLOAD PUSH8 0xFFFFFFFFFFFFFFFF DUP2 GT ISZERO PUSH2 0x470 JUMPI PUSH2 0x46F PUSH2 0x225 JUMP JUMPDEST JUMPDEST PUSH2 0x47C DUP7 DUP3 DUP8 ADD PUSH2 0x3A6 JUMP JUMPDEST SWAP4 POP POP PUSH1 0x20 PUSH2 0x48D DUP7 DUP3 DUP8 ADD PUSH2 0x3F2 JUMP JUMPDEST SWAP3 POP POP PUSH1 0x40 PUSH2 0x49E DUP7 DUP3 DUP8 ADD PUSH2 0x428 JUMP JUMPDEST SWAP2 POP POP SWAP3 POP SWAP3 POP SWAP3 JUMP JUMPDEST PUSH0 DUP3 DUP3 MSTORE PUSH1 0x20 DUP3 ADD SWAP1 POP SWAP3 SWAP2 POP POP JUMP JUMPDEST PUSH32 0x4D696E696D756D2033206F776E65727300000000000000000000000000000000 PUSH0 DUP3 ADD MSTORE POP JUMP JUMPDEST PUSH0 PUSH2 0x4EC PUSH1 0x10 DUP4 PUSH2 0x4A8 JUMP JUMPDEST SWAP2 POP PUSH2 0x4F7 DUP3 PUSH2 0x4B8 JUMP JUMPDEST PUSH1 0x20 DUP3 ADD SWAP1 POP SWAP2 SWAP1 POP JUMP JUMPDEST PUSH0 PUSH1 0x20 DUP3 ADD SWAP1 POP DUP2 DUP2 SUB PUSH0 DUP4 ADD MSTORE PUSH2 0x519 DUP2 PUSH2 0x4E0 JUMP JUMPDEST SWAP1 POP SWAP2 SWAP1 POP JUMP JUMPDEST PUSH32 0x4E487B7100000000000000000000000000000000000000000000000000000000 PUSH0 MSTORE PUSH1 0x32 PUSH1 0x4 MSTORE PUSH1 0x24 PUSH0 REVERT JUMPDEST PUSH32 0x6475706C696361746564206F776E657200000000000000000000000000000000 PUSH0 DUP3 ADD MSTORE POP JUMP JUMPDEST PUSH0 PUSH2 0x581 PUSH1 0x10 DUP4 PUSH2 0x4A8 JUMP JUMPDEST SWAP2 POP PUSH2 0x58C DUP3 PUSH2 0x54D JUMP JUMPDEST PUSH1 0x20 DUP3 ADD SWAP1 POP SWAP2 SWAP1 POP JUMP JUMPDEST PUSH0 PUSH1 0x20 DUP3 ADD SWAP1 POP DUP2 DUP2 SUB PUSH0 DUP4 ADD MSTORE PUSH2 0x5AE DUP2 PUSH2 0x575 JUMP JUMPDEST SWAP1 POP SWAP2 SWAP1 POP JUMP JUMPDEST PUSH1 0x80 MLOAD PUSH2 0x309C PUSH2 0x5CD PUSH0 CODECOPY PUSH0 PUSH2 0x1381 ADD MSTORE PUSH2 0x309C PUSH0 RETURN INVALID PUSH1 0x80 PUSH1 0x40 MSTORE CALLVALUE DUP1 ISZERO PUSH2 0xF JUMPI PUSH0 PUSH0 REVERT JUMPDEST POP PUSH1 0x4 CALLDATASIZE LT PUSH2 0xA7 JUMPI PUSH0 CALLDATALOAD PUSH1 0xE0 SHR DUP1 PUSH4 0x414A6811 GT PUSH2 0x6F JUMPI DUP1 PUSH4 0x414A6811 EQ PUSH2 0x175 JUMPI DUP1 PUSH4 0x4898B157 EQ PUSH2 0x193 JUMPI DUP1 PUSH4 0x7065CB48 EQ PUSH2 0x1C8 JUMPI DUP1 PUSH4 0x797AF627 EQ PUSH2 0x1E4 JUMPI DUP1 PUSH4 0x9AC1636B EQ PUSH2 0x200 JUMPI DUP1 PUSH4 0xFE8492C3 EQ PUSH2 0x21C JUMPI PUSH2 0xA7 JUMP JUMPDEST DUP1 PUSH4 0x25E7C27 EQ PUSH2 0xAB JUMPI DUP1 PUSH4 0x753A692 EQ PUSH2 0xDB JUMPI DUP1 PUSH4 0xC4ECAB4 EQ PUSH2 0x10B JUMPI DUP1 PUSH4 0x193776F4 EQ PUSH2 0x13B JUMPI DUP1 PUSH4 0x3C7BF9AD EQ PUSH2 0x159 JUMPI JUMPDEST PUSH0 PUSH0 REVERT JUMPDEST PUSH2 0xC5 PUSH1 0x4 DUP1 CALLDATASIZE SUB DUP2 ADD SWAP1 PUSH2 0xC0 SWAP2 SWAP1 PUSH2 0x1943 JUMP JUMPDEST PUSH2 0x238 JUMP JUMPDEST PUSH1 0x40 MLOAD PUSH2 0xD2 SWAP2 SWAP1 PUSH2 0x19AD JUMP JUMPDEST PUSH1 0x40 MLOAD DUP1 SWAP2 SUB SWAP1 RETURN JUMPDEST PUSH2 0xF5 PUSH1 0x4 DUP1 CALLDATASIZE SUB DUP2 ADD SWAP1 PUSH2 0xF0 SWAP2 SWAP1 PUSH2 0x1AA6 JUMP JUMPDEST PUSH2 0x273 JUMP JUMPDEST PUSH1 0x40 MLOAD PUSH2 0x102 SWAP2 SWAP1 PUSH2 0x1B4F JUMP JUMPDEST PUSH1 0x40 MLOAD DUP1 SWAP2 SUB SWAP1 RETURN JUMPDEST PUSH2 0x125 PUSH1 0x4 DUP1 CALLDATASIZE SUB DUP2 ADD SWAP1 PUSH2 0x120 SWAP2 SWAP1 PUSH2 0x1B92 JUMP JUMPDEST PUSH2 0x6AF JUMP JUMPDEST PUSH1 0x40 MLOAD PUSH2 0x132 SWAP2 SWAP1 PUSH2 0x1BEA JUMP JUMPDEST PUSH1 0x40 MLOAD DUP1 SWAP2 SUB SWAP1 RETURN JUMPDEST PUSH2 0x143 PUSH2 0x6D9 JUMP JUMPDEST PUSH1 0x40 MLOAD PUSH2 0x150 SWAP2 SWAP1 PUSH2 0x1C12 JUMP JUMPDEST PUSH1 0x40 MLOAD DUP1 SWAP2 SUB SWAP1 RETURN JUMPDEST PUSH2 0x173 PUSH1 0x4 DUP1 CALLDATASIZE SUB DUP2 ADD SWAP1 PUSH2 0x16E SWAP2 SWAP1 PUSH2 0x1C61 JUMP JUMPDEST PUSH2 0x6F0 JUMP JUMPDEST STOP JUMPDEST PUSH2 0x17D PUSH2 0x845 JUMP JUMPDEST PUSH1 0x40 MLOAD PUSH2 0x18A SWAP2 SWAP1 PUSH2 0x1D43 JUMP JUMPDEST PUSH1 0x40 MLOAD DUP1 SWAP2 SUB SWAP1 RETURN JUMPDEST PUSH2 0x1AD PUSH1 0x4 DUP1 CALLDATASIZE SUB DUP2 ADD SWAP1 PUSH2 0x1A8 SWAP2 SWAP1 PUSH2 0x1D63 JUMP JUMPDEST PUSH2 0x8D0 JUMP JUMPDEST PUSH1 0x40 MLOAD PUSH2 0x1BF SWAP7 SWAP6 SWAP5 SWAP4 SWAP3 SWAP2 SWAP1 PUSH2 0x1E50 JUMP JUMPDEST PUSH1 0x40 MLOAD DUP1 SWAP2 SUB SWAP1 RETURN JUMPDEST PUSH2 0x1E2 PUSH1 0x4 DUP1 CALLDATASIZE SUB DUP2 ADD SWAP1 PUSH2 0x1DD SWAP2 SWAP1 PUSH2 0x1EBD JUMP JUMPDEST PUSH2 0xA33 JUMP JUMPDEST STOP JUMPDEST PUSH2 0x1FE PUSH1 0x4 DUP1 CALLDATASIZE SUB DUP2 ADD SWAP1 PUSH2 0x1F9 SWAP2 SWAP1 PUSH2 0x1D63 JUMP JUMPDEST PUSH2 0xBC7 JUMP JUMPDEST STOP JUMPDEST PUSH2 0x21A PUSH1 0x4 DUP1 CALLDATASIZE SUB DUP2 ADD SWAP1 PUSH2 0x215 SWAP2 SWAP1 PUSH2 0x1D63 JUMP JUMPDEST PUSH2 0xE00 JUMP JUMPDEST STOP JUMPDEST PUSH2 0x236 PUSH1 0x4 DUP1 CALLDATASIZE SUB DUP2 ADD SWAP1 PUSH2 0x231 SWAP2 SWAP1 PUSH2 0x1943 JUMP JUMPDEST PUSH2 0xFCA JUMP JUMPDEST STOP JUMPDEST PUSH1 0x1 DUP2 DUP2 SLOAD DUP2 LT PUSH2 0x247 JUMPI PUSH0 DUP1 REVERT JUMPDEST SWAP1 PUSH0 MSTORE PUSH1 0x20 PUSH0 KECCAK256 ADD PUSH0 SWAP2 POP SLOAD SWAP1 PUSH2 0x100 EXP SWAP1 DIV PUSH20 0xFFFFFFFFFFFFFFFFFFFFFFFFFFFFFFFFFFFFFFFF AND DUP2 JUMP JUMPDEST PUSH0 PUSH1 0x5 PUSH0 CALLER PUSH20 0xFFFFFFFFFFFFFFFFFFFFFFFFFFFFFFFFFFFFFFFF AND PUSH20 0xFFFFFFFFFFFFFFFFFFFFFFFFFFFFFFFFFFFFFFFF AND DUP2 MSTORE PUSH1 0x20 ADD SWAP1 DUP2 MSTORE PUSH1 0x20 ADD PUSH0 KECCAK256 PUSH0 SWAP1 SLOAD SWAP1 PUSH2 0x100 EXP SWAP1 DIV PUSH1 0xFF AND PUSH2 0x2FD JUMPI PUSH1 0x40 MLOAD PUSH32 0x8C379A000000000000000000000000000000000000000000000000000000000 DUP2 MSTORE PUSH1 0x4 ADD PUSH2 0x2F4 SWAP1 PUSH2 0x1F32 JUMP JUMPDEST PUSH1 0x40 MLOAD DUP1 SWAP2 SUB SWAP1 REVERT JUMPDEST PUSH0 PUSH20 0xFFFFFFFFFFFFFFFFFFFFFFFFFFFFFFFFFFFFFFFF AND DUP5 PUSH20 0xFFFFFFFFFFFFFFFFFFFFFFFFFFFFFFFFFFFFFFFF AND SUB PUSH2 0x36B JUMPI PUSH1 0x40 MLOAD PUSH32 0x8C379A000000000000000000000000000000000000000000000000000000000 DUP2 MSTORE PUSH1 0x4 ADD PUSH2 0x362 SWAP1 PUSH2 0x1F9A JUMP JUMPDEST PUSH1 0x40 MLOAD DUP1 SWAP2 SUB SWAP1 REVERT JUMPDEST PUSH0 DUP7 DUP7 SWAP1 POP GT PUSH2 0x3B0 JUMPI PUSH1 0x40 MLOAD PUSH32 0x8C379A000000000000000000000000000000000000000000000000000000000 DUP2 MSTORE PUSH1 0x4 ADD PUSH2 0x3A7 SWAP1 PUSH2 0x2002 JUMP JUMPDEST PUSH1 0x40 MLOAD DUP1 SWAP2 SUB SWAP1 REVERT JUMPDEST PUSH0 DUP4 DUP4 SWAP1 POP GT PUSH2 0x3F5 JUMPI PUSH1 0x40 MLOAD PUSH32 0x8C379A000000000000000000000000000000000000000000000000000000000 DUP2 MSTORE PUSH1 0x4 ADD PUSH2 0x3EC SWAP1 PUSH2 0x206A JUMP JUMPDEST PUSH1 0x40 MLOAD DUP1 SWAP2 SUB SWAP1 REVERT JUMPDEST PUSH0 PUSH2 0x404 DUP8 DUP8 DUP8 DUP8 DUP8 TIMESTAMP PUSH2 0x12CA JUMP JUMPDEST SWAP1 POP PUSH1 0x3 PUSH0 DUP3 DUP2 MSTORE PUSH1 0x20 ADD SWAP1 DUP2 MSTORE PUSH1 0x20 ADD PUSH0 KECCAK256 PUSH0 SWAP1 SLOAD SWAP1 PUSH2 0x100 EXP SWAP1 DIV PUSH1 0xFF AND ISZERO PUSH2 0x464 JUMPI PUSH1 0x40 MLOAD PUSH32 0x8C379A000000000000000000000000000000000000000000000000000000000 DUP2 MSTORE PUSH1 0x4 ADD PUSH2 0x45B SWAP1 PUSH2 0x20D2 JUMP JUMPDEST PUSH1 0x40 MLOAD DUP1 SWAP2 SUB SWAP1 REVERT JUMPDEST PUSH1 0x1 PUSH1 0x3 PUSH0 DUP4 DUP2 MSTORE PUSH1 0x20 ADD SWAP1 DUP2 MSTORE PUSH1 0x20 ADD PUSH0 KECCAK256 PUSH0 PUSH2 0x100 EXP DUP2 SLOAD DUP2 PUSH1 0xFF MUL NOT AND SWAP1 DUP4 ISZERO ISZERO MUL OR SWAP1 SSTORE POP PUSH1 0x1 PUSH1 0x4 PUSH0 DUP4 DUP2 MSTORE PUSH1 0x20 ADD SWAP1 DUP2 MSTORE PUSH1 0x20 ADD PUSH0 KECCAK256 PUSH0 CALLER PUSH20 0xFFFFFFFFFFFFFFFFFFFFFFFFFFFFFFFFFFFFFFFF AND PUSH20 0xFFFFFFFFFFFFFFFFFFFFFFFFFFFFFFFFFFFFFFFF AND DUP2 MSTORE PUSH1 0x20 ADD SWAP1 DUP2 MSTORE PUSH1 0x20 ADD PUSH0 KECCAK256 PUSH0 PUSH2 0x100 EXP DUP2 SLOAD DUP2 PUSH1 0xFF MUL NOT AND SWAP1 DUP4 ISZERO ISZERO MUL OR SWAP1 SSTORE POP PUSH1 0x40 MLOAD DUP1 PUSH1 0xC0 ADD PUSH1 0x40 MSTORE DUP1 DUP3 DUP2 MSTORE PUSH1 0x20 ADD DUP7 PUSH20 0xFFFFFFFFFFFFFFFFFFFFFFFFFFFFFFFFFFFFFFFF AND DUP2 MSTORE PUSH1 0x20 ADD DUP9 DUP9 DUP1 DUP1 PUSH1 0x1F ADD PUSH1 0x20 DUP1 SWAP2 DIV MUL PUSH1 0x20 ADD PUSH1 0x40 MLOAD SWAP1 DUP2 ADD PUSH1 0x40 MSTORE DUP1 SWAP4 SWAP3 SWAP2 SWAP1 DUP2 DUP2 MSTORE PUSH1 0x20 ADD DUP4 DUP4 DUP1 DUP3 DUP5 CALLDATACOPY PUSH0 DUP2 DUP5 ADD MSTORE PUSH1 0x1F NOT PUSH1 0x1F DUP3 ADD AND SWAP1 POP DUP1 DUP4 ADD SWAP3 POP POP POP POP POP POP POP DUP2 MSTORE PUSH1 0x20 ADD DUP6 DUP6 DUP1 DUP1 PUSH1 0x1F ADD PUSH1 0x20 DUP1 SWAP2 DIV MUL PUSH1 0x20 ADD PUSH1 0x40 MLOAD SWAP1 DUP2 ADD PUSH1 0x40 MSTORE DUP1 SWAP4 SWAP3 SWAP2 SWAP1 DUP2 DUP2 MSTORE PUSH1 0x20 ADD DUP4 DUP4 DUP1 DUP3 DUP5 CALLDATACOPY PUSH0 DUP2 DUP5 ADD MSTORE PUSH1 0x1F NOT PUSH1 0x1F DUP3 ADD AND SWAP1 POP DUP1 DUP4 ADD SWAP3 POP POP POP POP POP POP POP DUP2 MSTORE PUSH1 0x20 ADD TIMESTAMP DUP2 MSTORE PUSH1 0x20 ADD PUSH1 0x1 DUP2 MSTORE POP PUSH1 0x2 PUSH0 DUP4 DUP2 MSTORE PUSH1 0x20 ADD SWAP1 DUP2 MSTORE PUSH1 0x20 ADD PUSH0 KECCAK256 PUSH0 DUP3 ADD MLOAD DUP2 PUSH0 ADD SSTORE PUSH1 0x20 DUP3 ADD MLOAD DUP2 PUSH1 0x1 ADD PUSH0 PUSH2 0x100 EXP DUP2 SLOAD DUP2 PUSH20 0xFFFFFFFFFFFFFFFFFFFFFFFFFFFFFFFFFFFFFFFF MUL NOT AND SWAP1 DUP4 PUSH20 0xFFFFFFFFFFFFFFFFFFFFFFFFFFFFFFFFFFFFFFFF AND MUL OR SWAP1 SSTORE POP PUSH1 0x40 DUP3 ADD MLOAD DUP2 PUSH1 0x2 ADD SWAP1 DUP2 PUSH2 0x62F SWAP2 SWAP1 PUSH2 0x231A JUMP JUMPDEST POP PUSH1 0x60 DUP3 ADD MLOAD DUP2 PUSH1 0x3 ADD SWAP1 DUP2 PUSH2 0x645 SWAP2 SWAP1 PUSH2 0x2441 JUMP JUMPDEST POP PUSH1 0x80 DUP3 ADD MLOAD DUP2 PUSH1 0x4 ADD SSTORE PUSH1 0xA0 DUP3 ADD MLOAD DUP2 PUSH1 0x5 ADD SSTORE SWAP1 POP POP PUSH32 0x9EBFDC2F8D091A5A9C70CCF8288D6521EED7103F00EDEA478DB417AF66BBFD17 CALLER DUP7 DUP10 DUP10 DUP9 DUP9 TIMESTAMP DUP9 PUSH1 0x40 MLOAD PUSH2 0x69A SWAP9 SWAP8 SWAP7 SWAP6 SWAP5 SWAP4 SWAP3 SWAP2 SWAP1 PUSH2 0x2576 JUMP JUMPDEST PUSH1 0x40 MLOAD DUP1 SWAP2 SUB SWAP1 LOG1 DUP1 SWAP2 POP POP SWAP6 SWAP5 POP POP POP POP POP JUMP JUMPDEST PUSH1 0x4 PUSH1 0x20 MSTORE DUP2 PUSH0 MSTORE PUSH1 0x40 PUSH0 KECCAK256 PUSH1 0x20 MSTORE DUP1 PUSH0 MSTORE PUSH1 0x40 PUSH0 KECCAK256 PUSH0 SWAP2 POP SWAP2 POP SWAP1 SLOAD SWAP1 PUSH2 0x100 EXP SWAP1 DIV PUSH1 0xFF AND DUP2 JUMP JUMPDEST PUSH0 PUSH0 PUSH0 SWAP1 SLOAD SWAP1 PUSH2 0x100 EXP SWAP1 DIV PUSH1 0xFF AND PUSH1 0xFF AND SWAP1 POP SWAP1 JUMP JUMPDEST ADDRESS PUSH20 0xFFFFFFFFFFFFFFFFFFFFFFFFFFFFFFFFFFFFFFFF AND CALLER PUSH20 0xFFFFFFFFFFFFFFFFFFFFFFFFFFFFFFFFFFFFFFFF AND EQ PUSH2 0x75E JUMPI PUSH1 0x40 MLOAD PUSH32 0x8C379A000000000000000000000000000000000000000000000000000000000 DUP2 MSTORE PUSH1 0x4 ADD PUSH2 0x755 SWAP1 PUSH2 0x2631 JUMP JUMPDEST PUSH1 0x40 MLOAD DUP1 SWAP2 SUB SWAP1 REVERT JUMPDEST DUP1 PUSH1 0xFF AND PUSH1 0x1 DUP1 SLOAD SWAP1 POP LT ISZERO PUSH2 0x7A9 JUMPI PUSH1 0x40 MLOAD PUSH32 0x8C379A000000000000000000000000000000000000000000000000000000000 DUP2 MSTORE PUSH1 0x4 ADD PUSH2 0x7A0 SWAP1 PUSH2 0x2699 JUMP JUMPDEST PUSH1 0x40 MLOAD DUP1 SWAP2 SUB SWAP1 REVERT JUMPDEST PUSH1 0x2 DUP2 PUSH1 0xFF AND LT ISZERO PUSH2 0x7F0 JUMPI PUSH1 0x40 MLOAD PUSH32 0x8C379A000000000000000000000000000000000000000000000000000000000 DUP2 MSTORE PUSH1 0x4 ADD PUSH2 0x7E7 SWAP1 PUSH2 0x2701 JUMP JUMPDEST PUSH1 0x40 MLOAD DUP1 SWAP2 SUB SWAP1 REVERT JUMPDEST DUP1 PUSH0 PUSH0 PUSH2 0x100 EXP DUP2 SLOAD DUP2 PUSH1 0xFF MUL NOT AND SWAP1 DUP4 PUSH1 0xFF AND MUL OR SWAP1 SSTORE POP PUSH32 0xF038AE2391DA98E6CC50292A29178F79383D45F4798EB3D2643B2151FE648287 NUMBER DUP3 PUSH1 0x40 MLOAD PUSH2 0x83A SWAP3 SWAP2 SWAP1 PUSH2 0x272E JUMP JUMPDEST PUSH1 0x40 MLOAD DUP1 SWAP2 SUB SWAP1 LOG1 POP JUMP JUMPDEST PUSH1 0x60 PUSH1 0x1 DUP1 SLOAD DUP1 PUSH1 0x20 MUL PUSH1 0x20 ADD PUSH1 0x40 MLOAD SWAP1 DUP2 ADD PUSH1 0x40 MSTORE DUP1 SWAP3 SWAP2 SWAP1 DUP2 DUP2 MSTORE PUSH1 0x20 ADD DUP3 DUP1 SLOAD DUP1 ISZERO PUSH2 0x8C6 JUMPI PUSH1 0x20 MUL DUP3 ADD SWAP2 SWAP1 PUSH0 MSTORE PUSH1 0x20 PUSH0 KECCAK256 SWAP1 JUMPDEST DUP2 PUSH0 SWAP1 SLOAD SWAP1 PUSH2 0x100 EXP SWAP1 DIV PUSH20 0xFFFFFFFFFFFFFFFFFFFFFFFFFFFFFFFFFFFFFFFF AND PUSH20 0xFFFFFFFFFFFFFFFFFFFFFFFFFFFFFFFFFFFFFFFF AND DUP2 MSTORE PUSH1 0x20 ADD SWAP1 PUSH1 0x1 ADD SWAP1 DUP1 DUP4 GT PUSH2 0x87D JUMPI JUMPDEST POP POP POP POP POP SWAP1 POP SWAP1 JUMP JUMPDEST PUSH1 0x2 PUSH1 0x20 MSTORE DUP1 PUSH0 MSTORE PUSH1 0x40 PUSH0 KECCAK256 PUSH0 SWAP2 POP SWAP1 POP DUP1 PUSH0 ADD SLOAD SWAP1 DUP1 PUSH1 0x1 ADD PUSH0 SWAP1 SLOAD SWAP1 PUSH2 0x100 EXP SWAP1 DIV PUSH20 0xFFFFFFFFFFFFFFFFFFFFFFFFFFFFFFFFFFFFFFFF AND SWAP1 DUP1 PUSH1 0x2 ADD DUP1 SLOAD PUSH2 0x91A SWAP1 PUSH2 0x214A JUMP JUMPDEST DUP1 PUSH1 0x1F ADD PUSH1 0x20 DUP1 SWAP2 DIV MUL PUSH1 0x20 ADD PUSH1 0x40 MLOAD SWAP1 DUP2 ADD PUSH1 0x40 MSTORE DUP1 SWAP3 SWAP2 SWAP1 DUP2 DUP2 MSTORE PUSH1 0x20 ADD DUP3 DUP1 SLOAD PUSH2 0x946 SWAP1 PUSH2 0x214A JUMP JUMPDEST DUP1 ISZERO PUSH2 0x991 JUMPI DUP1 PUSH1 0x1F LT PUSH2 0x968 JUMPI PUSH2 0x100 DUP1 DUP4 SLOAD DIV MUL DUP4 MSTORE SWAP2 PUSH1 0x20 ADD SWAP2 PUSH2 0x991 JUMP JUMPDEST DUP3 ADD SWAP2 SWAP1 PUSH0 MSTORE PUSH1 0x20 PUSH0 KECCAK256 SWAP1 JUMPDEST DUP2 SLOAD DUP2 MSTORE SWAP1 PUSH1 0x1 ADD SWAP1 PUSH1 0x20 ADD DUP1 DUP4 GT PUSH2 0x974 JUMPI DUP3 SWAP1 SUB PUSH1 0x1F AND DUP3 ADD SWAP2 JUMPDEST POP POP POP POP POP SWAP1 DUP1 PUSH1 0x3 ADD DUP1 SLOAD PUSH2 0x9A6 SWAP1 PUSH2 0x214A JUMP JUMPDEST DUP1 PUSH1 0x1F ADD PUSH1 0x20 DUP1 SWAP2 DIV MUL PUSH1 0x20 ADD PUSH1 0x40 MLOAD SWAP1 DUP2 ADD PUSH1 0x40 MSTORE DUP1 SWAP3 SWAP2 SWAP1 DUP2 DUP2 MSTORE PUSH1 0x20 ADD DUP3 DUP1 SLOAD PUSH2 0x9D2 SWAP1 PUSH2 0x214A JUMP JUMPDEST DUP1 ISZERO PUSH2 0xA1D JUMPI DUP1 PUSH1 0x1F LT PUSH2 0x9F4 JUMPI PUSH2 0x100 DUP1 DUP4 SLOAD DIV MUL DUP4 MSTORE SWAP2 PUSH1 0x20 ADD SWAP2 PUSH2 0xA1D JUMP JUMPDEST DUP3 ADD SWAP2 SWAP1 PUSH0 MSTORE PUSH1 0x20 PUSH0 KECCAK256 SWAP1 JUMPDEST DUP2 SLOAD DUP2 MSTORE SWAP1 PUSH1 0x1 ADD SWAP1 PUSH1 0x20 ADD DUP1 DUP4 GT PUSH2 0xA00 JUMPI DUP3 SWAP1 SUB PUSH1 0x1F AND DUP3 ADD SWAP2 JUMPDEST POP POP POP POP POP SWAP1 DUP1 PUSH1 0x4 ADD SLOAD SWAP1 DUP1 PUSH1 0x5 ADD SLOAD SWAP1 POP DUP7 JUMP JUMPDEST ADDRESS PUSH20 0xFFFFFFFFFFFFFFFFFFFFFFFFFFFFFFFFFFFFFFFF AND CALLER PUSH20 0xFFFFFFFFFFFFFFFFFFFFFFFFFFFFFFFFFFFFFFFF AND EQ PUSH2 0xAA1 JUMPI PUSH1 0x40 MLOAD PUSH32 0x8C379A000000000000000000000000000000000000000000000000000000000 DUP2 MSTORE PUSH1 0x4 ADD PUSH2 0xA98 SWAP1 PUSH2 0x2631 JUMP JUMPDEST PUSH1 0x40 MLOAD DUP1 SWAP2 SUB SWAP1 REVERT JUMPDEST PUSH0 PUSH20 0xFFFFFFFFFFFFFFFFFFFFFFFFFFFFFFFFFFFFFFFF AND DUP2 PUSH20 0xFFFFFFFFFFFFFFFFFFFFFFFFFFFFFFFFFFFFFFFF AND SUB PUSH2 0xB0F JUMPI PUSH1 0x40 MLOAD PUSH32 0x8C379A000000000000000000000000000000000000000000000000000000000 DUP2 MSTORE PUSH1 0x4 ADD PUSH2 0xB06 SWAP1 PUSH2 0x279F JUMP JUMPDEST PUSH1 0x40 MLOAD DUP1 SWAP2 SUB SWAP1 REVERT JUMPDEST PUSH1 0x1 PUSH1 0x5 PUSH0 DUP4 PUSH20 0xFFFFFFFFFFFFFFFFFFFFFFFFFFFFFFFFFFFFFFFF AND PUSH20 0xFFFFFFFFFFFFFFFFFFFFFFFFFFFFFFFFFFFFFFFF AND DUP2 MSTORE PUSH1 0x20 ADD SWAP1 DUP2 MSTORE PUSH1 0x20 ADD PUSH0 KECCAK256 PUSH0 PUSH2 0x100 EXP DUP2 SLOAD DUP2 PUSH1 0xFF MUL NOT AND SWAP1 DUP4 ISZERO ISZERO MUL OR SWAP1 SSTORE POP PUSH1 0x1 DUP2 SWAP1 DUP1 PUSH1 0x1 DUP2 SLOAD ADD DUP1 DUP3 SSTORE DUP1 SWAP2 POP POP PUSH1 0x1 SWAP1 SUB SWAP1 PUSH0 MSTORE PUSH1 0x20 PUSH0 KECCAK256 ADD PUSH0 SWAP1 SWAP2 SWAP1 SWAP2 SWAP1 SWAP2 PUSH2 0x100 EXP DUP2 SLOAD DUP2 PUSH20 0xFFFFFFFFFFFFFFFFFFFFFFFFFFFFFFFFFFFFFFFF MUL NOT AND SWAP1 DUP4 PUSH20 0xFFFFFFFFFFFFFFFFFFFFFFFFFFFFFFFFFFFFFFFF AND MUL OR SWAP1 SSTORE POP POP JUMP JUMPDEST PUSH1 0x5 PUSH0 CALLER PUSH20 0xFFFFFFFFFFFFFFFFFFFFFFFFFFFFFFFFFFFFFFFF AND PUSH20 0xFFFFFFFFFFFFFFFFFFFFFFFFFFFFFFFFFFFFFFFF AND DUP2 MSTORE PUSH1 0x20 ADD SWAP1 DUP2 MSTORE PUSH1 0x20 ADD PUSH0 KECCAK256 PUSH0 SWAP1 SLOAD SWAP1 PUSH2 0x100 EXP SWAP1 DIV PUSH1 0xFF AND PUSH2 0xC50 JUMPI PUSH1 0x40 MLOAD PUSH32 0x8C379A000000000000000000000000000000000000000000000000000000000 DUP2 MSTORE PUSH1 0x4 ADD PUSH2 0xC47 SWAP1 PUSH2 0x1F32 JUMP JUMPDEST PUSH1 0x40 MLOAD DUP1 SWAP2 SUB SWAP1 REVERT JUMPDEST PUSH1 0x3 PUSH0 DUP3 DUP2 MSTORE PUSH1 0x20 ADD SWAP1 DUP2 MSTORE PUSH1 0x20 ADD PUSH0 KECCAK256 PUSH0 SWAP1 SLOAD SWAP1 PUSH2 0x100 EXP SWAP1 DIV PUSH1 0xFF AND PUSH2 0xCAD JUMPI PUSH1 0x40 MLOAD PUSH32 0x8C379A000000000000000000000000000000000000000000000000000000000 DUP2 MSTORE PUSH1 0x4 ADD PUSH2 0xCA4 SWAP1 PUSH2 0x2807 JUMP JUMPDEST PUSH1 0x40 MLOAD DUP1 SWAP2 SUB SWAP1 REVERT JUMPDEST PUSH1 0x4 PUSH0 DUP3 DUP2 MSTORE PUSH1 0x20 ADD SWAP1 DUP2 MSTORE PUSH1 0x20 ADD PUSH0 KECCAK256 PUSH0 CALLER PUSH20 0xFFFFFFFFFFFFFFFFFFFFFFFFFFFFFFFFFFFFFFFF AND PUSH20 0xFFFFFFFFFFFFFFFFFFFFFFFFFFFFFFFFFFFFFFFF AND DUP2 MSTORE PUSH1 0x20 ADD SWAP1 DUP2 MSTORE PUSH1 0x20 ADD PUSH0 KECCAK256 PUSH0 SWAP1 SLOAD SWAP1 PUSH2 0x100 EXP SWAP1 DIV PUSH1 0xFF AND ISZERO PUSH2 0xD46 JUMPI PUSH1 0x40 MLOAD PUSH32 0x8C379A000000000000000000000000000000000000000000000000000000000 DUP2 MSTORE PUSH1 0x4 ADD PUSH2 0xD3D SWAP1 PUSH2 0x286F JUMP JUMPDEST PUSH1 0x40 MLOAD DUP1 SWAP2 SUB SWAP1 REVERT JUMPDEST PUSH0 PUSH1 0x2 PUSH0 DUP4 DUP2 MSTORE PUSH1 0x20 ADD SWAP1 DUP2 MSTORE PUSH1 0x20 ADD PUSH0 KECCAK256 SWAP1 POP DUP1 PUSH1 0x5 ADD PUSH0 DUP2 SLOAD DUP1 SWAP3 SWAP2 SWAP1 PUSH2 0xD6E SWAP1 PUSH2 0x28BA JUMP JUMPDEST SWAP2 SWAP1 POP SSTORE POP PUSH1 0x1 PUSH1 0x4 PUSH0 DUP5 DUP2 MSTORE PUSH1 0x20 ADD SWAP1 DUP2 MSTORE PUSH1 0x20 ADD PUSH0 KECCAK256 PUSH0 CALLER PUSH20 0xFFFFFFFFFFFFFFFFFFFFFFFFFFFFFFFFFFFFFFFF AND PUSH20 0xFFFFFFFFFFFFFFFFFFFFFFFFFFFFFFFFFFFFFFFF AND DUP2 MSTORE PUSH1 0x20 ADD SWAP1 DUP2 MSTORE PUSH1 0x20 ADD PUSH0 KECCAK256 PUSH0 PUSH2 0x100 EXP DUP2 SLOAD DUP2 PUSH1 0xFF MUL NOT AND SWAP1 DUP4 ISZERO ISZERO MUL OR SWAP1 SSTORE POP PUSH0 PUSH0 SWAP1 SLOAD SWAP1 PUSH2 0x100 EXP SWAP1 DIV PUSH1 0xFF AND PUSH1 0xFF AND DUP2 PUSH1 0x5 ADD SLOAD LT PUSH2 0xDFC JUMPI PUSH2 0xDFB DUP3 PUSH2 0x130D JUMP JUMPDEST JUMPDEST POP POP JUMP JUMPDEST PUSH1 0x5 PUSH0 CALLER PUSH20 0xFFFFFFFFFFFFFFFFFFFFFFFFFFFFFFFFFFFFFFFF AND PUSH20 0xFFFFFFFFFFFFFFFFFFFFFFFFFFFFFFFFFFFFFFFF AND DUP2 MSTORE PUSH1 0x20 ADD SWAP1 DUP2 MSTORE PUSH1 0x20 ADD PUSH0 KECCAK256 PUSH0 SWAP1 SLOAD SWAP1 PUSH2 0x100 EXP SWAP1 DIV PUSH1 0xFF AND PUSH2 0xE89 JUMPI PUSH1 0x40 MLOAD PUSH32 0x8C379A000000000000000000000000000000000000000000000000000000000 DUP2 MSTORE PUSH1 0x4 ADD PUSH2 0xE80 SWAP1 PUSH2 0x1F32 JUMP JUMPDEST PUSH1 0x40 MLOAD DUP1 SWAP2 SUB SWAP1 REVERT JUMPDEST PUSH1 0x4 PUSH0 DUP3 DUP2 MSTORE PUSH1 0x20 ADD SWAP1 DUP2 MSTORE PUSH1 0x20 ADD PUSH0 KECCAK256 PUSH0 CALLER PUSH20 0xFFFFFFFFFFFFFFFFFFFFFFFFFFFFFFFFFFFFFFFF AND PUSH20 0xFFFFFFFFFFFFFFFFFFFFFFFFFFFFFFFFFFFFFFFF AND DUP2 MSTORE PUSH1 0x20 ADD SWAP1 DUP2 MSTORE PUSH1 0x20 ADD PUSH0 KECCAK256 PUSH0 SWAP1 SLOAD SWAP1 PUSH2 0x100 EXP SWAP1 DIV PUSH1 0xFF AND PUSH2 0xF21 JUMPI PUSH1 0x40 MLOAD PUSH32 0x8C379A000000000000000000000000000000000000000000000000000000000 DUP2 MSTORE PUSH1 0x4 ADD PUSH2 0xF18 SWAP1 PUSH2 0x294B JUMP JUMPDEST PUSH1 0x40 MLOAD DUP1 SWAP2 SUB SWAP1 REVERT JUMPDEST PUSH0 PUSH1 0x2 PUSH0 DUP4 DUP2 MSTORE PUSH1 0x20 ADD SWAP1 DUP2 MSTORE PUSH1 0x20 ADD PUSH0 KECCAK256 SWAP1 POP DUP1 PUSH1 0x5 ADD PUSH0 DUP2 SLOAD DUP1 SWAP3 SWAP2 SWAP1 PUSH2 0xF49 SWAP1 PUSH2 0x2969 JUMP JUMPDEST SWAP2 SWAP1 POP SSTORE POP PUSH0 PUSH1 0x4 PUSH0 DUP5 DUP2 MSTORE PUSH1 0x20 ADD SWAP1 DUP2 MSTORE PUSH1 0x20 ADD PUSH0 KECCAK256 PUSH0 CALLER PUSH20 0xFFFFFFFFFFFFFFFFFFFFFFFFFFFFFFFFFFFFFFFF AND PUSH20 0xFFFFFFFFFFFFFFFFFFFFFFFFFFFFFFFFFFFFFFFF AND DUP2 MSTORE PUSH1 0x20 ADD SWAP1 DUP2 MSTORE PUSH1 0x20 ADD PUSH0 KECCAK256 PUSH0 PUSH2 0x100 EXP DUP2 SLOAD DUP2 PUSH1 0xFF MUL NOT AND SWAP1 DUP4 ISZERO ISZERO MUL OR SWAP1 SSTORE POP PUSH0 DUP2 PUSH1 0x5 ADD SLOAD SUB PUSH2 0xFC6 JUMPI PUSH2 0xFC5 DUP3 PUSH2 0x1695 JUMP JUMPDEST JUMPDEST POP POP JUMP JUMPDEST ADDRESS PUSH20 0xFFFFFFFFFFFFFFFFFFFFFFFFFFFFFFFFFFFFFFFF AND CALLER PUSH20 0xFFFFFFFFFFFFFFFFFFFFFFFFFFFFFFFFFFFFFFFF AND EQ PUSH2 0x1038 JUMPI PUSH1 0x40 MLOAD PUSH32 0x8C379A000000000000000000000000000000000000000000000000000000000 DUP2 MSTORE PUSH1 0x4 ADD PUSH2 0x102F SWAP1 PUSH2 0x2631 JUMP JUMPDEST PUSH1 0x40 MLOAD DUP1 SWAP2 SUB SWAP1 REVERT JUMPDEST PUSH0 PUSH1 0x1 DUP1 SLOAD SWAP1 POP SWAP1 POP DUP1 DUP3 GT ISZERO PUSH2 0x1084 JUMPI PUSH1 0x40 MLOAD PUSH32 0x8C379A000000000000000000000000000000000000000000000000000000000 DUP2 MSTORE PUSH1 0x4 ADD PUSH2 0x107B SWAP1 PUSH2 0x2A00 JUMP JUMPDEST PUSH1 0x40 MLOAD DUP1 SWAP2 SUB SWAP1 REVERT JUMPDEST PUSH0 PUSH0 SWAP1 SLOAD SWAP1 PUSH2 0x100 EXP SWAP1 DIV PUSH1 0xFF AND PUSH1 0xFF AND PUSH1 0x1 DUP3 PUSH2 0x10A2 SWAP2 SWAP1 PUSH2 0x2A1E JUMP JUMPDEST LT ISZERO PUSH2 0x10E3 JUMPI PUSH1 0x40 MLOAD PUSH32 0x8C379A000000000000000000000000000000000000000000000000000000000 DUP2 MSTORE PUSH1 0x4 ADD PUSH2 0x10DA SWAP1 PUSH2 0x2A9B JUMP JUMPDEST PUSH1 0x40 MLOAD DUP1 SWAP2 SUB SWAP1 REVERT JUMPDEST PUSH0 PUSH1 0x5 PUSH0 PUSH1 0x1 DUP6 DUP2 SLOAD DUP2 LT PUSH2 0x10FB JUMPI PUSH2 0x10FA PUSH2 0x2AB9 JUMP JUMPDEST JUMPDEST SWAP1 PUSH0 MSTORE PUSH1 0x20 PUSH0 KECCAK256 ADD PUSH0 SWAP1 SLOAD SWAP1 PUSH2 0x100 EXP SWAP1 DIV PUSH20 0xFFFFFFFFFFFFFFFFFFFFFFFFFFFFFFFFFFFFFFFF AND PUSH20 0xFFFFFFFFFFFFFFFFFFFFFFFFFFFFFFFFFFFFFFFF AND PUSH20 0xFFFFFFFFFFFFFFFFFFFFFFFFFFFFFFFFFFFFFFFF AND DUP2 MSTORE PUSH1 0x20 ADD SWAP1 DUP2 MSTORE PUSH1 0x20 ADD PUSH0 KECCAK256 PUSH0 PUSH2 0x100 EXP DUP2 SLOAD DUP2 PUSH1 0xFF MUL NOT AND SWAP1 DUP4 ISZERO ISZERO MUL OR SWAP1 SSTORE POP PUSH0 DUP3 SWAP1 POP JUMPDEST PUSH1 0x1 DUP3 PUSH2 0x1184 SWAP2 SWAP1 PUSH2 0x2A1E JUMP JUMPDEST DUP2 LT ISZERO PUSH2 0x1238 JUMPI PUSH1 0x1 DUP1 DUP3 PUSH2 0x1199 SWAP2 SWAP1 PUSH2 0x2AE6 JUMP JUMPDEST DUP2 SLOAD DUP2 LT PUSH2 0x11AA JUMPI PUSH2 0x11A9 PUSH2 0x2AB9 JUMP JUMPDEST JUMPDEST SWAP1 PUSH0 MSTORE PUSH1 0x20 PUSH0 KECCAK256 ADD PUSH0 SWAP1 SLOAD SWAP1 PUSH2 0x100 EXP SWAP1 DIV PUSH20 0xFFFFFFFFFFFFFFFFFFFFFFFFFFFFFFFFFFFFFFFF AND PUSH1 0x1 DUP3 DUP2 SLOAD DUP2 LT PUSH2 0x11E6 JUMPI PUSH2 0x11E5 PUSH2 0x2AB9 JUMP JUMPDEST JUMPDEST SWAP1 PUSH0 MSTORE PUSH1 0x20 PUSH0 KECCAK256 ADD PUSH0 PUSH2 0x100 EXP DUP2 SLOAD DUP2 PUSH20 0xFFFFFFFFFFFFFFFFFFFFFFFFFFFFFFFFFFFFFFFF MUL NOT AND SWAP1 DUP4 PUSH20 0xFFFFFFFFFFFFFFFFFFFFFFFFFFFFFFFFFFFFFFFF AND MUL OR SWAP1 SSTORE POP DUP1 DUP1 PUSH1 0x1 ADD SWAP2 POP POP PUSH2 0x1177 JUMP JUMPDEST POP PUSH1 0x1 DUP1 DUP3 PUSH2 0x1247 SWAP2 SWAP1 PUSH2 0x2A1E JUMP JUMPDEST DUP2 SLOAD DUP2 LT PUSH2 0x1258 JUMPI PUSH2 0x1257 PUSH2 0x2AB9 JUMP JUMPDEST JUMPDEST SWAP1 PUSH0 MSTORE PUSH1 0x20 PUSH0 KECCAK256 ADD PUSH0 PUSH2 0x100 EXP DUP2 SLOAD SWAP1 PUSH20 0xFFFFFFFFFFFFFFFFFFFFFFFFFFFFFFFFFFFFFFFF MUL NOT AND SWAP1 SSTORE PUSH1 0x1 DUP1 SLOAD DUP1 PUSH2 0x1294 JUMPI PUSH2 0x1293 PUSH2 0x2B19 JUMP JUMPDEST JUMPDEST PUSH1 0x1 SWAP1 SUB DUP2 DUP2 SWAP1 PUSH0 MSTORE PUSH1 0x20 PUSH0 KECCAK256 ADD PUSH0 PUSH2 0x100 EXP DUP2 SLOAD SWAP1 PUSH20 0xFFFFFFFFFFFFFFFFFFFFFFFFFFFFFFFFFFFFFFFF MUL NOT AND SWAP1 SSTORE SWAP1 SSTORE POP POP JUMP JUMPDEST PUSH0 PUSH0 DUP8 DUP8 DUP8 DUP8 DUP8 DUP8 PUSH1 0x40 MLOAD PUSH1 0x20 ADD PUSH2 0x12E7 SWAP7 SWAP6 SWAP5 SWAP4 SWAP3 SWAP2 SWAP1 PUSH2 0x2B46 JUMP JUMPDEST PUSH1 0x40 MLOAD PUSH1 0x20 DUP2 DUP4 SUB SUB DUP2 MSTORE SWAP1 PUSH1 0x40 MSTORE DUP1 MLOAD SWAP1 PUSH1 0x20 ADD KECCAK256 SWAP1 POP DUP1 SWAP2 POP POP SWAP7 SWAP6 POP POP POP POP POP POP JUMP JUMPDEST PUSH0 PUSH1 0x2 PUSH0 DUP4 DUP2 MSTORE PUSH1 0x20 ADD SWAP1 DUP2 MSTORE PUSH1 0x20 ADD PUSH0 KECCAK256 SWAP1 POP PUSH1 0x3 PUSH0 DUP4 DUP2 MSTORE PUSH1 0x20 ADD SWAP1 DUP2 MSTORE PUSH1 0x20 ADD PUSH0 KECCAK256 PUSH0 SWAP1 SLOAD SWAP1 PUSH2 0x100 EXP SWAP1 DIV PUSH1 0xFF AND PUSH2 0x137E JUMPI PUSH1 0x40 MLOAD PUSH32 0x8C379A000000000000000000000000000000000000000000000000000000000 DUP2 MSTORE PUSH1 0x4 ADD PUSH2 0x1375 SWAP1 PUSH2 0x2BE5 JUMP JUMPDEST PUSH1 0x40 MLOAD DUP1 SWAP2 SUB SWAP1 REVERT JUMPDEST TIMESTAMP PUSH32 0x0 DUP3 PUSH1 0x4 ADD SLOAD PUSH2 0x13AF SWAP2 SWAP1 PUSH2 0x2AE6 JUMP JUMPDEST GT PUSH2 0x13EF JUMPI PUSH1 0x40 MLOAD PUSH32 0x8C379A000000000000000000000000000000000000000000000000000000000 DUP2 MSTORE PUSH1 0x4 ADD PUSH2 0x13E6 SWAP1 PUSH2 0x2C4D JUMP JUMPDEST PUSH1 0x40 MLOAD DUP1 SWAP2 SUB SWAP1 REVERT JUMPDEST DUP1 PUSH1 0x4 ADD SLOAD TIMESTAMP GT PUSH2 0x1435 JUMPI PUSH1 0x40 MLOAD PUSH32 0x8C379A000000000000000000000000000000000000000000000000000000000 DUP2 MSTORE PUSH1 0x4 ADD PUSH2 0x142C SWAP1 PUSH2 0x2CB5 JUMP JUMPDEST PUSH1 0x40 MLOAD DUP1 SWAP2 SUB SWAP1 REVERT JUMPDEST PUSH0 PUSH0 SWAP1 SLOAD SWAP1 PUSH2 0x100 EXP SWAP1 DIV PUSH1 0xFF AND PUSH1 0xFF AND DUP2 PUSH1 0x5 ADD SLOAD LT ISZERO PUSH2 0x148C JUMPI PUSH1 0x40 MLOAD PUSH32 0x8C379A000000000000000000000000000000000000000000000000000000000 DUP2 MSTORE PUSH1 0x4 ADD PUSH2 0x1483 SWAP1 PUSH2 0x2D1D JUMP JUMPDEST PUSH1 0x40 MLOAD DUP1 SWAP2 SUB SWAP1 REVERT JUMPDEST PUSH1 0x3 PUSH0 DUP4 DUP2 MSTORE PUSH1 0x20 ADD SWAP1 DUP2 MSTORE PUSH1 0x20 ADD PUSH0 KECCAK256 PUSH0 PUSH2 0x100 EXP DUP2 SLOAD SWAP1 PUSH1 0xFF MUL NOT AND SWAP1 SSTORE PUSH1 0x60 DUP2 PUSH1 0x2 ADD PUSH1 0x40 MLOAD PUSH2 0x14BF SWAP2 SWAP1 PUSH2 0x2DD7 JUMP JUMPDEST PUSH1 0x40 MLOAD DUP1 SWAP2 SUB SWAP1 KECCAK256 DUP3 PUSH1 0x3 ADD PUSH1 0x40 MLOAD PUSH1 0x20 ADD PUSH2 0x14DC SWAP3 SWAP2 SWAP1 PUSH2 0x2EB8 JUMP JUMPDEST PUSH1 0x40 MLOAD PUSH1 0x20 DUP2 DUP4 SUB SUB DUP2 MSTORE SWAP1 PUSH1 0x40 MSTORE SWAP1 POP PUSH0 DUP3 PUSH1 0x1 ADD PUSH0 SWAP1 SLOAD SWAP1 PUSH2 0x100 EXP SWAP1 DIV PUSH20 0xFFFFFFFFFFFFFFFFFFFFFFFFFFFFFFFFFFFFFFFF AND PUSH20 0xFFFFFFFFFFFFFFFFFFFFFFFFFFFFFFFFFFFFFFFF AND PUSH0 DUP4 PUSH1 0x40 MLOAD PUSH2 0x1537 SWAP2 SWAP1 PUSH2 0x2F0F JUMP JUMPDEST PUSH0 PUSH1 0x40 MLOAD DUP1 DUP4 SUB DUP2 DUP6 DUP8 GAS CALL SWAP3 POP POP POP RETURNDATASIZE DUP1 PUSH0 DUP2 EQ PUSH2 0x1571 JUMPI PUSH1 0x40 MLOAD SWAP2 POP PUSH1 0x1F NOT PUSH1 0x3F RETURNDATASIZE ADD AND DUP3 ADD PUSH1 0x40 MSTORE RETURNDATASIZE DUP3 MSTORE RETURNDATASIZE PUSH0 PUSH1 0x20 DUP5 ADD RETURNDATACOPY PUSH2 0x1576 JUMP JUMPDEST PUSH1 0x60 SWAP2 POP JUMPDEST POP POP SWAP1 POP DUP1 PUSH2 0x15BA JUMPI PUSH1 0x40 MLOAD PUSH32 0x8C379A000000000000000000000000000000000000000000000000000000000 DUP2 MSTORE PUSH1 0x4 ADD PUSH2 0x15B1 SWAP1 PUSH2 0x2F6F JUMP JUMPDEST PUSH1 0x40 MLOAD DUP1 SWAP2 SUB SWAP1 REVERT JUMPDEST PUSH32 0x9C7070454B027DADD42327B0E9874FD7D5F4D0B60FFB5E65B23FC530E91D992B CALLER DUP6 DUP6 PUSH1 0x4 ADD SLOAD DUP7 PUSH1 0x1 ADD PUSH0 SWAP1 SLOAD SWAP1 PUSH2 0x100 EXP SWAP1 DIV PUSH20 0xFFFFFFFFFFFFFFFFFFFFFFFFFFFFFFFFFFFFFFFF AND DUP8 PUSH1 0x2 ADD PUSH1 0x40 MLOAD PUSH2 0x161B SWAP6 SWAP5 SWAP4 SWAP3 SWAP2 SWAP1 PUSH2 0x300E JUMP JUMPDEST PUSH1 0x40 MLOAD DUP1 SWAP2 SUB SWAP1 LOG1 PUSH1 0x2 PUSH0 DUP6 DUP2 MSTORE PUSH1 0x20 ADD SWAP1 DUP2 MSTORE PUSH1 0x20 ADD PUSH0 KECCAK256 PUSH0 PUSH0 DUP3 ADD PUSH0 SWAP1 SSTORE PUSH1 0x1 DUP3 ADD PUSH0 PUSH2 0x100 EXP DUP2 SLOAD SWAP1 PUSH20 0xFFFFFFFFFFFFFFFFFFFFFFFFFFFFFFFFFFFFFFFF MUL NOT AND SWAP1 SSTORE PUSH1 0x2 DUP3 ADD PUSH0 PUSH2 0x1670 SWAP2 SWAP1 PUSH2 0x1873 JUMP JUMPDEST PUSH1 0x3 DUP3 ADD PUSH0 PUSH2 0x167F SWAP2 SWAP1 PUSH2 0x18B0 JUMP JUMPDEST PUSH1 0x4 DUP3 ADD PUSH0 SWAP1 SSTORE PUSH1 0x5 DUP3 ADD PUSH0 SWAP1 SSTORE POP POP POP POP POP POP JUMP JUMPDEST PUSH1 0x3 PUSH0 DUP3 DUP2 MSTORE PUSH1 0x20 ADD SWAP1 DUP2 MSTORE PUSH1 0x20 ADD PUSH0 KECCAK256 PUSH0 SWAP1 SLOAD SWAP1 PUSH2 0x100 EXP SWAP1 DIV PUSH1 0xFF AND PUSH2 0x16F2 JUMPI PUSH1 0x40 MLOAD PUSH32 0x8C379A000000000000000000000000000000000000000000000000000000000 DUP2 MSTORE PUSH1 0x4 ADD PUSH2 0x16E9 SWAP1 PUSH2 0x2BE5 JUMP JUMPDEST PUSH1 0x40 MLOAD DUP1 SWAP2 SUB SWAP1 REVERT JUMPDEST PUSH1 0x3 PUSH0 DUP3 DUP2 MSTORE PUSH1 0x20 ADD SWAP1 DUP2 MSTORE PUSH1 0x20 ADD PUSH0 KECCAK256 PUSH0 PUSH2 0x100 EXP DUP2 SLOAD SWAP1 PUSH1 0xFF MUL NOT AND SWAP1 SSTORE PUSH1 0x2 PUSH0 DUP3 DUP2 MSTORE PUSH1 0x20 ADD SWAP1 DUP2 MSTORE PUSH1 0x20 ADD PUSH0 KECCAK256 PUSH0 PUSH0 DUP3 ADD PUSH0 SWAP1 SSTORE PUSH1 0x1 DUP3 ADD PUSH0 PUSH2 0x100 EXP DUP2 SLOAD SWAP1 PUSH20 0xFFFFFFFFFFFFFFFFFFFFFFFFFFFFFFFFFFFFFFFF MUL NOT AND SWAP1 SSTORE PUSH1 0x2 DUP3 ADD PUSH0 PUSH2 0x175F SWAP2 SWAP1 PUSH2 0x1873 JUMP JUMPDEST PUSH1 0x3 DUP3 ADD PUSH0 PUSH2 0x176E SWAP2 SWAP1 PUSH2 0x18B0 JUMP JUMPDEST PUSH1 0x4 DUP3 ADD PUSH0 SWAP1 SSTORE PUSH1 0x5 DUP3 ADD PUSH0 SWAP1 SSTORE POP POP PUSH0 JUMPDEST PUSH1 0x1 DUP1 SLOAD SWAP1 POP DUP2 LT ISZERO PUSH2 0x1838 JUMPI PUSH0 PUSH1 0x4 PUSH0 DUP5 DUP2 MSTORE PUSH1 0x20 ADD SWAP1 DUP2 MSTORE PUSH1 0x20 ADD PUSH0 KECCAK256 PUSH0 PUSH1 0x1 DUP5 DUP2 SLOAD DUP2 LT PUSH2 0x17B4 JUMPI PUSH2 0x17B3 PUSH2 0x2AB9 JUMP JUMPDEST JUMPDEST SWAP1 PUSH0 MSTORE PUSH1 0x20 PUSH0 KECCAK256 ADD PUSH0 SWAP1 SLOAD SWAP1 PUSH2 0x100 EXP SWAP1 DIV PUSH20 0xFFFFFFFFFFFFFFFFFFFFFFFFFFFFFFFFFFFFFFFF AND PUSH20 0xFFFFFFFFFFFFFFFFFFFFFFFFFFFFFFFFFFFFFFFF AND PUSH20 0xFFFFFFFFFFFFFFFFFFFFFFFFFFFFFFFFFFFFFFFF AND DUP2 MSTORE PUSH1 0x20 ADD SWAP1 DUP2 MSTORE PUSH1 0x20 ADD PUSH0 KECCAK256 PUSH0 PUSH2 0x100 EXP DUP2 SLOAD DUP2 PUSH1 0xFF MUL NOT AND SWAP1 DUP4 ISZERO ISZERO MUL OR SWAP1 SSTORE POP DUP1 DUP1 PUSH1 0x1 ADD SWAP2 POP POP PUSH2 0x1780 JUMP JUMPDEST POP PUSH32 0x72CD7667542EBD154EFD241871DCA06D4B862C64B2B81BE5F7EDA452E015548F DUP2 PUSH1 0x40 MLOAD PUSH2 0x1868 SWAP2 SWAP1 PUSH2 0x1B4F JUMP JUMPDEST PUSH1 0x40 MLOAD DUP1 SWAP2 SUB SWAP1 LOG1 POP JUMP JUMPDEST POP DUP1 SLOAD PUSH2 0x187F SWAP1 PUSH2 0x214A JUMP JUMPDEST PUSH0 DUP3 SSTORE DUP1 PUSH1 0x1F LT PUSH2 0x1890 JUMPI POP PUSH2 0x18AD JUMP JUMPDEST PUSH1 0x1F ADD PUSH1 0x20 SWAP1 DIV SWAP1 PUSH0 MSTORE PUSH1 0x20 PUSH0 KECCAK256 SWAP1 DUP2 ADD SWAP1 PUSH2 0x18AC SWAP2 SWAP1 PUSH2 0x18ED JUMP JUMPDEST JUMPDEST POP JUMP JUMPDEST POP DUP1 SLOAD PUSH2 0x18BC SWAP1 PUSH2 0x214A JUMP JUMPDEST PUSH0 DUP3 SSTORE DUP1 PUSH1 0x1F LT PUSH2 0x18CD JUMPI POP PUSH2 0x18EA JUMP JUMPDEST PUSH1 0x1F ADD PUSH1 0x20 SWAP1 DIV SWAP1 PUSH0 MSTORE PUSH1 0x20 PUSH0 KECCAK256 SWAP1 DUP2 ADD SWAP1 PUSH2 0x18E9 SWAP2 SWAP1 PUSH2 0x18ED JUMP JUMPDEST JUMPDEST POP JUMP JUMPDEST JUMPDEST DUP1 DUP3 GT ISZERO PUSH2 0x1904 JUMPI PUSH0 DUP2 PUSH0 SWAP1 SSTORE POP PUSH1 0x1 ADD PUSH2 0x18EE JUMP JUMPDEST POP SWAP1 JUMP JUMPDEST PUSH0 PUSH0 REVERT JUMPDEST PUSH0 PUSH0 REVERT JUMPDEST PUSH0 DUP2 SWAP1 POP SWAP2 SWAP1 POP JUMP JUMPDEST PUSH2 0x1922 DUP2 PUSH2 0x1910 JUMP JUMPDEST DUP2 EQ PUSH2 0x192C JUMPI PUSH0 PUSH0 REVERT JUMPDEST POP JUMP JUMPDEST PUSH0 DUP2 CALLDATALOAD SWAP1 POP PUSH2 0x193D DUP2 PUSH2 0x1919 JUMP JUMPDEST SWAP3 SWAP2 POP POP JUMP JUMPDEST PUSH0 PUSH1 0x20 DUP3 DUP5 SUB SLT ISZERO PUSH2 0x1958 JUMPI PUSH2 0x1957 PUSH2 0x1908 JUMP JUMPDEST JUMPDEST PUSH0 PUSH2 0x1965 DUP5 DUP3 DUP6 ADD PUSH2 0x192F JUMP JUMPDEST SWAP2 POP POP SWAP3 SWAP2 POP POP JUMP JUMPDEST PUSH0 PUSH20 0xFFFFFFFFFFFFFFFFFFFFFFFFFFFFFFFFFFFFFFFF DUP3 AND SWAP1 POP SWAP2 SWAP1 POP JUMP JUMPDEST PUSH0 PUSH2 0x1997 DUP3 PUSH2 0x196E JUMP JUMPDEST SWAP1 POP SWAP2 SWAP1 POP JUMP JUMPDEST PUSH2 0x19A7 DUP2 PUSH2 0x198D JUMP JUMPDEST DUP3 MSTORE POP POP JUMP JUMPDEST PUSH0 PUSH1 0x20 DUP3 ADD SWAP1 POP PUSH2 0x19C0 PUSH0 DUP4 ADD DUP5 PUSH2 0x199E JUMP JUMPDEST SWAP3 SWAP2 POP POP JUMP JUMPDEST PUSH0 PUSH0 REVERT JUMPDEST PUSH0 PUSH0 REVERT JUMPDEST PUSH0 PUSH0 REVERT JUMPDEST PUSH0 PUSH0 DUP4 PUSH1 0x1F DUP5 ADD SLT PUSH2 0x19E7 JUMPI PUSH2 0x19E6 PUSH2 0x19C6 JUMP JUMPDEST JUMPDEST DUP3 CALLDATALOAD SWAP1 POP PUSH8 0xFFFFFFFFFFFFFFFF DUP2 GT ISZERO PUSH2 0x1A04 JUMPI PUSH2 0x1A03 PUSH2 0x19CA JUMP JUMPDEST JUMPDEST PUSH1 0x20 DUP4 ADD SWAP2 POP DUP4 PUSH1 0x1 DUP3 MUL DUP4 ADD GT ISZERO PUSH2 0x1A20 JUMPI PUSH2 0x1A1F PUSH2 0x19CE JUMP JUMPDEST JUMPDEST SWAP3 POP SWAP3 SWAP1 POP JUMP JUMPDEST PUSH2 0x1A30 DUP2 PUSH2 0x198D JUMP JUMPDEST DUP2 EQ PUSH2 0x1A3A JUMPI PUSH0 PUSH0 REVERT JUMPDEST POP JUMP JUMPDEST PUSH0 DUP2 CALLDATALOAD SWAP1 POP PUSH2 0x1A4B DUP2 PUSH2 0x1A27 JUMP JUMPDEST SWAP3 SWAP2 POP POP JUMP JUMPDEST PUSH0 PUSH0 DUP4 PUSH1 0x1F DUP5 ADD SLT PUSH2 0x1A66 JUMPI PUSH2 0x1A65 PUSH2 0x19C6 JUMP JUMPDEST JUMPDEST DUP3 CALLDATALOAD SWAP1 POP PUSH8 0xFFFFFFFFFFFFFFFF DUP2 GT ISZERO PUSH2 0x1A83 JUMPI PUSH2 0x1A82 PUSH2 0x19CA JUMP JUMPDEST JUMPDEST PUSH1 0x20 DUP4 ADD SWAP2 POP DUP4 PUSH1 0x1 DUP3 MUL DUP4 ADD GT ISZERO PUSH2 0x1A9F JUMPI PUSH2 0x1A9E PUSH2 0x19CE JUMP JUMPDEST JUMPDEST SWAP3 POP SWAP3 SWAP1 POP JUMP JUMPDEST PUSH0 PUSH0 PUSH0 PUSH0 PUSH0 PUSH1 0x60 DUP7 DUP9 SUB SLT ISZERO PUSH2 0x1ABF JUMPI PUSH2 0x1ABE PUSH2 0x1908 JUMP JUMPDEST JUMPDEST PUSH0 DUP7 ADD CALLDATALOAD PUSH8 0xFFFFFFFFFFFFFFFF DUP2 GT ISZERO PUSH2 0x1ADC JUMPI PUSH2 0x1ADB PUSH2 0x190C JUMP JUMPDEST JUMPDEST PUSH2 0x1AE8 DUP9 DUP3 DUP10 ADD PUSH2 0x19D2 JUMP JUMPDEST SWAP6 POP SWAP6 POP POP PUSH1 0x20 PUSH2 0x1AFB DUP9 DUP3 DUP10 ADD PUSH2 0x1A3D JUMP JUMPDEST SWAP4 POP POP PUSH1 0x40 DUP7 ADD CALLDATALOAD PUSH8 0xFFFFFFFFFFFFFFFF DUP2 GT ISZERO PUSH2 0x1B1C JUMPI PUSH2 0x1B1B PUSH2 0x190C JUMP JUMPDEST JUMPDEST PUSH2 0x1B28 DUP9 DUP3 DUP10 ADD PUSH2 0x1A51 JUMP JUMPDEST SWAP3 POP SWAP3 POP POP SWAP3 SWAP6 POP SWAP3 SWAP6 SWAP1 SWAP4 POP JUMP JUMPDEST PUSH0 DUP2 SWAP1 POP SWAP2 SWAP1 POP JUMP JUMPDEST PUSH2 0x1B49 DUP2 PUSH2 0x1B37 JUMP JUMPDEST DUP3 MSTORE POP POP JUMP JUMPDEST PUSH0 PUSH1 0x20 DUP3 ADD SWAP1 POP PUSH2 0x1B62 PUSH0 DUP4 ADD DUP5 PUSH2 0x1B40 JUMP JUMPDEST SWAP3 SWAP2 POP POP JUMP JUMPDEST PUSH2 0x1B71 DUP2 PUSH2 0x1B37 JUMP JUMPDEST DUP2 EQ PUSH2 0x1B7B JUMPI PUSH0 PUSH0 REVERT JUMPDEST POP JUMP JUMPDEST PUSH0 DUP2 CALLDATALOAD SWAP1 POP PUSH2 0x1B8C DUP2 PUSH2 0x1B68 JUMP JUMPDEST SWAP3 SWAP2 POP POP JUMP JUMPDEST PUSH0 PUSH0 PUSH1 0x40 DUP4 DUP6 SUB SLT ISZERO PUSH2 0x1BA8 JUMPI PUSH2 0x1BA7 PUSH2 0x1908 JUMP JUMPDEST JUMPDEST PUSH0 PUSH2 0x1BB5 DUP6 DUP3 DUP7 ADD PUSH2 0x1B7E JUMP JUMPDEST SWAP3 POP POP PUSH1 0x20 PUSH2 0x1BC6 DUP6 DUP3 DUP7 ADD PUSH2 0x1A3D JUMP JUMPDEST SWAP2 POP POP SWAP3 POP SWAP3 SWAP1 POP JUMP JUMPDEST PUSH0 DUP2 ISZERO ISZERO SWAP1 POP SWAP2 SWAP1 POP JUMP JUMPDEST PUSH2 0x1BE4 DUP2 PUSH2 0x1BD0 JUMP JUMPDEST DUP3 MSTORE POP POP JUMP JUMPDEST PUSH0 PUSH1 0x20 DUP3 ADD SWAP1 POP PUSH2 0x1BFD PUSH0 DUP4 ADD DUP5 PUSH2 0x1BDB JUMP JUMPDEST SWAP3 SWAP2 POP POP JUMP JUMPDEST PUSH2 0x1C0C DUP2 PUSH2 0x1910 JUMP JUMPDEST DUP3 MSTORE POP POP JUMP JUMPDEST PUSH0 PUSH1 0x20 DUP3 ADD SWAP1 POP PUSH2 0x1C25 PUSH0 DUP4 ADD DUP5 PUSH2 0x1C03 JUMP JUMPDEST SWAP3 SWAP2 POP POP JUMP JUMPDEST PUSH0 PUSH1 0xFF DUP3 AND SWAP1 POP SWAP2 SWAP1 POP JUMP JUMPDEST PUSH2 0x1C40 DUP2 PUSH2 0x1C2B JUMP JUMPDEST DUP2 EQ PUSH2 0x1C4A JUMPI PUSH0 PUSH0 REVERT JUMPDEST POP JUMP JUMPDEST PUSH0 DUP2 CALLDATALOAD SWAP1 POP PUSH2 0x1C5B DUP2 PUSH2 0x1C37 JUMP JUMPDEST SWAP3 SWAP2 POP POP JUMP JUMPDEST PUSH0 PUSH1 0x20 DUP3 DUP5 SUB SLT ISZERO PUSH2 0x1C76 JUMPI PUSH2 0x1C75 PUSH2 0x1908 JUMP JUMPDEST JUMPDEST PUSH0 PUSH2 0x1C83 DUP5 DUP3 DUP6 ADD PUSH2 0x1C4D JUMP JUMPDEST SWAP2 POP POP SWAP3 SWAP2 POP POP JUMP JUMPDEST PUSH0 DUP2 MLOAD SWAP1 POP SWAP2 SWAP1 POP JUMP JUMPDEST PUSH0 DUP3 DUP3 MSTORE PUSH1 0x20 DUP3 ADD SWAP1 POP SWAP3 SWAP2 POP POP JUMP JUMPDEST PUSH0 DUP2 SWAP1 POP PUSH1 0x20 DUP3 ADD SWAP1 POP SWAP2 SWAP1 POP JUMP JUMPDEST PUSH2 0x1CBE DUP2 PUSH2 0x198D JUMP JUMPDEST DUP3 MSTORE POP POP JUMP JUMPDEST PUSH0 PUSH2 0x1CCF DUP4 DUP4 PUSH2 0x1CB5 JUMP JUMPDEST PUSH1 0x20 DUP4 ADD SWAP1 POP SWAP3 SWAP2 POP POP JUMP JUMPDEST PUSH0 PUSH1 0x20 DUP3 ADD SWAP1 POP SWAP2 SWAP1 POP JUMP JUMPDEST PUSH0 PUSH2 0x1CF1 DUP3 PUSH2 0x1C8C JUMP JUMPDEST PUSH2 0x1CFB DUP2 DUP6 PUSH2 0x1C96 JUMP JUMPDEST SWAP4 POP PUSH2 0x1D06 DUP4 PUSH2 0x1CA6 JUMP JUMPDEST DUP1 PUSH0 JUMPDEST DUP4 DUP2 LT ISZERO PUSH2 0x1D36 JUMPI DUP2 MLOAD PUSH2 0x1D1D DUP9 DUP3 PUSH2 0x1CC4 JUMP JUMPDEST SWAP8 POP PUSH2 0x1D28 DUP4 PUSH2 0x1CDB JUMP JUMPDEST SWAP3 POP POP PUSH1 0x1 DUP2 ADD SWAP1 POP PUSH2 0x1D09 JUMP JUMPDEST POP DUP6 SWAP4 POP POP POP POP SWAP3 SWAP2 POP POP JUMP JUMPDEST PUSH0 PUSH1 0x20 DUP3 ADD SWAP1 POP DUP2 DUP2 SUB PUSH0 DUP4 ADD MSTORE PUSH2 0x1D5B DUP2 DUP5 PUSH2 0x1CE7 JUMP JUMPDEST SWAP1 POP SWAP3 SWAP2 POP POP JUMP JUMPDEST PUSH0 PUSH1 0x20 DUP3 DUP5 SUB SLT ISZERO PUSH2 0x1D78 JUMPI PUSH2 0x1D77 PUSH2 0x1908 JUMP JUMPDEST JUMPDEST PUSH0 PUSH2 0x1D85 DUP5 DUP3 DUP6 ADD PUSH2 0x1B7E JUMP JUMPDEST SWAP2 POP POP SWAP3 SWAP2 POP POP JUMP JUMPDEST PUSH0 DUP2 MLOAD SWAP1 POP SWAP2 SWAP1 POP JUMP JUMPDEST PUSH0 DUP3 DUP3 MSTORE PUSH1 0x20 DUP3 ADD SWAP1 POP SWAP3 SWAP2 POP POP JUMP JUMPDEST DUP3 DUP2 DUP4 MCOPY PUSH0 DUP4 DUP4 ADD MSTORE POP POP POP JUMP JUMPDEST PUSH0 PUSH1 0x1F NOT PUSH1 0x1F DUP4 ADD AND SWAP1 POP SWAP2 SWAP1 POP JUMP JUMPDEST PUSH0 PUSH2 0x1DD0 DUP3 PUSH2 0x1D8E JUMP JUMPDEST PUSH2 0x1DDA DUP2 DUP6 PUSH2 0x1D98 JUMP JUMPDEST SWAP4 POP PUSH2 0x1DEA DUP2 DUP6 PUSH1 0x20 DUP7 ADD PUSH2 0x1DA8 JUMP JUMPDEST PUSH2 0x1DF3 DUP2 PUSH2 0x1DB6 JUMP JUMPDEST DUP5 ADD SWAP2 POP POP SWAP3 SWAP2 POP POP JUMP JUMPDEST PUSH0 DUP2 MLOAD SWAP1 POP SWAP2 SWAP1 POP JUMP JUMPDEST PUSH0 DUP3 DUP3 MSTORE PUSH1 0x20 DUP3 ADD SWAP1 POP SWAP3 SWAP2 POP POP JUMP JUMPDEST PUSH0 PUSH2 0x1E22 DUP3 PUSH2 0x1DFE JUMP JUMPDEST PUSH2 0x1E2C DUP2 DUP6 PUSH2 0x1E08 JUMP JUMPDEST SWAP4 POP PUSH2 0x1E3C DUP2 DUP6 PUSH1 0x20 DUP7 ADD PUSH2 0x1DA8 JUMP JUMPDEST PUSH2 0x1E45 DUP2 PUSH2 0x1DB6 JUMP JUMPDEST DUP5 ADD SWAP2 POP POP SWAP3 SWAP2 POP POP JUMP JUMPDEST PUSH0 PUSH1 0xC0 DUP3 ADD SWAP1 POP PUSH2 0x1E63 PUSH0 DUP4 ADD DUP10 PUSH2 0x1B40 JUMP JUMPDEST PUSH2 0x1E70 PUSH1 0x20 DUP4 ADD DUP9 PUSH2 0x199E JUMP JUMPDEST DUP2 DUP2 SUB PUSH1 0x40 DUP4 ADD MSTORE PUSH2 0x1E82 DUP2 DUP8 PUSH2 0x1DC6 JUMP JUMPDEST SWAP1 POP DUP2 DUP2 SUB PUSH1 0x60 DUP4 ADD MSTORE PUSH2 0x1E96 DUP2 DUP7 PUSH2 0x1E18 JUMP JUMPDEST SWAP1 POP PUSH2 0x1EA5 PUSH1 0x80 DUP4 ADD DUP6 PUSH2 0x1C03 JUMP JUMPDEST PUSH2 0x1EB2 PUSH1 0xA0 DUP4 ADD DUP5 PUSH2 0x1C03 JUMP JUMPDEST SWAP8 SWAP7 POP POP POP POP POP POP POP JUMP JUMPDEST PUSH0 PUSH1 0x20 DUP3 DUP5 SUB SLT ISZERO PUSH2 0x1ED2 JUMPI PUSH2 0x1ED1 PUSH2 0x1908 JUMP JUMPDEST JUMPDEST PUSH0 PUSH2 0x1EDF DUP5 DUP3 DUP6 ADD PUSH2 0x1A3D JUMP JUMPDEST SWAP2 POP POP SWAP3 SWAP2 POP POP JUMP JUMPDEST PUSH32 0x596F7520617265206E6F7420746865206F776E65720000000000000000000000 PUSH0 DUP3 ADD MSTORE POP JUMP JUMPDEST PUSH0 PUSH2 0x1F1C PUSH1 0x15 DUP4 PUSH2 0x1D98 JUMP JUMPDEST SWAP2 POP PUSH2 0x1F27 DUP3 PUSH2 0x1EE8 JUMP JUMPDEST PUSH1 0x20 DUP3 ADD SWAP1 POP SWAP2 SWAP1 POP JUMP JUMPDEST PUSH0 PUSH1 0x20 DUP3 ADD SWAP1 POP DUP2 DUP2 SUB PUSH0 DUP4 ADD MSTORE PUSH2 0x1F49 DUP2 PUSH2 0x1F10 JUMP JUMPDEST SWAP1 POP SWAP2 SWAP1 POP JUMP JUMPDEST PUSH32 0x496E76616C696420746172676574206164647265737300000000000000000000 PUSH0 DUP3 ADD MSTORE POP JUMP JUMPDEST PUSH0 PUSH2 0x1F84 PUSH1 0x16 DUP4 PUSH2 0x1D98 JUMP JUMPDEST SWAP2 POP PUSH2 0x1F8F DUP3 PUSH2 0x1F50 JUMP JUMPDEST PUSH1 0x20 DUP3 ADD SWAP1 POP SWAP2 SWAP1 POP JUMP JUMPDEST PUSH0 PUSH1 0x20 DUP3 ADD SWAP1 POP DUP2 DUP2 SUB PUSH0 DUP4 ADD MSTORE PUSH2 0x1FB1 DUP2 PUSH2 0x1F78 JUMP JUMPDEST SWAP1 POP SWAP2 SWAP1 POP JUMP JUMPDEST PUSH32 0x456D7074792066756E6374696F6E206E616D6500000000000000000000000000 PUSH0 DUP3 ADD MSTORE POP JUMP JUMPDEST PUSH0 PUSH2 0x1FEC PUSH1 0x13 DUP4 PUSH2 0x1D98 JUMP JUMPDEST SWAP2 POP PUSH2 0x1FF7 DUP3 PUSH2 0x1FB8 JUMP JUMPDEST PUSH1 0x20 DUP3 ADD SWAP1 POP SWAP2 SWAP1 POP JUMP JUMPDEST PUSH0 PUSH1 0x20 DUP3 ADD SWAP1 POP DUP2 DUP2 SUB PUSH0 DUP4 ADD MSTORE PUSH2 0x2019 DUP2 PUSH2 0x1FE0 JUMP JUMPDEST SWAP1 POP SWAP2 SWAP1 POP JUMP JUMPDEST PUSH32 0x456D707479206461746100000000000000000000000000000000000000000000 PUSH0 DUP3 ADD MSTORE POP JUMP JUMPDEST PUSH0 PUSH2 0x2054 PUSH1 0xA DUP4 PUSH2 0x1D98 JUMP JUMPDEST SWAP2 POP PUSH2 0x205F DUP3 PUSH2 0x2020 JUMP JUMPDEST PUSH1 0x20 DUP3 ADD SWAP1 POP SWAP2 SWAP1 POP JUMP JUMPDEST PUSH0 PUSH1 0x20 DUP3 ADD SWAP1 POP DUP2 DUP2 SUB PUSH0 DUP4 ADD MSTORE PUSH2 0x2081 DUP2 PUSH2 0x2048 JUMP JUMPDEST SWAP1 POP SWAP2 SWAP1 POP JUMP JUMPDEST PUSH32 0x616C6C7265616479207175657565000000000000000000000000000000000000 PUSH0 DUP3 ADD MSTORE POP JUMP JUMPDEST PUSH0 PUSH2 0x20BC PUSH1 0xE DUP4 PUSH2 0x1D98 JUMP JUMPDEST SWAP2 POP PUSH2 0x20C7 DUP3 PUSH2 0x2088 JUMP JUMPDEST PUSH1 0x20 DUP3 ADD SWAP1 POP SWAP2 SWAP1 POP JUMP JUMPDEST PUSH0 PUSH1 0x20 DUP3 ADD SWAP1 POP DUP2 DUP2 SUB PUSH0 DUP4 ADD MSTORE PUSH2 0x20E9 DUP2 PUSH2 0x20B0 JUMP JUMPDEST SWAP1 POP SWAP2 SWAP1 POP JUMP JUMPDEST PUSH32 0x4E487B7100000000000000000000000000000000000000000000000000000000 PUSH0 MSTORE PUSH1 0x41 PUSH1 0x4 MSTORE PUSH1 0x24 PUSH0 REVERT JUMPDEST PUSH32 0x4E487B7100000000000000000000000000000000000000000000000000000000 PUSH0 MSTORE PUSH1 0x22 PUSH1 0x4 MSTORE PUSH1 0x24 PUSH0 REVERT JUMPDEST PUSH0 PUSH1 0x2 DUP3 DIV SWAP1 POP PUSH1 0x1 DUP3 AND DUP1 PUSH2 0x2161 JUMPI PUSH1 0x7F DUP3 AND SWAP2 POP JUMPDEST PUSH1 0x20 DUP3 LT DUP2 SUB PUSH2 0x2174 JUMPI PUSH2 0x2173 PUSH2 0x211D JUMP JUMPDEST JUMPDEST POP SWAP2 SWAP1 POP JUMP JUMPDEST PUSH0 DUP2 SWAP1 POP DUP2 PUSH0 MSTORE PUSH1 0x20 PUSH0 KECCAK256 SWAP1 POP SWAP2 SWAP1 POP JUMP JUMPDEST PUSH0 PUSH1 0x20 PUSH1 0x1F DUP4 ADD DIV SWAP1 POP SWAP2 SWAP1 POP JUMP JUMPDEST PUSH0 DUP3 DUP3 SHL SWAP1 POP SWAP3 SWAP2 POP POP JUMP JUMPDEST PUSH0 PUSH1 0x8 DUP4 MUL PUSH2 0x21D6 PUSH32 0xFFFFFFFFFFFFFFFFFFFFFFFFFFFFFFFFFFFFFFFFFFFFFFFFFFFFFFFFFFFFFFFF DUP3 PUSH2 0x219B JUMP JUMPDEST PUSH2 0x21E0 DUP7 DUP4 PUSH2 0x219B JUMP JUMPDEST SWAP6 POP DUP1 NOT DUP5 AND SWAP4 POP DUP1 DUP7 AND DUP5 OR SWAP3 POP POP POP SWAP4 SWAP3 POP POP POP JUMP JUMPDEST PUSH0 DUP2 SWAP1 POP SWAP2 SWAP1 POP JUMP JUMPDEST PUSH0 PUSH2 0x221B PUSH2 0x2216 PUSH2 0x2211 DUP5 PUSH2 0x1910 JUMP JUMPDEST PUSH2 0x21F8 JUMP JUMPDEST PUSH2 0x1910 JUMP JUMPDEST SWAP1 POP SWAP2 SWAP1 POP JUMP JUMPDEST PUSH0 DUP2 SWAP1 POP SWAP2 SWAP1 POP JUMP JUMPDEST PUSH2 0x2234 DUP4 PUSH2 0x2201 JUMP JUMPDEST PUSH2 0x2248 PUSH2 0x2240 DUP3 PUSH2 0x2222 JUMP JUMPDEST DUP5 DUP5 SLOAD PUSH2 0x21A7 JUMP JUMPDEST DUP3 SSTORE POP POP POP POP JUMP JUMPDEST PUSH0 PUSH0 SWAP1 POP SWAP1 JUMP JUMPDEST PUSH2 0x225F PUSH2 0x2250 JUMP JUMPDEST PUSH2 0x226A DUP2 DUP5 DUP5 PUSH2 0x222B JUMP JUMPDEST POP POP POP JUMP JUMPDEST JUMPDEST DUP2 DUP2 LT ISZERO PUSH2 0x228D JUMPI PUSH2 0x2282 PUSH0 DUP3 PUSH2 0x2257 JUMP JUMPDEST PUSH1 0x1 DUP2 ADD SWAP1 POP PUSH2 0x2270 JUMP JUMPDEST POP POP JUMP JUMPDEST PUSH1 0x1F DUP3 GT ISZERO PUSH2 0x22D2 JUMPI PUSH2 0x22A3 DUP2 PUSH2 0x217A JUMP JUMPDEST PUSH2 0x22AC DUP5 PUSH2 0x218C JUMP JUMPDEST DUP2 ADD PUSH1 0x20 DUP6 LT ISZERO PUSH2 0x22BB JUMPI DUP2 SWAP1 POP JUMPDEST PUSH2 0x22CF PUSH2 0x22C7 DUP6 PUSH2 0x218C JUMP JUMPDEST DUP4 ADD DUP3 PUSH2 0x226F JUMP JUMPDEST POP POP JUMPDEST POP POP POP JUMP JUMPDEST PUSH0 DUP3 DUP3 SHR SWAP1 POP SWAP3 SWAP2 POP POP JUMP JUMPDEST PUSH0 PUSH2 0x22F2 PUSH0 NOT DUP5 PUSH1 0x8 MUL PUSH2 0x22D7 JUMP JUMPDEST NOT DUP1 DUP4 AND SWAP2 POP POP SWAP3 SWAP2 POP POP JUMP JUMPDEST PUSH0 PUSH2 0x230A DUP4 DUP4 PUSH2 0x22E3 JUMP JUMPDEST SWAP2 POP DUP3 PUSH1 0x2 MUL DUP3 OR SWAP1 POP SWAP3 SWAP2 POP POP JUMP JUMPDEST PUSH2 0x2323 DUP3 PUSH2 0x1D8E JUMP JUMPDEST PUSH8 0xFFFFFFFFFFFFFFFF DUP2 GT ISZERO PUSH2 0x233C JUMPI PUSH2 0x233B PUSH2 0x20F0 JUMP JUMPDEST JUMPDEST PUSH2 0x2346 DUP3 SLOAD PUSH2 0x214A JUMP JUMPDEST PUSH2 0x2351 DUP3 DUP3 DUP6 PUSH2 0x2291 JUMP JUMPDEST PUSH0 PUSH1 0x20 SWAP1 POP PUSH1 0x1F DUP4 GT PUSH1 0x1 DUP2 EQ PUSH2 0x2382 JUMPI PUSH0 DUP5 ISZERO PUSH2 0x2370 JUMPI DUP3 DUP8 ADD MLOAD SWAP1 POP JUMPDEST PUSH2 0x237A DUP6 DUP3 PUSH2 0x22FF JUMP JUMPDEST DUP7 SSTORE POP PUSH2 0x23E1 JUMP JUMPDEST PUSH1 0x1F NOT DUP5 AND PUSH2 0x2390 DUP7 PUSH2 0x217A JUMP JUMPDEST PUSH0 JUMPDEST DUP3 DUP2 LT ISZERO PUSH2 0x23B7 JUMPI DUP5 DUP10 ADD MLOAD DUP3 SSTORE PUSH1 0x1 DUP3 ADD SWAP2 POP PUSH1 0x20 DUP6 ADD SWAP5 POP PUSH1 0x20 DUP2 ADD SWAP1 POP PUSH2 0x2392 JUMP JUMPDEST DUP7 DUP4 LT ISZERO PUSH2 0x23D4 JUMPI DUP5 DUP10 ADD MLOAD PUSH2 0x23D0 PUSH1 0x1F DUP10 AND DUP3 PUSH2 0x22E3 JUMP JUMPDEST DUP4 SSTORE POP JUMPDEST PUSH1 0x1 PUSH1 0x2 DUP9 MUL ADD DUP9 SSTORE POP POP POP JUMPDEST POP POP POP POP POP POP JUMP JUMPDEST PUSH0 DUP2 SWAP1 POP DUP2 PUSH0 MSTORE PUSH1 0x20 PUSH0 KECCAK256 SWAP1 POP SWAP2 SWAP1 POP JUMP JUMPDEST PUSH1 0x1F DUP3 GT ISZERO PUSH2 0x243C JUMPI PUSH2 0x240D DUP2 PUSH2 0x23E9 JUMP JUMPDEST PUSH2 0x2416 DUP5 PUSH2 0x218C JUMP JUMPDEST DUP2 ADD PUSH1 0x20 DUP6 LT ISZERO PUSH2 0x2425 JUMPI DUP2 SWAP1 POP JUMPDEST PUSH2 0x2439 PUSH2 0x2431 DUP6 PUSH2 0x218C JUMP JUMPDEST DUP4 ADD DUP3 PUSH2 0x226F JUMP JUMPDEST POP POP JUMPDEST POP POP POP JUMP JUMPDEST PUSH2 0x244A DUP3 PUSH2 0x1DFE JUMP JUMPDEST PUSH8 0xFFFFFFFFFFFFFFFF DUP2 GT ISZERO PUSH2 0x2463 JUMPI PUSH2 0x2462 PUSH2 0x20F0 JUMP JUMPDEST JUMPDEST PUSH2 0x246D DUP3 SLOAD PUSH2 0x214A JUMP JUMPDEST PUSH2 0x2478 DUP3 DUP3 DUP6 PUSH2 0x23FB JUMP JUMPDEST PUSH0 PUSH1 0x20 SWAP1 POP PUSH1 0x1F DUP4 GT PUSH1 0x1 DUP2 EQ PUSH2 0x24A9 JUMPI PUSH0 DUP5 ISZERO PUSH2 0x2497 JUMPI DUP3 DUP8 ADD MLOAD SWAP1 POP JUMPDEST PUSH2 0x24A1 DUP6 DUP3 PUSH2 0x22FF JUMP JUMPDEST DUP7 SSTORE POP PUSH2 0x2508 JUMP JUMPDEST PUSH1 0x1F NOT DUP5 AND PUSH2 0x24B7 DUP7 PUSH2 0x23E9 JUMP JUMPDEST PUSH0 JUMPDEST DUP3 DUP2 LT ISZERO PUSH2 0x24DE JUMPI DUP5 DUP10 ADD MLOAD DUP3 SSTORE PUSH1 0x1 DUP3 ADD SWAP2 POP PUSH1 0x20 DUP6 ADD SWAP5 POP PUSH1 0x20 DUP2 ADD SWAP1 POP PUSH2 0x24B9 JUMP JUMPDEST DUP7 DUP4 LT ISZERO PUSH2 0x24FB JUMPI DUP5 DUP10 ADD MLOAD PUSH2 0x24F7 PUSH1 0x1F DUP10 AND DUP3 PUSH2 0x22E3 JUMP JUMPDEST DUP4 SSTORE POP JUMPDEST PUSH1 0x1 PUSH1 0x2 DUP9 MUL ADD DUP9 SSTORE POP POP POP JUMPDEST POP POP POP POP POP POP JUMP JUMPDEST DUP3 DUP2 DUP4 CALLDATACOPY PUSH0 DUP4 DUP4 ADD MSTORE POP POP POP JUMP JUMPDEST PUSH0 PUSH2 0x2529 DUP4 DUP6 PUSH2 0x1D98 JUMP JUMPDEST SWAP4 POP PUSH2 0x2536 DUP4 DUP6 DUP5 PUSH2 0x2510 JUMP JUMPDEST PUSH2 0x253F DUP4 PUSH2 0x1DB6 JUMP JUMPDEST DUP5 ADD SWAP1 POP SWAP4 SWAP3 POP POP POP JUMP JUMPDEST PUSH0 PUSH2 0x2555 DUP4 DUP6 PUSH2 0x1E08 JUMP JUMPDEST SWAP4 POP PUSH2 0x2562 DUP4 DUP6 DUP5 PUSH2 0x2510 JUMP JUMPDEST PUSH2 0x256B DUP4 PUSH2 0x1DB6 JUMP JUMPDEST DUP5 ADD SWAP1 POP SWAP4 SWAP3 POP POP POP JUMP JUMPDEST PUSH0 PUSH1 0xC0 DUP3 ADD SWAP1 POP PUSH2 0x2589 PUSH0 DUP4 ADD DUP12 PUSH2 0x199E JUMP JUMPDEST PUSH2 0x2596 PUSH1 0x20 DUP4 ADD DUP11 PUSH2 0x199E JUMP JUMPDEST DUP2 DUP2 SUB PUSH1 0x40 DUP4 ADD MSTORE PUSH2 0x25A9 DUP2 DUP9 DUP11 PUSH2 0x251E JUMP JUMPDEST SWAP1 POP DUP2 DUP2 SUB PUSH1 0x60 DUP4 ADD MSTORE PUSH2 0x25BE DUP2 DUP7 DUP9 PUSH2 0x254A JUMP JUMPDEST SWAP1 POP PUSH2 0x25CD PUSH1 0x80 DUP4 ADD DUP6 PUSH2 0x1C03 JUMP JUMPDEST PUSH2 0x25DA PUSH1 0xA0 DUP4 ADD DUP5 PUSH2 0x1B40 JUMP JUMPDEST SWAP10 SWAP9 POP POP POP POP POP POP POP POP POP JUMP JUMPDEST PUSH32 0x43616C6C2074686520636F6E73656E7375732066756E6374696F6E0000000000 PUSH0 DUP3 ADD MSTORE POP JUMP JUMPDEST PUSH0 PUSH2 0x261B PUSH1 0x1B DUP4 PUSH2 0x1D98 JUMP JUMPDEST SWAP2 POP PUSH2 0x2626 DUP3 PUSH2 0x25E7 JUMP JUMPDEST PUSH1 0x20 DUP3 ADD SWAP1 POP SWAP2 SWAP1 POP JUMP JUMPDEST PUSH0 PUSH1 0x20 DUP3 ADD SWAP1 POP DUP2 DUP2 SUB PUSH0 DUP4 ADD MSTORE PUSH2 0x2648 DUP2 PUSH2 0x260F JUMP JUMPDEST SWAP1 POP SWAP2 SWAP1 POP JUMP JUMPDEST PUSH32 0x6572726F72206F776E6572732E6C656E677468203C205F636F6E665265710000 PUSH0 DUP3 ADD MSTORE POP JUMP JUMPDEST PUSH0 PUSH2 0x2683 PUSH1 0x1E DUP4 PUSH2 0x1D98 JUMP JUMPDEST SWAP2 POP PUSH2 0x268E DUP3 PUSH2 0x264F JUMP JUMPDEST PUSH1 0x20 DUP3 ADD SWAP1 POP SWAP2 SWAP1 POP JUMP JUMPDEST PUSH0 PUSH1 0x20 DUP3 ADD SWAP1 POP DUP2 DUP2 SUB PUSH0 DUP4 ADD MSTORE PUSH2 0x26B0 DUP2 PUSH2 0x2677 JUMP JUMPDEST SWAP1 POP SWAP2 SWAP1 POP JUMP JUMPDEST PUSH32 0x4D696E696D616C20636F6E665265717569726520320000000000000000000000 PUSH0 DUP3 ADD MSTORE POP JUMP JUMPDEST PUSH0 PUSH2 0x26EB PUSH1 0x15 DUP4 PUSH2 0x1D98 JUMP JUMPDEST SWAP2 POP PUSH2 0x26F6 DUP3 PUSH2 0x26B7 JUMP JUMPDEST PUSH1 0x20 DUP3 ADD SWAP1 POP SWAP2 SWAP1 POP JUMP JUMPDEST PUSH0 PUSH1 0x20 DUP3 ADD SWAP1 POP DUP2 DUP2 SUB PUSH0 DUP4 ADD MSTORE PUSH2 0x2718 DUP2 PUSH2 0x26DF JUMP JUMPDEST SWAP1 POP SWAP2 SWAP1 POP JUMP JUMPDEST PUSH2 0x2728 DUP2 PUSH2 0x1C2B JUMP JUMPDEST DUP3 MSTORE POP POP JUMP JUMPDEST PUSH0 PUSH1 0x40 DUP3 ADD SWAP1 POP PUSH2 0x2741 PUSH0 DUP4 ADD DUP6 PUSH2 0x1C03 JUMP JUMPDEST PUSH2 0x274E PUSH1 0x20 DUP4 ADD DUP5 PUSH2 0x271F JUMP JUMPDEST SWAP4 SWAP3 POP POP POP JUMP JUMPDEST PUSH32 0x4572726F72207A65726F20616464726573730000000000000000000000000000 PUSH0 DUP3 ADD MSTORE POP JUMP JUMPDEST PUSH0 PUSH2 0x2789 PUSH1 0x12 DUP4 PUSH2 0x1D98 JUMP JUMPDEST SWAP2 POP PUSH2 0x2794 DUP3 PUSH2 0x2755 JUMP JUMPDEST PUSH1 0x20 DUP3 ADD SWAP1 POP SWAP2 SWAP1 POP JUMP JUMPDEST PUSH0 PUSH1 0x20 DUP3 ADD SWAP1 POP DUP2 DUP2 SUB PUSH0 DUP4 ADD MSTORE PUSH2 0x27B6 DUP2 PUSH2 0x277D JUMP JUMPDEST SWAP1 POP SWAP2 SWAP1 POP JUMP JUMPDEST PUSH32 0x6E6F742071756575656421000000000000000000000000000000000000000000 PUSH0 DUP3 ADD MSTORE POP JUMP JUMPDEST PUSH0 PUSH2 0x27F1 PUSH1 0xB DUP4 PUSH2 0x1D98 JUMP JUMPDEST SWAP2 POP PUSH2 0x27FC DUP3 PUSH2 0x27BD JUMP JUMPDEST PUSH1 0x20 DUP3 ADD SWAP1 POP SWAP2 SWAP1 POP JUMP JUMPDEST PUSH0 PUSH1 0x20 DUP3 ADD SWAP1 POP DUP2 DUP2 SUB PUSH0 DUP4 ADD MSTORE PUSH2 0x281E DUP2 PUSH2 0x27E5 JUMP JUMPDEST SWAP1 POP SWAP2 SWAP1 POP JUMP JUMPDEST PUSH32 0x616C726561647920636F6E6669726D6564210000000000000000000000000000 PUSH0 DUP3 ADD MSTORE POP JUMP JUMPDEST PUSH0 PUSH2 0x2859 PUSH1 0x12 DUP4 PUSH2 0x1D98 JUMP JUMPDEST SWAP2 POP PUSH2 0x2864 DUP3 PUSH2 0x2825 JUMP JUMPDEST PUSH1 0x20 DUP3 ADD SWAP1 POP SWAP2 SWAP1 POP JUMP JUMPDEST PUSH0 PUSH1 0x20 DUP3 ADD SWAP1 POP DUP2 DUP2 SUB PUSH0 DUP4 ADD MSTORE PUSH2 0x2886 DUP2 PUSH2 0x284D JUMP JUMPDEST SWAP1 POP SWAP2 SWAP1 POP JUMP JUMPDEST PUSH32 0x4E487B7100000000000000000000000000000000000000000000000000000000 PUSH0 MSTORE PUSH1 0x11 PUSH1 0x4 MSTORE PUSH1 0x24 PUSH0 REVERT JUMPDEST PUSH0 PUSH2 0x28C4 DUP3 PUSH2 0x1910 JUMP JUMPDEST SWAP2 POP PUSH32 0xFFFFFFFFFFFFFFFFFFFFFFFFFFFFFFFFFFFFFFFFFFFFFFFFFFFFFFFFFFFFFFFF DUP3 SUB PUSH2 0x28F6 JUMPI PUSH2 0x28F5 PUSH2 0x288D JUMP JUMPDEST JUMPDEST PUSH1 0x1 DUP3 ADD SWAP1 POP SWAP2 SWAP1 POP JUMP JUMPDEST PUSH32 0x6E6F7420636F6E6669726D656421000000000000000000000000000000000000 PUSH0 DUP3 ADD MSTORE POP JUMP JUMPDEST PUSH0 PUSH2 0x2935 PUSH1 0xE DUP4 PUSH2 0x1D98 JUMP JUMPDEST SWAP2 POP PUSH2 0x2940 DUP3 PUSH2 0x2901 JUMP JUMPDEST PUSH1 0x20 DUP3 ADD SWAP1 POP SWAP2 SWAP1 POP JUMP JUMPDEST PUSH0 PUSH1 0x20 DUP3 ADD SWAP1 POP DUP2 DUP2 SUB PUSH0 DUP4 ADD MSTORE PUSH2 0x2962 DUP2 PUSH2 0x2929 JUMP JUMPDEST SWAP1 POP SWAP2 SWAP1 POP JUMP JUMPDEST PUSH0 PUSH2 0x2973 DUP3 PUSH2 0x1910 JUMP JUMPDEST SWAP2 POP PUSH0 DUP3 SUB PUSH2 0x2985 JUMPI PUSH2 0x2984 PUSH2 0x288D JUMP JUMPDEST JUMPDEST PUSH1 0x1 DUP3 SUB SWAP1 POP SWAP2 SWAP1 POP JUMP JUMPDEST PUSH32 0x4E6F646520696E6465782063616E6E6F7420626520686967686572207468616E PUSH0 DUP3 ADD MSTORE PUSH32 0x207468656972206E756D62657200000000000000000000000000000000000000 PUSH1 0x20 DUP3 ADD MSTORE POP JUMP JUMPDEST PUSH0 PUSH2 0x29EA PUSH1 0x2D DUP4 PUSH2 0x1D98 JUMP JUMPDEST SWAP2 POP PUSH2 0x29F5 DUP3 PUSH2 0x2990 JUMP JUMPDEST PUSH1 0x40 DUP3 ADD SWAP1 POP SWAP2 SWAP1 POP JUMP JUMPDEST PUSH0 PUSH1 0x20 DUP3 ADD SWAP1 POP DUP2 DUP2 SUB PUSH0 DUP4 ADD MSTORE PUSH2 0x2A17 DUP2 PUSH2 0x29DE JUMP JUMPDEST SWAP1 POP SWAP2 SWAP1 POP JUMP JUMPDEST PUSH0 PUSH2 0x2A28 DUP3 PUSH2 0x1910 JUMP JUMPDEST SWAP2 POP PUSH2 0x2A33 DUP4 PUSH2 0x1910 JUMP JUMPDEST SWAP3 POP DUP3 DUP3 SUB SWAP1 POP DUP2 DUP2 GT ISZERO PUSH2 0x2A4B JUMPI PUSH2 0x2A4A PUSH2 0x288D JUMP JUMPDEST JUMPDEST SWAP3 SWAP2 POP POP JUMP JUMPDEST PUSH32 0x6572726F72206D696E696D616C20636F756E74206F776E657200000000000000 PUSH0 DUP3 ADD MSTORE POP JUMP JUMPDEST PUSH0 PUSH2 0x2A85 PUSH1 0x19 DUP4 PUSH2 0x1D98 JUMP JUMPDEST SWAP2 POP PUSH2 0x2A90 DUP3 PUSH2 0x2A51 JUMP JUMPDEST PUSH1 0x20 DUP3 ADD SWAP1 POP SWAP2 SWAP1 POP JUMP JUMPDEST PUSH0 PUSH1 0x20 DUP3 ADD SWAP1 POP DUP2 DUP2 SUB PUSH0 DUP4 ADD MSTORE PUSH2 0x2AB2 DUP2 PUSH2 0x2A79 JUMP JUMPDEST SWAP1 POP SWAP2 SWAP1 POP JUMP JUMPDEST PUSH32 0x4E487B7100000000000000000000000000000000000000000000000000000000 PUSH0 MSTORE PUSH1 0x32 PUSH1 0x4 MSTORE PUSH1 0x24 PUSH0 REVERT JUMPDEST PUSH0 PUSH2 0x2AF0 DUP3 PUSH2 0x1910 JUMP JUMPDEST SWAP2 POP PUSH2 0x2AFB DUP4 PUSH2 0x1910 JUMP JUMPDEST SWAP3 POP DUP3 DUP3 ADD SWAP1 POP DUP1 DUP3 GT ISZERO PUSH2 0x2B13 JUMPI PUSH2 0x2B12 PUSH2 0x288D JUMP JUMPDEST JUMPDEST SWAP3 SWAP2 POP POP JUMP JUMPDEST PUSH32 0x4E487B7100000000000000000000000000000000000000000000000000000000 PUSH0 MSTORE PUSH1 0x31 PUSH1 0x4 MSTORE PUSH1 0x24 PUSH0 REVERT JUMPDEST PUSH0 PUSH1 0x80 DUP3 ADD SWAP1 POP DUP2 DUP2 SUB PUSH0 DUP4 ADD MSTORE PUSH2 0x2B5F DUP2 DUP9 DUP11 PUSH2 0x251E JUMP JUMPDEST SWAP1 POP PUSH2 0x2B6E PUSH1 0x20 DUP4 ADD DUP8 PUSH2 0x199E JUMP JUMPDEST DUP2 DUP2 SUB PUSH1 0x40 DUP4 ADD MSTORE PUSH2 0x2B81 DUP2 DUP6 DUP8 PUSH2 0x254A JUMP JUMPDEST SWAP1 POP PUSH2 0x2B90 PUSH1 0x60 DUP4 ADD DUP5 PUSH2 0x1C03 JUMP JUMPDEST SWAP8 SWAP7 POP POP POP POP POP POP POP JUMP JUMPDEST PUSH32 0x6E6F742071756575656400000000000000000000000000000000000000000000 PUSH0 DUP3 ADD MSTORE POP JUMP JUMPDEST PUSH0 PUSH2 0x2BCF PUSH1 0xA DUP4 PUSH2 0x1D98 JUMP JUMPDEST SWAP2 POP PUSH2 0x2BDA DUP3 PUSH2 0x2B9B JUMP JUMPDEST PUSH1 0x20 DUP3 ADD SWAP1 POP SWAP2 SWAP1 POP JUMP JUMPDEST PUSH0 PUSH1 0x20 DUP3 ADD SWAP1 POP DUP2 DUP2 SUB PUSH0 DUP4 ADD MSTORE PUSH2 0x2BFC DUP2 PUSH2 0x2BC3 JUMP JUMPDEST SWAP1 POP SWAP2 SWAP1 POP JUMP JUMPDEST PUSH32 0x477261636520706572696F64206661696C656400000000000000000000000000 PUSH0 DUP3 ADD MSTORE POP JUMP JUMPDEST PUSH0 PUSH2 0x2C37 PUSH1 0x13 DUP4 PUSH2 0x1D98 JUMP JUMPDEST SWAP2 POP PUSH2 0x2C42 DUP3 PUSH2 0x2C03 JUMP JUMPDEST PUSH1 0x20 DUP3 ADD SWAP1 POP SWAP2 SWAP1 POP JUMP JUMPDEST PUSH0 PUSH1 0x20 DUP3 ADD SWAP1 POP DUP2 DUP2 SUB PUSH0 DUP4 ADD MSTORE PUSH2 0x2C64 DUP2 PUSH2 0x2C2B JUMP JUMPDEST SWAP1 POP SWAP2 SWAP1 POP JUMP JUMPDEST PUSH32 0x4572726F722074696D657374616D700000000000000000000000000000000000 PUSH0 DUP3 ADD MSTORE POP JUMP JUMPDEST PUSH0 PUSH2 0x2C9F PUSH1 0xF DUP4 PUSH2 0x1D98 JUMP JUMPDEST SWAP2 POP PUSH2 0x2CAA DUP3 PUSH2 0x2C6B JUMP JUMPDEST PUSH1 0x20 DUP3 ADD SWAP1 POP SWAP2 SWAP1 POP JUMP JUMPDEST PUSH0 PUSH1 0x20 DUP3 ADD SWAP1 POP DUP2 DUP2 SUB PUSH0 DUP4 ADD MSTORE PUSH2 0x2CCC DUP2 PUSH2 0x2C93 JUMP JUMPDEST SWAP1 POP SWAP2 SWAP1 POP JUMP JUMPDEST PUSH32 0x6E6F7420656E6F75676820636F6E6669726D6174696F6E732000000000000000 PUSH0 DUP3 ADD MSTORE POP JUMP JUMPDEST PUSH0 PUSH2 0x2D07 PUSH1 0x19 DUP4 PUSH2 0x1D98 JUMP JUMPDEST SWAP2 POP PUSH2 0x2D12 DUP3 PUSH2 0x2CD3 JUMP JUMPDEST PUSH1 0x20 DUP3 ADD SWAP1 POP SWAP2 SWAP1 POP JUMP JUMPDEST PUSH0 PUSH1 0x20 DUP3 ADD SWAP1 POP DUP2 DUP2 SUB PUSH0 DUP4 ADD MSTORE PUSH2 0x2D34 DUP2 PUSH2 0x2CFB JUMP JUMPDEST SWAP1 POP SWAP2 SWAP1 POP JUMP JUMPDEST PUSH0 DUP2 SWAP1 POP SWAP3 SWAP2 POP POP JUMP JUMPDEST PUSH0 DUP2 SWAP1 POP DUP2 PUSH0 MSTORE PUSH1 0x20 PUSH0 KECCAK256 SWAP1 POP SWAP2 SWAP1 POP JUMP JUMPDEST PUSH0 DUP2 SLOAD PUSH2 0x2D63 DUP2 PUSH2 0x214A JUMP JUMPDEST PUSH2 0x2D6D DUP2 DUP7 PUSH2 0x2D3B JUMP JUMPDEST SWAP5 POP PUSH1 0x1 DUP3 AND PUSH0 DUP2 EQ PUSH2 0x2D87 JUMPI PUSH1 0x1 DUP2 EQ PUSH2 0x2D9C JUMPI PUSH2 0x2DCE JUMP JUMPDEST PUSH1 0xFF NOT DUP4 AND DUP7 MSTORE DUP2 ISZERO ISZERO DUP3 MUL DUP7 ADD SWAP4 POP PUSH2 0x2DCE JUMP JUMPDEST PUSH2 0x2DA5 DUP6 PUSH2 0x2D45 JUMP JUMPDEST PUSH0 JUMPDEST DUP4 DUP2 LT ISZERO PUSH2 0x2DC6 JUMPI DUP2 SLOAD DUP2 DUP10 ADD MSTORE PUSH1 0x1 DUP3 ADD SWAP2 POP PUSH1 0x20 DUP2 ADD SWAP1 POP PUSH2 0x2DA7 JUMP JUMPDEST DUP4 DUP9 ADD SWAP6 POP POP POP JUMPDEST POP POP POP SWAP3 SWAP2 POP POP JUMP JUMPDEST PUSH0 PUSH2 0x2DE2 DUP3 DUP5 PUSH2 0x2D57 JUMP JUMPDEST SWAP2 POP DUP2 SWAP1 POP SWAP3 SWAP2 POP POP JUMP JUMPDEST PUSH0 PUSH32 0xFFFFFFFF00000000000000000000000000000000000000000000000000000000 DUP3 AND SWAP1 POP SWAP2 SWAP1 POP JUMP JUMPDEST PUSH0 DUP2 SWAP1 POP SWAP2 SWAP1 POP JUMP JUMPDEST PUSH2 0x2E32 PUSH2 0x2E2D DUP3 PUSH2 0x2DED JUMP JUMPDEST PUSH2 0x2E18 JUMP JUMPDEST DUP3 MSTORE POP POP JUMP JUMPDEST PUSH0 DUP2 SLOAD PUSH2 0x2E44 DUP2 PUSH2 0x214A JUMP JUMPDEST PUSH2 0x2E4E DUP2 DUP7 PUSH2 0x2D3B JUMP JUMPDEST SWAP5 POP PUSH1 0x1 DUP3 AND PUSH0 DUP2 EQ PUSH2 0x2E68 JUMPI PUSH1 0x1 DUP2 EQ PUSH2 0x2E7D JUMPI PUSH2 0x2EAF JUMP JUMPDEST PUSH1 0xFF NOT DUP4 AND DUP7 MSTORE DUP2 ISZERO ISZERO DUP3 MUL DUP7 ADD SWAP4 POP PUSH2 0x2EAF JUMP JUMPDEST PUSH2 0x2E86 DUP6 PUSH2 0x23E9 JUMP JUMPDEST PUSH0 JUMPDEST DUP4 DUP2 LT ISZERO PUSH2 0x2EA7 JUMPI DUP2 SLOAD DUP2 DUP10 ADD MSTORE PUSH1 0x1 DUP3 ADD SWAP2 POP PUSH1 0x20 DUP2 ADD SWAP1 POP PUSH2 0x2E88 JUMP JUMPDEST DUP4 DUP9 ADD SWAP6 POP POP POP JUMPDEST POP POP POP SWAP3 SWAP2 POP POP JUMP JUMPDEST PUSH0 PUSH2 0x2EC3 DUP3 DUP6 PUSH2 0x2E21 JUMP JUMPDEST PUSH1 0x4 DUP3 ADD SWAP2 POP PUSH2 0x2ED3 DUP3 DUP5 PUSH2 0x2E38 JUMP JUMPDEST SWAP2 POP DUP2 SWAP1 POP SWAP4 SWAP3 POP POP POP JUMP JUMPDEST PUSH0 PUSH2 0x2EE9 DUP3 PUSH2 0x1DFE JUMP JUMPDEST PUSH2 0x2EF3 DUP2 DUP6 PUSH2 0x2D3B JUMP JUMPDEST SWAP4 POP PUSH2 0x2F03 DUP2 DUP6 PUSH1 0x20 DUP7 ADD PUSH2 0x1DA8 JUMP JUMPDEST DUP1 DUP5 ADD SWAP2 POP POP SWAP3 SWAP2 POP POP JUMP JUMPDEST PUSH0 PUSH2 0x2F1A DUP3 DUP5 PUSH2 0x2EDF JUMP JUMPDEST SWAP2 POP DUP2 SWAP1 POP SWAP3 SWAP2 POP POP JUMP JUMPDEST PUSH32 0x7478206572726F72000000000000000000000000000000000000000000000000 PUSH0 DUP3 ADD MSTORE POP JUMP JUMPDEST PUSH0 PUSH2 0x2F59 PUSH1 0x8 DUP4 PUSH2 0x1D98 JUMP JUMPDEST SWAP2 POP PUSH2 0x2F64 DUP3 PUSH2 0x2F25 JUMP JUMPDEST PUSH1 0x20 DUP3 ADD SWAP1 POP SWAP2 SWAP1 POP JUMP JUMPDEST PUSH0 PUSH1 0x20 DUP3 ADD SWAP1 POP DUP2 DUP2 SUB PUSH0 DUP4 ADD MSTORE PUSH2 0x2F86 DUP2 PUSH2 0x2F4D JUMP JUMPDEST SWAP1 POP SWAP2 SWAP1 POP JUMP JUMPDEST PUSH0 DUP2 SLOAD PUSH2 0x2F99 DUP2 PUSH2 0x214A JUMP JUMPDEST PUSH2 0x2FA3 DUP2 DUP7 PUSH2 0x1D98 JUMP JUMPDEST SWAP5 POP PUSH1 0x1 DUP3 AND PUSH0 DUP2 EQ PUSH2 0x2FBD JUMPI PUSH1 0x1 DUP2 EQ PUSH2 0x2FD3 JUMPI PUSH2 0x3005 JUMP JUMPDEST PUSH1 0xFF NOT DUP4 AND DUP7 MSTORE DUP2 ISZERO ISZERO PUSH1 0x20 MUL DUP7 ADD SWAP4 POP PUSH2 0x3005 JUMP JUMPDEST PUSH2 0x2FDC DUP6 PUSH2 0x217A JUMP JUMPDEST PUSH0 JUMPDEST DUP4 DUP2 LT ISZERO PUSH2 0x2FFD JUMPI DUP2 SLOAD DUP2 DUP10 ADD MSTORE PUSH1 0x1 DUP3 ADD SWAP2 POP PUSH1 0x20 DUP2 ADD SWAP1 POP PUSH2 0x2FDE JUMP JUMPDEST DUP1 DUP9 ADD SWAP6 POP POP POP JUMPDEST POP POP POP SWAP3 SWAP2 POP POP JUMP JUMPDEST PUSH0 PUSH1 0xA0 DUP3 ADD SWAP1 POP PUSH2 0x3021 PUSH0 DUP4 ADD DUP9 PUSH2 0x199E JUMP JUMPDEST PUSH2 0x302E PUSH1 0x20 DUP4 ADD DUP8 PUSH2 0x1B40 JUMP JUMPDEST PUSH2 0x303B PUSH1 0x40 DUP4 ADD DUP7 PUSH2 0x1C03 JUMP JUMPDEST PUSH2 0x3048 PUSH1 0x60 DUP4 ADD DUP6 PUSH2 0x199E JUMP JUMPDEST DUP2 DUP2 SUB PUSH1 0x80 DUP4 ADD MSTORE PUSH2 0x305A DUP2 DUP5 PUSH2 0x2F8D JUMP JUMPDEST SWAP1 POP SWAP7 SWAP6 POP POP POP POP POP POP JUMP INVALID LOG2 PUSH5 0x6970667358 0x22 SLT KECCAK256 0xAF MLOAD EXTCODEHASH MULMOD 0x22 0xD 0xA5 TLOAD 0xC6 JUMPI SAR PUSH12 0xDA3A8306E40323ED64532584 0xEC GASPRICE SWAP7 KECCAK256 0x27 PUSH10 0xC1064736F6C63430008 SHR STOP CALLER "
				},
				"gasEstimates": {
					"creation": {
						"codeDepositCost": "2488800",
						"executionCost": "infinite",
						"totalCost": "infinite"
					},
					"external": {
						"addExecProposal(string,address,bytes)": "infinite",
						"addOwner(address)": "73490",
						"assignRequiredConf(uint8)": "infinite",
						"cancelConfirmation(bytes32)": "infinite",
						"confirm(bytes32)": "infinite",
						"confirmations(bytes32,address)": "3115",
						"delOwner(uint256)": "infinite",
						"eps(bytes32)": "infinite",
						"owners(uint256)": "4945",
						"seeMinCofReq()": "2539",
						"seeOwners()": "infinite"
					},
					"internal": {
						"discardExecProposal(bytes32)": "infinite",
						"execute(bytes32)": "infinite",
						"txToByte(string calldata,address,bytes calldata,uint256)": "infinite"
					}
				},
				"methodIdentifiers": {
					"addExecProposal(string,address,bytes)": "0753a692",
					"addOwner(address)": "7065cb48",
					"assignRequiredConf(uint8)": "3c7bf9ad",
					"cancelConfirmation(bytes32)": "9ac1636b",
					"confirm(bytes32)": "797af627",
					"confirmations(bytes32,address)": "0c4ecab4",
					"delOwner(uint256)": "fe8492c3",
					"eps(bytes32)": "4898b157",
					"owners(uint256)": "025e7c27",
					"seeMinCofReq()": "193776f4",
					"seeOwners()": "414a6811"
				}
			},
			"storageLayout": {
				"storage": [
					{
						"astId": 3,
						"contract": "contracts/SomniaConsensusDAO.sol:SomniaConsensusDAO",
						"label": "confirmationsRequired",
						"offset": 0,
						"slot": "0",
						"type": "t_uint8"
					},
					{
						"astId": 8,
						"contract": "contracts/SomniaConsensusDAO.sol:SomniaConsensusDAO",
						"label": "owners",
						"offset": 0,
						"slot": "1",
						"type": "t_array(t_address)dyn_storage"
					},
					{
						"astId": 26,
						"contract": "contracts/SomniaConsensusDAO.sol:SomniaConsensusDAO",
						"label": "eps",
						"offset": 0,
						"slot": "2",
						"type": "t_mapping(t_bytes32,t_struct(ExecProposal)21_storage)"
					},
					{
						"astId": 30,
						"contract": "contracts/SomniaConsensusDAO.sol:SomniaConsensusDAO",
						"label": "queue",
						"offset": 0,
						"slot": "3",
						"type": "t_mapping(t_bytes32,t_bool)"
					},
					{
						"astId": 36,
						"contract": "contracts/SomniaConsensusDAO.sol:SomniaConsensusDAO",
						"label": "confirmations",
						"offset": 0,
						"slot": "4",
						"type": "t_mapping(t_bytes32,t_mapping(t_address,t_bool))"
					},
					{
						"astId": 40,
						"contract": "contracts/SomniaConsensusDAO.sol:SomniaConsensusDAO",
						"label": "isOwner",
						"offset": 0,
						"slot": "5",
						"type": "t_mapping(t_address,t_bool)"
					}
				],
				"types": {
					"t_address": {
						"encoding": "inplace",
						"label": "address",
						"numberOfBytes": "20"
					},
					"t_array(t_address)dyn_storage": {
						"base": "t_address",
						"encoding": "dynamic_array",
						"label": "address[]",
						"numberOfBytes": "32"
					},
					"t_bool": {
						"encoding": "inplace",
						"label": "bool",
						"numberOfBytes": "1"
					},
					"t_bytes32": {
						"encoding": "inplace",
						"label": "bytes32",
						"numberOfBytes": "32"
					},
					"t_bytes_storage": {
						"encoding": "bytes",
						"label": "bytes",
						"numberOfBytes": "32"
					},
					"t_mapping(t_address,t_bool)": {
						"encoding": "mapping",
						"key": "t_address",
						"label": "mapping(address => bool)",
						"numberOfBytes": "32",
						"value": "t_bool"
					},
					"t_mapping(t_bytes32,t_bool)": {
						"encoding": "mapping",
						"key": "t_bytes32",
						"label": "mapping(bytes32 => bool)",
						"numberOfBytes": "32",
						"value": "t_bool"
					},
					"t_mapping(t_bytes32,t_mapping(t_address,t_bool))": {
						"encoding": "mapping",
						"key": "t_bytes32",
						"label": "mapping(bytes32 => mapping(address => bool))",
						"numberOfBytes": "32",
						"value": "t_mapping(t_address,t_bool)"
					},
					"t_mapping(t_bytes32,t_struct(ExecProposal)21_storage)": {
						"encoding": "mapping",
						"key": "t_bytes32",
						"label": "mapping(bytes32 => struct SomniaConsensusDAO.ExecProposal)",
						"numberOfBytes": "32",
						"value": "t_struct(ExecProposal)21_storage"
					},
					"t_string_storage": {
						"encoding": "bytes",
						"label": "string",
						"numberOfBytes": "32"
					},
					"t_struct(ExecProposal)21_storage": {
						"encoding": "inplace",
						"label": "struct SomniaConsensusDAO.ExecProposal",
						"members": [
							{
								"astId": 10,
								"contract": "contracts/SomniaConsensusDAO.sol:SomniaConsensusDAO",
								"label": "uid",
								"offset": 0,
								"slot": "0",
								"type": "t_bytes32"
							},
							{
								"astId": 12,
								"contract": "contracts/SomniaConsensusDAO.sol:SomniaConsensusDAO",
								"label": "to",
								"offset": 0,
								"slot": "1",
								"type": "t_address"
							},
							{
								"astId": 14,
								"contract": "contracts/SomniaConsensusDAO.sol:SomniaConsensusDAO",
								"label": "func",
								"offset": 0,
								"slot": "2",
								"type": "t_string_storage"
							},
							{
								"astId": 16,
								"contract": "contracts/SomniaConsensusDAO.sol:SomniaConsensusDAO",
								"label": "data",
								"offset": 0,
								"slot": "3",
								"type": "t_bytes_storage"
							},
							{
								"astId": 18,
								"contract": "contracts/SomniaConsensusDAO.sol:SomniaConsensusDAO",
								"label": "timestamp",
								"offset": 0,
								"slot": "4",
								"type": "t_uint256"
							},
							{
								"astId": 20,
								"contract": "contracts/SomniaConsensusDAO.sol:SomniaConsensusDAO",
								"label": "confirmations",
								"offset": 0,
								"slot": "5",
								"type": "t_uint256"
							}
						],
						"numberOfBytes": "192"
					},
					"t_uint256": {
						"encoding": "inplace",
						"label": "uint256",
						"numberOfBytes": "32"
					},
					"t_uint8": {
						"encoding": "inplace",
						"label": "uint8",
						"numberOfBytes": "1"
					}
				}
			},
			"userdoc": {
				"kind": "user",
				"methods": {},
				"version": 1
			}
		}
	}
}