{
  "_format": "hh-sol-artifact-1",
  "contractName": "SomniaDAOFactory",
  "sourceName": "contracts/SomniaDAOFactory.sol",
  "abi": [
    {
      "inputs": [],
      "stateMutability": "nonpayable",
      "type": "constructor"
    },
    {
      "anonymous": false,
      "inputs": [
        {
          "indexed": true,
          "internalType": "address",
          "name": "creator",
          "type": "address"
        },
        {
          "indexed": false,
          "internalType": "address",
          "name": "daoAddress",
          "type": "address"
        },
        {
          "indexed": false,
          "internalType": "uint256",
          "name": "timestamp",
          "type": "uint256"
        }
      ],
      "name": "DAOCreated",
      "type": "event"
    },
    {
      "inputs": [],
      "name": "CREATION_FEE",
      "outputs": [
        {
          "internalType": "uint256",
          "name": "",
          "type": "uint256"
        }
      ],
      "stateMutability": "view",
      "type": "function"
    },
    {
      "inputs": [
        {
          "internalType": "address[]",
          "name": "_owners",
          "type": "address[]"
        },
        {
          "internalType": "uint256",
          "name": "_confirmationsRequired",
          "type": "uint256"
        },
        {
          "internalType": "uint8",
          "name": "_graceperiod",
          "type": "uint8"
        }
      ],
      "name": "createDAO",
      "outputs": [],
      "stateMutability": "payable",
      "type": "function"
    },
    {
      "inputs": [],
      "name": "factoryOwner",
      "outputs": [
        {
          "internalType": "address",
          "name": "",
          "type": "address"
        }
      ],
      "stateMutability": "view",
      "type": "function"
    },
    {
      "inputs": [
        {
          "internalType": "address",
          "name": "",
          "type": "address"
        },
        {
          "internalType": "uint256",
          "name": "",
          "type": "uint256"
        }
      ],
      "name": "userDAOs",
      "outputs": [
        {
          "internalType": "address",
          "name": "",
          "type": "address"
        }
      ],
      "stateMutability": "view",
      "type": "function"
    },
    {
      "inputs": [
        {
          "internalType": "address payable",
          "name": "_to",
          "type": "address"
        }
      ],
      "name": "withdrawEther",
      "outputs": [],
      "stateMutability": "nonpayable",
      "type": "function"
    },
    {
      "stateMutability": "payable",
      "type": "receive"
    }
  ],
  "bytecode": "0x6080604052348015600f57600080fd5b50336000806101000a81548173ffffffffffffffffffffffffffffffffffffffff021916908373ffffffffffffffffffffffffffffffffffffffff16021790555061440e8061005f6000396000f3fe60806040526004361061004e5760003560e01c80631f7c6ed41461005a5780634273601c1461009757806349a2104d146100c2578063af933b57146100ed578063faeae4be1461011657610055565b3661005557005b600080fd5b34801561006657600080fd5b50610081600480360381019061007c9190610565565b610132565b60405161008e91906105b4565b60405180910390f35b3480156100a357600080fd5b506100ac610180565b6040516100b991906105b4565b60405180910390f35b3480156100ce57600080fd5b506100d76101a4565b6040516100e491906105de565b60405180910390f35b3480156100f957600080fd5b50610114600480360381019061010f9190610637565b6101ae565b005b610130600480360381019061012b91906107f6565b610335565b005b6001602052816000526040600020818154811061014e57600080fd5b906000526020600020016000915091509054906101000a900473ffffffffffffffffffffffffffffffffffffffff1681565b60008054906101000a900473ffffffffffffffffffffffffffffffffffffffff1681565b655af3107a400081565b60008054906101000a900473ffffffffffffffffffffffffffffffffffffffff1673ffffffffffffffffffffffffffffffffffffffff163373ffffffffffffffffffffffffffffffffffffffff161461023c576040517f08c379a0000000000000000000000000000000000000000000000000000000008152600401610233906108c2565b60405180910390fd5b6000471161027f576040517f08c379a00000000000000000000000000000000000000000000000000000000081526004016102769061092e565b60405180910390fd5b600047905060008273ffffffffffffffffffffffffffffffffffffffff16826040516102aa9061097f565b60006040518083038185875af1925050503d80600081146102e7576040519150601f19603f3d011682016040523d82523d6000602084013e6102ec565b606091505b5050905080610330576040517f08c379a0000000000000000000000000000000000000000000000000000000008152600401610327906109e0565b60405180910390fd5b505050565b655af3107a400034101561037e576040517f08c379a000000000000000000000000000000000000000000000000000000000815260040161037590610a4c565b60405180910390fd5b600083838360405161038f906104b0565b61039b93929190610b39565b604051809103906000f0801580156103b7573d6000803e3d6000fd5b509050600160003373ffffffffffffffffffffffffffffffffffffffff1673ffffffffffffffffffffffffffffffffffffffff168152602001908152602001600020819080600181540180825580915050600190039060005260206000200160009091909190916101000a81548173ffffffffffffffffffffffffffffffffffffffff021916908373ffffffffffffffffffffffffffffffffffffffff1602179055503373ffffffffffffffffffffffffffffffffffffffff167fa0a1a7b3f1364da90413d39798988865c3077b6b9cb881807a398cdd3859d02282426040516104a2929190610b77565b60405180910390a250505050565b61383880610ba183390190565b6000604051905090565b600080fd5b600080fd5b600073ffffffffffffffffffffffffffffffffffffffff82169050919050565b60006104fc826104d1565b9050919050565b61050c816104f1565b811461051757600080fd5b50565b60008135905061052981610503565b92915050565b6000819050919050565b6105428161052f565b811461054d57600080fd5b50565b60008135905061055f81610539565b92915050565b6000806040838503121561057c5761057b6104c7565b5b600061058a8582860161051a565b925050602061059b85828601610550565b9150509250929050565b6105ae816104f1565b82525050565b60006020820190506105c960008301846105a5565b92915050565b6105d88161052f565b82525050565b60006020820190506105f360008301846105cf565b92915050565b6000610604826104d1565b9050919050565b610614816105f9565b811461061f57600080fd5b50565b6000813590506106318161060b565b92915050565b60006020828403121561064d5761064c6104c7565b5b600061065b84828501610622565b91505092915050565b600080fd5b6000601f19601f8301169050919050565b7f4e487b7100000000000000000000000000000000000000000000000000000000600052604160045260246000fd5b6106b282610669565b810181811067ffffffffffffffff821117156106d1576106d061067a565b5b80604052505050565b60006106e46104bd565b90506106f082826106a9565b919050565b600067ffffffffffffffff8211156107105761070f61067a565b5b602082029050602081019050919050565b600080fd5b6000610739610734846106f5565b6106da565b9050808382526020820190506020840283018581111561075c5761075b610721565b5b835b818110156107855780610771888261051a565b84526020840193505060208101905061075e565b5050509392505050565b600082601f8301126107a4576107a3610664565b5b81356107b4848260208601610726565b91505092915050565b600060ff82169050919050565b6107d3816107bd565b81146107de57600080fd5b50565b6000813590506107f0816107ca565b92915050565b60008060006060848603121561080f5761080e6104c7565b5b600084013567ffffffffffffffff81111561082d5761082c6104cc565b5b6108398682870161078f565b935050602061084a86828701610550565b925050604061085b868287016107e1565b9150509250925092565b600082825260208201905092915050565b7f4e6f74206f776e65720000000000000000000000000000000000000000000000600082015250565b60006108ac600983610865565b91506108b782610876565b602082019050919050565b600060208201905081810360008301526108db8161089f565b9050919050565b7f4e6f2045544820746f2077697468647261770000000000000000000000000000600082015250565b6000610918601283610865565b9150610923826108e2565b602082019050919050565b600060208201905081810360008301526109478161090b565b9050919050565b600081905092915050565b50565b600061096960008361094e565b915061097482610959565b600082019050919050565b600061098a8261095c565b9150819050919050565b7f5472616e73666572206661696c65640000000000000000000000000000000000600082015250565b60006109ca600f83610865565b91506109d582610994565b602082019050919050565b600060208201905081810360008301526109f9816109bd565b9050919050565b7f50617920302e3120535454000000000000000000000000000000000000000000600082015250565b6000610a36600b83610865565b9150610a4182610a00565b602082019050919050565b60006020820190508181036000830152610a6581610a29565b9050919050565b600081519050919050565b600082825260208201905092915050565b6000819050602082019050919050565b610aa1816104f1565b82525050565b6000610ab38383610a98565b60208301905092915050565b6000602082019050919050565b6000610ad782610a6c565b610ae18185610a77565b9350610aec83610a88565b8060005b83811015610b1d578151610b048882610aa7565b9750610b0f83610abf565b925050600181019050610af0565b5085935050505092915050565b610b33816107bd565b82525050565b60006060820190508181036000830152610b538186610acc565b9050610b6260208301856105cf565b610b6f6040830184610b2a565b949350505050565b6000604082019050610b8c60008301856105a5565b610b9960208301846105cf565b939250505056fe60a060405234801561001057600080fd5b506040516138383803806138388339818101604052810190610032919061045f565b8060ff1683511015610079576040517f08c379a00000000000000000000000000000000000000000000000000000000081526004016100709061052b565b60405180910390fd5b60005b83518110156101fa57600084828151811061009a5761009961054b565b5b60200260200101519050600560008273ffffffffffffffffffffffffffffffffffffffff1673ffffffffffffffffffffffffffffffffffffffff16815260200190815260200160002060009054906101000a900460ff1615610131576040517f08c379a0000000000000000000000000000000000000000000000000000000008152600401610128906105c6565b60405180910390fd5b6001600560008373ffffffffffffffffffffffffffffffffffffffff1673ffffffffffffffffffffffffffffffffffffffff16815260200190815260200160002060006101000a81548160ff0219169083151502179055506001819080600181540180825580915050600190039060005260206000200160009091909190916101000a81548173ffffffffffffffffffffffffffffffffffffffff021916908373ffffffffffffffffffffffffffffffffffffffff16021790555050808060010191505061007c565b508160808181525050806000806101000a81548160ff021916908360ff1602179055505050506105e6565b6000604051905090565b600080fd5b600080fd5b600080fd5b6000601f19601f8301169050919050565b7f4e487b7100000000000000000000000000000000000000000000000000000000600052604160045260246000fd5b6102878261023e565b810181811067ffffffffffffffff821117156102a6576102a561024f565b5b80604052505050565b60006102b9610225565b90506102c5828261027e565b919050565b600067ffffffffffffffff8211156102e5576102e461024f565b5b602082029050602081019050919050565b600080fd5b600073ffffffffffffffffffffffffffffffffffffffff82169050919050565b6000610326826102fb565b9050919050565b6103368161031b565b811461034157600080fd5b50565b6000815190506103538161032d565b92915050565b600061036c610367846102ca565b6102af565b9050808382526020820190506020840283018581111561038f5761038e6102f6565b5b835b818110156103b857806103a48882610344565b845260208401935050602081019050610391565b5050509392505050565b600082601f8301126103d7576103d6610239565b5b81516103e7848260208601610359565b91505092915050565b6000819050919050565b610403816103f0565b811461040e57600080fd5b50565b600081519050610420816103fa565b92915050565b600060ff82169050919050565b61043c81610426565b811461044757600080fd5b50565b60008151905061045981610433565b92915050565b6000806000606084860312156104785761047761022f565b5b600084015167ffffffffffffffff81111561049657610495610234565b5b6104a2868287016103c2565b93505060206104b386828701610411565b92505060406104c48682870161044a565b9150509250925092565b600082825260208201905092915050565b7f4d696e696d756d2033206f776e65727300000000000000000000000000000000600082015250565b60006105156010836104ce565b9150610520826104df565b602082019050919050565b6000602082019050818103600083015261054481610508565b9050919050565b7f4e487b7100000000000000000000000000000000000000000000000000000000600052603260045260246000fd5b7f6475706c696361746564206f776e657200000000000000000000000000000000600082015250565b60006105b06010836104ce565b91506105bb8261057a565b602082019050919050565b600060208201905081810360008301526105df816105a3565b9050919050565b608051613237610601600039600061140001526132376000f3fe608060405234801561001057600080fd5b50600436106100a95760003560e01c8063414a681111610071578063414a6811146101785780634898b157146101965780637065cb48146101cb578063797af627146101e75780639ac1636b14610203578063fe8492c31461021f576100a9565b8063025e7c27146100ae5780630753a692146100de5780630c4ecab41461010e578063193776f41461013e5780633c7bf9ad1461015c575b600080fd5b6100c860048036038101906100c391906119fb565b61023b565b6040516100d59190611a69565b60405180910390f35b6100f860048036038101906100f39190611b6b565b61027a565b6040516101059190611c19565b60405180910390f35b61012860048036038101906101239190611c60565b6106d0565b6040516101359190611cbb565b60405180910390f35b6101466106ff565b6040516101539190611ce5565b60405180910390f35b61017660048036038101906101719190611d39565b610718565b005b61018061086e565b60405161018d9190611e24565b60405180910390f35b6101b060048036038101906101ab9190611e46565b6108fc565b6040516101c296959493929190611f58565b60405180910390f35b6101e560048036038101906101e09190611fc7565b610a68565b005b61020160048036038101906101fc9190611e46565b610c03565b005b61021d60048036038101906102189190611e46565b610e50565b005b610239600480360381019061023491906119fb565b61102d565b005b6001818154811061024b57600080fd5b906000526020600020016000915054906101000a900473ffffffffffffffffffffffffffffffffffffffff1681565b6000600560003373ffffffffffffffffffffffffffffffffffffffff1673ffffffffffffffffffffffffffffffffffffffff16815260200190815260200160002060009054906101000a900460ff16610308576040517f08c379a00000000000000000000000000000000000000000000000000000000081526004016102ff90612040565b60405180910390fd5b600073ffffffffffffffffffffffffffffffffffffffff168473ffffffffffffffffffffffffffffffffffffffff1603610377576040517f08c379a000000000000000000000000000000000000000000000000000000000815260040161036e906120ac565b60405180910390fd5b600086869050116103bd576040517f08c379a00000000000000000000000000000000000000000000000000000000081526004016103b490612118565b60405180910390fd5b60008383905011610403576040517f08c379a00000000000000000000000000000000000000000000000000000000081526004016103fa90612184565b60405180910390fd5b6000610413878787878742611342565b90506003600082815260200190815260200160002060009054906101000a900460ff1615610476576040517f08c379a000000000000000000000000000000000000000000000000000000000815260040161046d906121f0565b60405180910390fd5b60016003600083815260200190815260200160002060006101000a81548160ff02191690831515021790555060016004600083815260200190815260200160002060003373ffffffffffffffffffffffffffffffffffffffff1673ffffffffffffffffffffffffffffffffffffffff16815260200190815260200160002060006101000a81548160ff0219169083151502179055506040518060c001604052808281526020018673ffffffffffffffffffffffffffffffffffffffff16815260200188888080601f016020809104026020016040519081016040528093929190818152602001838380828437600081840152601f19601f82011690508083019250505050505050815260200185858080601f016020809104026020016040519081016040528093929190818152602001838380828437600081840152601f19601f8201169050808301925050505050505081526020014281526020016001815250600260008381526020019081526020016000206000820151816000015560208201518160010160006101000a81548173ffffffffffffffffffffffffffffffffffffffff021916908373ffffffffffffffffffffffffffffffffffffffff1602179055506040820151816002019081610650919061244b565b5060608201518160030190816106669190612578565b506080820151816004015560a082015181600501559050507f9ebfdc2f8d091a5a9c70ccf8288d6521eed7103f00edea478db417af66bbfd1733868989888842886040516106bb9897969594939291906126b3565b60405180910390a18091505095945050505050565b60046020528160005260406000206020528060005260406000206000915091509054906101000a900460ff1681565b60008060009054906101000a900460ff1660ff16905090565b3073ffffffffffffffffffffffffffffffffffffffff163373ffffffffffffffffffffffffffffffffffffffff1614610786576040517f08c379a000000000000000000000000000000000000000000000000000000000815260040161077d90612772565b60405180910390fd5b8060ff1660018054905010156107d1576040517f08c379a00000000000000000000000000000000000000000000000000000000081526004016107c8906127de565b60405180910390fd5b60028160ff161015610818576040517f08c379a000000000000000000000000000000000000000000000000000000000815260040161080f9061284a565b60405180910390fd5b806000806101000a81548160ff021916908360ff1602179055507ff038ae2391da98e6cc50292a29178f79383d45f4798eb3d2643b2151fe6482874382604051610863929190612879565b60405180910390a150565b606060018054806020026020016040519081016040528092919081815260200182805480156108f257602002820191906000526020600020905b8160009054906101000a900473ffffffffffffffffffffffffffffffffffffffff1673ffffffffffffffffffffffffffffffffffffffff16815260200190600101908083116108a8575b5050505050905090565b60026020528060005260406000206000915090508060000154908060010160009054906101000a900473ffffffffffffffffffffffffffffffffffffffff169080600201805461094b9061226e565b80601f01602080910402602001604051908101604052809291908181526020018280546109779061226e565b80156109c45780601f10610999576101008083540402835291602001916109c4565b820191906000526020600020905b8154815290600101906020018083116109a757829003601f168201915b5050505050908060030180546109d99061226e565b80601f0160208091040260200160405190810160405280929190818152602001828054610a059061226e565b8015610a525780601f10610a2757610100808354040283529160200191610a52565b820191906000526020600020905b815481529060010190602001808311610a3557829003601f168201915b5050505050908060040154908060050154905086565b3073ffffffffffffffffffffffffffffffffffffffff163373ffffffffffffffffffffffffffffffffffffffff1614610ad6576040517f08c379a0000000000000000000000000000000000000000000000000000000008152600401610acd90612772565b60405180910390fd5b600073ffffffffffffffffffffffffffffffffffffffff168173ffffffffffffffffffffffffffffffffffffffff1603610b45576040517f08c379a0000000000000000000000000000000000000000000000000000000008152600401610b3c906128ee565b60405180910390fd5b6001600560008373ffffffffffffffffffffffffffffffffffffffff1673ffffffffffffffffffffffffffffffffffffffff16815260200190815260200160002060006101000a81548160ff0219169083151502179055506001819080600181540180825580915050600190039060005260206000200160009091909190916101000a81548173ffffffffffffffffffffffffffffffffffffffff021916908373ffffffffffffffffffffffffffffffffffffffff16021790555050565b600560003373ffffffffffffffffffffffffffffffffffffffff1673ffffffffffffffffffffffffffffffffffffffff16815260200190815260200160002060009054906101000a900460ff16610c8f576040517f08c379a0000000000000000000000000000000000000000000000000000000008152600401610c8690612040565b60405180910390fd5b6003600082815260200190815260200160002060009054906101000a900460ff16610cef576040517f08c379a0000000000000000000000000000000000000000000000000000000008152600401610ce69061295a565b60405180910390fd5b6004600082815260200190815260200160002060003373ffffffffffffffffffffffffffffffffffffffff1673ffffffffffffffffffffffffffffffffffffffff16815260200190815260200160002060009054906101000a900460ff1615610d8d576040517f08c379a0000000000000000000000000000000000000000000000000000000008152600401610d84906129c6565b60405180910390fd5b6000600260008381526020019081526020016000209050806005016000815480929190610db990612a15565b919050555060016004600084815260200190815260200160002060003373ffffffffffffffffffffffffffffffffffffffff1673ffffffffffffffffffffffffffffffffffffffff16815260200190815260200160002060006101000a81548160ff02191690831515021790555060008054906101000a900460ff1660ff16816005015410610e4c57610e4b82611386565b5b5050565b600560003373ffffffffffffffffffffffffffffffffffffffff1673ffffffffffffffffffffffffffffffffffffffff16815260200190815260200160002060009054906101000a900460ff16610edc576040517f08c379a0000000000000000000000000000000000000000000000000000000008152600401610ed390612040565b60405180910390fd5b6004600082815260200190815260200160002060003373ffffffffffffffffffffffffffffffffffffffff1673ffffffffffffffffffffffffffffffffffffffff16815260200190815260200160002060009054906101000a900460ff16610f79576040517f08c379a0000000000000000000000000000000000000000000000000000000008152600401610f7090612aa9565b60405180910390fd5b6000600260008381526020019081526020016000209050806005016000815480929190610fa590612ac9565b919050555060006004600084815260200190815260200160002060003373ffffffffffffffffffffffffffffffffffffffff1673ffffffffffffffffffffffffffffffffffffffff16815260200190815260200160002060006101000a81548160ff02191690831515021790555060008160050154036110295761102882611727565b5b5050565b3073ffffffffffffffffffffffffffffffffffffffff163373ffffffffffffffffffffffffffffffffffffffff161461109b576040517f08c379a000000000000000000000000000000000000000000000000000000000815260040161109290612772565b60405180910390fd5b60006001805490509050808211156110e8576040517f08c379a00000000000000000000000000000000000000000000000000000000081526004016110df90612b64565b60405180910390fd5b60008054906101000a900460ff1660ff166001826111069190612b84565b1015611147576040517f08c379a000000000000000000000000000000000000000000000000000000000815260040161113e90612c04565b60405180910390fd5b6000600560006001858154811061116157611160612c24565b5b9060005260206000200160009054906101000a900473ffffffffffffffffffffffffffffffffffffffff1673ffffffffffffffffffffffffffffffffffffffff1673ffffffffffffffffffffffffffffffffffffffff16815260200190815260200160002060006101000a81548160ff02191690831515021790555060008290505b6001826111f09190612b84565b8110156112aa57600180826112059190612c53565b8154811061121657611215612c24565b5b9060005260206000200160009054906101000a900473ffffffffffffffffffffffffffffffffffffffff166001828154811061125557611254612c24565b5b9060005260206000200160006101000a81548173ffffffffffffffffffffffffffffffffffffffff021916908373ffffffffffffffffffffffffffffffffffffffff16021790555080806001019150506111e3565b50600180826112b99190612b84565b815481106112ca576112c9612c24565b5b9060005260206000200160006101000a81549073ffffffffffffffffffffffffffffffffffffffff0219169055600180548061130957611308612c87565b5b6001900381819060005260206000200160006101000a81549073ffffffffffffffffffffffffffffffffffffffff021916905590555050565b60008087878787878760405160200161136096959493929190612cb6565b604051602081830303815290604052805190602001209050809150509695505050505050565b60006002600083815260200190815260200160002090506003600083815260200190815260200160002060009054906101000a900460ff166113fd576040517f08c379a00000000000000000000000000000000000000000000000000000000081526004016113f490612d59565b60405180910390fd5b427f0000000000000000000000000000000000000000000000000000000000000000826004015461142e9190612c53565b1161146e576040517f08c379a000000000000000000000000000000000000000000000000000000000815260040161146590612dc5565b60405180910390fd5b806004015442116114b4576040517f08c379a00000000000000000000000000000000000000000000000000000000081526004016114ab90612e31565b60405180910390fd5b60008054906101000a900460ff1660ff168160050154101561150b576040517f08c379a000000000000000000000000000000000000000000000000000000000815260040161150290612e9d565b60405180910390fd5b6003600083815260200190815260200160002060006101000a81549060ff02191690556060816002016040516115419190612f60565b60405180910390208260030160405160200161155e929190613047565b604051602081830303815290604052905060008260010160009054906101000a900473ffffffffffffffffffffffffffffffffffffffff1673ffffffffffffffffffffffffffffffffffffffff166000836040516115bc91906130a0565b60006040518083038185875af1925050503d80600081146115f9576040519150601f19603f3d011682016040523d82523d6000602084013e6115fe565b606091505b5050905080611642576040517f08c379a000000000000000000000000000000000000000000000000000000000815260040161163990613103565b60405180910390fd5b7f9c7070454b027dadd42327b0e9874fd7d5f4d0b60ffb5e65b23fc530e91d992b338585600401548660010160009054906101000a900473ffffffffffffffffffffffffffffffffffffffff16876002016040516116a49594939291906131a7565b60405180910390a1600260008581526020019081526020016000206000808201600090556001820160006101000a81549073ffffffffffffffffffffffffffffffffffffffff02191690556002820160006116ff919061191e565b60038201600061170f919061195e565b60048201600090556005820160009055505050505050565b6003600082815260200190815260200160002060009054906101000a900460ff16611787576040517f08c379a000000000000000000000000000000000000000000000000000000000815260040161177e90612d59565b60405180910390fd5b6003600082815260200190815260200160002060006101000a81549060ff0219169055600260008281526020019081526020016000206000808201600090556001820160006101000a81549073ffffffffffffffffffffffffffffffffffffffff02191690556002820160006117fd919061191e565b60038201600061180d919061195e565b60048201600090556005820160009055505060005b6001805490508110156118e35760006004600084815260200190815260200160002060006001848154811061185a57611859612c24565b5b9060005260206000200160009054906101000a900473ffffffffffffffffffffffffffffffffffffffff1673ffffffffffffffffffffffffffffffffffffffff1673ffffffffffffffffffffffffffffffffffffffff16815260200190815260200160002060006101000a81548160ff0219169083151502179055508080600101915050611822565b507f72cd7667542ebd154efd241871dca06d4b862c64b2b81be5f7eda452e015548f816040516119139190611c19565b60405180910390a150565b50805461192a9061226e565b6000825580601f1061193c575061195b565b601f01602090049060005260206000209081019061195a919061199e565b5b50565b50805461196a9061226e565b6000825580601f1061197c575061199b565b601f01602090049060005260206000209081019061199a919061199e565b5b50565b5b808211156119b757600081600090555060010161199f565b5090565b600080fd5b600080fd5b6000819050919050565b6119d8816119c5565b81146119e357600080fd5b50565b6000813590506119f5816119cf565b92915050565b600060208284031215611a1157611a106119bb565b5b6000611a1f848285016119e6565b91505092915050565b600073ffffffffffffffffffffffffffffffffffffffff82169050919050565b6000611a5382611a28565b9050919050565b611a6381611a48565b82525050565b6000602082019050611a7e6000830184611a5a565b92915050565b600080fd5b600080fd5b600080fd5b60008083601f840112611aa957611aa8611a84565b5b8235905067ffffffffffffffff811115611ac657611ac5611a89565b5b602083019150836001820283011115611ae257611ae1611a8e565b5b9250929050565b611af281611a48565b8114611afd57600080fd5b50565b600081359050611b0f81611ae9565b92915050565b60008083601f840112611b2b57611b2a611a84565b5b8235905067ffffffffffffffff811115611b4857611b47611a89565b5b602083019150836001820283011115611b6457611b63611a8e565b5b9250929050565b600080600080600060608688031215611b8757611b866119bb565b5b600086013567ffffffffffffffff811115611ba557611ba46119c0565b5b611bb188828901611a93565b95509550506020611bc488828901611b00565b935050604086013567ffffffffffffffff811115611be557611be46119c0565b5b611bf188828901611b15565b92509250509295509295909350565b6000819050919050565b611c1381611c00565b82525050565b6000602082019050611c2e6000830184611c0a565b92915050565b611c3d81611c00565b8114611c4857600080fd5b50565b600081359050611c5a81611c34565b92915050565b60008060408385031215611c7757611c766119bb565b5b6000611c8585828601611c4b565b9250506020611c9685828601611b00565b9150509250929050565b60008115159050919050565b611cb581611ca0565b82525050565b6000602082019050611cd06000830184611cac565b92915050565b611cdf816119c5565b82525050565b6000602082019050611cfa6000830184611cd6565b92915050565b600060ff82169050919050565b611d1681611d00565b8114611d2157600080fd5b50565b600081359050611d3381611d0d565b92915050565b600060208284031215611d4f57611d4e6119bb565b5b6000611d5d84828501611d24565b91505092915050565b600081519050919050565b600082825260208201905092915050565b6000819050602082019050919050565b611d9b81611a48565b82525050565b6000611dad8383611d92565b60208301905092915050565b6000602082019050919050565b6000611dd182611d66565b611ddb8185611d71565b9350611de683611d82565b8060005b83811015611e17578151611dfe8882611da1565b9750611e0983611db9565b925050600181019050611dea565b5085935050505092915050565b60006020820190508181036000830152611e3e8184611dc6565b905092915050565b600060208284031215611e5c57611e5b6119bb565b5b6000611e6a84828501611c4b565b91505092915050565b600081519050919050565b600082825260208201905092915050565b60005b83811015611ead578082015181840152602081019050611e92565b60008484015250505050565b6000601f19601f8301169050919050565b6000611ed582611e73565b611edf8185611e7e565b9350611eef818560208601611e8f565b611ef881611eb9565b840191505092915050565b600081519050919050565b600082825260208201905092915050565b6000611f2a82611f03565b611f348185611f0e565b9350611f44818560208601611e8f565b611f4d81611eb9565b840191505092915050565b600060c082019050611f6d6000830189611c0a565b611f7a6020830188611a5a565b8181036040830152611f8c8187611eca565b90508181036060830152611fa08186611f1f565b9050611faf6080830185611cd6565b611fbc60a0830184611cd6565b979650505050505050565b600060208284031215611fdd57611fdc6119bb565b5b6000611feb84828501611b00565b91505092915050565b7f596f7520617265206e6f7420746865206f776e65720000000000000000000000600082015250565b600061202a601583611e7e565b915061203582611ff4565b602082019050919050565b600060208201905081810360008301526120598161201d565b9050919050565b7f496e76616c696420746172676574206164647265737300000000000000000000600082015250565b6000612096601683611e7e565b91506120a182612060565b602082019050919050565b600060208201905081810360008301526120c581612089565b9050919050565b7f456d7074792066756e6374696f6e206e616d6500000000000000000000000000600082015250565b6000612102601383611e7e565b915061210d826120cc565b602082019050919050565b60006020820190508181036000830152612131816120f5565b9050919050565b7f456d707479206461746100000000000000000000000000000000000000000000600082015250565b600061216e600a83611e7e565b915061217982612138565b602082019050919050565b6000602082019050818103600083015261219d81612161565b9050919050565b7f616c6c7265616479207175657565000000000000000000000000000000000000600082015250565b60006121da600e83611e7e565b91506121e5826121a4565b602082019050919050565b60006020820190508181036000830152612209816121cd565b9050919050565b7f4e487b7100000000000000000000000000000000000000000000000000000000600052604160045260246000fd5b7f4e487b7100000000000000000000000000000000000000000000000000000000600052602260045260246000fd5b6000600282049050600182168061228657607f821691505b6020821081036122995761229861223f565b5b50919050565b60008190508160005260206000209050919050565b60006020601f8301049050919050565b600082821b905092915050565b6000600883026123017fffffffffffffffffffffffffffffffffffffffffffffffffffffffffffffffff826122c4565b61230b86836122c4565b95508019841693508086168417925050509392505050565b6000819050919050565b600061234861234361233e846119c5565b612323565b6119c5565b9050919050565b6000819050919050565b6123628361232d565b61237661236e8261234f565b8484546122d1565b825550505050565b600090565b61238b61237e565b612396818484612359565b505050565b5b818110156123ba576123af600082612383565b60018101905061239c565b5050565b601f8211156123ff576123d08161229f565b6123d9846122b4565b810160208510156123e8578190505b6123fc6123f4856122b4565b83018261239b565b50505b505050565b600082821c905092915050565b600061242260001984600802612404565b1980831691505092915050565b600061243b8383612411565b9150826002028217905092915050565b61245482611e73565b67ffffffffffffffff81111561246d5761246c612210565b5b612477825461226e565b6124828282856123be565b600060209050601f8311600181146124b557600084156124a3578287015190505b6124ad858261242f565b865550612515565b601f1984166124c38661229f565b60005b828110156124eb578489015182556001820191506020850194506020810190506124c6565b868310156125085784890151612504601f891682612411565b8355505b6001600288020188555050505b505050505050565b60008190508160005260206000209050919050565b601f821115612573576125448161251d565b61254d846122b4565b8101602085101561255c578190505b612570612568856122b4565b83018261239b565b50505b505050565b61258182611f03565b67ffffffffffffffff81111561259a57612599612210565b5b6125a4825461226e565b6125af828285612532565b600060209050601f8311600181146125e257600084156125d0578287015190505b6125da858261242f565b865550612642565b601f1984166125f08661251d565b60005b82811015612618578489015182556001820191506020850194506020810190506125f3565b868310156126355784890151612631601f891682612411565b8355505b6001600288020188555050505b505050505050565b82818337600083830152505050565b60006126658385611e7e565b935061267283858461264a565b61267b83611eb9565b840190509392505050565b60006126928385611f0e565b935061269f83858461264a565b6126a883611eb9565b840190509392505050565b600060c0820190506126c8600083018b611a5a565b6126d5602083018a611a5a565b81810360408301526126e881888a612659565b905081810360608301526126fd818688612686565b905061270c6080830185611cd6565b61271960a0830184611c0a565b9998505050505050505050565b7f43616c6c2074686520636f6e73656e7375732066756e6374696f6e0000000000600082015250565b600061275c601b83611e7e565b915061276782612726565b602082019050919050565b6000602082019050818103600083015261278b8161274f565b9050919050565b7f6572726f72206f776e6572732e6c656e677468203c205f636f6e665265710000600082015250565b60006127c8601e83611e7e565b91506127d382612792565b602082019050919050565b600060208201905081810360008301526127f7816127bb565b9050919050565b7f4d696e696d616c20636f6e665265717569726520320000000000000000000000600082015250565b6000612834601583611e7e565b915061283f826127fe565b602082019050919050565b6000602082019050818103600083015261286381612827565b9050919050565b61287381611d00565b82525050565b600060408201905061288e6000830185611cd6565b61289b602083018461286a565b9392505050565b7f4572726f72207a65726f20616464726573730000000000000000000000000000600082015250565b60006128d8601283611e7e565b91506128e3826128a2565b602082019050919050565b60006020820190508181036000830152612907816128cb565b9050919050565b7f6e6f742071756575656421000000000000000000000000000000000000000000600082015250565b6000612944600b83611e7e565b915061294f8261290e565b602082019050919050565b6000602082019050818103600083015261297381612937565b9050919050565b7f616c726561647920636f6e6669726d6564210000000000000000000000000000600082015250565b60006129b0601283611e7e565b91506129bb8261297a565b602082019050919050565b600060208201905081810360008301526129df816129a3565b9050919050565b7f4e487b7100000000000000000000000000000000000000000000000000000000600052601160045260246000fd5b6000612a20826119c5565b91507fffffffffffffffffffffffffffffffffffffffffffffffffffffffffffffffff8203612a5257612a516129e6565b5b600182019050919050565b7f6e6f7420636f6e6669726d656421000000000000000000000000000000000000600082015250565b6000612a93600e83611e7e565b9150612a9e82612a5d565b602082019050919050565b60006020820190508181036000830152612ac281612a86565b9050919050565b6000612ad4826119c5565b915060008203612ae757612ae66129e6565b5b600182039050919050565b7f4e6f646520696e6465782063616e6e6f7420626520686967686572207468616e60008201527f207468656972206e756d62657200000000000000000000000000000000000000602082015250565b6000612b4e602d83611e7e565b9150612b5982612af2565b604082019050919050565b60006020820190508181036000830152612b7d81612b41565b9050919050565b6000612b8f826119c5565b9150612b9a836119c5565b9250828203905081811115612bb257612bb16129e6565b5b92915050565b7f6572726f72206d696e696d616c20636f756e74206f776e657200000000000000600082015250565b6000612bee601983611e7e565b9150612bf982612bb8565b602082019050919050565b60006020820190508181036000830152612c1d81612be1565b9050919050565b7f4e487b7100000000000000000000000000000000000000000000000000000000600052603260045260246000fd5b6000612c5e826119c5565b9150612c69836119c5565b9250828201905080821115612c8157612c806129e6565b5b92915050565b7f4e487b7100000000000000000000000000000000000000000000000000000000600052603160045260246000fd5b60006080820190508181036000830152612cd181888a612659565b9050612ce06020830187611a5a565b8181036040830152612cf3818587612686565b9050612d026060830184611cd6565b979650505050505050565b7f6e6f742071756575656400000000000000000000000000000000000000000000600082015250565b6000612d43600a83611e7e565b9150612d4e82612d0d565b602082019050919050565b60006020820190508181036000830152612d7281612d36565b9050919050565b7f477261636520706572696f64206661696c656400000000000000000000000000600082015250565b6000612daf601383611e7e565b9150612dba82612d79565b602082019050919050565b60006020820190508181036000830152612dde81612da2565b9050919050565b7f4572726f722074696d657374616d700000000000000000000000000000000000600082015250565b6000612e1b600f83611e7e565b9150612e2682612de5565b602082019050919050565b60006020820190508181036000830152612e4a81612e0e565b9050919050565b7f6e6f7420656e6f75676820636f6e6669726d6174696f6e732000000000000000600082015250565b6000612e87601983611e7e565b9150612e9282612e51565b602082019050919050565b60006020820190508181036000830152612eb681612e7a565b9050919050565b600081905092915050565b60008190508160005260206000209050919050565b60008154612eea8161226e565b612ef48186612ebd565b94506001821660008114612f0f5760018114612f2457612f57565b60ff1983168652811515820286019350612f57565b612f2d85612ec8565b60005b83811015612f4f57815481890152600182019150602081019050612f30565b838801955050505b50505092915050565b6000612f6c8284612edd565b915081905092915050565b60007fffffffff0000000000000000000000000000000000000000000000000000000082169050919050565b6000819050919050565b612fbe612fb982612f77565b612fa3565b82525050565b60008154612fd18161226e565b612fdb8186612ebd565b94506001821660008114612ff6576001811461300b5761303e565b60ff198316865281151582028601935061303e565b6130148561251d565b60005b8381101561303657815481890152600182019150602081019050613017565b838801955050505b50505092915050565b60006130538285612fad565b6004820191506130638284612fc4565b91508190509392505050565b600061307a82611f03565b6130848185612ebd565b9350613094818560208601611e8f565b80840191505092915050565b60006130ac828461306f565b915081905092915050565b7f7478206572726f72000000000000000000000000000000000000000000000000600082015250565b60006130ed600883611e7e565b91506130f8826130b7565b602082019050919050565b6000602082019050818103600083015261311c816130e0565b9050919050565b600081546131308161226e565b61313a8186611e7e565b94506001821660008114613155576001811461316b5761319e565b60ff19831686528115156020028601935061319e565b6131748561229f565b60005b8381101561319657815481890152600182019150602081019050613177565b808801955050505b50505092915050565b600060a0820190506131bc6000830188611a5a565b6131c96020830187611c0a565b6131d66040830186611cd6565b6131e36060830185611a5a565b81810360808301526131f58184613123565b9050969550505050505056fea264697066735822122083eaefd06afc932e46607540df28c50ca9240c23cffc15f5d1548f503c6d76ef64736f6c634300081c0033a2646970667358221220b26a9350f4ed01c6fdcf8ac0f0f5db9a1aaefccc20969453e1da2748e202e26e64736f6c634300081c0033",
  "linkReferences": {},
  "deployedLinkReferences": {}
}